:020000040800F2
:10000000EC0F0020D1130008B51300080000000019
:10001000B5130008B5130008B5130008B5130008A0
:10002000B5130008B5130008B5130008B513000890
:10003000B5130008B5130008B513000875060008CD
:10004000B5130008B5130008B5130008B513000870
:10005000B5130008B5130008B5130008B513000860
:10006000B5130008B5130008B5130008B513000850
:10007000B5130008B5130008B5130008B513000840
:10008000B5130008B5130008B5130008B513000830
:10009000B5130008B5130008B5130008B513000820
:1000A000B5130008B5130008B5130008B513000810
:1000B000B5130008B5130008B5130008B513000800
:1000C000B5130008B5130008B5130008B5130008F0
:1000D000B5130008B5130008B5130008B5130008E0
:1000E000B5130008B5130008B5130008B5130008D0
:1000F000B5130008B5130008B5130008B5130008C0
:10010000B5130008B5130008B5130008B5130008AF
:10011000B5130008B5130008B5130008B51300089F
:10012000B5130008B5130008B5130008B51300088F
:10013000B5130008B513000800000000B51300084F
:10014000B5130008B5130008B5130008B51300086F
:04015000B5130008DB
:1001540010B5054C237833B9044B13B10448AFF3FD
:1001640000800123237010BD3C000020000000002B
:1001740054010008064B10B51BB106480649AFF3FD
:1001840000800648036813B1054B03B1984710BDBE
:100194000000000054010008400000203C00002042
:1001A4000000000046F68003C0F600031A6848F217
:1001B4001F53C5F2EB13A3FB02134FEA5313B3F11E
:1001C400807F16D223F07F4303F1FF334EF21002F7
:1001D400CEF2000253604EF60053CEF200036FF0ED
:1001E4000F0183F823104FF0000393604FF00703CF
:1001F40013604EF60053CEF200034FF0000283F872
:1002040023207047704700BF72B6FEE710B5FFF7B2
:10021400FBFF10BD82B04FF000030193019B03F17B
:10022400FF320192002BF9D102B07047704700BF32
:100234004EF21003CEF200031B6813F4803F0CD17E
:100244004EF21003CEF200039A6840F63823C2F24D
:1002540000031868C2EB000011E04EF21003CEF266
:100264000003996840F63C22C2F2000240F63823AB
:10027400C2F2000310681B681844C1EB0000704709
:1002840070B54FF6FF7544F20044C4F2000406E072
:10029400238813F0800FFBD000F0FF00A08006F04D
:1002A4005DF8A842F4D170BDF0B589B040F25800B1
:1002B400C2F200004FF4006104F0B8FC4FF40030C7
:1002C4004FF0010102F0A8FD4FF005004FF00101CD
:1002D40002F08EFD4FF008004FF0010102F08EFA9B
:1002E4004FF02007ADF81C704FF003038DF81E305B
:1002F4004FF018068DF81F6041F20044C4F2010467
:1003040007AD2046294602F0CBF94FF04003ADF883
:100314001C304FF004038DF81F302046294602F0AC
:10032400BFF94FF4E13303934FF00004ADF81040EC
:10033400ADF81240ADF81440ADF818404FF0080184
:10034400ADF8161044F20045C4F20005284603A98E
:1003540003F090F9ADF80440ADF806404FF4007393
:10036400ADF80830ADF80A40284601A903F026F894
:1003740028464FF0010103F041F846F68003C0F629
:1003840000031A6848F21F53C5F2EB13A3FB0213D0
:100394004FEA531240F63C23C2F200031A6040F6BF
:1003A4003823C2F200031A604FF0FF0004F04AFC45
:1003B4004FF00A0004F068FC4FF00B0004F064FCFA
:1003C4004FF00C0004F060FC4FF00D0004F05CFCF6
:1003D4004FF00E0004F058FC4FF00F0004F054FCF2
:1003E4004FF0100004F050FC4FF0110004F04CFCEE
:1003F4004FF0120004F048FC4FF0130004F044FCEA
:100404004FF0140004F040FC4FF0150004F03CFCE5
:100414004FF0160004F038FC4FF0170004F034FCE1
:10042400304604F031FC4FF0190004F02DFC4FF07D
:100434001A0004F029FC4FF01C0004F025FC4FF0D6
:100444001D0004F021FC4FF01E0004F01DFC384692
:1004540004F01AFC4FF0210004F016FC4FF02200C7
:1004640004F012FC4FF0230004F00EFC4FF02400C3
:1004740004F00AFC4FF0250004F006FC4FF02700BE
:1004840004F002FC4FF0280004F0FEFB4FF02900BA
:1004940004F0FAFB4FF02A0004F0F6FB4FF03400AE
:1004A40004F0F2FB4FF0010009B0F0BD70B5044652
:1004B4000D4600EB40014FEA011101F1500189B2F0
:1004C4002A784FF0780001F01BFD40F6A033C2F209
:1004D40000031B7A13F0400F21D040F6DC33C2F244
:1004E40000031A683AB146F2F473C0F6000353F8F5
:1004F40024309A4213D172B64FF0460004F0E6FB62
:10050400FFF796FE05F05AFC4FF01100214604F067
:10051400A9FD284605F052FF04F0E6FC62B670BD62
:1005240010B54FF0030001F053F84FF0030001F051
:100534005DF844F20043C4F200031B8813F0800FFB
:100544000CD005F00BFF4FF6FF7398421FBF00F06D
:10055400FF0044F20043C4F20003988062B610BD69
:1005640010B500F07DFF4FF0000001F05FF84FF090
:10057400010001F05BF84FF0020001F057F84FF072
:10058400030001F053F801F0CBFE4FF6FF7001F0C9
:10059400FFFC4FF2DE7001F04DF94FF0000001F066
:1005A4003BF947F64852C0F600024FF000000146FE
:1005B40001F0BAFC47F66052C0F600024FF0180092
:1005C4004FF0000101F0B0FC47F67852C0F600028B
:1005D4004FF030004FF0000101F0A6FC03F0DEF90B
:1005E40002464FF030004FF0E00101F09DFC4FF661
:1005F400FF7001F01FF947F69052C0F600024FF069
:1006040078004FF0000101F08FFC4FF0000001F082
:1006140011F94FF6E07001F0FFF847F69852C0F672
:1006240000024FF0D8004FF0000101F07DFC4FF0C4
:100634001F0001F0FFF84FF6FF7001F0EDF847F6E8
:10064400B052C0F600024FF078004FF0400101F0C4
:100654006BFC4FF00000FFF727FE38B946F26860E4
:10066400C0F600004FF06001FFF7CEFD10BD00BFE3
:10067400684620F007018D4601B54EF21003CEF214
:1006840000031B6840F63823C2F2000340F63C2204
:10069400C2F2000211681A680A441A6003F036FBB9
:1006A400BDE80140854670472DE9F04585B000F06E
:1006B40031F900F055FCFFF753FF03F009FD4FF04B
:1006C400FF0004F0BFFA4FF0270004F0DDFA4FF00A
:1006D400280004F0D9FA4FF0290004F0D5FA4FF0BD
:1006E4002A0004F0D1FA4FF01F0004F0CDFA4FF0C5
:1006F400340004F0C9FA40F6A033C2F20003DB79F7
:1007040013F0200F00F0A78072B64FF03D0004F004
:10071400DDFA40F65800C2F2000005F04FFB46F245
:100724007060C0F6000005F0BBFD04F0DDFB62B6AE
:10073400FFF7A6FD40F6A033C2F20003DB7913F005
:10074400200F00F0888072B64FF03D0004F0BEFA2E
:10075400644805F033FB644805F0A2FD04F0C4FBD3
:1007640062B6FFF78DFD40F6A033C2F20003DB79D9
:1007740013F0200F6FD072B64FF03D0004F0A6FACC
:100784005A4805F01BFB5A4805F08AFD04F0ACFBFF
:1007940062B6FFF775FD40F6A033C2F20003DB79C1
:1007A40013F0200F57D072B64FF03D0004F08EFACC
:1007B400504805F003FB504805F072FD04F094FB2B
:1007C40062B6FFF75DFD40F6A033C2F20003DB79A9
:1007D40013F0200F3FD072B64FF03D0004F076FACC
:1007E400464805F0EBFA464805F05AFD04F07CFB58
:1007F40062B6FFF745FD40F6A033C2F20003DB7991
:1008040013F0200F27D072B64FF03D0004F05EFACB
:100814003C4805F0D3FA3C4805F042FD04F064FB83
:1008240062B6FFF72DFD40F6A033C2F20003DB7978
:1008340013F0200F0FD072B64FF03D0004F046FACB
:10084400324805F0BBFA324805F02AFD04F04CFBAF
:1008540062B6FFF715FD40F65806C2F2000606F12F
:10086400A0004FF0070103F0C7F930464FF028010C
:100874004FF0040203F078F906F13C064FF000054E
:100884002C4646F2F478C0F600082F464FF0050ACD
:1008940004F10104E4B258F80500009701970297A7
:1008A40021463246534603F019FC05F1040506F1CE
:1008B4001406052CECD146F67803C0F6000318683C
:1008C4004FF000040094019402944FF00601054A8D
:1008D4004FF0050303F002FC03F02EFC204605B0A4
:1008E400BDE8F08580080020806600089408002098
:1008F40090660008A8080020A4660008BC08002030
:10090400B8660008D0080020CC660008E40800207F
:10091400E06600082DE9F04140F63014C2F200040C
:1009240004F1DC0740F651163546C0F600054FF0D9
:100934000908204640F8185B414603F057FB04F1D0
:100944002C04BC42F5D1BDE8F08100BF70B504466B
:1009540040F63013C2F2000393F8DC30002B40F071
:100964006F8140F6A033C2F20003DB7913F0200F4D
:1009740000F0F28072B64FF03D0004F0A7F940F6A3
:100984003010C2F2000005F019FA46F2F460C0F625
:10099400000005F085FC04F0A7FA62B6FFF770FCCE
:1009A40040F6A033C2F20003DB7913F0200F00F00D
:1009B400D38072B64FF03D0004F088F9C34805F0C7
:1009C400FDF9C34805F06CFC04F08EFA62B6FFF73B
:1009D40057FC40F6A033C2F20003DB7913F0200F7A
:1009E40000F0BA8072B64FF03D0004F06FF9B948D8
:1009F40005F0E4F9B84805F053FC04F075FA62B662
:100A0400FFF73EFC40F6A033C2F20003DB7913F09B
:100A1400200F00F0A18072B64FF03D0004F056F9AB
:100A2400AE4805F0CBF9AE4805F03AFC04F05CFAA8
:100A340062B6FFF725FC40F6A033C2F20003DB796F
:100A440013F0200F00F0888072B64FF03D0004F0E0
:100A54003DF9A44805F0B2F9A34805F021FC04F0DF
:100A640043FA62B6FFF70CFC40F6A033C2F200036F
:100A7400DB7913F0200F6FD072B64FF03D0004F015
:100A840025F99A4805F09AF9994805F009FC04F00B
:100A94002BFA62B6FFF7F4FB40F6A033C2F2000370
:100AA400DB7913F0200F57D072B64FF03D0004F0FD
:100AB4000DF9904805F082F98F4805F0F1FB04F038
:100AC40013FA62B6FFF7DCFB40F6A033C2F2000370
:100AD400DB7913F0200F3FD072B64FF03D0004F0E5
:100AE400F5F8864805F06AF9854805F0D9FB04F065
:100AF400FBF962B6FFF7C4FB40F6A033C2F2000371
:100B0400DB7913F0200F27D072B64FF03D0004F0CC
:100B1400DDF87C4805F052F97B4805F0C1FB04F090
:100B2400E3F962B6FFF7ACFB40F6A033C2F2000370
:100B3400DB7913F0200F0FD072B64FF03D0004F0B4
:100B4400C5F8724805F03AF9714805F0A9FB04F0BC
:100B5400CBF962B6FFF794FB40F6A033C2F2000370
:100B6400DB7913F0400F63D072B64FF03E0004F00F
:100B7400ADF840F65110C0F6000005F01FF96548C5
:100B840005F08EFB04F0B0F962B6FFF779FB40F68E
:100B9400A033C2F20003DB7913F0400F48D072B6E1
:100BA4004FF03E0004F092F840F6F950C0F6000011
:100BB40005F004F9584805F073FB04F095F962B6A2
:100BC400FFF75EFB40F6A033C2F20003DB7913F0BB
:100BD400400F2DD072B64FF03E0004F077F840F687
:100BE4008D60C0F6000005F0E9F84C4805F058FBAC
:100BF40004F07AF962B6FFF743FB40F6A033C2F281
:100C04000003DB7913F0400F12D072B64FF03E00B0
:100C140004F05CF840F63150C0F6000005F0CEF860
:100C24003F4805F03DFB04F05FF962B6FFF728FB8F
:100C340040F63013C2F200034FF0010283F8DC20C7
:100C440040F6A033C2F20003DB7913F0100F30D06A
:100C540072B64FF03C0004F039F84FF0080004F08D
:100C640025FF2546204605F0A9F82E4805F018FB77
:100C740004F03AF962B6FFF703FB40F6A033C2F280
:100C84000003DB7913F0100F13D072B64FF03C0061
:100C940004F01CF84FF0090004F008FF204605F0AA
:100CA4008DF8214805F0FCFA04F01EF962B6FFF74E
:100CB400E7FA20464FF0040102F00EFE40F6F95325
:100CC400C0F6000323604FF0020070BD4809002005
:100CD400006700085C0900201467000874090020FC
:100CE400206700088809002034670008A009002054
:100CF40040670008B409002054670008CC090020AC
:100D040060670008E009002074670008F809002003
:100D14008067000894670008A4670008B4670008A7
:100D2400C4670008D4670008E067000870B504468B
:100D34000B7803F1FF33082B52D8DFE803F00511D9
:100D44005135355151512B004FF00005458500F1C7
:100D5400180021464FF0130203F060F9284646E0DC
:100D64004FF003004FF0050102F0A0FE40F63013EF
:100D7400C2F20003C3EB04044FEAA40448F6A3330D
:100D8400CBF62E2303FB04F3837002F041FF4FF0F4
:100D940000002CE0FFF73EFA40F6F953C0F60003DA
:100DA40023604FF0020022E040F63013C2F2000349
:100DB400C3EB00044FEAA40448F6A333CBF62E2376
:100DC40003FB04F38A78DBB29A4218BF00200ED1E9
:100DD40007484FF0AA01FFF717FA4FF0000006E0AA
:100DE40044F61D43C0F6000303604FF0030070BDDA
:100DF400EC67000870B504460B7803F1FF33082B49
:100E040038D8DFE803F00537371B1B3737371100B5
:100E14004FF00005458500F1180021464FF01702F8
:100E240003F0FCF828462CE0FFF7F4F940F68D6354
:100E3400C0F6000323604FF0020022E040F63013B6
:100E4400C2F20003C3EB00044FEAA40448F6A33340
:100E5400CBF62E2303FB04F38A78DBB29A4218BF45
:100E640000200ED107484FF07801FFF7CDF94FF07D
:100E7400000006E044F61D43C0F6000303604FF093
:100E8400030070BDEC67000810B504460B78042B12
:100E940023D0052B3DD0012B57D14FF003004FF049
:100EA400080102F003FE014640F63013C2F20003CB
:100EB400C3EB04044FEAA40448F6A333CBF62E2371
:100EC40003FB04F3837046F67803C0F60003186846
:100ED40002F08CFC4FF000003EE040F63013C2F20A
:100EE4000003C3EB00034FEAA30248F6A333CBF697
:100EF4002E2303FB02F38A78DBB29A4225D1FFF753
:100F040089F940F63153C0F6000323604FF0020024
:100F140022E040F63013C2F20003C3EB00044FEAB0
:100F2400A40448F6A333CBF62E2303FB04F38A78F8
:100F3400DBB29A4218BF00200ED108484FF090014E
:100F4400FFF762F94FF0000006E044F61D43C0F6D7
:100F5400000323604FF0030010BD00BFEC670008DE
:100F640040F61023C2F2000340F68D72C0F6000270
:100F74001A6003F105014FF000021A765A7703F163
:100F840001038B42F9D1704710B5044640F6A033F3
:100F9400C2F20003DB7913F0200F15D072B64FF0C4
:100FA4003D0003F093FE40F61020C2F2000004F06E
:100FB40005FF46F60800C0F6000005F071F903F0DD
:100FC40093FF62B6FFF75CF940F6A033C2F2000368
:100FD400DB7913F0400F48D072B64FF03E0003F0B7
:100FE40075FE44F61D40C0F6000004F0E7FE6148BB
:100FF40005F056F903F078FF62B6FFF741F940F6C1
:10100400A033C2F20003DB7913F0400F2DD072B687
:101014004FF03E0003F05AFE40F68D70C0F600001B
:1010240004F0CCFE544805F03BF903F05DFF62B6D2
:10103400FFF726F940F6A033C2F20003DB7913F080
:10104400400F12D072B64FF03E0003F03FFE41F263
:101054009510C0F6000004F0B1FE484805F020F9F0
:1010640003F042FF62B6FFF70BF940F6A033C2F279
:101074000003DB7913F0100F6AD072B64FF03C0016
:1010840003F024FE4FF0050004F010FD4FF00000C3
:1010940004F094FE3A4805F003F903F025FF62B624
:1010A400FFF7EEF840F6A033C2F20003DB7913F049
:1010B400100F4DD072B64FF03C0003F007FE4FF016
:1010C400040004F0F3FC4FF0000004F077FE2D4818
:1010D40005F0E6F803F008FF62B6FFF7D1F840F632
:1010E400A033C2F20003DB7913F0100F30D072B6D4
:1010F4004FF03C0003F0EAFD4FF0060004F0D6FC8C
:101104004FF0000004F05AFE1F4805F0C9F803F040
:10111400EBFE62B6FFF7B4F840F6A033C2F2000368
:10112400DB7913F0100F13D072B64FF03C0003F0CC
:10113400CDFD4FF0080004F0B9FC204604F03EFE5B
:10114400124805F0ADF803F0CFFE62B6FFF798F849
:1011540020464FF0050102F0BFFB20464FF0060188
:1011640002F0BAFB41F29513C0F6000323604FF07E
:10117400020010BD146800082068000830680008E8
:10118400406800084C680008546800086468000857
:101194002DE9F04104460D460B78062B00F0F4804F
:1011A400082B03D0052B40F0F4804DE0FFF732F814
:1011B400AD78042D03D804EB05035B7F23B17B4892
:1011C4004FF06001FFF720F847F6C451C0F6000164
:1011D4002846FFF76BF9294605F1010246F26763D9
:1011E400C6F2666383FB02034FEA630303EB8303E4
:1011F400C3EB0202D2B204EB02031B7EEBB904EB95
:1012040005031B7ECBB904EB05014FF001030B76FC
:10121400224413764FF003004FF0040102F046FC21
:10122400857002F0F5FC47F6D051C0F6000128465F
:10123400FFF73CF94FF00000B5E00C444FF0010318
:1012440063774FF00000AEE0FEF7E4FFAD78042DC5
:1012540003D804EB05035B7F23B154484FF07401BA
:10126400FEF7D2FF47F6DC51C0F600012846FFF72F
:101274001DF905F1010246F26763C6F2666383FB5A
:1012840002134FEA630303EB8303C3EB0206F6B2D4
:1012940004EB05031B7E012B04D104EB06031B7E28
:1012A400012B04D041484FF07901FEF7ADFFB04661
:1012B40004EB05024FF00003137604EB06021376E9
:1012C40005F1040246F26763C6F2666383FB020318
:1012D4004FEA630303EB8303C3EB0207FFB204EBA0
:1012E40007035B7FEBB104EB07031B7ECBB904EB75
:1012F40007024FF00103137625442B764FF00003C9
:1013040053774FF003004FF0040102F0CFFB8770D6
:1013140002F07EFC47F6D051C0F600013846FFF7D4
:10132400C5F804EB08035B7F002B3AD008F10102F7
:1013340046F26763C6F2666383FB02034FEA630304
:1013440003EB8303C3EB0202D2B204EB02031B7E62
:101354003BBB22444FF001031376444423764FF001
:10136400000565774FF003004FF0040102F09EFB87
:10137400867002F04DFC47F6D051C0F600013046AD
:10138400FFF794F828460EE002F00EFF4FF000003D
:1013940009E044F61D43C0F6000303604FF0030068
:1013A40001E04FF00000BDE8F08100BF7068000864
:1013B400684620F007018D4601B5034840F25111FB
:1013C400FEF724FFFEE700BFE87D0008684620F032
:1013D40007018D4601B51E4B1E4A9A4216D24FF0A4
:1013E400000340F20002C2F2000247F6386CC0F675
:1013F400000C40F23C00C2F200005CF80310D15033
:1014040003F1040302EB03018142F6D3124B134AA6
:101414009A420DD240F23C03C2F200034FF00001A5
:1014240040F6EC32C2F2000243F8041B9342FBD3B1
:1014340005F0F4F8FFF738F947F6E850C0F6000075
:101444004FF4A671FEF7E2FEBDE801408546704701
:101454003C00002000000020EC0B00203C00002099
:1014640082B041F20003C4F202031A6842F001029E
:101474001A60596840F20002CFF2FF0201EA020248
:101484005A601A6822F0847222F480321A601A6850
:1014940022F480221A605A6822F4FE025A601A6802
:1014A40022F0A0521A604FF47F029A60A2F57F02E4
:1014B400DA62019200921A6842F480321A6041F2B0
:1014C4000003C4F202031A6802F400320092019A83
:1014D40002F101020192009A1AB9019AB2F5A06FC1
:1014E400F1D141F20003C4F202031B6813F4003F7C
:1014F40019BF0123009300230093009B012B63D1A8
:1015040042F20003C4F202031A6842F010021A60A5
:101514001A6822F003021A601A6842F002021A6082
:1015240041F20003C4F202035A685A605A685A60CE
:101534005A6842F480625A60D96A4FF20002CFF6C8
:10154400FE7201EA0202DA62DA6A42F4823242F498
:101554001172DA621A6842F080621A6041F2000382
:10156400C4F202031A6812F0006FFBD041F20003C8
:10157400C4F202035A6822F47C125A605A6842F494
:10158400E8125A601A6842F080721A6041F200034D
:10159400C4F202031A6812F0007FFBD041F2000388
:1015A400C4F202035A6822F003025A605A6842F0F5
:1015B40002025A6041F20003C4F202035A6802F0C4
:1015C4000C02082AFAD100E0FEE702B0704700BF1F
:1015D40040F20003C2F2000353F8202046F69003C1
:1015E400C0F6000333F810301361704740F2000373
:1015F400C2F2000353F8202046F69003C0F600031D
:1016040033F810305361704740F20003C2F2000314
:1016140053F82020D16846F69003C0F6000333F84F
:10162400103083EA0103D360704700BF30B583B044
:10163400054646F69004C0F6000404EB800398685F
:101644004FF0010101F0D4FB34F81540ADF804402B
:101654004FF010038DF807304FF003038DF8063078
:1016640040F20003C2F2000353F8250001A901F07F
:1016740017F803B030BD00BFF0B583B00F46044681
:1016840046F69003C0F6000303EB8003986940F02C
:1016940001004FF0010101F0ABFB84B94FF00800E9
:1016A4004FF0010101F0AAF846F69003C0F60003DA
:1016B40003EB8403D8694FF0010101F0ADFB46F65A
:1016C4009005C0F6000505EB44052B8CADF80430FD
:1016D4004FF018038DF807304FF003038DF80630F0
:1016E40040F20003C2F2000303EB8404206901AE5C
:1016F400314600F0D5FFAD8CADF804504FF0040333
:101704008DF807302069314600F0CAFF6069394618
:1017140001F0B0FF60694FF0010101F06FFE03B00A
:10172400F0BD00BF10B540F20002C2F2000202EBAD
:101734008002926946F69003C0F6000303EB40036F
:10174400198D104601F01AF810BD00BF2DE9F041C3
:1017540084B005460F46804646F69004C0F6000461
:101764004FEA800604EB0603186B40F001004FF0CB
:10177400010101F03DFB04EB4504248DADF80C4060
:101784004FF004038DF80F3040F20003C2F200035F
:101794001E44B06903A900F083FF012F38D146F637
:1017A4009004C0F6000404EB450494F83C0094F85B
:1017B400441001F05FF8B4F84C3001934FF000038B
:1017C4008DF8083025B14FF00C038DF8093003E093
:1017D4004FF008038DF809304FF001048DF80A40EA
:1017E40001A800F0D3FE46F69003C0F6000303EB15
:1017F4004808B8F854308DF800304FF00F038DF8D6
:1018040001308DF802308DF80340684600F036FE52
:1018140004B0BDE8F08100BF82B0ADF80600BDF8A9
:10182400062092B240F63423C2F200031A8002B0BA
:10183400704700BF82B0ADF80600BDF8062092B232
:1018440040F22403C2F200031A8002B0704700BFC2
:1018540084B001904FF000030393019A48F2A0630F
:10186400C0F2010303FB02F30393039B33B1039B15
:1018740003F1FF330393039B002BF8D104B07047AB
:1018840000B583B04FF008004FF0010101F0B0FA49
:101894004FF00403ADF804304FF003038DF8063025
:1018A4004FF010038DF8073040F60040C4F20100F9
:1018B40001A900F0F5FE03B000BD00BF30B587B04C
:1018C4004FF011004FF0010101F092FA41F20000D3
:1018D400C0F220004FF0010100F090FF4FF40040EF
:1018E4004FF0010101F098FA4FF4E052ADF80020F6
:1018F4004FF003038DF802304FF018038DF80330D6
:1019040041F20000C4F20100694600F0C9FE43F64A
:101914000044C4F20004204601F008FD4FF0000327
:10192400ADF804304FF48272ADF80620ADF80830FB
:101934004FF00202ADF80A204FF00105ADF80C504B
:101944004FF40072ADF80E20ADF81030ADF812303F
:10195400204601A901F01CFB2046294601F062FB48
:1019640007B030BD10B500F021FF10BD70B50646BC
:1019740043F60040C4F200004FEA162101F094FB44
:1019840043F60045C4F200054FF080042846214682
:1019940001F0F4FB0028F9D143F60040C4F2000042
:1019A400F1B201F081FB43F60045C4F200054FF0AB
:1019B40080042846214601F0E1FB0028F9D170BDDE
:1019C40070B5044640F60040C4F201004FF0040133
:1019D4004FF00002FFF7C6FF43F60040C4F20000D8
:1019E400214601F061FB43F60045C4F200054FF0C7
:1019F40080042846214601F0C1FB0028F9D170BDBE
:101A040070B506464FF07000FFF7DAFF43F600406A
:101A1400C4F200004FF0000101F046FB43F600451C
:101A2400C4F200054FF080042846214601F0A6FBCD
:101A34000028F9D143F60040C4F20000314601F019
:101A440033FB43F60045C4F200054FF080042846FA
:101A5400214601F093FB0028F9D140F60040C4F27E
:101A640001004FF004014FF00102FFF77BFF70BD4E
:101A740010B54FF02200FFF7C3FF4FF07200FFF7DD
:101A84009FFF10BD10B50446FFF7F2FF2046FFF795
:101A94006DFF40F60040C4F201004FF004014FF026
:101AA4000102FFF75FFF10BD70B50E46FFF7A8FFF8
:101AB4004FF07200FFF784FF43F60040C4F20000C9
:101AC4004FEA162101F0F0FA43F60045C4F200058E
:101AD4004FF080042846214601F050FB0028F9D13C
:101AE40043F60040C4F20000F1B201F0DDFA43F61F
:101AF4000045C4F200054FF080042846214601F059
:101B04003DFB0028F9D140F60040C4F201004FF03B
:101B140004014FF00102FFF725FF70BD10B54FF02F
:101B240007004FF00001FFF7BFFF10BD10B54FF0E5
:101B3400070040F27311FFF7B7FF10BD10B54FF067
:101B440010004FF00001FFF7AFFF4FF011004FF00E
:101B54000001FFF7A9FF4FF012004FF00001FFF75B
:101B6400A3FF4FF013004FF00001FFF79DFF4FF06C
:101B74001400FFF76DFE4FF0100041F2B071FFF753
:101B840093FF4FF0110040F23711FFF78DFF4FF034
:101B94000500FFF75DFE4FF0120040F23911FFF728
:101BA40083FF4FF00500FFF753FE4FF013004FF48F
:101BB400E851FFF779FF4FF029004FF01301FFF7C9
:101BC40073FF4FF00500FFF743FE4FF0070040F2AC
:101BD4007311FFF769FF10BD10B503460C464FF0B3
:101BE40020001946FFF760FF4FF021002146FFF760
:101BF4005BFF10BD2DE9F04F85B0029003914FEAD1
:101C04004203C3F10303019315460E460F46804673
:101C140082464FF0000940F63424C2F200041FFA51
:101C240085FB039A0BEB02039BB2009350461946C3
:101C3400FFF7D2FF208880B2FFF724FF039BCBEB92
:101C4400030B1FFA8BFB50465946FFF7C5FF20884C
:101C540080B2FFF717FF40460099FFF7BDFF2088C9
:101C640080B2FFF70FFF40465946FFF7B5FF2088C3
:101C740080B2FFF707FFEAB20092029B02EB030B6C
:101C84005FFA8BFB58463946FFF7A6FF208880B2DF
:101C9400FFF7F8FE58463146FFF79EFF208880B2D2
:101CA400FFF7F0FE029A009BC3EB020B5FFA8BFB7B
:101CB40058463946FFF790FF208880B2FFF7E2FECE
:101CC40058463146FFF788FF208880B2FFF7DAFED6
:101CD400019A002ABDBF02EB890306330193019ADE
:101CE400A1BF02F10A03C5EB090203EB82020192D0
:101CF400A8BF05F1FF3509F101090AF1010A5FFAEC
:101D04008AFA08F1FF385FFA88F807F10107BFB2D1
:101D140006F1FF36B6B24D4581D205B0BDE8F08F6D
:101D24002DE9F04706464FF0000040F23F11FFF75F
:101D340053FFFFF79DFE4FF00005A9464FF0010742
:101D4400DFF85480DFF854A018E007FA04F273595E
:101D54001A4205D1BAF8000080B2FFF707FE04E08A
:101D6400B8F8000080B2FFF701FE04F10104202C52
:101D7400EBD105F10405B5F5165F01D04C46E4E757
:101D840040F60040C4F201004FF004014FF001029C
:101D9400FFF7E8FDBDE8F087340A002024000020A6
:101DA4002DE9F04104460E4690461D46FFF714FF08
:101DB40025B14746B8F1000F1FD134E0FFF758FEB4
:101DC4004546B8F1000F0DD04FF0000440F634261C
:101DD400C2F20006308880B2FFF7C8FD04F10104A6
:101DE400AC42F7D340F60040C4F201004FF00401C6
:101DF4004FF00102FFF7B6FD15E04FF0000540F685
:101E04003428C2F20008B8F8000080B2FFF73AFEA6
:101E140004F10104E4B220463146FFF7DDFE05F18A
:101E24000105BD42EFD3BDE8F08100BF2DE9F041CB
:101E340004460D4617461E461A464FF00003FFF7A8
:101E4400AFFF07EB0400C0B2294632464FF000034F
:101E5400FFF7A6FF204629463A464FF00103FFF755
:101E64009FFF05F10105C6EB0506B1B220463A46CF
:101E74004FF00103FFF794FFBDE8F0812DE9F84F1F
:101E840082468B461646FFF7A7FE4FF0000540F644
:101E94003427C2F20007DFF8648040F60049C4F238
:101EA4000109FFF7E5FD4FF00004735B43FA04F307
:101EB40013F0010F05D1B8F8000080B2FFF756FD0A
:101EC40003E0388880B2FFF751FD04F10104102CBF
:101ED400EBD148464FF004014FF00102FFF742FDF9
:101EE4000AF1010A5FFA8AFA50465946FFF774FE6E
:101EF40005F10205302DD4D1BDE8F88F240000206F
:101F040010B5C1F59E7101F1030189B246F6EC03E7
:101F1400C0F60003A2F12002D2B202EB420203EBAC
:101F24000212FFF7ABFF10BD2DE9F04106460C4647
:101F340015461278B1F5A07F2CBF00230123002A97
:101F44000CBF002303F00103ABB140F23F1730464E
:101F54002146FFF7D5FF04F11004A4B215F8012FB0
:101F6400BC428CBF00230123002A0CBF002303F0D2
:101F74000103002BEBD1BDE8F08100BF10B547F69B
:101F84000062C0F600024FF00001FFF7CDFF10BD64
:101F940070B505464FF0000040F23F11FFF71CFEFC
:101FA400FFF766FD4FF000042846FFF7DFFC04F15D
:101FB4000104B4F5963FF7D140F60040C4F20100A5
:101FC4004FF004014FF00102FFF7CCFC70BD00BFDD
:101FD40070B504460D461E46904209D300F1010136
:101FE400C2EB010291B24FF05000FFF75DFD05E036
:101FF4004FF050004FF00001FFF756FD4FF0510035
:102004002146FFF751FDB54209D305F10101C6EBA5
:102014000106B1B24FF05200FFF746FD05E04FF064
:1020240052004FF00001FFF73FFD4FF053002946E7
:10203400FFF73AFD20462946FFF7CEFD70BD00BFED
:1020440010B54FF0EF0040F23F114FF0F0024FF4A3
:10205400A073FFF7BDFF4FF0030041F21801FFF733
:1020640023FD10BD10B5FFF70BFCFFF727FC4FF065
:102074000500FFF7EDFB4FF0E5004FF40041FFF7DB
:1020840013FD4FF000004FF00101FFF70DFD4FF07D
:1020940001004FF48071FFF707FD4FF002004FF489
:1020A400E061FFF701FD4FF0030041F23001FFF75B
:1020B400FBFC4FF004004FF00001FFF7F5FC4FF07C
:1020C400080040F20221FFF7EFFC4FF009004FF047
:1020D4000001FFF7E9FC4FF00A004FF00001FFF7A1
:1020E400E3FC4FF00C004FF00001FFF7DDFC4FF074
:1020F4000D004FF00001FFF7D7FC4FF00F004FF039
:102104000001FFF7D1FC4FF010004FF00001FFF782
:10211400CBFC4FF011004FF00001FFF7C5FC4FF06E
:1021240012004FF00001FFF7BFFC4FF013004FF017
:102134000001FFF7B9FC4FF01400FFF789FB4FF0E3
:10214400100041F2B071FFF7AFFC4FF0110040F204
:102154003711FFF7A9FC4FF00500FFF779FB4FF0AB
:10216400120040F23911FFF79FFC4FF00500FFF712
:102174006FFB4FF013004FF4E851FFF795FC4FF05D
:1021840029004FF01301FFF78FFC4FF00500FFF714
:102194005FFB4FF020004FF00001FFF785FC4FF08C
:1021A40021004FF00001FFF77FFC4FF030004FF0AB
:1021B4000601FFF779FC4FF0310040F20111FFF7FF
:1021C40073FC4FF032004FF00301FFF76DFC4FF04A
:1021D40035004FF48371FFF767FC4FF0360040F68B
:1021E4000231FFF761FC4FF0370040F20231FFF794
:1021F4005BFC4FF0380040F20771FFF755FC4FF0DD
:1022040039004FF00701FFF74FFC4FF03C004FF44B
:10221400C061FFF749FC4FF03D0040F20B21FFF78E
:1022240043FC4FF050004FF00001FFF73DFC4FF02E
:1022340051004FF0EF01FFF737FC4FF052004FF021
:102244000001FFF731FC4FF0530040F23F11FFF75C
:102254002BFC4FF060004FF41C51FFF725FC4FF0AE
:1022640061004FF00101FFF71FFC4FF06A004FF0CF
:102274000001FFF719FC4FF080004FF00001FFF759
:1022840013FC4FF081004FF00001FFF70DFC4FF0FD
:1022940082004FF00001FFF707FC4FF083004FF07E
:1022A4000001FFF701FC4FF084004FF00001FFF73D
:1022B400FBFB4FF085004FF00001FFF7F5FB4FF0FB
:1022C40090004FF01001FFF7EFFB4FF092004FF03A
:1022D4000001FFF7E9FB4FF093004FF00301FFF714
:1022E400E3FB4FF095004FF48871FFF7DDFB4FF0EF
:1022F40097004FF00001FFF7D7FB4FF098004FF025
:102304000001FFF7D1FB4FF0030041F21801FFF782
:10231400CBFB4FF0070040F27311FFF7C5FB10BD74
:1023240010B5FFF79FFE10BD2DE9F04143F60043C1
:10233400C4F200031A8822F038024FEA02424FEA3C
:1023440012421A801A8892B242F008021A80FFF7E9
:1023540057FB4FF07300FFF733FB4FF0000743F6D2
:1023640000431C46C4F200044FF0FF084FF0800500
:102374004FF001062046414600F096FE20462946CD
:1023840000F0FCFE0028F9D12046314600F0F6FEAC
:102394000028F9D0204600F089FE07F10107FFB2BA
:1023A400052FE7D143F60040C4F200004FF0FF01CF
:1023B40000F07AFE43F60045C4F200054FF08004B5
:1023C4002846214600F0DAFE0028F9D143F60045FC
:1023D400C4F200054FF001042846214600F0CEFE69
:1023E4000028F9D043F60044C4F20004204600F06B
:1023F4005DFE064620464FF0FF0100F055FE2546DF
:102404004FF080042846214600F0B8FE0028F9D198
:1024140043F60045C4F200054FF001042846214666
:1024240000F0ACFE0028F9D043F60044C4F20004E6
:10243400204600F03BFE40EA0626B6B240F60040D5
:10244400C4F201004FF004014FF00102FFF78AFAD1
:10245400238823F038034FEA03434FEA13432380CE
:10246400B0B2BDE8F08100BF40F0BE6040F420206F
:102474004EF60053CEF20003D8607047C3786BB3B6
:102484004EF60053CEF20003DB686FEA0303C3F396
:102494000223C3F10402417801FA02F24FF00F0162
:1024A40021FA03F3817803EA010343EA0203027881
:1024B4004FEA0310C0B24EF20013CEF2000303EB56
:1024C400020181F800034FEA521102F01F024FF09B
:1024D400010000FA02F243F8212010E003784FEAE9
:1024E400531203F01F034FF0010101FA03F14EF2FE
:1024F4000013CEF2000302F1200243F822107047C9
:1025040021F0604121F07F0141EA00004EF60053C2
:10251400CEF200039860704741B14EF60053CEF2FC
:1025240000031A6940EA0200186107E04EF60053FE
:10253400CEF200031A6922EA00001861704700BF56
:10254400042801BF4EF21003CEF200031A6842F0D1
:1025540004020FBF1A604EF21003CEF200031A6891
:102564001CBF22F004021A60704700BF40F200430F
:10257400C4F201034FF000021A605A609A60DA60F4
:102584004FF6FF72C0F20F025A6170478379002B35
:1025940040D040F20043C4F20103D3F800C0016804
:1025A4006FEA010202EA0C0CC3F800C0D3F804C0BD
:1025B40002EA0C025A6002791A44D2F800C04CEACA
:1025C40001011160D3F808C002686FEA020101EA50
:1025D4000C0CC3F808C0D3F80CC001EA0C01D96094
:1025E400417910290CD140F20043C4F201039968E7
:1025F40041EA02019960D96841EA0202DA6014E012
:1026040040F20043C4F201030B44196841EA020298
:102614001A600AE0027940F20043C4F20103134451
:102624001A68016822EA01021A6070474FF0000339
:10263400036003714FF00C0242718371704700BF55
:1026440040F20043C4F201031A6940EA020018612F
:10265400704700BF40F20043C4F201035B691842B3
:102664000CBF00200120704740F20043C4F2010374
:102674005861704740F20043C4F201031A685B6971
:10268400184208BF002003D010420CBF00200120D4
:10269400704700BF40F20043C4F201035861704721
:1026A4002DE9F005CB7803F00F0413F0100F1CBFD5
:1026B4008B781C430B7833B307684FF000034FF05B
:1026C40001054FF00F0805FA03F2B1F800C002EA61
:1026D4000C0C944512D14FEA830608FA06FA27EA4D
:1026E4000A0704FA06F647EA0607CE78282E08BF3A
:1026F400C0F814C002D0482E08BF026103F10103E0
:10270400082BE0D107600B88FF2B2AD947684FF0CC
:1027140000034FF001054FF00F0803F1080205FA1A
:1027240002F2B1F800C002EA0C0C944514D14FEA4D
:10273400830608FA06FA27EA0A0704FA06F647EABD
:102744000607CE78282E08BFC0F814C091F803C03D
:10275400BCF1480F08BF026103F10103082BDCD16F
:102764004760BDE8F00570474FF0FF3303804FF03A
:10277400020383704FF00403C370704783681942E7
:102784000CBF002001207047806880B2704700BFF2
:10279400C36819420CBF002001207047C06880B292
:1027A400704700BF01617047416170470AB1016120
:1027B40000E04161704700BFC160704741F480335D
:1027C40083618161836183698369704740F2000298
:1027D400C4F20102D2F800C04FF68073C0F20003C5
:1027E4000CEA030341EA001040EA03031360704754
:1027F40040F21C03C4F220231860704710B440F266
:102804000003C4F201035A681FFA80FC00F4401369
:10281400B3F5401F0AD122F0706240F20003C4F203
:1028240001035C6824F070645C6013E010F4801FA2
:102834001FBFC0F30343032404FA03F39A4311BFF5
:1028440042F07062430D1B010CFA03F304BF9A4378
:1028540042F0706239B14FEA50504FEA00100CFA5E
:1028640000FC42EA0C0240F20003C4F201035A6085
:1028740010BC704710B401F003024FEA82024FEA21
:10288400910140F20003C4F2010301F1020153F883
:1028940021404FF00F0C0CFA02FC24EA0C0C43F814
:1028A40021C053F821C000FA02F242EA0C0243F8B4
:1028B400212010BC704700BF40F2DC03C4F2202387
:1028C4001860704710B54FF00100014600F0CCFAD3
:1028D4004FF001004FF0000100F0C6FA10BD00BF38
:1028E40010B540F60003C4F2010398420CD14FF036
:1028F40004004FF0010100F0B7FA4FF004004FF06C
:10290400000100F0B1FA70E040F60043C4F20103A4
:1029140098420CD14FF008004FF0010100F0A4FAE6
:102924004FF008004FF0000100F09EFA5DE041F224
:102934000003C4F2010398420CD14FF010004FF091
:10294400010100F091FA4FF010004FF0000100F087
:102954008BFA4AE041F20043C4F2010398420CD1DD
:102964004FF020004FF0010100F07EFA4FF02000FC
:102974004FF0000100F078FA37E041F60003C4F2AA
:10298400010398420CD14FF040004FF0010100F0D8
:102994006BFA4FF040004FF0000100F065FA24E0BC
:1029A40041F60043C4F2010398420CD14FF0800079
:1029B4004FF0010100F058FA4FF080004FF0000191
:1029C40000F052FA11E042F20003C4F2010398420B
:1029D4000BD14FF480704FF0010100F045FA4FF431
:1029E40080704FF0000100F03FFA10BD41F2000387
:1029F400C4F202031A6842F001021A60596840F2F4
:102A04000002CFF2FF0201EA02025A601A6822F0C1
:102A1400847222F480321A601A6822F480221A60C6
:102A24005A6822F4FE025A601A6822F0A0521A6010
:102A34004FF47F029A604FF00002DA62704700BFE1
:102A440041F20003C4F202031A6822F480321A60CD
:102A54001A6822F480221A60B0F5803F03D0B0F5E2
:102A6400802F11D108E041F20003C4F202031A6876
:102A740042F480321A6007E041F20003C4F2020318
:102A84001A6842F4A0221A60704700BF41F20003A2
:102A9400C4F202031A6822F0F80242EAC000186085
:102AA400704700BF40F20003C4F24223186070472D
:102AB40041F20003C4F202035A6822F4741240EA99
:102AC400020040EA01005860704700BF40F2600312
:102AD400C4F242231860704741F20003C4F20203B7
:102AE400DA6A22F4803222F00F0240EA020242EA59
:102AF4000102DA62704700BF41F20003C4F202032C
:102B0400DA6A22F0F00240EA0200D862704700BF9D
:102B140041F20003C4F20203DA6A22F4706240EA6A
:102B24000200D862704700BF40F26803C4F2422337
:102B34001860704741F20003C4F20203DA6A22F417
:102B4400704240EA0200D862704700BF40F270034E
:102B5400C4F242231860704741F20003C4F2020336
:102B64005A6822F0030240EA02005860704700BF2E
:102B740041F20003C4F20203586800F00C007047ED
:102B840041F20003C4F202035A6822F0F00240EA60
:102B940002005860704700BF41F20003C4F2020310
:102BA4005A6822F4E06240EA02005860704700BFAD
:102BB40041F20003C4F202035A6822F4605242EA6A
:102BC400C0005860704700BF41B141F20903C4F22C
:102BD40002031A7840EA0200187007E041F2090380
:102BE400C4F202031A7822EA00001870704700BF8A
:102BF40040F2D803C4F242231860704741F2000344
:102C0400C4F202035A6822F4404240EA02005860C7
:102C1400704700BF40F2C453C4F2422318607047A7
:102C240040F2C853C4F242231860704741F22003B3
:102C3400C4F202034FF000021A701A70012802D085
:102C440004280FD107E041F22003C4F202034FF03D
:102C540001021A7006E041F22003C4F202034FF0AD
:102C640005021A70704700BF40F28043C4F2422349
:102C74001860704741F20003C4F202031A6A40EA82
:102C840002001862704700BF40F23C43C4F2422382
:102C94001860704710B441F20003C4F202035B6889
:102CA40003F00C03042B02BF47F64003C0F27D136C
:102CB40003605AD0082B07D0002B51D141F20023D6
:102CC400C0F27A03036050E041F20003C4F202034D
:102CD40059685A68C1F383430D2B0CBF0621991C14
:102CE40012F4803F07D140F60013C0F23D0303FB0A
:102CF40001F3036039E041F20003C4F20203D3F8A4
:102D04002CC0DA6A02F00F0202F101021CF4803FC7
:102D140009D147F64003C0F27D13B3FBF2F303FB82
:102D240001F1016021E041F20003C4F20203DC6A14
:102D3400D3F82CC0C4F3031404F1010447F6400390
:102D4400C0F27D13B3FBF4F3CCF3032C0CF1020CAF
:102D54000CFB03F3B3FBF2F202FB01F1016004E0AC
:102D640041F20023C0F27A03036041F20002C4F28C
:102D740002025168C1F3031140F22803C2F20003B6
:102D8400595CD0F800C02CFA01F14160D2F804C0BB
:102D9400CCF3022C13F80CC021FA0CFCC0F808C0C8
:102DA400D2F804C0CCF3C22C13F80CC021FA0CF1F5
:102DB400C1605268C2F3813213441B7CB1FBF3F14E
:102DC400016110BC704700BF41B141F20003C4F27D
:102DD40002035A6940EA0200586107E041F2000325
:102DE400C4F202035A6922EA00005861704700BF26
:102DF40041B141F20003C4F202039A6940EA0200BD
:102E0400986107E041F20003C4F202039A6922EADE
:102E140000009861704700BF41B141F20003C4F261
:102E24000203DA6940EA0200D86107E041F20003D4
:102E3400C4F20203DA6922EA0000D861704700BFD5
:102E440041B141F20003C4F202039A6A40EA02006B
:102E5400986207E041F20003C4F202039A6A22EA8C
:102E640000009862704700BF41B141F20003C4F210
:102E74000203DA6840EA0200D86007E041F2000386
:102E8400C4F20203DA6822EA0000D860704700BF87
:102E940041B141F20003C4F202031A6940EA02009C
:102EA400186107E041F20003C4F202031A6922EA3E
:102EB40000001861704700BF40F24043C4F242234F
:102EC4001860704740F24C03C4F242231860704704
:102ED40041F20703C4F20203187070474FEA50131B
:102EE400012B05D141F20003C4F202031A680CE07D
:102EF400022B03BF41F20003C4F202031A6A41F237
:102F040000031CBFC4F202035A6A00F01F004FF012
:102F1400010303FA00F002420CBF002001207047B5
:102F240010B582B04FF0000301934FF031042046F6
:102F3400FFF7D4FF019B03F101030193019BB3F558
:102F4400A06F01D00028F2D04FF03100FFF7C6FF88
:102F5400003818BF012002B010BD00BF41F20003C9
:102F6400C4F202035A6A42F080725A62704700BF88
:102F740041F20003C4F202039B6818420CBF002014
:102F84000120704741F20A03C4F20203187070472B
:102F9400028802F44152B1F802C00B884CEA0303E0
:102FA400B1F804C043EA0C03B1F806C043EA0C03C9
:102FB400B1F808C043EA0C03B1F80AC043EA0C03B1
:102FC400B1F80CC043EA0C03B1F80EC043EA0C0399
:102FD40042EA03039BB20380838B23F400634FEA2A
:102FE40003434FEA134383830B8A0382704700BF72
:102FF4004FF00003038043808380C38003814381B7
:103004008381C3814FF00703038270474FF00003AD
:10301400038043808380C3804FF002020281438196
:10302400704700BF29B103889BB243F0400303807B
:1030340007E0038823F040034FEA03434FEA1343B6
:103044000380704729B1838B9BB243F480638383ED
:1030540007E0838B23F480634FEA03434FEA13436F
:10306400838370474FEA11114FF0010303FA01F112
:1030740089B22AB183889BB241EA0301818004E0CA
:1030840083889BB223EA0101818070472AB1838837
:103094009BB241EA0301818004E083889BB223EA66
:1030A40001018180704700BF81817047808980B2AF
:1030B400704700BF4FF6FF6399421FBF03889BB25E
:1030C40043F48073038001BF038823F480731B04DB
:1030D4001B0C08BF0380704729B183889BB243F05F
:1030E4000403838007E0838823F004034FEA034347
:1030F4004FEA134383807047038823F400634FEA45
:1031040003434FEA1343038003889BB241EA03015C
:103114000180704703889BB243F480530380704757
:1031240029B103889BB243F40053038007E003886A
:1031340023F400534FEA03434FEA134303807047D9
:10314400012919BF008B80B2808A80B2704700BF0A
:10315400008A80B2704700BFB1F5804F01BF038879
:103164009BB243F4804303801FBF038823F480434E
:103174001B041B0C18BF0380704700BF038919424E
:103184000CBF0020012070476FEA010189B2018160
:10319400704700BF83881FFA83FC028992B201F052
:1031A4000F034FF0010000FA03F31A4208BF002096
:1031B4000AD04FEA11114FF0010303FA01F11CEA9E
:1031C400010F0CBF00200120704700BF01F00F0168
:1031D4004FF0010303FA01F36FEA03039BB2038187
:1031E400704700BFF0B587B005460C46838B23F4C7
:1031F4007A6323F01F034FEA03434FEA13438383A5
:103204004FF002010184868BB6B22389022B08BFDA
:10321400002271D0A788002F0CBF0127022743F694
:103224000003C4F2000398420CBF4FF400314FF482
:10323400802141F20003C4F20203DA6A114223D06E
:1032440041F20003C4F20203DB6AC3F30333A3F1C4
:103254000602082A98BF023302D90F2B08BF142391
:1032640041F20002C4F20202D16AC1F3031101F176
:10327400010147F64002C0F27D12B2FBF1F24FEABF
:10328400420203FB02F303E001A8FFF703FD019BE5
:10329400E188B1F5007F0CD14FEA132303EB8303DC
:1032A4004FEA43022189B2FBF1F202F1050292B224
:1032B4000DE04FEA4717B3FBF7F707EB87074FEA31
:1032C40047022189B2FBF1F202F1050292B24CF6F7
:1032D400CD43CCF6CC43A3FB02134FEAD30303F054
:1032E40001024FEA5303A3F1020189B2FD2987BF0A
:1032F40000220223120292B243EA0203E28843EA62
:1033040002039BB22B84238846EA030343F400633D
:10331400628843EA0203A28843EA0203628943EA19
:1033240002039BB2AB8307B0F0BD00BF10B543F2FC
:103334000003C4F2010398420CD14FF480504FF0C3
:103344000101FFF791FD4FF480504FF00001FFF7AA
:103354008BFD24E043F60003C4F2000398420CD131
:103364004FF480404FF00101FFF792FD4FF480408D
:103374004FF00001FFF78CFD11E043F60043C4F267
:10338400000398420BD14FF400404FF00101FFF7C6
:103394007FFD4FF400404FF00001FFF779FD10BDB1
:1033A4004FF4165303604FF000038380C3800381FE
:1033B4004FF00C0242818381704700BF038A23F4DB
:1033C40070634FEA03434FEA1343B1F802C00A881B
:1033D4004CEA0202B1F804C042EA0C02C98842EA8B
:1033E400010292B242EA0303038270474FF00003E2
:1033F400038043808380C380704700BF29B18389E1
:103404009BB243F40053838107E0838923F4005380
:103414004FEA03434FEA134383817047C1F34213D6
:1034240001F01F014FF0010C0CFA01F1634508BFD4
:103434000C3003D0022B0CBF1030143022B10368BF
:1034440043EA0101016003E0036823EA010101602A
:10345400704700BF2AB1838A9BB241EA030181828B
:1034640004E0838A9BB223EA01018182704700BF92
:10347400038A23F00F034FEA03434FEA1343038203
:10348400038A9BB241EA030101827047838923F4D2
:1034940000634FEA03434FEA1343838183899BB25A
:1034A40041EA03018181704729B183899BB243F0CA
:1034B4000203838107E0838923F002034FEA034375
:1034C4004FEA134383817047038A23F020034FEAB2
:1034D40003434FEA13430382038A9BB241EA030185
:1034E4000182704729B1038A9BB243F4804303826B
:1034F40007E0038A23F480434FEA03434FEA13436C
:10350400038270474FEAC1514FEAD151818070471D
:1035140080884FEAC0504FEAD050704783899BB2ED
:1035240043F0010383817047038BDBB20383038B76
:103534009BB243EA01210183704700BF038B03F46C
:103544007F430383038B9BB241EA030101837047EA
:1035540029B1838A9BB243F02003838207E0838AE4
:1035640023F020034FEA03434FEA13438382704757
:1035740029B1838A9BB243F01003838207E0838AD4
:1035840023F010034FEA03434FEA13438382704747
:1035940029B1838A9BB243F00803838207E0838ABC
:1035A40023F008034FEA03434FEA1343838270472F
:1035B400838A23F004034FEA03434FEA13438382CD
:1035C400838A9BB241EA03018182704729B1838ACD
:1035D4009BB243F00203838207E0838A23F0020351
:1035E4004FEA03434FEA1343838270470388194227
:1035F4000CBF0020012070476FEA010189B20180ED
:10360400704700BFC1F3421301F01F024FF0010CD9
:103614000CFA02FC012B04D1828992B20CEA020258
:103624000AE0022B03BF028A92B20CEA0202828AE7
:103634001CBF92B20CEA02024FEA11214FF00103BF
:1036440003FA01F103889BB219420CBF0023012342
:10365400002A0CBF002003F0010070474FEA11213B
:103664004FF0010303FA01F36FEA03039BB20380F3
:10367400704700BF30B587B004460D46038A23F473
:1036840040534FEA03434FEA1343CA8843EA020311
:103694000382838923F4B05323F00C034FEA0343DA
:1036A4004FEA13430989AA8841EA0202698942EA76
:1036B400010292B242EA03038381838A23F44073B2
:1036C4004FEA03434FEA1343AA8943EA020383827E
:1036D40001A8FFF7DFFA43F60003C4F201039C429A
:1036E4000CBF0499039901EB810101EB81012B6863
:1036F4004FEA8303B1FBF3F148F21F53C5F2EB1316
:10370400A3FB01024FEA52124FF0640002FB1011B6
:103714004FEA011101F13201A3FB0103C3F3431387
:1037240043EA021292B2228107B030BD10B543F6CB
:103734000003C4F2010398420CD14FF480404FF0CF
:103744000101FFF791FB4FF480404FF00001FFF7B8
:103754008BFB4AE044F20043C4F2000398420CD1CC
:103764004FF400304FF00101FFF792FB4FF40030AB
:103774004FF00001FFF78CFB37E044F60003C4F27E
:10378400000398420CD14FF480204FF00101FFF761
:103794007FFB4FF480204FF00001FFF779FB24E01A
:1037A40044F60043C4F2000398420CD14FF40020C5
:1037B4004FF00101FFF76CFB4FF400204FF00001C4
:1037C400FFF766FB11E045F20003C4F200039842E0
:1037D4000BD14FF480104FF00101FFF759FB4FF468
:1037E40080104FF00001FFF753FB10BD70B5044685
:1037F4000D4672B640F6A033C2F200035B7813F0B4
:10380400400F20D040F6D833C2F200031B680BB13E
:10381400834218D14FF00E0001F058FAFCF708FD6E
:1038240002F0CCFA287802F041F9204602F0C6FAF8
:10383400687802F03BF9E07B02F038F9207C02F072
:1038440035F901F051FB6B7813B103F101036B708F
:103854006368FBB9656040F69031C2F2000191F8EB
:1038640000C047F6F823C0F6000347F68032C0F6DE
:103874000002207D105C184440784CEA000001F8F6
:10388400010B207D125C11440A781B5C42EA03039D
:103894000B701EE0E37B3BB947F6BC20C0F600008A
:1038A4004FF04501FCF7B0FC627BA36843F822505B
:1038B400637B0BB9237B6373637B03F1FF33637314
:1038C400E37B03F1FF33DBB2E373227C9A4288BFCC
:1038D400237462B670BD00BF2DE9F04106460C4664
:1038E400037D1F4647F68032C0F60002D55C0329EB
:1038F40017D940F68432C2F2000211781A1E18BF9A
:103904000122A14294BF002202F001024AB13F2BDE
:1039140007D840F64423C2F2000353F82730834209
:1039240007D047F6C420C0F600004FF03001FCF782
:103934006BFC72B640F6A033C2F200035B7813F05E
:10394400100F17D040F6D833C2F200031B680BB136
:103954009E420FD14FF00C0001F0B8F9FCF768FC5F
:1039640002F02CFA204602F0A1F8304602F026FAC2
:1039740001F0BAFA40F68833C2F200031B6803EB85
:10398400C40447F6F823C0F60003625DDB5D42EA37
:103994000303635562B6BDE8F08100BF47F6CC204F
:1039A400C0F60000704700BF70B50546047D04F101
:1039B400FF33DBB23E2B07D840F64423C2F20003A8
:1039C40053F82430834204D017484FF04C01FCF7DD
:1039D4001BFC72B640F64423C2F200034FF000020F
:1039E40043F8242040F6A033C2F200035B7813F0BE
:1039F400080F17D040F6D833C2F200031B680BB18E
:103A04009D420FD14FF00B0001F060F9FCF710FC60
:103A140002F0D4F9284602F0D1F9204602F046F823
:103A240001F062FA62B670BDD47A000870B505463A
:103A3400047D04F1FF33DBB23E2B06D840F6442369
:103A4400C2F2000353F8243023B117484FF0380171
:103A5400FCF7DAFB72B640F64423C2F2000343F8E3
:103A6400245040F6A033C2F200035B7813F0040F35
:103A740017D040F6D833C2F200031B680BB19D4245
:103A84000FD14FF00A0001F021F9FCF7D1FB02F04D
:103A940095F9284602F092F9204602F007F801F061
:103AA40023FA62B670BD00BFD47A00082DE9F0474E
:103AB400054689464FF0000440F64436C2F200063B
:103AC40040F68037C2F2000747F6DC28C0F600084B
:103AD4004FF0300A09E004F10104E4B23B78A34258
:103AE40003D840465146FCF78FFB04EB840306EBF6
:103AF40083039B89AB42EED340F6A033C2F20003AA
:103B0400DB7813F0100F11D072B64FF01C0001F0E7
:103B1400DDF8FCF78DFB02F051F9284602F046F877
:103B2400484601F0C3FF01F0DFF962B604EB8400FC
:103B340040F64433C2F2000303EB800000F094F932
:103B4400054638B947F6DC20C0F600004FF03A01CC
:103B5400FCF75AFB85F8009004F101044FEA841441
:103B64006C702846BDE8F0872DE9F04106460F4603
:103B7400154640F68033C2F200031B78022B07D9A6
:103B840047F6E420C0F600004FF02E01FCF73CFBA2
:103B940040F68033C2F200031B78A3B140F64432EE
:103BA400C2F2000203F1FF3303EB830302EB83024F
:103BB4009389AB4207D347F6E420C0F600004FF0E8
:103BC4003101FCF721FB40F68034C2F20004237873
:103BD40003EB830040F64433C2F2000303EB80009E
:103BE40031463A462B4600F077F9237803F1010376
:103BF4002370BDE8F08100BF40F68833C2F20003B1
:103C0400186040F68433C2F200031970704700BF95
:103C14002DE9F04F83B0804640F68433C2F20003AE
:103C240002781B789A4207D347F6EC20C0F60000CE
:103C34004FF02C01FCF7E8FA72B640F6A033C2F25A
:103C44000003DB7813F0040F11D04FF01A0001F0D9
:103C54003DF8FCF7EDFA02F0B1F898F8000001F035
:103C640025FF98F8010001F021FF01F03DF998F8D3
:103C740001301BB103F1010388F8013062B64FF043
:103C8400080B47F61049C0F6000947F63C37C0F662
:103C9400000740F64426C2F200060BF1FF3B5FFA30
:103CA4008BFB98F8002040F68833C2F200031B68AF
:103CB40003EBC20313F80B40F4B14FEACB0A5FFAEB
:103CC4008AFA47F6EC23C0F60003019319F804506E
:103CD4007B5D04EA03045544EDB256F8253023B95C
:103CE40001984FF05501FCF78FFA56F8250041462C
:103CF400FFF77CFD002CE9D1BBF1000FCDD140468C
:103D040000F03EFB03B0BDE8F08F00BF2DE9F047A3
:103D140072B640F6A033C2F2000393F90330002BCD
:103D240011DA4FF01F0000F0D1FF40F6E033C2F289
:103D340000031A6802F101021A60186880B201F0E7
:103D440035FF01F0D1F840F68C33C2F200031C6851
:103D5400002C65D040F6A035C2F2000540F6D03AFA
:103D6400C2F2000A1F464FF0000640F63628C2F29F
:103D74000008238A03F1FF339BB22382002B48D12E
:103D8400638A0BB1238222E03B689C4202D1A36880
:103D94003B6006E0A3680BB162685A606368A2687E
:103DA4009A6066602B7913F0020F10D0DAF80030B5
:103DB4000BB19C420BD14FF0210000F087FF20464D
:103DC40001F0FCFFE06801F0F9FF01F08DF82B79B8
:103DD40013F0200F17D0DAF800300BB19C4212D147
:103DE4004FF0250000F072FFFCF722FA01F0E6FF25
:103DF400204601F0E3FF207801F058FEE06801F06E
:103E0400DDFF01F071F862B6E0682146FFF7EEFCD1
:103E140002E062B688F8006072B6A468002CA8D1EB
:103E240062B6BDE8F08700BF10B5044630B140F675
:103E34008033C2F200031B78834207D247F6C430B2
:103E4400C0F600004FF04501FCF7DEF972B662B629
:103E540040F64433C2F2000304F1FF3404EB84045B
:103E640003EB8403588A10BD70B5044672B6056826
:103E740055B12B680360038A03F1FF339BB20382BD
:103E8400428A9A4288BF438240F6A033C2F20003BA
:103E9400DB7813F0010F1BD040F6E833C2F20003C5
:103EA4001B6813B16268934212D14FF0180000F0FE
:103EB4000DFFFCF7BDF901F081FF606801F07EFFA2
:103EC400208A01F073FE608A01F070FE01F00CF8A4
:103ED40062B6284670BD00BF2DE9F0470446884607
:103EE40092461F46032A94BF0023012300290CBFD6
:103EF400002303F0010323B107F104039BB29F42A3
:103F040007D347F6CC30C0F600004FF03701FCF77A
:103F14007BF918F003031CBFC3F10403C3EB0A0AC3
:103F2400434423604FF00403A381042F9CBF042661
:103F340001250BD94FF004064FF0010506F10406E4
:103F4400B6B205F10105B742F8D8A681B24507D249
:103F540047F6CC30C0F600004FF04C01FCF754F9A2
:103F6400C6EB0A0A4FF00103E3812368564513D8D0
:103F74004FEA8505C6F10001C6EB0A0A03EB050208
:103F84001A60E38903F10103E3818A441AEB060F03
:103F940001D21346F2E713464FF000021A60E28999
:103FA40022826282C4F80480A36040F6A033C2F285
:103FB400000393F90230002B15DA40F6E833C2F21D
:103FC40000031B680BB198450DD172B64FF0170072
:103FD40000F07CFE606801F0F1FEE08901F0E6FD8E
:103FE40000F082FF62B6BDE8F08700BF70B50446FA
:103FF4000D46032907D847F6D830C0F600004FF025
:104004002901FCF701F94FF000036360A360E3604A
:10401400238263822570637070BD00BF70B504464F
:104024000E46154662B10378032B09D942680B1E6C
:1040340018BF0123002A14BF002303F001033BB976
:1040440047F6E430C0F600004FF03001FCF7DCF82E
:1040540025826460E66072B640F6A033C2F20003C3
:104064001B7913F0010F1DD040F6D033C2F20003C8
:104074001B680BB19C4215D14FF0200000F026FEC6
:10408400FCF7D6F801F09AFE204601F097FE304680
:1040940001F094FE284601F089FD608A01F086FD56
:1040A40000F022FF40F68C33C2F200031A68A260CB
:1040B4001B6803B15C6040F68C33C2F200031C60E1
:1040C40062B670BD47F6EC30C0F60000704700BF22
:1040D400704700BF10B5FFF767FC10BD2DE9F04134
:1040E40004460D4617461E4601F1FF32D2B2069B26
:1040F400D3F1010338BF00233E2A8CBF002303F011
:10410400010323B90B484FF06701FCF77DF804F174
:104114000400F2B2394600F007F925752046FFF78E
:1041240085FC2046089900F0CBF9FCF7A9F8BDE816
:10413400F08100BFF47B00082DE9F047FCF732F86A
:10414400164C174FDFF85C804FF0000A72B62378E4
:104154000BB323780BB953460EE0237818F80330D9
:1041640003F1FF33DBB204EB0302527818F80220A8
:1041740002EBC30303F0FF0357F8235062B628464B
:1041840000F034F806462846314600F05FFA30461F
:1041940000F0F6F8DAE7FCF7C3F9D7E7900B002054
:1041A400440A0020107C000810B5FCF72BF810BD61
:1041B40010B504463F2806D840F64423C2F2000353
:1041C40053F820303BB947F60040C0F600004FF0EA
:1041D4005A01FCF719F872B662B640F64423C2F2EB
:1041E400000353F82430187C10BD00BF70B504469A
:1041F40072B643683BB947F60040C0F600004FF082
:104204003001FCF701F86568E27B237B9A4236D0E3
:10421400A37BA26852F8232062600BB9237BA373AB
:10422400A37B03F1FF33A373E37B03F10103E37384
:1042340040F6A033C2F200039B7813F0010F6DD057
:1042440040F6D833C2F200031B680BB19C4265D11F
:104254004FF0100000F03AFDFBF7EAFF01F0AEFD6D
:10426400287801F023FC204601F0A8FD687801F0CD
:104274001DFCE07B01F01AFC00F036FE4EE04FF02E
:1042840000036360217D47F68033C0F600035B5C66
:10429400244A1344187847F63C32C0F60002525CB4
:1042A40000EA02021A701B78ABB940F69033C2F2EE
:1042B4000003187847F63C32C0F6000247F6803116
:1042C400C0F6000194F814C011F80C100A44527896
:1042D40000EA02021A7040F6A033C2F200039B788F
:1042E40013F0020F1AD040F6D833C2F200031B6851
:1042F4000BB19C4212D14FF0110000F0E7FCFBF728
:1043040097FF01F05BFD287801F0D0FB204601F017
:1043140055FD687801F0CAFB00F0E6FD62B6284658
:1043240070BD00BF910B002070B50D4614464FF0D0
:10433400000303604160027243728372C2720273AB
:1043440040F6A033C2F200039B7813F0040F15D09B
:1043540040F6D433C2F200031B680BB198420DD16E
:1043640072B64FF0120000F0B1FC284601F026FDB1
:10437400204601F09BFB00F0B7FD62B670BD00BFA4
:1043840070B504464578002D59D072B605F03F0348
:10439400012B1CDD05F1FF35457040F6A033C2F258
:1043A4000003DB7813F0200F0FD04FF01D0000F056
:1043B4008DFCFBF73DFF01F001FD207801F076FB59
:1043C400607801F073FB00F08FFD62B637E04FEACE
:1043D400951505F1FF35EDB240F6A033C2F20003A6
:1043E400DB7813F0400F0FD04FF01E0000F06EFC8E
:1043F400FBF71EFF01F0E2FC207801F057FB607828
:1044040001F054FB00F070FD62B640F68033C2F256
:1044140000031B78AB4207D847F60840C0F60000FB
:104424004FF04901FBF7F0FE05EB850540F64433F8
:10443400C2F2000303EB8500214600F001F870BDD1
:1044440070B504460D4643688B4206D8836899428A
:1044540003D8028AC3899A4207D947F61050C0F696
:1044640000004FF02D01FBF7CFFE72B623682B60DE
:104474002560238A03F10103238240F6A033C2F2AC
:104484000003DB7813F0020F18D040F6E833C2F2D1
:1044940000031B6813B1626893420FD14FF01900F7
:1044A40000F014FCFBF7C4FE01F088FC606801F026
:1044B40085FC208A01F07AFB00F016FD62B670BD1F
:1044C4002DE9F04F87B0054603689847022807D0C6
:1044D40047F61850C0F600004FF02D01FBF794FE8C
:1044E40044F61D46C0F6000647F63857C0F60007E6
:1044F400DFF84881DFF84891DFF848B199F80030D7
:1045040013F0080F15D0DBF800300BB19D4210D129
:1045140072B64FF0030000F0D9FB284601F04EFCC0
:10452400304601F04BFC286801F048FC00F0DCFC4C
:1045340062B6D5F800A0CDF800A028463946D04789
:104544002B68B34204BFC5F800A000241FD04FF06D
:10455400000404F10104E4B262B206A901EB820290
:1045640042F8183C2846394698472B68B342F0D1A4
:10457400DDF800A0C5F800A063B2052B07DD47F6FF
:104584001850C0F600004FF04301FBF73DFE63B244
:1045940006AA02EB830353F8186C28464146B04739
:1045A400B8B999F8003013F0020F12D0DBF80030DC
:1045B4000BB19D420DD172B64FF0010000F086FBA5
:1045C400284601F0FBFB304601F0F8FB00F08CFCC0
:1045D40062B604F1FF34E4B214F0800FD7D0284659
:1045E4001949D047022801D1564687E7C5F800A0EB
:1045F40040F6A033C2F200031B7813F0100F19D059
:1046040040F6E433C2F200031B680BB19D4211D1A2
:1046140072B64FF0040000F059FBFBF709FE01F0FD
:10462400CDFB284601F0CAFB286801F0C7FB00F067
:104634005BFC62B607B0BDE8F08F00BF3A7D0008AE
:10464400A00B0020E40B00203E7D00082DE9F04F74
:1046540089B005468B46066840F6A033C2F20003D3
:104664005B7813F0010F1DD040F6E433C2F200036F
:104674001B680BB1984215D172B64FF0080000F0D8
:1046840025FBFBF7D5FD01F099FB9BF8000001F039
:104694000DFA284601F092FB304601F08FFB00F042
:1046A40023FC62B6D5F800A028465946D047032813
:1046B400F8D0022840F04D82D5F80090CDF808904B
:1046C400039656452FD0DFF8384540F6A037C2F29E
:1046D400000747F63858C0F6000840F6E433C2F243
:1046E4000003019328462146B047C8B93B7813F02C
:1046F400040F12D001990B680BB19D420DD172B613
:104704004FF0020000F0E2FA284601F057FB304671
:1047140001F054FB00F0E8FB62B628464146B0477E
:104724002E68B245DED1CA4523D12846DFF8D0141D
:10473400D047002840F06082DFF8C8341B7813F0BB
:10474400040F00F05982DFF8C0341B6813B19D4296
:1047540040F0528272B64FF0020000F0B7FA2846D9
:1047640001F02CFB504601F029FB00F0BDFB62B6C2
:1047740042E247F63851C0F600012846C8472C6883
:10478400A24500F0398247F63851C0F600012846A8
:10479400D0472F68A74228D12846DFF86414D047B1
:1047A400002840F02982DFF85C341B7813F0040FF2
:1047B40000F02282DFF850341B6813B19D4240F0B0
:1047C4001B8272B64FF0020000F080FA284601F016
:1047D400F5FA504601F0F2FA00F086FB62B60BE2FD
:1047E40014F0800F00F0D38002E1B94522D12846AD
:1047F400DFF80C14D047002840F0FA80DFF80434C6
:104804001B7813F0040F00F0F380FF4B1B6813B107
:104814009D4240F0ED8072B64FF0020000F056FA6F
:10482400284601F0CBFA504601F0C8FA00F05CFBD0
:1048340062B6DDE0039447F63851C0F6000128461D
:10484400A047032818BF01262CD14FF0010447F6D6
:104854003858C0F6000804F10106F6B22B6872B2AB
:1048640008A901EB820242F8183C9A450BD176B2B2
:10487400052EB5DD47F62450C0F600004FF079014F
:10488400FBF7C2FCACE7284641469847032801D110
:10489400F4B2E0E773B2052B04DDDC484FF0840189
:1048A400FBF7B2FC2846D649D047D0B940F6A0332E
:1048B400C2F200031B7813F0040F12D0D24B1B6812
:1048C4000BB19D420DD172B64FF0020000F0FEF91B
:1048D400284601F073FA504601F070FA00F004FB28
:1048E40062B6F3B25AB208A901EB820252F8182C4C
:1048F400974203D103F1FF33DCB271E703F1FF33D5
:10490400DBB213F0800FEDD0BD4C40F6A038C2F2FC
:10491400000847F63859C0F6000940F6E433C2F2FD
:1049240000030193F6B228462146B847D0B998F857
:10493400003013F0040F12D0019A13680BB19D429A
:104944000DD172B64FF0020000F0C0F9284601F014
:1049540035FA384601F032FA00F0C6FA62B6284653
:104964004946B8472F6833465AB208A901EB820278
:1049740052F8182CBA4203D103F1FF33DCB22FE70B
:1049840003F1FF33DBB213F0800FEDD0CBE7A04F80
:1049940040F6A038C2F2000840F6E439C2F2000939
:1049A40063B208AA02EB830353F8186C284639460D
:1049B400B047B8B998F8003013F0020F12D0D9F804
:1049C40000300BB19D420DD172B64FF0010000F0E2
:1049D4007DF9284601F0F2F9304601F0EFF900F0D4
:1049E40083FA62B604F1FF34E4B214F0800FD7D036
:1049F400029E2E60DFF81882DFF8089279E099F8B9
:104A0400003013F0080F18D040F6E431C2F2000170
:104A14000B680BB19D4210D172B64FF0030000F049
:104A240055F9284601F0CAF9304601F0C7F928685B
:104A340001F0C4F900F058FA62B62F68029747F6FD
:104A44003851C0F600012846B8472B68B34204BF6A
:104A54002F60002421D04FF0000447F63857C0F6E9
:104A6400000704F10104E4B262B208A901EB820276
:104A740042F8183C2846394698472B68B342F0D18F
:104A8400029F2F6063B2052B07DD47F62450C0F662
:104A940000004FF0D701FBF7B7FB63B208AA02EBA3
:104AA400830353F8186C28464146B047D0B999F8A7
:104AB400003013F0020F15D040F6E431C2F20001C9
:104AC4000B680BB19D420DD172B64FF0010000F09E
:104AD400FDF8284601F072F9304601F06FF900F054
:104AE40003FA62B604F1FF34E4B214F0800FD4D0B8
:104AF4003E4628464749B047022880D0344640F60F
:104B0400A033C2F200031B7813F0400F70D040F6BC
:104B1400E433C2F200031B680BB19D4268D172B644
:104B24004FF0060000F0D2F8FBF782FB01F046F9E3
:104B34009BF8000000F0BAFF284601F03FF9504608
:104B440001F03CF9204601F039F900F0CDF962B6E4
:104B54004EE0012826D140F6A033C2F2000393F9B7
:104B64000030002B44DA40F6E433C2F200031B6841
:104B74000BB19D423CD172B64FF0070000F0A6F88D
:104B8400FBF756FB01F01AF99BF8000000F08EFFCA
:104B9400284601F013F9304601F010F900F0A4F9A9
:104BA40062B625E040F6A033C2F200031B7813F08E
:104BB400200F1DD040F6E433C2F200031B680BB192
:104BC4009D4215D172B64FF0050000F07FF8FBF757
:104BD4002FFB01F0F3F89BF8000000F067FF284674
:104BE40001F0ECF8504601F0E9F800F07DF962B606
:104BF4002E6009B0BDE8F08F4FF00004C7E600BF97
:104C04003C7D0008A00B0020E40B0020247D00085C
:104C14003A7D00083E7D00084FF00100704700BF58
:104C240047F64050C0F60000704700BF40F6C4335A
:104C3400C2F20003186040F6C833C2F200031980C0
:104C4400704700BFFF280DD14FF0000340F6A0319C
:104C5400C2F200014FF0FF32CA5403F10103202BCA
:104C6400FAD10FE04FEAD00240F6A033C2F20003BB
:104C740000F007004FF0010101FA00F0995C40EAEE
:104C840001009854704700BFFF280ED14FF0000375
:104C940040F6A030C2F20000194600EB0302117086
:104CA40003F10103202BF8D10FE04FEAD00240F6C4
:104CB400A033C2F2000300F007004FF0010101FA33
:104CC40000F0995C21EA00009854704740F69C3348
:104CD400C2F200031A7802F10102D2B21A7040F64D
:104CE4009D33C2F200031A70A2F17D03DBB2012BE3
:104CF40054D840F69E33C2F20003198840F6C432F9
:104D0400C2F2000212684FF07D0C02F801C001F1FA
:104D1400010292B21A8040F6C833C2F200031B8823
:104D2400934201BF40F69E33C2F2000300221A8070
:104D340040F6C033C2F200031A8802F101021A805D
:104D440040F69E33C2F20003198840F6C432C2F220
:104D54000002D2F800C040F69C32C2F2000212787F
:104D640082F020020CF8012001F1010292B21A80B3
:104D740040F6C833C2F200031B88934201BF40F6D9
:104D84009E33C2F2000300221A8040F6C033C2F2FE
:104D940000031A8802F101021A8025E040F69E33CE
:104DA400C2F20003B3F800C040F6C431C2F20001FD
:104DB400096801F80C200CF1010292B21A8040F645
:104DC400C833C2F200031B88934201BF40F69E33EE
:104DD400C2F2000300221A8040F6C033C2F200037C
:104DE4001A8802F101021A8040F69D33C2F20003D0
:104DF4001A7802441A70A0F17D03DBB2012B4DD85E
:104E040040F69E33C2F20003198840F6C432C2F25F
:104E1400000212684FF07D0C02F801C001F101029A
:104E240092B21A8040F6C833C2F200031B88934240
:104E340001BF40F69E33C2F2000300221A8040F6FE
:104E4400C033C2F200031A8802F101021A8040F64C
:104E54009E33C2F20003198840F6C432C2F2000243
:104E6400126880F02000505401F1010292B21A80BD
:104E740040F6C833C2F200031B88934201BF40F6D8
:104E84009E33C2F2000300221A8040F6C033C2F2FD
:104E940000031A8802F101021A8023E040F69E33CF
:104EA400C2F20003198840F6C432C2F2000212684A
:104EB400505401F1010292B21A8040F6C833C2F292
:104EC40000031B88934201BF40F69E33C2F20003E5
:104ED40000221A8040F6C033C2F200031A8802F19D
:104EE40001021A80704700BF40F69D33C2F20003EE
:104EF4001A786FEA0202D2B21A70A2F17D03DBB211
:104F0400012B51D840F69E33C2F20003198840F6B3
:104F1400C432C2F2000212684FF07D00505401F115
:104F2400010292B21A8040F6C833C2F200031B8811
:104F3400934201BF40F69E33C2F200030021198060
:104F440040F6C033C2F200031A8802F101021A804B
:104F540040F69E33C2F20003198840F6C432C2F20E
:104F64000002106840F69D32C2F20002127882F00C
:104F74002002425401F1010292B21A8040F6C83371
:104F8400C2F200031B88934201BF40F69E33C2F273
:104F9400000300221A8040F6C033C2F200031A88CC
:104FA40002F101021A8023E040F69E33C2F20003AC
:104FB400188840F6C431C2F2000109680A5400F1AD
:104FC400010292B21A8040F6C833C2F200031B8871
:104FD400934201BF40F69E33C2F2000300211980C0
:104FE40040F6C033C2F200031A8802F101021A80AB
:104FF40040F69E33C2F20003198840F6C432C2F26E
:10500400000212684FF07E00505401F1010189B290
:10501400198040F6C833C2F200031A88914201BFD6
:1050240040F69E33C2F200030021198040F6C033DB
:10503400C2F20003198801F1010189B219808A4280
:105044000ED240F6CC33C2F2000340F69E31C2F2D7
:1050540000010988198040F6C033C2F200031A80A7
:10506400704700BF10B440F69D33C2F200031A78B3
:1050740002441A70A0F17D03DBB2012B50D840F634
:105084009E33C2F20003B3F800C040F6C432C2F249
:10509400000212684FF07D0402F80C400CF101028A
:1050A40092B21A8040F6C833C2F200031B889342BE
:1050B40001BF40F69E33C2F2000300221A8040F67C
:1050C400C033C2F200031A8802F101021A8040F6CA
:1050D4009E33C2F20003B3F800C040F6C432C2F2F9
:1050E4000002126880F0200002F80C000CF10102AA
:1050F40092B21A8040F6C833C2F200031B8893426E
:1051040001BF40F69E33C2F2000300221A8040F62B
:10511400C033C2F200031A8802F101021A8025E0AA
:1051240040F69E33C2F20003B3F800C040F6C43226
:10513400C2F20002126802F80C000CF1010292B2F1
:105144001A8040F6C833C2F200031B88934201BFA1
:1051540040F69E33C2F2000300221A8040F6C033A8
:10516400C2F200031A8802F101021A8040F69D334C
:10517400C2F200031A780A441A70A1F17D03DBB26B
:10518400012B4DD840F69E33C2F20003188840F636
:10519400C432C2F2000212684FF07D0C02F800C063
:1051A40000F1010292B21A8040F6C833C2F2000341
:1051B4001B88934201BF40F69E33C2F200030022D3
:1051C4001A8040F6C033C2F200031A8802F10102C9
:1051D4001A8040F69E33C2F20003188840F6C432A7
:1051E400C2F20002126881F02001115400F10102A0
:1051F40092B21A8040F6C833C2F200031B8893426D
:1052040001BF40F69E33C2F2000300221A8040F62A
:10521400C033C2F200031A8802F101021A8023E0AB
:1052240040F69E33C2F20003188840F6C432C2F23C
:1052340000021268115400F1010292B21A8040F681
:10524400C833C2F200031B88934201BF40F69E3369
:10525400C2F2000300221A8040F6C033C2F20003F7
:105264001A8802F101021A8010BC704710B440F68B
:105274009D33C2F200031A7802441A70A0F17D0330
:10528400DBB2012B50D840F69E33C2F20003B3F8D0
:1052940000C040F6C432C2F2000212684FF07D042E
:1052A40002F80C400CF1010292B21A8040F6C833A5
:1052B400C2F200031B88934201BF40F69E33C2F240
:1052C400000300221A8040F6C033C2F200031A8899
:1052D40002F101021A8040F69E33C2F20003B3F8D1
:1052E40000C040F6C432C2F20002126880F020000E
:1052F40002F80C000CF1010292B21A8040F6C83395
:10530400C2F200031B88934201BF40F69E33C2F2EF
:1053140000030020188040F6C033C2F200031A884C
:1053240002F101021A8025E040F69E33C2F2000326
:10533400B3F800C040F6C432C2F20002126802F8A8
:105344000C000CF1010292B21A8040F6C833C2F28A
:1053540000031B88934201BF40F69E33C2F2000350
:1053640000221A8040F6C033C2F200031A8802F108
:1053740001021A80CAB240F69D33C2F200031878C3
:1053840010441870A2F17D03DBB2012B50D840F613
:105394009E33C2F20003B3F800C040F6C430C2F238
:1053A400000000684FF07D0400F80C400CF101008F
:1053B40080B2188040F6C833C2F200031B888342CF
:1053C40001BF40F69E33C2F200030020188040F66D
:1053D400C033C2F20003188800F10100188040F6BF
:1053E4009E33C2F20003B3F800C040F6C430C2F2E8
:1053F4000000006882F0200200F80C200CF1010289
:1054040092B21A8040F6C833C2F200031B8893425A
:1054140001BF40F69E33C2F2000300221A8040F618
:10542400C033C2F200031A8802F101021A8025E097
:1054340040F69E33C2F20003B3F800C040F6C43015
:10544400C2F20000006800F80C200CF1010292B2D4
:105454001A8040F6C833C2F200031B88934201BF8E
:1054640040F69E33C2F200030020188040F6C03399
:10547400C2F200031A8802F101021A804FEA1121D4
:1054840040F69D33C2F200031A780A441A70A1F15F
:105494007D03DBB2012B4DD840F69E33C2F20003EC
:1054A400188840F6C432C2F2000212684FF07D0C34
:1054B40002F800C000F1010292B21A8040F6C8332B
:1054C400C2F200031B88934201BF40F69E33C2F22E
:1054D400000300221A8040F6C033C2F200031A8887
:1054E40002F101021A8040F69E33C2F200031888CA
:1054F40040F6C432C2F20002126881F02001115455
:1055040000F1010292B21A8040F6C833C2F20003DD
:105514001B88934201BF40F69E33C2F20003002071
:10552400188040F6C033C2F200031A8802F1010267
:105534001A8023E040F69E33C2F20003188840F636
:10554400C432C2F200021268115400F1010292B294
:105554001A8040F6C833C2F200031B88934201BF8D
:1055640040F69E33C2F2000300221A8040F6C03394
:10557400C2F200031A8802F101021A8010BC7047BB
:1055840010B440F69D33C2F200031A7802441A7034
:10559400A0F17D03DBB2012B50D840F69E33C2F25A
:1055A4000003B3F800C040F6C432C2F2000212682D
:1055B4004FF07D0402F80C400CF1010292B21A8003
:1055C40040F6C833C2F200031B88934201BF40F681
:1055D4009E33C2F2000300221A8040F6C033C2F2A6
:1055E40000031A8802F101021A8040F69E33C2F2C7
:1055F4000003B3F800C040F6C432C2F200021268DD
:1056040080F0200002F80C000CF1010292B21A8022
:1056140040F6C833C2F200031B88934201BF40F630
:105624009E33C2F200030020188040F6C033C2F259
:1056340000031A8802F101021A8025E040F69E3325
:10564400C2F20003B3F800C040F6C432C2F2000252
:10565400126802F80C000CF1010292B21A8040F6B2
:10566400C833C2F200031B88934201BF40F69E3345
:10567400C2F2000300221A8040F6C033C2F20003D3
:105684001A8802F101021A80CAB240F69D33C2F2AE
:105694000003187810441870A2F17D03DBB2012BCB
:1056A40050D840F69E33C2F20003B3F800C040F66F
:1056B400C430C2F2000000684FF07D0400F80C40D2
:1056C4000CF1010080B2188040F6C833C2F2000326
:1056D4001B88834201BF40F69E33C2F200030020C0
:1056E400188040F6C033C2F20003188800F10100AC
:1056F400188040F69E33C2F20003B3F800C040F6AF
:10570400C430C2F20000006882F0200200F80C20CD
:105714000CF1010292B21A8040F6C833C2F20003BF
:105724001B88934201BF40F69E33C2F2000300225D
:105734001A8040F6C033C2F200031A8802F1010253
:105744001A8025E040F69E33C2F20003B3F800C08D
:1057540040F6C430C2F20000006800F80C200CF1DE
:10576400010292B21A8040F6C833C2F200031B88C9
:10577400934201BF40F69E33C2F20003002018801A
:1057840040F6C033C2F200031A8802F101021A8003
:105794004FEA1121CAB240F69D33C2F200031878D1
:1057A40010441870A2F17D03DBB2012B50D840F6EF
:1057B4009E33C2F20003B3F800C040F6C430C2F214
:1057C400000000684FF07D0400F80C400CF101006B
:1057D40080B2188040F6C833C2F200031B888342AB
:1057E40001BF40F69E33C2F200030020188040F649
:1057F400C033C2F20003188800F10100188040F69B
:105804009E33C2F20003B3F800C040F6C430C2F2C3
:105814000000006882F0200200F80C200CF1010264
:1058240092B21A8040F6C833C2F200031B88934236
:1058340001BF40F69E33C2F2000300221A8040F6F4
:10584400C033C2F200031A8802F101021A8025E073
:1058540040F69E33C2F20003B3F800C040F6C430F1
:10586400C2F20000006800F80C200CF1010292B2B0
:105874001A8040F6C833C2F200031B88934201BF6A
:1058840040F69E33C2F200030020188040F6C03375
:10589400C2F200031A8802F101021A804FEA1121B0
:1058A400CAB240F69D33C2F200031878104418704F
:1058B400A2F17D03DBB2012B50D840F69E33C2F235
:1058C4000003B3F800C040F6C430C2F20000006820
:1058D4004FF07D0400F80C400CF1010080B21880F8
:1058E40040F6C833C2F200031B88834201BF40F66E
:1058F4009E33C2F200030020188040F6C033C2F287
:105904000003188800F10100188040F69E33C2F2AB
:105914000003B3F800C040F6C430C2F200000068CF
:1059240082F0200200F80C200CF1010292B21A80DD
:1059340040F6C833C2F200031B88934201BF40F60D
:105944009E33C2F2000300221A8040F6C033C2F232
:1059540000031A8802F101021A8025E040F69E3302
:10596400C2F20003B3F800C040F6C430C2F2000033
:10597400006800F80C200CF1010292B21A8040F683
:10598400C833C2F200031B88934201BF40F69E3322
:10599400C2F200030020188040F6C033C2F20003B4
:1059A4001A8802F101021A804FEA112140F69D3350
:1059B400C2F200031A780A441A70A1F17D03DBB223
:1059C400012B4DD840F69E33C2F20003188840F6EE
:1059D400C432C2F2000212684FF07D0C02F800C01B
:1059E40000F1010292B21A8040F6C833C2F20003F9
:1059F4001B88934201BF40F69E33C2F2000300228B
:105A04001A8040F6C033C2F200031A8802F1010280
:105A14001A8040F69E33C2F20003188840F6C4325E
:105A2400C2F20002126881F02001115400F1010257
:105A340092B21A8040F6C833C2F200031B88934224
:105A440001BF40F69E33C2F200030020188040F6E6
:105A5400C033C2F200031A8802F101021A8023E063
:105A640040F69E33C2F20003188840F6C432C2F2F4
:105A740000021268115400F1010292B21A8040F639
:105A8400C833C2F200031B88934201BF40F69E3321
:105A9400C2F2000300221A8040F6C033C2F20003AF
:105AA4001A8802F101021A8010BC704740F69D3337
:105AB400C2F200031A7802441A70A0F17D03DBB22B
:105AC400012B4DD840F69E33C2F20003198840F6EC
