:020000040800F2
:100000009407002061070008450700080000000071
:100010004507000845070008450700084507000890
:100020004507000845070008450700084507000880
:10003000450700084507000845070008F9020008C1
:100040004507000845070008450700084507000860
:100050004507000845070008450700084507000850
:100060004507000845070008450700084507000840
:100070004507000845070008450700084507000830
:100080004507000845070008450700084507000820
:100090004507000845070008450700084507000810
:1000A0004507000845070008450700084507000800
:1000B00045070008450700084507000845070008F0
:1000C00045070008450700084507000845070008E0
:1000D00045070008450700084507000845070008D0
:1000E00045070008450700084507000845070008C0
:1000F00045070008450700084507000845070008B0
:10010000450700084507000845070008450700089F
:10011000450700084507000845070008450700088F
:10012000450700084507000845070008450700087F
:1001300045070008450700080000000045070008C3
:10014000450700084507000845070008450700085F
:040150004507000857
:1001540010B5054C237833B9044B13B10448AFF3FD
:1001640000800123237010BD3C000020000000002B
:1001740054010008064B10B51BB106480649AFF3FD
:1001840000800648036813B1054B03B1984710BDBE
:100194000000000054010008400000203C00002042
:1001A400000000000D4A64231268B2FBF3F3B3F1BC
:1001B400807F0DD223F07F435A1E094B6FF00F014D
:1001C4005A60084A82F8231000229A6007321A60A3
:1001D400044B002283F82320704700BF082E000838
:1001E40010E000E000ED00E0704700BF72B6FEE7EB
:1001F40072B6FEE782B000230193019B5A1E01925E
:10020400002BFAD102B070470B4610B5302101FB28
:1002140000F11A785031782000F014FF10BD00BFAF
:1002240010B5032000F064FB032000F06DFB30BF29
:1002340062B610BD10B500F0C5FA002000F080FBD6
:10024400012000F07DFB022000F07AFB4FF6FF74E2
:10025400032000F075FB01F0A5F8204600F02AFF0A
:100264004FF2DE7000F032FC002000F023FC00208E
:1002740001461A4A00F0F8FE18200021184A00F03E
:10028400F3FE00213020174A00F0EEFE02F04CF994
:10029400E0210246302000F0E7FE204600F016FC84
:1002A4000021114A782000F0DFFE002000F00EFC4F
:1002B4004FF6E07000F0FEFBD8200C4A002100F05D
:1002C400D3FE1F2000F002FC204600F0F3FB782050
:1002D4004021074A00F0C8FE10BD00BFC842000814
:1002E400DD420008F2420008074300080C430008FE
:1002F40021430008684620F007018D4601B502F04D
:1003040007FABDE801408546704700BFF0B587B0E5
:1003140000F044F800F03CF9FFF78CFF02F0DEFA3D
:100324001848072102F098F91748282104220025CB
:1003340002F060F9154FDFF858C02E462C460136FE
:10034400F6B25CF805003A4605233146CDF814C0F0
:10035400009401940294043502F0C6FA1437052E71
:10036400DDF814C0EBD10B4B062118680A4A33465A
:1003740000940194029402F0B7FA02F0DDFA2046E8
:1003840007B0F0BD5800002090000020B800002005
:10039400E42D0008002E00081C01002070B5074C55
:1003A400074D04F1DC062046092140F8185B2C3483
:1003B40002F054FAB442F6D170BD00BF30010020FF
:1003C400C903000810B5084B044693F8DC2012B9A1
:1003D400013283F8DC202046042102F06FF8034B3D
:1003E4000220236010BD00BF30010020F503000887
:1003F40010B50B780446013B082B26D8DFE803F040
:1004040005252515152525250F004FF000034385E7
:10041400214600F11800172202F034FA13E0FFF726
:10042400E9FE0C4B0220236012E00B4BC41A0B4B69
:10043400A41003FB04F48B78E4B2A34203D108486C
:100444007821FFF7D5FE002002E0064B036003206D
:1004540010BD00BF6D04000830010020A38B2EBA2C
:10046400DC2D0008692D000810B50B780446042B18
:1004740014D0052B22D0012B30D10821032002F007
:100484008BF8184B0146E41A174BA41003FB04F431
:10049400164B8470186801F0CDFF1DE0114B124A11
:1004A400C31A9B1002FB03F38A78DBB29A4215D17C
:1004B400FFF7A0FE0E4B0220236012E0094BC41A82
:1004C400094BA41003FB04F48B78E4B2A34203D1D8
:1004D40008489021FFF78CFE002002E0064B032021
:1004E400236010BD30010020A38B2EBA002E00081B
:1004F40001050008DC2D0008692D000810B50B78F3
:100504000446013B082B34D8DFE803F0050F3324FD
:10051400243333331E004FF000034385214600F19A
:100524001800132202F0AEF90CE00320052102F0BA
:1005340033F8124BE41A124BA41003FB04F4847036
:1005440002F094F8002017E0FFF754FE0D4B022050
:10055400236011E0094BC41A094BA41003FB04F4F3
:100564008B78E4B2A342EDD10748AA21FFF740FEFD
:10057400E8E7064B0360032010BD00BF30010020F4
:10058400A38B2EBAF5030008DC2D0008692D0008A2
:10059400084B094A1A6000221A765A775A769A77D3
:1005A4009A76DA77DA7683F820201A7783F821208E
:1005B400704700BF10020020C105000810B50521D6
:1005C400044601F07BFF2046062101F077FF024B31
:1005D4000220236010BD00BFE105000870B50B7850
:1005E4000446062B0D4600F09880082B03D0052BFB
:1005F40040F0968030E0FFF7FDFDAD78042D02D881
:1006040063195B7F1BB149486021FFF7F1FD48493D
:100614002846FFF7F9FD05226B1C93FBF2F102FB60
:100624001133DBB2E3181A7E92B96219167E7EB9D1
:100634000121032011761976091801F0ADFF8570A8
:1006440002F014F828463B49FFF7DEFD30466CE023
:1006540064190123637767E0FFF7CCFDAD78042DBF
:1006640002D863195B7F1BB130487421FFF7C0FDCA
:1006740028463149FFF7C8FD05236A1C92FBF3F6AF
:1006840003FB162663191B7EF6B2012B03D1A319B3
:100694001B7E012B03D025487921FFF7A9FD0023F8
:1006A4006119A2190B7604351376053395FBF3F221
:1006B40003FB1255EDB263195A7F82B11A7E72B9E7
:1006C400012018765A7708760421023001F064FF7D
:1006D400857001F0CBFF28461649FFF795FDA31955
:1006E4005A7F0AB3711C052291FBF2F002FB10122F
:1006F400D2B2A418257EBDB9012222765D771A767E
:100704000421032001F048FF867001F0AFFF30465A
:100714000849FFF779FD284607E002F03FF903E0B6
:10072400064B0360032000E0002070BDF82D000894
:10073400334300083C43000845430008692D000882
:10074400684620F007018D4601B540F25111024878
:10075400FFF74CFDFEE700BF4E430008684620F05B
:1007640007018D4601B50023104A1148114904E0E0
:1007740051F803C042F803C0043302EB030C844570
:10078400F6D30D4B0D49002201E043F8042B8B42B4
:10079400FBD302F0FDFAFFF7B9FD09484FF4A67147
:1007A400FFF724FDBDE801408546704700000020A6
:1007B4003C000020984300083C00002094030020E3
:1007C4004E430008464B82B01A6842F001021A6098
:1007D4005968444A01EA02025A601A6822F0847293
:1007E40022F480321A601A6822F480221A605A684D
:1007F40022F4FE025A601A6822F0A0521A604FF4E2
:100804007F029A60A2F57F02DA62019200921A686E
:1008140042F480321A601A6802F400320092019A9B
:1008240001320192009A1AB9019AB2F5A06FF2D17D
:100834002B4B1B6813F4003318BF01230093009B58
:10084400012B49D1284B1A6842F010021A601A6829
:1008540022F003021A601A6842F002021A60A3F539
:1008640080535A685A605A685A605A6842F48062DF
:100874005A60D96A1D4A01EA0202DA62DA6A42F46B
:10088400823242F41172DA621A6842F080621A60AB
:100894001968134A11F0006FFAD0536823F47C13DB
:1008A4005360536843F4E8135360136843F0807350
:1008B400136011680A4B11F0007FFAD05A6822F0D5
:1008C40003025A605A6842F002025A605A6802F0FF
:1008D4000C02082AFAD100E0FEE702B0704700BF1C
:1008E400001002400000FFF00020024000F0FEFF74
:1008F400034B044A53F8203032F810201A61704731
:1009040000000020182E0008034B044A53F820303E
:1009140032F810205A61704700000020182E000899
:10092400054B064953F8203031F81010DA6881EA93
:100934000202DA60704700BF00000020182E000891
:1009440037B50C4D044605EB80039868012101F08E
:100954006BF910238DF8073003238DF80630064B0E
:1009640035F8145053F8240001A9ADF8045000F0F0
:1009740065FE3EBD182E000800000020F7B51D4D91
:10098400044605EB8005A8690E4640F001000121EC
:1009940001F04AF93CB90820012100F0E5FEE869BC
:1009A400012101F04FF9134D01AF05EB44052B8CE8
:1009B4003946ADF8043018238DF8073003238DF839
:1009C40006300D4B03EB8404206900F037FEAD8C38
:1009D4000423206939468DF80730ADF8045000F03F
:1009E4002DFE6069314601F093FC6069012101F03C
:1009F4007DFBFEBD182E000800000020054A064BB2
:100A040010B503EB800302EB4000018D986900F000
:100A14006DFE10BD182E000800000020F0B5234D17
:100A24008600AB190446186B85B00F4640F00100F0
:100A3400012105EB440501F0F7F82B8D03A9ADF86E
:100A44000C3004238DF80F30194B9E19B06900F057
:100A5400F5FD012F28D195F83C0095F8441000F0DD
:100A6400B5FEB5F84C30009300238DF804300CB17A
:100A74000C3300E00823012568468DF805308DF815
:100A8400065000F06BFD094B02A803EB4404B4F8D4
:100A940054308DF80B508DF808300F238DF8093041
:100AA4008DF80A3000F0F2FC05B0F0BD182E0008F5
:100AB4000000002082B0ADF80600BDF80620024B0D
:100AC40092B21A8002B070473402002082B0ADF8AE
:100AD4000600BDF80620024B92B21A8002B070479D
:100AE4002400002007B50820012101F09DF84FF0F3
:100AF4000403ADF8043003238DF8063003480D33A6
:100B040001A98DF8073000F099FD0EBD000C0140DD
:100B140030B5112087B0012101F086F801211E486B
:100B240000F022FE01214FF4004001F08BF81B4C31
:100B340003234FF4E05205A98DF8163018481533F5
:100B4400ADF814208DF8173000F078FD204601F040
:100B540075FA4FF48272ADF802204FF002020023BE
:100B6400ADF8062001254FF4007220466946ADF821
:100B74000030ADF80430ADF80850ADF80A20ADF8F7
:100B84000C30ADF80E3001F0D7F82046294601F0BC
:100B940019F907B030BD00BF00102000003C004030
:100BA4000010014010B500F0B9FD10BD10B5010AE8
:100BB40004460A4801F03EF90848802101F096F9FC
:100BC4000028F9D1E1B2054801F034F90348802145
:100BD40001F08CF90028F9D110BD00BF003C0040A1
:100BE40010B50421044600220648FFF7DBFF06483F
:100BF400214601F01FF90448802101F077F900280B
:100C0400F9D110BD000C0140003C004010B5044671
:100C14007020FFF7E5FF0D48002101F00BF90B48A8
:100C2400802101F063F90028F9D10848214601F038
:100C340001F90648802101F059F90028F9D1044846
:100C440004210122FFF7AEFF10BD00BF003C0040AD
:100C5400000C0140222010B5FFF7D8FF7220FFF7E7
:100C6400BFFF10BD10B50446FFF7F4FF2046FFF7A1
:100C74009DFF034804210122FFF794FF10BD00BF2C
:100C8400000C014010B50C46FFF7C0FF7220FFF7BF
:100C9400A7FF210A0C4801F0CDF80B48802101F090
:100CA40025F90028F9D1E1B2074801F0C3F8064854
:100CB400802101F01BF90028F9D104480421012204
:100CC400FFF770FF10BD00BF003C0040000C014066
:100CD40010B507200021FFF7D5FF10BD10B5072080
:100CE40040F27311FFF7CEFF10BD00BF13B5102003
:100CF4000021FFF7C7FF11200021FFF7C3FF1220D7
:100D04000021FFF7BFFF13200021FFF7BBFF0023E3
:100D14000193204B01E0019B013B0193019C002CBA
:100D2400F9D1102041F2B071FFF7ACFF112040F26D
:100D34003711FFF7A7FF0194174B01E0019B013B1B
:100D44000193019C002CF9D1122040F23911FFF7D4
:100D540099FF0194104B01E0019B013B0193019C1D
:100D6400002CF9D113204FF4E851FFF78BFF292011
:100D74001321FFF787FF0194074B01E0019B013B1F
:100D84000193019B002BF9D1072040F27311FFF767
:100D940079FF1CBD80841E0020A10700034610B506
:100DA40020200C461946FFF76DFF21202146FFF74E
:100DB40069FF10BDF0B5570089B0474C0590069106
:100DC400C7F10307164603910490034600250698CD
:100DD400B2B202EB000C1FFA8CFC61461846CDF847
:100DE40008C001920093FFF7D9FF208880B2FFF773
:100DF40039FF019A0699009B8A1A92B21846114645
:100E04000192FFF7CBFF208880B2FFF72BFFDDF8BC
:100E140008C004986146FFF7C1FF208880B2FFF73D
:100E240021FF019A04981146FFF7B8FF208880B289
:100E3400FFF718FF05985FFA86FC0CEB0002D2B2AC
:100E440010460399CDF808C00192FFF7A7FF208848
:100E540080B2FFF707FF0698019A411B89B210463A
:100E64000791FFF79BFF208880B2FFF7FBFEDDF8B8
:100E740008C00599CCEB0102D2B210460399019245
:100E8400FFF78CFF208880B2FFF7ECFE019A0799E8
:100E94001046FFF783FF208880B2FFF7E3FE002FA0
:100EA400009B03DA07EB8507063704E0AA1B0A3721
:100EB40007EB8207013E04980399421ED2B2013522
:100EC40004924A1C013392B2B542DBB203927FF61C
:100ED4007EAF09B0F0BD00BF340200202DE9F0411F
:100EE40040F23F1104460020FFF758FF0025FFF7AA
:100EF400B1FE0F4F12E0012313FA06F263591A42AE
:100F040016BF0C4B38881888013680B2FFF74EFEA6
:100F1400202EF0D10435B5F5165F01D00026EAE79E
:100F2400054804210122FFF73DFEBDE8F08100BF22
:100F34002400002034020020000C0140F7B51F46B5
:100F440004460E461546FFF729FF17B10027114B3B
:100F54001DE0FFF77FFE0F4C04E02088013780B2CC
:100F6400FFF724FEAF42F8D30B4804210122FFF718
:100F740019FE0EE01888013480B2E4B20193FFF741
:100F840071FE20463146FFF709FF019B0137AF424E
:100F9400F0D3FEBD34020020000C01402DE9F041E5
:100FA400054617461E461A4600230C46FFF7C6FFA1
:100FB4007819214632460023C0B2FFF7BFFF21460D
:100FC400013428463A460123A61BFFF7B7FFB1B206
:100FD40028463A460123FFF7B1FFBDE8F08100BF80
:100FE400F7B505460E460192FFF7D8FE124F0024CE
:100FF400FFF730FE0023019900930A5B1A4112F0B7
:10100400010F0ABF0D4A3888108880B2FFF7CEFD61
:10101400009B0133102BEED1013504210122084835
:10102400EDB2FFF7BFFD023428463146FFF7B6FEA6
:10103400302CDDD1FEBD00BF34020020240000208E
:10104400000C0140203A074BC1F59E7103314FF06B
:10105400300CD2B210B589B20CFB0232FFF7C0FFDC
:1010640010BD00BF742E0008F7B540F23F130646CA
:101074000C461746002507E02146304601931034FC
:10108400FFF7E0FF019BA4B27A5D0135111E18BF82
:1010940001219C428CBF002101F001010029EBD108
:1010A400FEBD00BF10B50021014AFFF7DDFF10BDF2
:1010B4006343000870B540F23F1104460020FFF777
:1010C4006DFEFFF7C7FD002520460135FFF76EFDD5
:1010D400B5F5963FF8D1034804210122FFF762FDDC
:1010E40070BD00BF000C0140904270B504460D462F
:1010F4001E4604D3411C8A1A91B2502001E05020AC
:101104000021FFF7BFFD51202146FFF7BBFDB5428B
:1011140004D3691C8E1BB1B2522001E0522000217D
:10112400FFF7B0FD53202946FFF7ACFD20462946C2
:10113400FFF734FE70BD00BFEF2010B540F23F1141
:10114400F0224FF4A073FFF7CFFF032041F2180100
:10115400FFF798FD10BD00BF13B5FFF7C3FCFFF701
:10116400D7FC002301938D4B01E0019B013B0193CC
:10117400019C002CF9D1E5204FF40041FFF782FDDA
:1011840020460121FFF77EFD01204FF48071FFF717
:1011940079FD02204FF4E061FFF774FD032041F272
:1011A4003001FFF76FFD04202146FFF76BFD082097
:1011B40040F20221FFF766FD09202146FFF762FD98
:1011C4000A202146FFF75EFD0C202146FFF75AFD59
:1011D4000D202146FFF756FD0F202146FFF752FD53
:1011E40010202146FFF74EFD11202146FFF74AFD4E
:1011F40012202146FFF746FD13202146FFF742FD4A
:101204000194674B01E0019B013B0193019C002C7D
:10121400F9D1102041F2B071FFF734FD112040F2F2
:101224003711FFF72FFD01945C4B01E0019B013B5B
:101234000193019C002CF9D1122040F23911FFF7DF
:1012440021FD0194554B01E0019B013B0193019C5D
:10125400002CF9D113204FF4E851FFF713FD292096
:101264001321FFF70FFD01944C4B01E0019B013B5F
:101274000193019C002CF9D120202146FFF702FDA7
:1012840021202146FFF7FEFC30200621FFF7FAFC5F
:10129400312040F20111FFF7F5FC32200321FFF762
:1012A400F1FC35204FF48371FFF7ECFC362040F657
:1012B4000231FFF7E7FC372040F20231FFF7E2FC8E
:1012C400382040F20771FFF7DDFC39200721FFF7D2
:1012D400D9FC3C204FF4C061FFF7D4FC3D2040F220
:1012E4000B21FFF7CFFC50202146FFF7CBFC512008
:1012F400EF21FFF7C7FC21465220FFF7C3FC532020
:1013040040F23F11FFF7BEFC60204FF41C51FFF781
:10131400B9FC61200121FFF7B5FC6A202146FFF7E3
:10132400B1FC80202146FFF7ADFC81202146FFF768
:10133400A9FC82202146FFF7A5FC83202146FFF764
:10134400A1FC84202146FFF79DFC85202146FFF760
:1013540099FC90201021FFF795FC92202146FFF77D
:1013640091FC93200321FFF78DFC95204FF48871A5
:10137400FFF788FC21469720FFF784FC982021463C
:10138400FFF780FC032041F21801FFF77BFC0720E4
:1013940040F27311FFF776FC1CBD00BF20A10700CB
:1013A40080841E0010B5FFF7D7FE10BD304A70B51B
:1013B4001388002423F038031B041B0C13801388A8
:1013C4009BB243F008031380FFF720FC7320FFF760
:1013D40007FC2748FF2100F02DFD2548802100F05F
:1013E40085FD0028F9D12248012100F07FFD002865
:1013F400F9D001341E48E4B200F01EFD052CE8D1FA
:101404001B48FF2100F016FD1948802100F06EFDF5
:101414000028F9D11648012100F068FD0028F9D010
:10142400134800F009FDFF210546114800F002FDB4
:101434000F48802100F05AFD0028F9D10C4C0121FD
:10144400204600F053FD0028F8D0204600F0F4FCBC
:10145400042140EA052501220648FFF7A3FB23885F
:10146400ADB223F038031B041B0C2380A8B270BD5B
:10147400003C0040000C014040F0BE60024B40F4D0
:101484002020D860704700BF00ED00E0C2780378E8
:10149400EAB1144A90F801C0D2688078D243C2F30A
:1014A4000222C2F104010CFA01FC0F21D1400140D7
:1014B40041EA0C010C4A09019A18C9B282F80013D6
:1014C4005909012203F01F0312FA03F306E0590934
:1014D400012203F01F0312FA03F32031024A42F8F7
:1014E4002130704700ED00E000E100E021F06041B0
:1014F40021F07F01024B41EA00009860704700BF71
:1015040000ED00E019B1054B1A69104303E0034BE9
:101514001A6922EA00001861704700BF00ED00E07C
:1015240004280BBF054B054B1A681A680CBF42F020
:10153400040222F004021A60704700BF10E000E0C9
:10154400044B00221A605A609A60DA60024A5A61B7
:10155400704700BF00040140FFFF0F00837910B5FE
:1015640001680279002B2CD0194B6FEA010C1C681E
:101574000CEA04041C605C680CEA040CC3F804C0A4
:1015840053F802C04CEA010199500268D3F808C02C
:10159400D14301EA0C0CC3F808C0D3F80CC001EA2B
:1015A4000C01D960417910291EBFC8580243CA50A2
:1015B4000CD1996811439960D96841EA0202DA6052
:1015C40004E0034BD05820EA0101D15010BD00BF04
:1015D4000004014000230C220360037142718371F3
:1015E400704700BF024B1A6910431861704700BF6F
:1015F40000040140034B5B6918420CBF002001202A
:10160400704700BF00040140014B5861704700BFA0
:1016140000040140054B1A685B69034008BF184683
:1016240003D010420CBF0020012070470004014089
:10163400014B5861704700BF00040140CB78F7B5F7
:1016440013F0100F18BF8A78098803F00F0C18BF25
:101654004CEA020C11F0FF0F1CD004680022012593
:1016640015FA02F606EA0105B5420FD197000F26D6
:10167400BE400CFA07F724EA06043C43282B0196E3
:1016840008BF456102D0482B08BF05610132082A12
:10169400E5D10460FF2920D9446800220191012189
:1016A40002F1080611FA06F6019906EA0105B542A7
:1016B4000FD197000F2111FA07F60CFA07F724EA65
:1016C40006043C43282B08BF456102D0482B08BFC1
:1016D40005610132082AE2D14460FEBD4FF0FF33B8
:1016E400038002238370DB18C37070478368194238
:1016F4000CBF002001207047806880B2704700BF93
:10170400C36819420CBF002001207047C06880B232
:10171400704700BF01617047416170470AB10161C0
:1017240000E04161704700BFC160704741F48033FD
:10173400836181618361836983697047064A4FF6D7
:101744008073D2F800C041EA00100CEA030340EAB7
:1017540003031360704700BF00000140014B186091
:10176400704700BF1C002042020410B5DFF858C0C7
:1017740000F44014120CB4F5401FDCF8043008D116
:10178400DCF8044023F0706324F07064CCF8044067
:1017940012E010F4801F02BF4FEA505C4FEA0C1CA9
:1017A40002FA0CFC04D0C0F3034C032404FA0CFC2E
:1017B40023EA0C0343F0706319B1400D0001824029
:1017C4001343014A536010BD0000014001F00302BD
:1017D40092004FF00F0C0CFA02FC10FA02F2084BC4
:1017E4008908023110B553F8214024EA0C0C43F85F
:1017F40021C053F821C042EA0C0243F8212010BD55
:1018040000000140014B1860704700BFDC0020421B
:101814000120014610B500F031FA0120002100F04A
:101824002DFA10BD224B10B5984205D10420012198
:1018340000F024FA042036E01E4B984205D108201B
:10184400012100F01BFA08202DE01B4B984205D122
:101854001020012100F012FA102024E0174B9842C6
:1018640005D12020012100F009FA20201BE0144BAF
:10187400984205D14020012100F000FA402012E0F6
:10188400104B984205D18020012100F0F7F9802007
:1018940009E00D4B984209D14FF48070012100F00A
:1018A400EDF94FF48070002100F0E8F910BD00BF9D
:1018B40000080140000C01400010014000140140E8
:1018C40000180140001C014000200140114B1A681F
:1018D40042F001021A6059680F4A01EA02025A6092
:1018E4001A6822F0847222F480321A601A6822F490
:1018F40080221A605A6822F4FE025A601A6822F0A2
:10190400A0521A604FF47F029A60A2F57F02DA6255
:10191400704700BF001002400000FFF00C4BB0F510
:10192400803F1A6822F480321A601A6822F48022F6
:101934001A6003D0B0F5802F08D103E01A6842F48E
:10194400803202E01A6842F4A0221A60704700BF95
:1019540000100240002382B00193094B1A680199D8
:10196400013101910199B1F5A06F02D012F4003F49
:10197400F4D0034B1868C0F3404002B0704700BF76
:1019840000100240034B1A6822F0F80242EAC00039
:101994001860704700100240014B1860704700BF88
:1019A40000004242034B5A6822F474121043084365
:1019B4005860704700100240014B1860704700BF28
:1019C40060004242054AD36A23F4803323F00F03B4
:1019D40040EA03030B43D362704700BF0010024088
:1019E400034BDA6A22F0F0021043D862704700BF5A
:1019F40000100240034BDA6A22F470621043D8628A
:101A0400704700BF00100240014B1860704700BFD0
:101A140068004242034BDA6A22F470421043D862EF
:101A2400704700BF00100240014B1860704700BFB0
:101A340070004242034B5A6822F00302104358607C
:101A4400704700BF00100240024B586800F00C00C1
:101A5400704700BF00100240034B5A6822F0F002A6
:101A640010435860704700BF00100240034B5A688F
:101A740022F4E06210435860704700BF0010024037
:101A8400034B5A6822F4605242EAC000586070471F
:101A94000010024019B1054B1A78104303E0034BC0
:101AA4001A7822EA00001870704700BF091002403B
:101AB400014B1860704700BFD8004242034B5A687C
:101AC40022F4404210435860704700BF00100240A7
:101AD400014B1860704700BFC4054242014B1860B7
:101AE400704700BFC8054242064B002201281A7005
:101AF4001A7008BF187003D0042801D105221A7087
:101B0400704700BF20100240014B1860704700BFAF
:101B140080044242024B1A6A10431862704700BFA5
:101B240000100240014B1860704700BF3C04424261
:101B3400314A10B5536803F00C03042B08BF2F4B34
:101B440031D0082B2ED153685268C3F383430D2B35
:101B540001D1062300E0023312F4803F04BF284A77
:101B6400534320D0244AD2F82CC0D16A01F00F018B
:101B740001311CF4803F08BF204A0ED0D2F82CC09B
:101B8400D26ACCF3031C1D4C0CF1010CC2F30322EA
:101B9400B4FBFCFC023202FB0CF2B2FBF1F101FBE0
:101BA40003F300E0174B144A03605168164BC1F36A
:101BB4000311595CD0F800C02CFA01F14160D2F84D
:101BC40004C0CCF3022C13F80CC021FA0CFCC0F8AE
:101BD40008C0D2F804C0CCF3C22C13F80CC021FA0C
:101BE4000CF1C1605268C2F381329B181B7CB1FBBB
:101BF400F3F1016110BD00BF0010024040787D0187
:101C040000093D0000127A002800002019B1054B9C
:101C14005A69104303E0034B5A6922EA00005861F1
:101C2400704700BF0010024019B1054B9A69104378
:101C340003E0034B9A6922EA00009861704700BFF1
:101C44000010024019B1054BDA69104303E0034B5D
:101C5400DA6922EA0000D861704700BF0010024030
:101C640019B1054B9A6A104303E0034B9A6A22EABE
:101C740000009862704700BF0010024019B1054B84
:101C8400DA68104303E0034BDA6822EA0000D86004
:101C9400704700BF0010024019B1054B1A69104388
:101CA40003E0034B1A6922EA00001861704700BF81
:101CB40000100240014B1860704700BF40044242CC
:101CC400014B1860704700BF4C004242014B187032
:101CD400704700BF071002404309012B04BF094BA2
:101CE4001B6805D0022B0BBF064B064B1B6A5B6AB5
:101CF400012200F01F0012FA00F003420CBF002082
:101D04000120704700100240024B5A6A42F0807270
:101D14005A62704700100240034B9B6818420CBF84
:101D240000200120704700BF00100240014B1870D2
:101D3400704700BF0A100240B1F802C00B88028845
:101D44004CEA0303B1F804C002F4415243EA0C0321
:101D5400B1F806C043EA0C03B1F808C043EA0C0327
:101D6400B1F80AC043EA0C03B1F80CC043EA0C030F
:101D7400B1F80EC043EA0C0342EA03039BB20380AA
:101D8400838B23F400631B041B0C83830B8A038261
:101D9400704700BF0023038043808380C380038196
:101DA40043818381C3814FF007030382704700BFDF
:101DB40000234FF00202038043808380C3800281AA
:101DC4004381704721B103889BB243F0400304E090
:101DD400038823F040031B041B0C0380704700BFDF
:101DE40021B1838B9BB243F4806304E0838B23F49F
:101DF40080631B041B0C8383704700BF0909012304
:101E040013FA01F189B21AB183889BB2194303E032
:101E140083889BB223EA0101818070471AB18388C9
:101E24009BB2194303E083889BB223EA01018180BA
:101E3400704700BF81817047808980B2704700BFBE
:101E44004FF6FF63994205D003889BB243F4807335
:101E5400038002E0038819400180704721B1838820
:101E64009BB243F0040304E0838823F004031B04BF
:101E74001B0C8380704700BF038823F400631B049A
:101E84001B0C038003889BB219430180704700BF79
:101E940003889BB243F480530380704721B10388C5
:101EA4009BB243F4005304E0038823F400531B045F
:101EB4001B0C0380704700BF012914BF008B808A6C
:101EC40080B27047008A80B2704700BFB1F5804F7E
:101ED40002BF03889BB243F4804304D0038823F4F5
:101EE40080431B041B0C0380704700BF0389194205
:101EF4000CBF002001207047C94389B2018170479B
:101F0400012301F00F0213FA02F2B0F804C00089B1
:101F14001FFA8CFC80B2104006D009098B401CEAE1
:101F2400030F0CBF00200120704700BF01F00F0118
:101F340001238B40DB439BB203817047838BF0B555
:101F440023F47A6323F01F031B041B0C83834FF0D9
:101F5400020303840B89868B022B87B004460D464B
:101F6400B6B201D1002247E0314B8F883149DA6A99
:101F740088420CBF4FF400314FF48021002F0CBF76
:101F840001270227114216D0DB6AC3F303339A1FD9
:101F9400082A01D8023302E00F2B08BF1423244A75
:101FA4002549D26AC2F303120132B1FBF2F25200A4
:101FB40003FB02F303E001A8FFF7BAFD019BEA88E3
:101FC400B2F5007F2A8904D11B0A0A2101FB03F31D
:101FD40005E07F01B3FBF7F30A2707FB03F3B3FB29
:101FE400F2F305330A229BB2B3FBF2F303F00102CE
:101FF4001202C3F34F0392B2991E89B2FE2928BF7D
:10200400002228BF0223E98813430B439BB2238495
:102014002B886A8846EA030343F400631343AA88BF
:1020240013436A8913439BB2A38307B0F0BD00BF77
:10203400001002400038004040787D01134B10B579
:1020440098420AD101214FF48050FFF717FE4FF454
:1020540080500021FFF712FE17E00D4B984207D184
:102064004FF480400121FFF717FE4FF4804009E050
:10207400084B984209D14FF400400121FFF70CFEB0
:102084004FF400400021FFF707FE10BD003001406F
:1020940000380040003C00404FF4165303604FF0FA
:1020A4000C02A3F516538380C3800381428183818C
:1020B400704700BFB1F802C00A88038A4CEA0202E2
:1020C400B1F804C0C98823F4706342EA0C021B040B
:1020D4000A431B0C92B242EA03030382704700BF17
:1020E4000023038043808380C380704721B18389A8
:1020F4009BB243F4005304E0838923F400531B048C
:102104001B0C8381704700BFC1F342134FF0010CD5
:1021140001F01F0163450CFA01F101D10C3004E018
:10212400022B01D1103000E014301AB1036843EAE5
:10213400010102E0036823EA01010160704700BF66
:102144001AB1838A9BB2194303E0838A9BB223EAC0
:1021540001018182704700BF038A23F00F031B042F
:102164001B0C0382038A9BB219430182704700BF90
:10217400838923F400631B041B0C838183899BB232
:1021840019438181704700BF21B183899BB243F019
:10219400020304E0838923F002031B041B0C8381E4
:1021A400704700BF038A23F020031B041B0C038227
:1021B400038A9BB219430182704700BF21B1038A8D
:1021C4009BB243F4804304E0038A23F480431B045A
:1021D4001B0C0382704700BFC905C90D818070477D
:1021E4008088C005C00D704783899BB243F001030A
:1021F40083817047038BDBB20383038B9BB243EA77
:1022040001210183704700BF038B03F47F430383E1
:10221400038B9BB219430183704700BF21B1838AAA
:102224009BB243F0200304E0838A23F020031B04C1
:102234001B0C8382704700BF21B1838A9BB243F099
:10224400100304E0838A23F010031B041B0C838215
:10225400704700BF21B1838A9BB243F0080304E0B6
:10226400838A23F008031B041B0C8382704700BF7E
:10227400838A23F004031B041B0C8382838A9BB28E
:1022840019438182704700BF21B1838A9BB243F016
:10229400020304E0838A23F002031B041B0C8382E1
:1022A400704700BF038819420CBF0020012070470B
:1022B400C94389B20180704701F01F030122C1F3B1
:1022C400421C9A40BCF1010F08BF838904D0BCF1C1
:1022D400020F0CBF038A838A9BB202EA0303090A32
:1022E400012212FA01F1028892B211420CBF0020BD
:1022F4000120002B0CBF002000F00100704700BF3C
:10230400090A01238B40DB439BB20380704700BF63
:10231400038ACA8823F440531B041B0C134303820F
:1023240030B50D4683890989AA8823F4B05341EA5C
:102334000202698923F00C030A431B041B0C92B2AA
:1023440042EA03038381838AAA8923F440731B042A
:102354001B0C134387B00446838201A8FFF7E8FBF4
:102364000F4B2A689C420CBF049B039B192101FB61
:1023740003F39200B3FBF2F16423B1FBF3F2120115
:10238400100903FB101109013231B1FBF3F303F01F
:102394000F0343EA020292B2228107B030BD00BFAC
:1023A400003801401E4B10B598420AD101214FF468
:1023B4008040FFF763FC4FF480400021FFF75EFC90
:1023C4002DE0184B984207D14FF400300121FFF75C
:1023D40063FC4FF400301FE0134B984207D14FF4D5
:1023E40080200121FFF758FC4FF4802014E00F4BAC
:1023F400984207D14FF400200121FFF74DFC4FF420
:10240400002009E00A4B984209D14FF480100121C1
:10241400FFF742FC4FF480100021FFF73DFC10BD94
:10242400003801400044004000480040004C004097
:102434000050004070B504460D4672B64B780BB19F
:1024440001334B706368ABB9217D184A1848525C5C
:10245400184B656000EB020C1D789CF801C0415CD0
:1024640045EA0C0C03F801CB13F802C04CEA010155
:10247400995418E0E37B1BB90F484521FDF7B8FEDA
:10248400A368627B43F82250637B0BB9237B63739D
:10249400637B227C013B6373E37B013BDBB29A42A7
:1024A400E37388BF237462B670BD00BF084100089F
:1024B40080400008880300204440000870B5144B95
:1024C400047D03290D461E5D11D9124B1A78231E73
:1024D40018BF01238A4294BF002303F0010333B1E0
:1024E4003F2C04D80C4B53F82430834203D00B48C0
:1024F4003021FDF77DFE72B6094B1B6803EBC50561
:10250400084BAA5D1B5D42EA0303AB5562B670BD7E
:10251400084100087C0300203C0200204C400008D5
:1025240080030020804000080048704754400008A1
:1025340010B5047D631EDBB23E2B04D8074B53F861
:102544002430834203D006484C21FDF751FE72B675
:10255400024B002243F8242062B610BD3C02002046
:102564005C40000870B5047D0546631EDBB23E2B5B
:1025740003D8074B53F824301BB106483821FDF724
:1025840037FE72B6024B43F8245062B670BD00BFEA
:102594003C0200205C400008F7B5134B074601914C
:1025A4000024124E14250AE001341A78E4B2A2423F
:1025B40005D80F4830210093FDF71AFE009B05FB58
:1025C40004608289BA42EFD300F0D4F8054618B902
:1025D40007483A21FDF70CFE019B0134A4012B703E
:1025E4006C702846FEBD00BF780300203C03002029
:1025F400644000082DE9F041144B06461B780F4651
:10260400022B154603D912482E21FDF7F1FD0F4B7D
:102614001B785BB10F4A013B142101FB03239B8907
:10262400AB4203D30A481D31FDF7E2FD074C094BC9
:102634002278142000FB023031462B463A4600F043
:10264400C3F8237801332370BDE8F08178030020B8
:102654006C4000083C030020024B1860024B1970C8
:10266400704700BF800300207C030020F0B5224B9C
:1026740002781B7885B09A42044603D31F482C2164
:10268400FDF7B6FD72B663780BB10133637062B6C1
:1026940008251B4922780B68013DEDB203EBC20308
:1026A4005E5DEB00DBB203932F46164B1AE0164A2D
:1026B4001649955D4A5D03996D18EDB253F82510DE
:1026C40039B90E48553102920193FDF791FD019BF2
:1026D400029A53F825002146019302EA0606FFF701
:1026E400A9FE019B002EE2D13D46002FD1D1204608
:1026F40000F0BCF905B0F0BD7C0300207440000874
:10270400800300203C02002098410008C4400008D7
:102714002DE9F04172B6154D154F2C6800261FE0C7
:10272400238A013B9BB22382B3B9638A0BB1238210
:102734000CE02B689C42A36808BF2B6005D00BB14A
:1027440062685A606368A2689A60666062B6E0680C
:102754002146FFF76FFE01E062B63E7072B6A468D0
:10276400002CDDD162B6BDE8F08100BF84030020F7
:1027740036020020034672B6006848B10268598ADE
:102784001A601A8A013A92B291421A8288BF5A8216
:1027940062B6704710B5044618B1084B1B788342E3
:1027A40003D207484521FDF723FD72B662B6054BF7
:1027B400013C142202FB0434608A10BD780300201B
:1027C4004C4100083C030020F7B515460A1E18BF0B
:1027D4000122032D94BF002202F0010204460E469A
:1027E4001AB11A1D92B29A4205D81B483721019397
:1027F400FDF7FEFC019B16F003021CBFC2F10402AC
:10280400AD1AB21822600427012202E00437013213
:10281400BFB29F42FAD3BD42A78105D20E484C21D4
:102824000192FDF7E5FC019A4FF00103E381ED1BF2
:102834002368920005E0981801311860ED1BE181CE
:102844000346BD42E189F6D200221A6021826182E8
:102854006660A360FEBD00BF54410008032970B543
:1028640004460D4603D806482921FDF7C1FC002380
:102874006360A360E360238263822570637070BD2C
:102884006041000870B504460D4616466AB10378E7
:10289400032B0AD94368D3F1010338BF002300296D
:1028A4000CBF002303F001031BB908483021FDF7D6
:1028B4009FFC64602682E56072B6054B1B68A360CA
:1028C40003B15C60024B1C6062B670BD6C410008D1
:1028D400840300200048704774410008704700BF1B
:1028E40010B5FFF725FE10BD2DE9F0411F464B1E24
:1028F4001646DBB2069A3E2B8CBF00230123002A26
:1029040014BF002303F0010304460D461BB9094814
:102914006721FDF76DFC3146201DFAB200F09CF8EA
:1029240020462575FFF71EFE2046089900F0E2F8C0
:10293400BDE8F0817C410008F7B5FDF733FC144C89
:10294400144F154D72B62378F3B12278134652B161
:102954002378EB5C013BDBB2E2185278AA5C02EB11
:10296400C30303F0FF0357F8233062B618460193FC
:1029740000F030F8019B06463146184600F004F991
:10298400304600F073F8DDE7FDF74AFCDAE700BFF4
:10299400880300203C0200209841000810B5FDF790
:1029A40023FC10BD3F2810B5044603D8074B53F849
:1029B40020301BB906485A21FDF71AFC72B662B6DC
:1029C400024B53F82430187C10BD00BF3C02002099
:1029D4008841000870B5044672B643681BB91A48AA
:1029E4003021FDF705FCE27B237B60689A420DD021
:1029F400A27BA16851F82210616002B9A373A37B82
:102A0400013BA373E37B0133E3731AE0257DDFF815
:102A14003CC0002363601CF805200D4B0D499E5CEF
:102A24004D5D06EA05059D549A5C52B9227D13F862
:102A3400015C1CF8022089184A7805EA020203F8AE
:102A4400012C62B670BD00BF88410008084100082F
:102A540089030020C440000800230360416002721F
:102A640043728372C2720273704700BF70B54578B7
:102A74000446DDB172B605F03F03012B03DD013DD1
:102A8400457062B612E0AD09013DEDB262B6084B85
:102A94001B78AB4203D807484921FDF7A9FB064B35
:102AA400142000FB0530214600F008F870BD00BF7B
:102AB40078030020904100083C030020436870B56F
:102AC4008B4204460D4606D88368994203D8028A8D
:102AD400C3899A4203D906482D21FDF789FB72B6B2
:102AE400236825602B60238A0133238262B670BD7C
:102AF40098420008F0B5036887B004469847022856
:102B040003D01C482D21FDF773FB1B4E2368204680
:102B140000931A49002798473D4606E001354DF8D1
:102B2400073020461549EDB2984723680437B3426D
:102B3400F4D1EFB2009E7BB2052B266003DD0D4875
:102B44004321FDF755FB7FB200AB03EB8707013D43
:102B540057F8043920460A49EDB2984715F0800F1A
:102B6400F5D020460749B0470228CFD0266007B0E9
:102B7400F0BD00BFA0420008692D0008C042000853
:102B8400C2420008C6420008F0B505688BB004468E
:102B94000E46216820460391039A31469047032844
:102BA400F7D0022802BF27680595049740F0CC802F
:102BB40007E020466649A84710B920466549A8475A
:102BC4002568039B9D42F4D1BD420DD02046614946
:102BD400B84723689D420AD0019320465D49A8471F
:102BE4002668019B9E4208D120465949A8470025E2
:102BF4006EB204AB03EB86066BE0BE4204D1204602
:102C04005349A847FF25F3E70593204651499847C0
:102C1400012500221FE0236803996F1C8B42FFB239
:102C24000BD17AB2052A05DD4B4879210193FDF7D2
:102C3400DFFA019B0122002007E002920193204663
:102C440044499847019B029AFDB27FB20AA901EB5D
:102C5400870747F8183C0328DDD0EFB2002AC7D114
:102C64007BB2052B03DD3C488421FDF7C1FA039BAD
:102C74002046374998477FB204AB03EB87073A46AF
:102C8400EBB2116803F1FF338E4214D0DBB2043A85
:102C940013F0800FF5D0EDB220462D49B04710B99E
:102CA40020462C49B04726683A462B46116803F162
:102CB400FF338E4201D1DDB29AE7DBB2043A13F05E
:102CC400800FF3D0E8E77368204624499847013D14
:102CD400EDB2043E15F0800FF5D00AA9039151F826
:102CE400185D039125602AE023682046049319495E
:102CF400002798473E4606E0039A0136D351204602
:102D04001449F6B2984723680437AB42F4D1F7B2BA
:102D1400049D7BB2052B256003DD0F48D721FDF709
:102D240067FA039A7FB202EB8707013E57F804392A
:102D340020460A49F6B2984716F0800FF5D020468F
:102D44000749A8470228CFD025600BB0F0BD00BFCB
:102D5400C4420008C0420008AC420008C242000855
:102D6400C64200080120704770B5074D074E761B18
:102D7400B61006D0002455F8243001349847A642F2
:102D8400F9D801F0FDFA70BD944300089843000897
:102D940070B50D4D0D4E761BB61006D0002455F8B7
:102DA400243001349847A642F9D8094D01F0E2FADB
:102DB400084E761BB61006D0002455F82430013492
:102DC4009847A642F9D870BD904300089043000884
:102DD40090430008944300087068696C6F2E630088
:102DE400300100205C01002088010020B401002093
:102DF400E00100207461626C652E63001002002003
:102E040000A24A0400A24A0400A24A040051250276
:102E140000A24A04800000200800100020000000E6
:102E2400200000002000000020000000200000001E
:102E3400000002002000000040000000010000200B
:102E44000002000004000000100000000800000060
:102E5400000002000100000000000D000900000055
:102E640001000020000200000600280017000000F6
:102E7400000000000000000000000000000000004E
:102E8400000000000000000000000000000000003E
:102E9400000000000000000000000000000000002E
:102EA4000000800180018001800180018001800197
:102EB4008001800180018001800180010000000008
:102EC40080018001000000000000000000000000FC
:102ED40000000000CC00CC00CC00CC00CC00CC0026
:102EE40000000000000000000000000000000000DE
:102EF40000000000000000000000000000000000CE
:102F0400000000000000000000000000600C600CE5
:102F1400600C30063006FE1FFE1F3006380718030B
:102F2400FE1FFE1F180318038C018C018C01000086
:102F340000008000E003F80F9C0E8C1C8C188C00A1
:102F44009800F801E007800E801C8C188C189C18DF
:102F5400B80CF00FE00380008000000000000000C7
:102F64000000000000000E181B0C110C11061106C5
:102F7400110311039B018E01C038C06C604460448E
:102F8400304430441844186C0C3800000000000031
:102F94000000E001F0033807180618063003F001BA
:102FA400F000F8009C310E33061E061C061C063F7A
:102FB400FC73F0210000000000000000000000008D
:102FC400000000000C000C000C000C000C000C00B5
:102FD40000000000000000000000000000000000ED
:102FE40000000000000000000000000000000000DD
:102FF4000000000200038001C000C0006000600007
:10300400300030003000300030003000300030003C
:1030140060006000C000C0008001000300020000E6
:10302400000020006000C000800180010003000354
:10303400000600060006000600060006000600065C
:103044000003000380018001C00060002000000034
:10305400000000000000000000000000C000C000EC
:10306400D806F807E001300338070000000000002C
:10307400000000000000000000000000000000004C
:10308400000000000000000000000000800180013A
:10309400800180018001FC3FFC3F800180018001B0
:1030A400800180010000000000000000000000001A
:1030B400000000000000000000000000000000000C
:1030C40000000000000000000000000000000000FC
:1030D4000000800180010001000180000000000068
:1030E40000000000000000000000000000000000DC
:1030F4000000000000000000E007E00700000000FE
:1031040000000000000000000000000000000000BB
:1031140000000000000000000000000000000000AB
:10312400000000000000000000000000000000009B
:103134000000C000C000000000000000000000000B
:103144000000000C000C000600060006000300034B
:1031540000038003800180018001C000C000C00022
:10316400600060000000000000000000000000009B
:103174000000E003F007380E180C0C180C180C189B
:103184000C180C180C180C180C180C18180C380EF9
:10319400F007E00300000000000000000000000051
:1031A400000000018001C001F00198018801800144
:1031B4008001800180018001800180018001800103
:1031C40080018001000000000000000000000000F9
:1031D4000000E003F80F180C0C180C180018001865
:1031E400000C000600038001C000600030001800DD
:1031F400FC1FFC1F00000000000000000000000095
:103204000000E001F807180E0C0C0C0C000C000672
:10321400C003C007000C001800180C180C18180C78
:10322400F807E003000000000000000000000000B8
:103234000000000C000E000F000F800DC00C600C8D
:10324400600C300C180C0C0CFC3FFC3F000C000C08
:10325400000C000C00000000000000000000000052
:103264000000F80FF80F180018000C00EC03FC071E
:103274001C0E001C0018001800180C181C0C180E4A
:10328400F807E00300000000000000000000000058
:103294000000C007F00F381C181818000C00CC03ED
:1032A400EC0F3C0E1C1C0C180C180C18181C380EB7
:1032B400F007E00300000000000000000000000030
:1032C4000000FC1FFC1F000C000600060003800326
:1032D4008001C001C000E0006000600070003000A8
:1032E400300030000000000000000000000000007A
:1032F4000000E003F007380E180C180C180C380600
:10330400F007F007180C0C180C180C180C18380CD3
:10331400F80FE003000000000000000000000000BF
:103324000000E003F007380E1C0C0C180C180C18E5
:103334001C1C381EF81BE0190018000C000C1C0E95
:10334400F807F00100000000000000000000000089
:103354000000000000000000000000008001800167
:103364000000000000000000000000000000000059
:103374008001800100000000000000000000000047
:103384000000000000000000000000008001800137
:103394000000000000000000000000000000000029
:1033A4008001800100010001800000000000000095
:1033B4000000000000000000000000000000000009
:1033C4000010001C800FE003F8001800F800E00370
:1033D400800F001C0010000000000000000000002E
:1033E40000000000000000000000000000000000D9
:1033F400F81F000000000000F81F0000000000009B
:1034040000000000000000000000000000000000B8
:1034140000000000000000000000000000000000A8
:1034240008003800F001C007001F0018001FC00783
:10343400F001380008000000000000000000000057
:103444000000E003F80F180C0C180C180018000CFE
:10345400000600038001C000C000C000000000009E
:10346400C000C000000000000000000000000000D8
:1034740000000000E00718180420C229224A114461
:1034840009440944094409221113E20C02400420AE
:103494001818E00700000000000000000000000011
:1034A400000080038003C006C006C006600C600CE8
:1034B400301830183018F83FF83F1C700C600C605E
:1034C40006C006C00000000000000000000000006C
:1034D4000000FC03FC0F0C0C0C180C180C180C0C42
:1034E400FC07FC0F0C180C300C300C300C300C1892
:1034F400FC1FFC07000000000000000000000000AA
:103504000000C007F01F38381C300C70066006003D
:103514000600060006000600060006600C701C305B
:10352400F01FE007000000000000000000000000A1
:103534000000FE03FE0F060E0618061806300630BD
:103544000630063006300630063006180618060E19
:10355400FE0FFE0300000000000000000000000059
:103564000000FC3FFC3F0C000C000C000C000C00A5
:10357400FC1FFC1F0C000C000C000C000C000C00C9
:10358400FC3FFC3F000000000000000000000000C1
:103594000000F83FF83F1800180018001800180041
:1035A400F81FF81F18001800180018001800180059
:1035B40018001800000000000000000000000000D7
:1035C4000000E00FF83F3C780E6006E007C00300FF
:1035D400030003FE03FE03C007C006C00EC03CF098
:1035E400F83FE00F000000000000000000000000B1
:1035F40000000C300C300C300C300C300C300C3023
:10360400FC3FFC3F0C300C300C300C300C300C30D8
:103614000C300C300000000000000000000000002E
:10362400000080018001800180018001800180010F
:10363400800180018001800180018001800180017E
:103644008001800100000000000000000000000074
:10365400000000060006000600060006000600063C
:1036640000060006000600060006180618063807BD
:10367400F003E00100000000000000000000000072
:10368400000006300618060C060606038601C6006E
:1036940066007600DE008E0106030606060C061898
:1036A400063006600000000000000000000000007A
:1036B400000018001800180018001800180018005E
:1036C4001800180018001800180018001800180036
:1036D400F81FF81F000000000000000000000000B8
:1036E40000000EE01EF01EF01EF036D836D836D894
:1036F40036D866CC66CC66CCC6C6C6C6C6C6C6C6F2
:1037040086C386C300000000000000000000000023
:1037140000000C301C303C303C306C306C30CC3011
:10372400CC308C310C330C330C360C360C3C0C3C4A
:103734000C380C3000000000000000000000000005
:103744000000E007F81F1C380E70066003C003C0B9
:1037540003C003C003C003C003C006600E701C385E
:10376400F81FE00700000000000000000000000057
:103774000000FC0FFC1F0C380C300C300C300C30EB
:103784000C18FC1FFC070C000C000C000C000C00B7
:103794000C000C000000000000000000000000000D
:1037A4000000E007F81F1C380E70066003E003C039
:1037B40003C003C003C003C007E006630E3F1C3C04
:1037C400F83FE0F700C00000000000000000000027
:1037D4000000FE0FFE1F063806300630063006389D
:1037E400FE1FFE0706030606060C0618061806301A
:1037F4000630066000000000000000000000000029
:103804000000E003F80F1C0C0C180C180C001C0032
:10381400F803E00F001E0038063006300E301C1C82
:10382400F80FE007000000000000000000000000A6
:103834000000FE7FFE7F8001800180018001800105
:10384400800180018001800180018001800180016C
:103854008001800100000000000000000000000062
:1038640000000C300C300C300C300C300C300C30B0
:103874000C300C300C300C300C300C300C30181870
:10388400F81FE00700000000000000000000000036
:10389400000003600630063006300C180C180C18B3
:1038A400180C180C380E30063006700760036003DD
:1038B400C001C00100000000000000000000000082
:1038C40000000360C361C361C3616633663366335A
:1038D4006633663366336C1B6C1B6C1B2C1A3C1EE4
:1038E400380E380E00000000000000000000000048
:1038F40000000FE00C7018303018700C600EC00718
:1039040080038003C003E006700C301C18180C30D0
:103914000E6007E00000000000000000000000004E
:10392400000003C006600C301C383818300C6006E8
:10393400E007C003800180018001800180018001D3
:103944008001800100000000000000000000000071
:103954000000FC7FFC7F006000300018000C0006B3
:1039640000038001C0006000300018000C00060055
:10397400FE7FFE7F00000000000000000000000049
:103984000000E003E003600060006000600060008D
:103994006000600060006000600060006000600023
:1039A40060006000600060006000E003E00300006D
:1039B400000030003000600060006000C000C00003
:1039C400C000C001800180018001000300030003E6
:1039D40000060006000000000000000000000000D7
:1039E4000000E003E00300030003000300030003FE
:1039F40000030003000300030003000300030003AB
:103A040000030003000300030003E003E0030000DD
:103A140000000000C001C0016003600360033006C1
:103A24003006180C180C0000000000000000000014
:103A34000000000000000000000000000000000082
:103A44000000000000000000000000000000000072
:103A54000000000000000000000000000000000062
:103A64000000FFFFFFFF0000000000000000000056
:103A740000000C000C000C000C000C000C000000FA
:103A84000000000000000000000000000000000032
:103A94000000000000000000000000000000000022
:103AA400000000000000000000000000F003F80720
:103AB4001C0C0C0C000FF00FF80C0C0C0C0C1C0F55
:103AC400F80FF018000000000000000000000000E3
:103AD400000018001800180018001800D803F80F88
:103AE400380C181818181818181818181818380C2A
:103AF400F80FD803000000000000000000000000E0
:103B0400000000000000000000000000C003F007F7
:103B1400300E180C1800180018001800180C300E7D
:103B2400F007C003000000000000000000000000D7
:103B3400000000180018001800180018C01BF01F1F
:103B4400301C181818181818181818181818301CB9
:103B5400F01FC01B00000000000000000000000077
:103B6400000000000000000000000000C003F00F8F
:103B7400300C1818F81FF81F180018003818301CDB
:103B8400F00FC0070000000000000000000000006B
:103B94000000800FC00FC000C000C000F007F00795
:103BA400C000C000C000C000C000C000C000C00011
:103BB400C000C00000000000000000000000000081
:103BC400000000000000000000000000E00DF80FFD
:103BD400180E0C0C0C0C0C0C0C0C0C0C0C0C180E05
:103BE400F80FE00D000C0C0C1C06F807F0010000A7
:103BF400000018001800180018001800D807F80F63
:103C0400381C18181818181818181818181818180C
:103C14001818181800000000000000000000000040
:103C24000000C000C000000000000000C000C00090
:103C3400C000C000C000C000C000C000C000C00080
:103C4400C000C000000000000000000000000000F0
:103C54000000C000C000000000000000C000C00060
:103C6400C000C000C000C000C000C000C000C00050
:103C7400C000C000C000C000C000F8007800000010
:103C840000000C000C000C000C000C000C0C0C06CA
:103C94000C038C01CC006C00FC009C018C030C0315
:103CA4000C060C0C000000000000000000000000E6
:103CB4000000C000C000C000C000C000C000C000C0
:103CC400C000C000C000C000C000C000C000C000F0
:103CD400C000C00000000000000000000000000060
:103CE4000000000000000000000000007C3CFF7E9B
:103CF400C7E383C183C183C183C183C183C183C13A
:103D040083C183C100000000000000000000000027
:103D14000000000000000000000000009807F80FF9
:103D2400381C1818181818181818181818181818EB
:103D3400181818180000000000000000000000001F
:103D4400000000000000000000000000C003F00FAD
:103D5400300C181818181818181818181818300CC7
:103D6400F00FC0030000000000000000000000008D
:103D7400000000000000000000000000D803F80F5D
:103D8400380C181818181818181818181818380C87
:103D9400F80FD803180018001800180018000000C5
:103DA400000000000000000000000000C01BF01F25
:103DB400301C181818181818181818181818301C47
:103DC400F01FC01B0018001800180018001800008D
:103DD400000000000000000000000000B007F00335
:103DE400700030003000300030003000300030000F
:103DF400300030000000000000000000000000005F
:103E0400000000000000000000000000E003F003D8
:103E1400380E180C3800F003C007000C180C380ECC
:103E2400F007E003000000000000000000000000B4
:103E3400000000008000C000C000C000F007F007D0
:103E4400C000C000C000C000C000C000C000C0006E
:103E5400C007800700000000000000000000000010
:103E640000000000000000000000000018181818EE
:103E74001818181818181818181818181818381C9A
:103E8400F01FE01900000000000000000000000026
:103E94000000000000000000000000000C18180CD6
:103EA400180C180C300630063006600360036003FB
:103EB400C001C0010000000000000000000000007C
:103EC400000000000000000000000000C141C141EA
:103ED400C3616363636363633636363636361C1CEC
:103EE4001C1C1C1C0000000000000000000000005E
:103EF4000000000000000000000000001C38381C16
:103F0400300C600660036003600360036006300CDD
:103F1400381C1C38000000000000000000000000F5
:103F240000000000000000000000000018303018FD
:103F340030187018600C600CE00CC006C0068003DA
:103F44008003800380018001C001F0007000000044
:103F5400000000000000000000000000FC1FFC1F27
:103F6400000C000600038001C0006000300018004F
:103F7400FC1FFC1F00000000000000000000000007
:103F8400000000038001C000C000C000C000C000E9
:103F9400C00060006000300060004000C000C0004D
:103FA400C000C000C000C000800100030000000089
:103FB4000000800180018001800180018001800176
:103FC40080018001800180018001800180018001E5
:103FD4008001800180018001800180018001000056
:103FE40000006000C000C0018001800180018001E8
:103FF400800100030003000600030001800180012A
:104004008001800180018001C00060000000000088
:10401400000000000000000000000000000000009C
:10402400F010F81F080F000000000000000000005E
:10403400000000000000000000000000000000007C
:1040440071615F6669666F0071615F73756200001C
:10405400342E312E3032000071665F6163740000CB
:1040640071665F6E6577000071665F706F6F6C00DC
:1040740071665F70737075620000000000010204D5
:10408400081020408001020408102040800102042E
:10409400081020408001020408102040800102041E
:1040A400081020408001020408102040800102040E
:1040B4000810204080010204081020408000000005
:1040C400FFFEFDFBF7EFDFBF7FFEFDFBF7EFDFBF7A
:1040D4007FFEFDFBF7EFDFBF7FFEFDFBF7EFDFBFEA
:1040E4007FFEFDFBF7EFDFBF7FFEFDFBF7EFDFBFDA
:1040F4007FFEFDFBF7EFDFBF7FFEFDFBF7EFDFBFCA
:104104007F00000000000000000000000001010129
:10411400010101010102020202020202020303037D
:10412400030303030304040404040404040505054D
:10413400050505050506060606060606060707071D
:104144000707070707000000716D705F676574005B
:10415400716D705F696E6974000000007174655F51
:1041640063746F72000000007174655F61726D00AA
:10417400342E302E303000007176616E696C6C61C3
:104184000000000071615F6765745F0071665F67BE
:104194006300000000010202030303030404040497
:1041A40004040404050505050505050505050505BF
:1041B400050505050606060606060606060606069F
:1041C400060606060606060606060606060606068B
:1041D400060606060707070707070707070707076F
:1041E400070707070707070707070707070707075B
:1041F400070707070707070707070707070707074B
:10420400070707070707070707070707070707073A
:10421400070707070808080808080808080808081E
:10422400080808080808080808080808080808080A
:1042340008080808080808080808080808080808FA
:1042440008080808080808080808080808080808EA
:1042540008080808080808080808080808080808DA
:1042640008080808080808080808080808080808CA
:1042740008080808080808080808080808080808BA
:1042840008080808080808080808080808080808AA
:1042940008080808716D705F707574007168736D3B
:1042A4005F696E69000000007168736D5F64697313
:1042B40000000000342E312E3032000000000100D6
:1042C400020003002020205175616E74756D204C2E
:1042D400656170732020202000202020202044507D
:1042E40050206578616D706C65202020200051504D
:1042F4002F432856616E696C6C6129202020202090
:104304002020004450503A00202073746174652DBD
:104314006D616368696E652E636F6D200030202CBB
:1043240031202C32202C33202C34202020200068F3
:10433400756E677279202000656174696E6720204C
:10434400007468696E6B696E67007374617274756A
:10435400705F73746D3332663130785F636C002044
:104364002020202020202020202020202020202049
:1043740020202000F8B500BFF8BC08BC9E4670475A
:0C438400F8B500BFF8BC08BC9E467047AE
:0443900079010008A7
:0443940055010008C7
:1043980000140140001401400014014000140140C1
:1043A8000014014000440040000801400010014092
:1043B800000C0140FFFF00000000000001020304A0
:0C43C800010203040607080902040608AD
:040000050800076187
:00000001FF
