:1000000038070020810E0000650E0000000000008F
:10001000650E0000650E0000650E0000650E000014
:10002000650E0000650E0000650E000081200000D6
:10003000650E0000650E000055200000F100000074
:1000400039010000650E0000650E0000650E00001D
:10005000650E0000650E0000650E0000650E0000D4
:10006000650E0000650E0000650E0000650E0000C4
:10007000650E0000650E0000650E0000650E0000B4
:10008000650E0000650E0000650E0000650E0000A4
:10009000650E0000650E0000650E0000650E000094
:1000A000650E0000650E0000650E0000650E000084
:1000B000650E0000650E0000650E0000650E000074
:1000C000650E0000650E0000650E0000650E000064
:1000D000650E0000650E0000650E0000650E000054
:1000E000650E0000650E0000650E0000650E000044
:1000F000684620F007018D4619B572B640F2F51436
:10010000C2F20004237803F10103DBB2237062B66C
:1001100001F0A0FC72B6237803F1FF33DBB2237049
:100120004EF60453CEF200034FF080521A6062B6CE
:10013000BDE8194085467047684620F007018D46A6
:1001400031B572B640F2F514C2F20004237803F11F
:100150000103DBB2237062B642F26833C0F20003DF
:100160001D684FF002004FF0070101F083FB0146CC
:10017000284601F007FA72B6237803F1FF33DBB2A9
:1001800023704EF60453CEF200034FF080521A60F3
:1001900062B6BDE831408546704700BF10B500F03B
:1001A00009FF4FF46043C4F20F03D3F8082142F073
:1001B0000502C3F8082100BF00BF00BF4FF4C043D1
:1001C000C4F20003D3F8002442F02002C3F8002454
:1001D000D3F81C2542F02002C3F81C254FF0000480
:1001E000C3F88040D3F8002422F01002C3F80024A2
:1001F000D3F81C2542F01002C3F81C254FF0010073
:1002000000F008FA42F25060C0F200002146224697
:1002100000F044F942F26060C0F2000021464FF065
:10022000010200F03BF910BD00B583B00B788DF8EA
:1002300004304FF000038DF8053000EBC0004FEAAA
:10024000400101A801F106014FF0010200F026F97A
:1002500003B000BD40B14FF4C043C4F200034FF0FF
:100260002002C3F8802070474FF4C043C4F200035B
:100270004FF00002C3F88020704700BF82B04FF0FB
:1002800000030193019B03F1FF320192002BF9D18E
:1002900002B0704740F2E813C2F200031A6848F651
:1002A0008903C8F68803A3FB02134FEA1313B3F1C3
:1002B000807F16D223F07F4303F1FF324EF210030A
:1002C000CEF200035A604FF46D42CEF200024FF0BE
:1002D000E00182F823104FF000029A604FF007020D
:1002E0001A604FF46D43CEF200034FF0200283F802
:1002F00023204FF46143CEF200034FF0000283F855
:1003000000234FF001021A60704700BF704700BF22
:1003100072B64FF4C043C4F200034FF02002C3F89A
:1003200080204FF00002C3F8802062B6704700BF03
:1003300072B6FEE708B5FFF7FBFF08BD4FF00003FC
:10034000C4F202034FF07A021A6098604FF0030281
:100350005A6070470138FDD17047704710B50446A8
:100360004FF00002C4F202025369002BFCD040F2AD
:100370000403C2F200031868FFF7ECFF4FF000031C
:10038000C4F202039C604FF001025A6010BD00BF2E
:1003900038B505464FF00002C4F202025369002B43
:1003A000FCD040F20403C2F200031C682046FFF7B1
:1003B000D1FF4FF00003C4F202039D604FF005022D
:1003C0005A604FF00002C4F202025369002BFCD0C5
:1003D0002046FFF7BFFF38BD2DE9F0410D46B9B10A
:1003E00006464FF00004C4F2020440F20407C2F2D1
:1003F00000074FF001086369002BFCD03868FFF755
:10040000A9FF16F8013BA360C4F80480013DF2D1B6
:10041000BDE8F08170B54FF08000FFF78FFF40F22C
:100420000403C2F200031E7942F28403C0F2000307
:10043000002E03F1080018BF18464FF00601FFF721
:10044000CBFF4FF05F044FF000052846FFF786FF13
:10045000013CFAD14FF00000FFF79AFF4FF0800007
:10046000FFF76CFF002E0C4B03F1080018BF184675
:100470004FF00601FFF7B0FF4FF000042546284675
:10048000FFF76CFF04F101045F2CF8D14FF000007E
:10049000FFF77EFF70BD00BF942000002DE9F843F8
:1004A00006460C4615464FF08000FFF747FF002D2B
:1004B00014BFB120B020FFF751FF4FF08000FFF7CD
:1004C0004DFF40F20403C2F200035D79281900F0E9
:1004D0000F00FFF743FF4FF08000FFF73FFF651964
:1004E000C5F3031040F01000FFF738FF4FF0400055
:1004F000FFF734FF3378002B3DD1BDE8F88304F1DA
:1005000006045A2C1CD803EB8303A3F1A00038186F
:100510004146FFF761FF5A2C03D02E4615F8013BE8
:100520002BB94FF00000FFF733FFBDE8F8834846D2
:10053000FFF714FF15F8013C002BE0D1BDE8F8836C
:10054000C4F15F0542F28404C0F2000403EB8303AC
:10055000E018A0F180002946FFF73EFF3378A3F1B1
:10056000200303EB8303E418651995F82000FFF7D7
:100570000FFFBDE8F8835A2CE2D806F10105034FBE
:100580004FF005084FF00009BDE700BFA4200000B0
:100590002DE9F84F0446154698460A9F40F2040399
:1005A000C2F2000393F805A08A4487B3CAF3031983
:1005B00049F010094FF080060AF00F0A08F1FF3BDE
:1005C0003046FFF7BBFE002D14BFB120B020FFF76F
:1005D000C5FE3046FFF7C2FE5046FFF7BFFE30466D
:1005E000FFF7BCFE4846FFF7B9FE4FF04000FFF7AB
:1005F000B5FE20465946FFF7EFFE444414F8010CBF
:10060000FFF7C6FE013F02D005F10105D8E7BDE8BE
:10061000F88F00BF2DE9F84304464FF46043C4F25D
:100620000F03D3F8042142F48052C3F80421D3F815
:10063000082142F00202C3F808215A68C2F30032CE
:10064000D6B240F20403C2F200031A71002E00F089
:10065000BB8040F20403C2F200034FF004025A715F
:100660004FF46043C4F20F03D3F8082142F00802AC
:10067000C3F808214FF00100FFF76CFE4FF4E04390
:10068000C4F20003D3F8002442F08002C3F800242F
:100690004FF08002C3F800224FF4A043C4F20003DD
:1006A000D3F8002422F00C02C3F80024D3F820244D
:1006B00042F00C02C3F82024D3F8002542F00C02CB
:1006C000C3F80025D3F8182522F00C02C3F818252A
:1006D000D3F80C2542F00C02C3F80C25D3F81025F2
:1006E00042F00C02C3F81025D3F81C2542F00C028E
:1006F000C3F81C25D3F8282522F00C02C3F82825BE
:100700004FF00003C4F202031A6A42F010021A62A8
:1007100048F2A062C0F201024FF4D453C0F20603C3
:10072000002C0CBF14461C4604EB84044FEA8404DE
:1007300040F2E813C2F200031B6803F1FF331B19F8
:10074000B3FBF4F404F1FF344FF00003C4F20203EE
:10075000DC60DA6840F20403C2F2000302F1010235
:1007600002EB02124FEA82021A604FF0000442F2DA
:100770008408C0F2000808F51377B9461AE05EB3A2
:1007800008F5FE7563195878FFF7D8FD04F10200EB
:10079000615D2818A1F10201FFF71EFE635D08EB01
:1007A0000402D31893F8FC01FFF7F2FD2B5D03F16F
:1007B0000103E418002E0CBF71234D239C42DED3AD
:1007C000FFF728FEBDE8F88340F20403C2F20003FD
:1007D0004FF024025A715FE7E3195878FFF7AEFD36
:1007E00004F10200E15D3818A1F10201FFF7F4FD08
:1007F000E35D08EB0402D31893F84C02FFF7C8FD41
:100800004D46D3E72DE9F0414FF0000442F2840752
:10081000C0F2000707F51376B04619E02BB307F5D1
:10082000FE7563195878FFF789FD04F10200615DD8
:100830002818A1F10201FFF7CFFD635D3A19D31823
:1008400093F8FC01FFF7A4FD2B5D03F10103E4180D
:1008500040F20403C2F200031B79002B0CBF71228B
:100860004D229442DAD3BDE8F081A3195878FFF7FE
:1008700065FD04F10200A15D3018A1F10201FFF74E
:10088000ABFDA35D3A19D31893F84C02FFF780FD36
:100890004546D9E708B54FF08000FFF74FFD4FF010
:1008A000AE00FFF75BFD4FF08000FFF757FD4FF004
:1008B000AD00FFF753FD4FF08000FFF74FFD4FF005
:1008C0008A00FFF765FD08BD2DE9F04184B00546BB
:1008D0000C4600F077F900F0ADFA28462146FFF704
:1008E0005DFC00F055FD40F20C05C2F20005284603
:1008F0004FF0070101F046F805F138004FF02801EC
:100900004FF0040200F0FAFF174F05F160054FF0B9
:10091000000426464FF0050804F10104E4B257F83C
:10092000040F00960196029621462A46434600F09F
:1009300049FD05F11405052CEED142F26833C0F2F1
:10094000000318684FF000040094019402944FF0E3
:100950000601064A4FF0050300F034FD00F020FDCB
:10096000204604B0BDE8F08148230000D0000020FC
:1009700010B5044640F2E403C2F200031B7833B919
:1009800040F2E403C2F200034FF001021A70204665
:100990004FF0040100F0AEFE40F6A913C0F20003D0
:1009A00023604FF0020010BD38B504460B7803F108
:1009B000FF33082B35D8DFE803F00534341B1B3434
:1009C000343411004FF00005458500F11800214630
:1009D0004FF0070201F040F9284638BDFFF74EFC02
:1009E00040F63D23C0F2000323604FF0020038BD03
:1009F000114BC41A4FEAA40448F6A333CBF62E23B6
:100A000003FB04F38A78DBB29A4212D142F24430FB
:100A1000C0F200004FF07801FFF78AFC4FF00000B1
:100A200038BD41F6D573C0F2000303604FF00300F8
:100A300038BD4FF0000038BDE800002010B5044676
:100A40000B78042B1FD0052B35D0012B4CD14FF048
:100A500003004FF0080100F00DFF0146284BE41A97
:100A60004FEAA40448F6A333CBF62E2303FB04F38A
:100A7000837042F26833C0F20003186800F082FD10
:100A80004FF0000010BD1E4A821A4FEAA20248F63B
:100A9000A333CBF62E2303FB02F38A78DBB29A4210
:100AA00022D1FFF7EBFB40F60533C0F200032360D1
:100AB0004FF0020010BD124BC41A4FEAA40448F6CE
:100AC000A333CBF62E2303FB04F38A78DBB29A42DE
:100AD00012D142F24430C0F200004FF09001FFF713
:100AE00027FC4FF0000010BD41F6D573C0F20003A3
:100AF00023604FF0030010BD4FF0000010BD00BF99
:100B0000E800002038B504460B7803F1FF33082BCA
:100B10004BD8DFE803F005114A31314A4A4A270031
:100B20004FF00005458500F1180021464FF0050201
:100B300001F092F8284638BD4FF003004FF0050150
:100B400000F098FE1E4BE41A4FEAA40448F6A333C3
:100B5000CBF62E2303FB04F3837000F01BFF4FF052
:100B6000000038BDFFF78AFB40F6A913C0F200036E
:100B700023604FF0020038BD114BC41A4FEAA404A1
:100B800048F6A333CBF62E2303FB04F38A78DBB2BB
:100B90009A4212D142F24430C0F200004FF0AA0152
:100BA000FFF7C6FB4FF0000038BD41F6D573C0F229
:100BB000000303604FF0030038BD4FF0000038BD64
:100BC000E80000202DE9F0414FF000052C460C4EC6
:100BD00040F67117C0F200074FF02C08775108FB60
:100BE000046000F118004FF0090101F01DF804F154
:100BF000010405F12C05052CF0D1BDE8F08100BF02
:100C0000E800002010B504464FF0050100F072FD29
:100C100020464FF0060100F06DFD40F62D43C0F276
:100C2000000323604FF0020010BD00BFF8B504467A
:100C30000D460B78062B00F0EA80082B03D0052B1D
:100C400040F0EA804AE0FFF719FBAD78042D02D8A6
:100C500063195B7F3BB142F26030C0F200004FF09D
:100C60006001FFF765FB284642F27061C0F20001A7
:100C7000FFF7DAFA05F1010346F26762C6F266622F
:100C800082FB03124FEA620202EB82029B1ADBB282
:100C9000E218127EDAB96219127EC2B961194FF0F8
:100CA00001020A76E3181A764FF003004FF00401B0
:100CB00000F0E0FD857000F06DFE284642F27C6198
:100CC000C0F20001FFF7B0FA4FF00000F8BD641960
:100CD0004FF0010363774FF00000F8BDFFF7CEFA45
:100CE000AD78042D02D863195B7F3BB142F26030CE
:100CF000C0F200004FF07401FFF71AFB284642F2E1
:100D00008861C0F20001FFF78FFA05F1010346F296
:100D10006766C6F2666686FB03264FEA660606EB42
:100D200086069E1BF6B263191B7E012B03D1A31905
:100D30001B7E012B07D042F26030C0F200004FF062
:100D40007901FFF7F5FA62194FF000031376A21943
:100D5000137605F1040346F26767C6F2666787FB00
:100D600003174FEA670707EB8707DF1BFFB2E3199B
:100D70005B7FDBB1E3191B7EC3B9E3194FF00102BE
:100D80001A7665192A764FF000025A774FF0030061
:100D90004FF0040100F06EFD877000F0FBFD384657
:100DA00042F27C61C0F20001FFF73EFAA3195B7FBB
:100DB000002B39D006F1010346F26762C6F2666283
:100DC00082FB03124FEA620202EB82029B1ADBB241
:100DD000E218127E002A2AD1E3184FF001021A7697
:100DE000A41922764FF0000565774FF003004FF00D
:100DF000040100F03FFD867000F0CCFD304642F269
:100E00007C61C0F20001FFF70FFA2846F8BD00F040
:100E1000C3FA4FF00000F8BD41F6D573C0F20003ED
:100E200003604FF00300F8BD4FF00000F8BD4FF035
:100E30000000F8BD40F2C413C2F2000340F60542C0
:100E4000C0F200021A604FF000021A765A775A7602
:100E50009A779A76DA77DA7683F820201A7783F809
:100E600021207047684620F007018D4601B542F207
:100E70009460C0F2000040F20711FFF75BFAFEE752
:100E8000684620F007018D4601B540F20002C2F22B
:100E9000000240F20403C2F200039A4211D242F26D
:100EA000AC62C0F2000240F20003C2F2000340F262
:100EB0000400C2F2000052F8041B43F8041B8342F2
:100EC000F9D340F20402C2F2000240F25033C2F2FF
:100ED00000039A420AD213464FF0000140F250320A
:100EE000C2F2000243F8041B9342FBD301F07CF8EA
:100EF000FFF7EAFC42F29460C0F200004FF4817107
:100F0000FFF718FABDE8014085467047704700BFFB
:100F1000EFF30980704700BF80F30988704700BF76
:100F2000EFF30880704700BF80F30888704700BF68
:100F3000EFF31280704700BF80F31188704700BF45
:100F4000EFF31080704700BF80F31088704700BF38
:100F5000EFF31380704700BF80F31388704700BF22
:100F600000BA704740BA7047C0BA704790FAA0F014
:100F7000704700BFD0E84F0FC0B27047D0E85F0F96
:100F800080B2704750E8000F704700BFC1E8400FC3
:100F9000704700BFC1E8500F704700BF41E8000034
:100FA000704700BFEFF31480704700BF80F31488D0
:100FB000704700BF30B482B04FF46043C4F20F03F7
:100FC00042F61002C0F280721A6743F6D122C0F2D4
:100FD0008E721A6642F6C222C0F28E421A6642F63B
:100FE0001002C0F280021A674FF000030193019BC8
:100FF000B3F57A7F09D240F2E73200BF019B03F1DB
:1010000001030193019B9342F7D94FF46043C4F26B
:101010000F0340F6C222C0F28E421A6642F6100258
:10102000C0F280021A674FF000030193019BB3F5F1
:101030007A7F09D240F2E73200BF019B03F101033E
:101040000193019B9342F7D94FF46043C4F20F031D
:1010500040F6C222C0F2CE421A661B6D13F0400F5A
:1010600008D14FF46042C4F20F0200BF136D13F0B9
:10107000400FFAD04FF46043C4F20F0340F2C22293
:10108000C0F2CE421A6642F61002C0F280021A671F
:101090004FF000030193019BB3F57A7F09D240F230
:1010A000E73200BF019B03F101030193019B9342CF
:1010B000F7D94FF46043C4F20F03196E1A6F002A78
:1010C000B4BF02F0700301F03003202B00F08580E4
:1010D00004D883B1102B40F0528115E0602B00F052
:1010E000E580702B00F0DF80302B08BF47F23053D3
:1010F00040F04581DCE042F26C33C0F20003C1F302
:10110000841053F82030D3E04FF46043C4F20F034F
:101110001B6813F0E04F04BF4EF2C013C0F2E403AB
:1011200000F0C6804FF46043C4F20F0318684FF01C
:101130000003C7F2FF0300EA0303B3F1805F04BFBB
:101140004EF2C013C0F2E40300F0B2804FF46043EB
:10115000C4F20F0318684FF00003C7F2FF0300EA60
:1011600003034FF00000C1F2010083420DD14FF4A0
:101170006043C4F20F031B689BB2022B04BF4FF401
:10118000D853C0F2B70300F093804FF46043C4F229
:101190000F0318684FF00003C7F2FF0300EA0303D0
:1011A0004FF00000C1F2030083421CBF4FF4105304
:1011B000C0F2F4037CD14FF46043C4F20F031C6807
:1011C000A4B24FF4D853C0F2B7034FF41050C0F29A
:1011D000F400002C18BF03466AE04FF46043C4F2E9
:1011E0000F031B6813F0E04F04BF43F67003C0F217
:1011F00039035DD04FF46043C4F20F0318684FF019
:101200000003C7F2FF0300EA0303B3F1805F04BFEA
:1012100043F67003C0F239034AD04FF46043C4F27E
:101220000F0318684FF00003C7F2FF0300EA03033F
:101230004FF00000C1F2010083420CD14FF4604333
:10124000C4F20F031B689BB2022B04BF4CF2C063B5
:10125000C0F22D032CD04FF46043C4F20F03186882
:101260004FF00003C7F2FF0300EA03034FF0000052
:10127000C1F2030083421CBF4FF41063C0F23D0370
:1012800016D14FF46043C4F20F031C68A4B24CF2B1
:10129000C063C0F22D034FF41060C0F23D00002C7B
:1012A00018BF034604E04FF4004301E04FF480030D
:1012B000002A03DA12F4006F03D03AE011F4006F51
:1012C00037D14FF46044C4F20F04606E246814F008
:1012D000E04F0DD04FF46044C4F20F0425684FF086
:1012E0000004C7F2FF0405EA0404B4F1805F0CD1E6
:1012F000C0F3481404F1020404FB03F300F01F04DC
:1013000004F10204B3FBF4F30BE0C0F3481404FB54
:1013100003F300F01F0404F101044FEA4404B3FB9B
:10132000F4F310F4804F18BF5B0810F4004F18BF9F
:101330009B0811F4800F1DD0002A15DA12F0804F9F
:101340000BD012F4006F08D14FEA4303C2F3865268
:1013500002F10102B3FBF2F30CE0C2F3C55202F159
:101360000102B3FBF2F305E0C1F3C35101F1010146
:10137000B3FBF1F340F2E812C2F20002136002B0D4
:1013800030BC704742F2C830C0F20000704700BF66
:1013900008B500F04DFE08BD08B5FEF7B7FF08BD63
:1013A00008B572B640F20003C2F200034FF000022B
:1013B0001A7000F03DF862B6FEF76CFFFEF7A8FF6A
:1013C000FCE700BFF8B504460D4616461F4601F17E
:1013D000FF33DBB23E2B04D912484FF06001FEF719
:1013E000A7FF04F104003146FAB200F0C1F92575F7
:1013F000204600F0CDF9079BD3F1010338BF00234D
:10140000069A002A14BF002303F0010323B90548FC
:101410004FF06A01FEF78CFF2046089900F04AFC65
:10142000F8BD00BFD023000008B500F0D1F908BD19
:101430002DE9F04740F2F513C2F200031B783BB1EF
:1014400042F2D430C0F200004FF03001FEF770FFDE
:1014500040F2EC13C2F200031B78002B66D040F27E
:10146000EC11C2F200010B7842F21042C0F200020D
:10147000D35C03F1FF33DBB2C9184978525C02EB4D
:10148000C30303F0FF0340F20002C2F2000212782D
:10149000934250D940F2F812C2F2000212789342FD
:1014A00049D940F20002C2F2000292F800A05FFAAD
:1014B0008AF940F2FC17C2F20007904640F2EC169F
:1014C000C2F2000657F8235088F8003062B628466A
:1014D00000F0A8F804462846214600F049FC2046C2
:1014E00000F098F972B63378C3B1337842F2104203
:1014F000C0F20002D35C03F1FF33DBB2F11849788C
:10150000525C02EBC30303F0FF03994506D240F29D
:10151000F812C2F2000212789342D3D840F20003CC
:10152000C2F2000383F800A0BDE8F08740F2000398
:10153000C2F200031B78BDE8F08700BF024672B616
:1015400040F2F813C2F2000318781B7893423EBFB2
:1015500040F2F813C2F200031A7062B6704700BF7F
:1015600008B572B640F2F813C2F200031B7883424A
:1015700006D940F2F813C2F200031870FFF758FFC3
:1015800062B608BD38B504460D4672B64B7813B145
:1015900003F101034B7063681BBB656040F2EC1301
:1015A000C2F200031D78217D42F2B452C0F2000263
:1015B000505C42F22C52C0F200021418647845EAE2
:1015C00004041C701B185878525C40EA02025A70DE
:1015D00040F2F513C2F200031B780BBBFFF728FFA4
:1015E0001EE0E37B3BB942F2E030C0F200004FF076
:1015F0004501FEF79DFE627BA36843F82250637BA2
:101600000BB9237B6373637B03F1FF336373E37B6A
:1016100003F1FF33DBB2E373227C9A4288BF237469
:1016200062B638BD38B5044672B643683BB942F27B
:10163000E830C0F200004FF03001FEF779FE60683C
:10164000E37B227B93420ED0A17BA56855F8215005
:10165000656001B9A273A27B02F1FF32A27303F1AC
:101660000103E37326E04FF000036360217D42F243
:10167000B453C0F200035C5C40F2EC13C2F200030E
:101680001B195D7842F27052C0F20002525C05EA0A
:1016900002025A705B786BB940F2EC13C2F200039D
:1016A000197842F27052C0F200021419627801EA0D
:1016B00002021A7062B638BD10B504463F2806D83B
:1016C00040F2FC13C2F2000353F820303BB942F25F
:1016D000E830C0F200004FF05A01FEF729FE72B662
:1016E00062B640F2FC13C2F2000353F82430187CB7
:1016F00010BD00BF70B50D46047D42F2B453C0F278
:1017000000031E5D032917D940F24433C2F20003DF
:101710001A78231E18BF01238A4294BF002303F0C6
:1017200001034BB13F2C07D840F2FC13C2F2000377
:1017300053F82430834207D042F2F030C0F2000068
:101740004FF03001FEF7F4FD72B640F24033C2F2C2
:1017500000031B6803EBC50542F22C53C0F20003E3
:10176000AA5D1B5D42EA0303AB5562B670BD00BFC4
:101770004FF0000303604160027243728372C272D1
:101780000273704742F2F830C0F20000704700BFA9
:1017900038B50546047D04F1FF33DBB23E2B06D895
:1017A00040F2FC13C2F2000353F8243023B107487F
:1017B0004FF04001FEF7BCFD72B640F2FC13C2F2DE
:1017C000000343F8245062B638BD00BF0024000077
:1017D00010B5047D04F1FF33DBB23E2B07D840F295
:1017E000FC13C2F2000353F82430834204D00848AB
:1017F0004FF05401FEF79CFD72B640F2FC13C2F2AA
:1018000000034FF0000243F8242062B610BD00BF71
:101810000024000038B5044645784DB372B605F093
:101820003F03012B04DD05F1FF35457062B638BD7D
:101830004FEA951505F1FF35EDB262B640F200337F
:10184000C2F200031B78AB4207D842F20840C0F254
:1018500000004FF04901FEF76BFD05EB850540F2F6
:101860000433C2F2000303EB8500214600F0BCF90B
:1018700038BD00BF2DE9F843074689464FF0000404
:1018800040F20435C2F2000540F20036C2F2000612
:1018900042F21058C0F200080AE004F10104E4B278
:1018A0003378A34204D840464FF03001FEF740FDA4
:1018B00004EB840305EB83039B89BB42EDD304EB6C
:1018C000840040F20433C2F2000303EB800000F016
:1018D000F7F8054638B942F21050C0F200004FF058
:1018E0003A01FEF725FD85F8009004F101044FEA66
:1018F00084146C702846BDE8F88300BFF8B506462E
:101900000F46154640F20033C2F200031B78022B4B
:1019100007D942F21850C0F200004FF02E01FEF736
:1019200007FD40F20033C2F200031B78A3B140F27E
:101930000032C2F2000203F1FF3303EB830302EB38
:101940008302138AAB4207D342F21850C0F2000060
:101950004FF03101FEF7ECFC40F20034C2F200041B
:1019600004F10402237803EB830302EB8300314686
:101970003A462B4600F0D6F8237803F10103237092
:10198000F8BD00BF40F24033C2F200031860197185
:10199000704700BF2DE9F04F83B0074640F2443353
:1019A000C2F2000302781B789A4207D342F2205019
:1019B000C0F200004FF02C01FEF7BAFC72B67B7843
:1019C00013B103F101037B7062B64FF0080B40F2D4
:1019D0004031C2F20001019142F21049C0F2000907
:1019E00042F2705AC0F2000A40F2FC16C2F200063F
:1019F0000BF1FF3B5FFA8BFB3A7801990B6803EB25
:101A0000C20313F80B40E4B14FEACB085FFA88F841
:101A100019F804501AF805301C404544EDB256F848
:101A200025303BB942F22050C0F200004FF0550182
:101A3000FEF77EFC56F825003946FFF7A3FD002C83
:101A4000E6D1BBF1000FD3D13846FFF7E3FE03B078
:101A5000BDE8F08FF8B572B640F24C33C2F2000325
:101A60001C68002C2AD01E464FF0000540F2483773
:101A7000C2F20007238A03F1FF339BB22382BBB972
:101A8000638A0BB123820DE033689C4202D1A368C4
:101A9000336006E0A3680BB162685A606368A268AD
:101AA0009A60656062B6E0682146FFF76BFD01E071
:101AB00062B63D7072B6A468002CDBD162B6F8BD88
:101AC000034672B6006850B102681A601A8A02F1C1
:101AD000FF3292B21A82598A914288BF5A8262B604
:101AE000704700BF10B5044630B140F20033C2F277
:101AF00000031B78834207D242F2F850C0F2000084
:101B00004FF04501FEF714FC72B662B640F20433A2
:101B1000C2F2000304F1FF3404EB840403EB8403FA
:101B2000588A10BD2DE9F041044617461E468846E6
:101B3000032A94BF0023012300290CBF002303F0D4
:101B4000010323B106F104039BB29E4207D342F284
:101B50000060C0F200004FF03601FEF7E9FBC4F868
:101B600000804FF00403A381042E9CBF04230125B1
:101B70000BD94FF004034FF0010503F104039BB2AE
:101B800005F101059E42F8D8A3811E469F4207D267
:101B900042F20060C0F200004FF04401FEF7C8FBC3
:101BA000BF1B4FF00103E3812268BE4288BF13468A
:101BB0000FD84FEA8505C6F10001BF1B00E01A46A9
:101BC00053191360E28902F10102E2817F18F742A2
:101BD000F5D34FF000021A60E28922826282C4F8D3
:101BE0000480A360BDE8F08138B504460D46436823
:101BF0008B4206D88368994203D8028AC3899A42E5
:101C000007D942F20C60C0F200004FF02D01FEF740
:101C10008FFB72B623682B602560238A03F10103D2
:101C2000238262B638BD00BF38B504460D4603298D
:101C300007D842F21460C0F200004FF02901FEF70D
:101C400077FB4FF000036360A360E360238263824D
:101C50002570637038BD00BF70B504460D4616464A
:101C600062B10378032B09D942680B1E18BF012308
:101C7000002A14BF002303F001033BB942F22060A5
:101C8000C0F200004FF03001FEF752FB2682646084
:101C9000E56072B640F24C33C2F200031B68A360E9
:101CA00003B15C6040F24C33C2F200031C6062B6C8
:101CB00070BD00BF2DE9F04186B005460368984726
:101CC000022807D042F22860C0F200004FF02D0138
:101CD000FEF72EFB41F6D576C0F2000642F24867C9
:101CE000C0F2000707F102082C6800942846394624
:101CF000A0472B68B34202BF2C60264600241DD0AB
:101D00004FF0000404F10104E4B262B206A901EB51
:101D1000820242F8183C2846394698472B68B3425D
:101D2000F0D1009E2E6063B2052B07DD42F22860E1
:101D3000C0F200004FF04401FEF7FAFA63B206AABF
:101D400002EB830353F8183C28464146984704F1B8
:101D5000FF34E4B214F0800FF0D028460349B047B6
:101D60000228C1D02E6006B0BDE8F0814E260000EA
:101D70002DE9F04786B005460C4606682F682846D0
:101D80002146B8470328F9D0022840F01681D5F83B
:101D90000090CDF800900196BE420ED08A4C42F2DF
:101DA0004868C0F2000828462146B04710B92846C6
:101DB0004146B0472E68B742F5D14F4508D1284675
:101DC0008149B847FDE014F0800F00F09A80A8E048
:101DD000284642F24861C0F20001C8472C68A74279
:101DE00000F0EF80284642F24861C0F20001B84797
:101DF000D5F80080A04503D128467349B847E0E0F4
:101E0000C14503D128467049B8478AE00194284665
:101E100042F24861C0F20001A047032802BF01243A
:101E200042F24869C0F2000901D02AE0344604F1C8
:101E30000106F6B22B6872B206A901EB820242F8E3
:101E4000183C9F420BD176B2052EBCDD42F23460C5
:101E5000C0F200004FF07A01FEF76AFAB3E72846B5
:101E6000494698470328E1D0344676B2052E0ADD6C
:101E700042F23460C0F200004FF08501FEF758FADC
:101E800001E04FF0010428464F49B84723465AB2B3
:101E900006A901EB820252F8182C904503D103F1F8
:101EA000FF33DCB28FE703F1FF33DBB213F0800FB7
:101EB000EDD04FF0010A444E42F24869C0F20009E9
:101EC000274628463146C04710B928464946C047EC
:101ED000D5F800803B465AB206A901EB820252F8BF
:101EE000182C424503D103F1FF33DCB26BE703F159
:101EF000FF33DBB213F0800FEDD0BAF1000FE0D169
:101F000061E7324E63B206AA02EB830353F8183C32
:101F100028463146984704F1FF34E4B214F0800FAC
:101F2000F0D0009E2E60DFF8A890A9F104083FE0F1
:101F30002C680094284642F24861C0F20001A04794
:101F40002B68B34202BF2C602646002421D04FF0FC
:101F5000000442F24867C0F2000704F10104E4B251
:101F600062B206A901EB820242F8183C28463946C3
:101F700098472B68B342F0D1009E2E6063B2052BC8
:101F800007DD42F23460C0F200004FF0D901FEF7E5
:101F9000CFF963B206AA02EB830353F8183C284634
:101FA0004146984704F1FF34E4B214F0800FF0D0BA
:101FB00028464946B0470228BAD02E6006B0BDE890
:101FC000F0874FF000049CE74C2600004A260000F2
:101FD0004E2600004FF00100704700BF42F2406003
:101FE000C0F20000704700BF70B500240C4D0D4ECC
:101FF000761BB61003E055F8043B01349847B44211
:10200000F9D3094DFEF782FF084E0024761BB61067
:1020100003E055F8043B01349847B442F9D370BD4E
:10202000AC260000AC260000AC260000AC26000068
:10203000EFF3108072B606498A68FF231B041A4327
:102040008A604A681B021A434A6080F3108870470E
:1020500018ED00E072B608480078002805D001218C
:102060000906064803B486B0704762B67047FFF7AA
:10207000DFF962B600DF0000EC0100206E200000F6
:1020800008B07047B080048010400000B080048029
:1020900012400000B180048010400000B180048034
:1020A00012400000000000000000004F0000000788
:1020B000000700147F147F14242A7F2A1223130898
:1020C000646236495522500005030000001C22417D
:1020D000000041221C0014083E081408083E0808AD
:1020E0000050300000080808080800606000002068
:1020F000100804023E5149453E00427F40004261C3
:102100005149462141454B311814127F102745454E
:1021100045393C4A49493001710905033649494965
:1021200036064949291E00363600000056360000A2
:10213000081422410014141414140041221408023B
:1021400001510906324979413E7E1111117E7F49C4
:102150004949363E414141227F4141221C7F494944
:1021600049417F090909013E4149497A7F08080828
:102170007F00417F41002040413F017F0814224100
:102180007F404040407F020C027F7F0408107F3E6A
:102190004141413E7F090909063E4151215E7F09C7
:1021A000192946464949493101017F01013F404013
:1021B000403F1F2040201F3F4038403F6314081419
:1021C0006307087008076151494543007F4141009A
:1021D00002040810200041417F0004020102044073
:1021E00040404040000102040020545454787F488D
:1021F0004444383844444420384444487F38545494
:102200005418087E0901020C5252523E7F08040401
:102210007800447D40002040443D007F1028440069
:1022200000417F40007C041804787C08040478385E
:10223000444444387C14141408081414187C7C0892
:102240000404084854545420043F4440203C404077
:10225000207C1C2040201C3C4030403C442810285E
:10226000440C5050503C4464544C440008364100E7
:1022700000007F0000004136080002010204020055
:102280000480AE80E30680AD808A80E30680A8806B
:102290001F80E30480C880E30480A080E30480D82A
:1022A00080E304800580E304804080E30680818031
:1022B0005D80E30680D9801180E30680D5800180AF
:1022C000E30680D3800080E30480AF80E300000059
:1022D0000480AE80E304800480E304801280E3067F
:1022E0008081802B80E30480A180E304804080E330
:1022F0000680D3800080E30680A8800F80E30480FE
:10230000A480E30480A680E30480B080E30480C856
:1023100080E30680D5807280E30680D8800080E369
:102320000680D9802280E30680DA801280E306806E
:10233000DB800F80E30680AD808B80E30480AF807C
:10234000E30000007068696C6F2E6300E8000020F5
:1023500014010020400100206C01002098010020A1
:102360007461626C652E6300C401002040420F005E
:1023700000201C0080841E0000802500999E3600ED
:102380000040380000093D0000803E0000004B0086
:10239000404B4C0000204E00808D5B0000C05D0073
:1023A0000080700000127A0000007D008096980086
:1023B000001BB7000080BB00C0E8CE00647ADA00E2
:1023C0000024F4000000FA00342E312E30370000D3
:1023D000716B0000716B5F736368656400000000DF
:1023E00071615F6669666F0071615F6765745F0048
:1023F00071615F7375620000342E312E303700003A
:1024000071665F616374000071665F67630000005E
:10241000000102020303030304040404040404048B
:10242000050505050505050505050505050505055C
:10243000060606060606060606060606060606063C
:10244000060606060606060606060606060606062C
:10245000070707070707070707070707070707070C
:1024600007070707070707070707070707070707FC
:1024700007070707070707070707070707070707EC
:1024800007070707070707070707070707070707DC
:1024900008080808080808080808080808080808BC
:1024A00008080808080808080808080808080808AC
:1024B000080808080808080808080808080808089C
:1024C000080808080808080808080808080808088C
:1024D000080808080808080808080808080808087C
:1024E000080808080808080808080808080808086C
:1024F000080808080808080808080808080808085C
:10250000080808080808080808080808080808084B
:1025100071665F6E6577000071665F706F6F6C004B
:1025200071665F7073707562000000000001020444
:10253000081020408001020408102040800102049D
:10254000081020408001020408102040800102048D
:10255000081020408001020408102040800102047D
:102560000810204080010204081020408000000074
:10257000FFFEFDFBF7EFDFBF7FFEFDFBF7EFDFBFE9
:102580007FFEFDFBF7EFDFBF7FFEFDFBF7EFDFBF59
:102590007FFEFDFBF7EFDFBF7FFEFDFBF7EFDFBF49
:1025A0007FFEFDFBF7EFDFBF7FFEFDFBF7EFDFBF39
:1025B0007F00000000000000000000000001010199
:1025C00001010101010202020202020202030303ED
:1025D00003030303030404040404040404050505BD
:1025E000050505050506060606060606060707078D
:1025F0000707070707000000716D705F67657400CB
:10260000716D705F696E697400000000716D705FBC
:10261000707574007174655F63746F720000000000
:102620007174655F61726D007168736D5F696E6969
:10263000000000007168736D5F6469730000000042
:10264000342E312E3037000000000100020003005C
:1026500044696E696E67205068696C6F7300000092
:1026600030202C31202C32202C33202C3400000040
:1026700068756E67727920200000000065617469DA
:102680006E672020000000007468696E6B696E67D9
:1026900000000000737461727475705F73746D3341
:0C26A00032663130785F636C000000008F
:0426AC0040000000EA
:0400000300000E816A
:00000001FF
