:020000040800F2
:1000000098070020510A0008350A00080000000087
:10001000350A0008350A0008350A0008350A0008C4
:10002000350A0008350A0008350A0008A13B000817
:10003000350A0008350A0008753B00081904000855
:10004000350A0008350A0008350A0008350A000894
:10005000350A0008350A0008A9030008350A000817
:10006000350A0008350A0008350A0008350A000874
:10007000350A0008350A0008350A0008350A000864
:10008000350A0008350A0008350A0008350A000854
:10009000350A0008350A0008350A0008350A000844
:1000A000350A0008350A0008350A0008350A000834
:1000B000350A0008350A0008350A0008350A000824
:1000C000350A0008350A0008350A0008350A000814
:1000D000350A0008350A0008350A0008350A000804
:1000E000350A0008350A0008350A0008350A0008F4
:1000F000350A0008350A0008350A0008350A0008E4
:10010000350A0008350A0008350A0008350A0008D3
:10011000350A0008350A0008350A0008350A0008C3
:10012000350A0008350A0008350A0008350A0008B3
:10013000350A0008350A000800000000350A0008EA
:10014000350A0008350A0008350A0008350A000893
:04015000350A000864
:1001540010B5054C237833B9044B13B10448AFF3FD
:1001640000800123237010BD400000200000000027
:1001740054010008064B10B51BB106480649AFF3FD
:1001840000800648036813B1054B03B1984710BDBE
:10019400000000005401000844000020400000203A
:1001A40000000000704700BF72B6FEE710B5FFF70D
:1001B400FBFF10BD82B04FF000030193019B03F1DC
:1001C400FF320192002BF9D102B0704710B500EB59
:1001D40040004FEA001303F150039BB20A784FF03A
:1001E4007800194601F0CCF910BD00BF10B572B605
:1001F4004FF0030000F02CFD4FF0030000F036FD3B
:1002040062B610BD10B582B043F6D033C0F6000319
:100214001A6848F21F53C5F2EB13A3FB02134FEA0B
:100224005313B3F1807F16D223F07F4303F1FF33DE
:100234004EF21002CEF2000253604EF60053CEF29C
:1002440000036FF00F0183F823104FF00003936055
:100254004FF0070313604FF006038DF804304FF09E
:1002640000048DF805408DF806404FF001038DF829
:10027400073001A801F042FC4EF60053CEF2000311
:100284004FF0100283F823204EF20013CEF2000345
:1002940083F8064302B010BD10B582B000F020FC14
:1002A4004FF0000000F002FD4FF0010000F0FEFCF2
:1002B4004FF0020000F0FAFC4FF0030000F0F6FCEF
:1002C4004FF000048DF804404FF008038DF805301A
:1002D4004FF0010300938DF80630684601F096FC58
:1002E40001F05EFB4FF6FF7001F092F94FF2DE7001
:1002F40000F0E0FD204600F0CFFD45F29402C0F688
:1003040000022046214601F04FF945F2AC02C0F646
:1003140000024FF01800214601F046F945F2C402EC
:10032400C0F600024FF03000214601F03DF902F022
:1003340087FF02464FF030004FF0E00101F034F93E
:100344004FF6FF7000F0B6FD45F2DC02C0F6000285
:100354004FF07800214601F027F9204600F0AAFD6D
:100364004FF6E07000F098FD45F2E402C0F600029A
:100374004FF0D800214601F017F94FF01F0000F0AC
:1003840099FD4FF6FF7000F087FD45F2FC02C0F6C0
:1003940000024FF078004FF0400101F005F902B07F
:1003A40010BD00BF684620F007018D4631B572B616
:1003B40040F24524C2F20004237803F10103DBB2C6
:1003C400237062B640F20043C4F201034FF001020D
:1003D4005A6143F6C833C0F600031D684FF00200AB
:1003E4004FF0070102F0A4FF0146284602F01AFE6E
:1003F40072B6237803F1FF33DBB223704EF6045355
:10040400CEF200034FF080521A6062B6BDE831406C
:1004140085467047684620F007018D4631B572B6AF
:1004240040F24524C2F20004237803F10103DBB255
:10043400237062B603F078F872B6237803F1FF33C1
:10044400DBB223704EF60453CEF200034FF0805219
:100454001A6062B6BDE83140854670472DE9F04523
:1004640085B000F04FF800F0A5F9FFF715FF02F092
:100474004FFD40F25C06C2F2000630464FF0070121
:1004840002F0E2FF06F138004FF028014FF00402B9
:1004940002F092FF06F160064FF000052C4643F689
:1004A400AC38C0F600082F464FF0050A04F10104E9
:1004B400E4B258F8050000970197029721463246A6
:1004C400534602F0DDFC05F1040506F11406052C83
:1004D400ECD143F6C833C0F6000318684FF00004AB
:1004E4000094019402944FF00601054A4FF005036D
:1004F40002F0C6FC02F0F8FC204605B0BDE8F08529
:10050400200100202DE9F04140F23414C2F200042D
:1005140004F1DC0740F241563546C0F600054FF0C1
:100524000908204640F8185B414603F0F3F804F14B
:100534002C04BC42F5D1BDE8F08100BF10B50446DF
:1005440040F23413C2F2000393F8DC303BB940F2BA
:100554003413C2F200034FF0010283F8DC2020467A
:100564004FF0040102F024FE40F27D53C0F6000374
:1005740023604FF0020010BD70B504460B7803F100
:10058400FF33082B3BD8DFE803F0053A3A1B1B3A4C
:100594003A3A11004FF00005458500F11800214654
:1005A4004FF0170203F0CEF828462FE0FFF702FEC3
:1005B40040F21563C0F6000323604FF0020025E00B
:1005C40040F23413C2F20003C3EB00044FEAA40464
:1005D40048F6A333CBF62E2303FB04F38A78DBB26D
:1005E4009A4218BF002011D143F6A430C0F600008F
:1005F4004FF07801FFF7D8FD4FF0000006E043F616
:10060400D923C0F6000303604FF0030070BD00BFA0
:1006140010B504460B78042B23D0052B3DD0012BB9
:100624005AD14FF003004FF0080102F081FE014659
:1006340040F23413C2F20003C3EB04044FEAA404EF
:1006440048F6A333CBF62E2303FB04F3837043F65F
:10065400C833C0F60003186802F0E4FC4FF0000051
:1006640041E040F23413C2F20003C3EB00034FEA4B
:10067400A30248F6A333CBF62E2303FB02F38A78B6
:10068400DBB29A4228D1FFF795FD40F2ED63C0F644
:10069400000323604FF0020025E040F23413C2F25D
:1006A4000003C3EB00044FEAA40448F6A333CBF6DB
:1006B4002E2303FB04F38A78DBB29A4218BF00208E
:1006C40011D143F6A430C0F600004FF09001FFF7BB
:1006D4006BFD4FF0000006E043F6D923C0F600039B
:1006E40023604FF0030010BD70B504460B7803F18E
:1006F400FF33082B55D8DFE803F005115435355482
:1007040054542B004FF00005458500F11800214694
:100714004FF0130203F016F8284649E04FF00300A7
:100724004FF0050102F004FE40F23413C2F200035C
:10073400C3EB04044FEAA40448F6A333CBF62E23F8
:1007440003FB04F3837002F08BFE4FF000002FE0F4
:10075400FFF730FD40F27D53C0F6000323604FF0F5
:10076400020025E040F23413C2F20003C3EB00049C
:100774004FEAA40448F6A333CBF62E2303FB04F379
:100784008A78DBB29A4218BF002011D143F6A43014
:10079400C0F600004FF0AA01FFF706FD4FF000007D
:1007A40006E043F6D923C0F6000303604FF00300CC
:1007B40070BD00BF40F21423C2F2000340F2E172A4
:1007C400C0F600021A6003F105014FF000021A7628
:1007D4005A7703F101038B42F9D1704710B50446EF
:1007E4004FF0050102F0E4FC20464FF0060102F050
:1007F400DFFC40F60903C0F6000323604FF002005B
:1008040010BD00BF2DE9F04104460D460B78062BC0
:1008140000F0FD80082B03D0052B40F0FD8050E054
:10082400FFF7C8FCAD78042D03D804EB05035B7F08
:100834003BB143F6C030C0F600004FF06001FFF753
:10084400B3FC45F21011C0F600012846FFF7BEFCC8
:10085400294605F1010246F26763C6F2666383FB2B
:1008640002034FEA630303EB8303C3EB0202D2B236
:1008740004EB02031B7EEBB904EB05031B7ECBB92F
:1008840004EB05014FF001030B76224413764FF07D
:1008940003004FF0040102F04BFD857002F0E0FD0F
:1008A40045F21C11C0F600012846FFF78FFC4FF0FB
:1008B4000000BBE00C444FF0010363774FF00000ED
:1008C400B4E0FFF777FCAD78042D03D804EB0503FF
:1008D4005B7F3BB143F6C030C0F600004FF07401BB
:1008E400FFF762FC45F22811C0F600012846FFF725
:1008F4006DFC05F1010246F26763C6F2666383FB91
:1009040002134FEA630303EB8303C3EB0206F6B25D
:1009140004EB05031B7E012B04D104EB06031B7EB1
:10092400012B07D043F6C030C0F600004FF0790128
:10093400FFF73AFCB04604EB05024FF000031376D0
:1009440004EB0602137605F1040246F26763C6F26D
:10095400666383FB02034FEA630303EB8303C3EB86
:100964000207FFB204EB07035B7FEBB104EB070361
:100974001B7ECBB904EB07024FF001031376254429
:100984002B764FF0000353774FF003004FF0040130
:1009940002F0CEFC877002F063FD45F21C11C0F634
:1009A40000013846FFF712FC04EB08035B7F002BC1
:1009B4003AD008F1010246F26763C6F2666383FB2C
:1009C40002034FEA630303EB8303C3EB0202D2B2D5
:1009D40004EB02031B7E3BBB22444FF0010313765E
:1009E400444423764FF0000565774FF003004FF041
:1009F400040102F09DFC867002F032FD45F21C11E8
:100A0400C0F600013046FFF7E1FB28460EE002F095
:100A14007BFA4FF0000009E043F6D923C0F6000347
:100A240003604FF0030001E04FF00000BDE8F081E7
:100A3400684620F007018D4601B5034840F2511184
:100A4400FFF7B4FBFEE700BF34510008684620F00E
:100A540007018D4601B51E4B1E4A9A4216D24FF02D
:100A6400000340F20002C2F2000245F2841CC0F608
:100A7400000C40F24000C2F200005CF80310D150B8
:100A840003F1040302EB03018142F6D3124B134A30
:100A94009A420DD240F24003C2F200034FF000012B
:100AA40040F29832C2F2000243F8041B9342FBD393
:100AB40003F028F8FFF7D2FC45F23410C0F600002A
:100AC4004FF4A671FFF772FBBDE8014085467047FD
:100AD4004000002000000020980300204000002077
:100AE40082B041F20003C4F202031A6842F0010228
:100AF4001A60596840F20002CFF2FF0201EA0202D2
:100B04005A601A6822F0847222F480321A601A68D9
:100B140022F480221A605A6822F4FE025A601A688B
:100B240022F0A0521A604FF47F029A60A2F57F026D
:100B3400DA62019200921A6842F480321A6041F239
:100B44000003C4F202031A6802F400320092019A0C
:100B540002F101020192009A1AB9019AB2F5A06F4A
:100B6400F1D141F20003C4F202031B6813F4003F05
:100B740019BF0123009300230093009B012B63D131
:100B840042F20003C4F202031A6842F010021A602F
:100B94001A6822F003021A601A6842F002021A600C
:100BA40041F20003C4F202035A685A605A685A6058
:100BB4005A6842F480625A60D96A4FF20002CFF652
:100BC400FE7201EA0202DA62DA6A42F4823242F422
:100BD4001172DA621A6842F080621A6041F200030C
:100BE400C4F202031A6812F0006FFBD041F2000352
:100BF400C4F202035A6822F47C125A605A6842F41E
:100C0400E8125A601A6842F080721A6041F20003D6
:100C1400C4F202031A6812F0007FFBD041F2000311
:100C2400C4F202035A6822F003025A605A6842F07E
:100C340002025A6041F20003C4F202035A6802F04D
:100C44000C02082AFAD100E0FEE702B0704700BFA8
:100C540040F20003C2F2000353F8202043F6E033CD
:100C6400C0F6000333F810301361704740F20003FC
:100C7400C2F2000353F8202043F6E033C0F6000329
:100C840033F810305361704740F20003C2F200039E
:100C940053F82020D16843F6E033C0F6000333F85C
:100CA400103083EA0103D360704700BF30B583B0CE
:100CB400054643F6E034C0F6000404EB800398686C
:100CC4004FF0010101F0D4FB34F81540ADF80440B5
:100CD4004FF010038DF807304FF003038DF8063002
:100CE40040F20003C2F2000353F8250001A901F009
:100CF40017F803B030BD00BFF0B583B00F4604460B
:100D040043F6E033C0F6000303EB8003986940F038
:100D140001004FF0010101F0ABFB84B94FF0080072
:100D24004FF0010101F0AAF843F6E033C0F60003E6
:100D340003EB8403D8694FF0010101F0ADFB43F6E6
:100D4400E035C0F6000505EB44052B8CADF8043006
:100D54004FF018038DF807304FF003038DF8063079
:100D640040F20003C2F2000303EB8404206901AEE5
:100D7400314600F0D5FFAD8CADF804504FF00403BC
:100D84008DF807302069314600F0CAFF60693946A2
:100D940001F0B0FF60694FF0010101F06FFE03B094
:100DA400F0BD00BF10B540F20002C2F2000202EB37
:100DB4008002926943F6E033C0F6000303EB40037C
:100DC400198D104601F01AF810BD00BF2DE9F0414D
:100DD40084B005460F46804643F6E034C0F600046E
:100DE4004FEA800604EB0603186B40F001004FF055
:100DF400010101F03DFB04EB4504248DADF80C40EA
:100E04004FF004038DF80F3040F20003C2F20003E8
:100E14001E44B06903A900F083FF012F38D143F6C3
:100E2400E034C0F6000404EB450494F83C0094F864
:100E3400441001F05FF8B4F84C3001934FF0000314
:100E44008DF8083025B14FF00C038DF8093003E01C
:100E54004FF008038DF809304FF001048DF80A4073
:100E640001A800F0D3FE43F6E033C0F6000303EB21
:100E74004808B8F854308DF800304FF00F038DF85F
:100E840001308DF802308DF80340684600F036FEDC
:100E940004B0BDE8F08100BF82B0ADF80600BDF833
:100EA400062092B240F23823C2F200031A8002B044
:100EB400704700BF82B0ADF80600BDF8062092B2BC
:100EC40040F22403C2F200031A8002B0704700BF4C
:100ED40084B001904FF000030393019A48F2A06399
:100EE400C0F2010303FB02F30393039B33B1039B9F
:100EF40003F1FF330393039B002BF8D104B0704735
:100F040000B583B04FF008004FF0010101F0B0FAD2
:100F14004FF00403ADF804304FF003038DF80630AE
:100F24004FF010038DF8073040F60040C4F2010082
:100F340001A900F0F5FE03B000BD00BF30B587B0D5
:100F44004FF011004FF0010101F092FA41F200005C
:100F5400C0F220004FF0010100F090FF4FF4004078
:100F64004FF0010101F098FA4FF4E052ADF800207F
:100F74004FF003038DF802304FF018038DF803305F
:100F840041F20000C4F20100694600F0C9FE43F6D4
:100F94000044C4F20004204601F008FD4FF00003B1
:100FA400ADF804304FF48272ADF80620ADF8083085
:100FB4004FF00202ADF80A204FF00105ADF80C50D5
:100FC4004FF40072ADF80E20ADF81030ADF81230C9
:100FD400204601A901F01CFB2046294601F062FBD2
:100FE40007B030BD10B500F021FF10BD70B5064646
:100FF40043F60040C4F200004FEA162101F094FBCE
:1010040043F60045C4F200054FF08004284621460B
:1010140001F0F4FB0028F9D143F60040C4F20000CB
:10102400F1B201F081FB43F60045C4F200054FF034
:1010340080042846214601F0E1FB0028F9D170BD67
:1010440070B5044640F60040C4F201004FF00401BC
:101054004FF00002FFF7C6FF43F60040C4F2000061
:10106400214601F061FB43F60045C4F200054FF050
:1010740080042846214601F0C1FB0028F9D170BD47
:1010840070B506464FF07000FFF7DAFF43F60040F4
:10109400C4F200004FF0000101F046FB43F60045A6
:1010A400C4F200054FF080042846214601F0A6FB57
:1010B4000028F9D143F60040C4F20000314601F0A3
:1010C40033FB43F60045C4F200054FF08004284684
:1010D400214601F093FB0028F9D140F60040C4F208
:1010E40001004FF004014FF00102FFF77BFF70BDD8
:1010F40010B54FF02200FFF7C3FF4FF07200FFF767
:101104009FFF10BD10B50446FFF7F2FF2046FFF71E
:101114006DFF40F60040C4F201004FF004014FF0AF
:101124000102FFF75FFF10BD70B50E46FFF7A8FF81
:101134004FF07200FFF784FF43F60040C4F2000052
:101144004FEA162101F0F0FA43F60045C4F2000517
:101154004FF080042846214601F050FB0028F9D1C5
:1011640043F60040C4F20000F1B201F0DDFA43F6A8
:101174000045C4F200054FF080042846214601F0E2
:101184003DFB0028F9D140F60040C4F201004FF0C5
:1011940004014FF00102FFF725FF70BD10B54FF0B9
:1011A40007004FF00001FFF7BFFF10BD10B54FF06F
:1011B400070040F27311FFF7B7FF10BD10B54FF0F1
:1011C40010004FF00001FFF7AFFF4FF011004FF098
:1011D4000001FFF7A9FF4FF012004FF00001FFF7E5
:1011E400A3FF4FF013004FF00001FFF79DFF4FF0F6
:1011F4001400FFF76DFE4FF0100041F2B071FFF7DD
:1012040093FF4FF0110040F23711FFF78DFF4FF0BD
:101214000500FFF75DFE4FF0120040F23911FFF7B1
:1012240083FF4FF00500FFF753FE4FF013004FF418
:10123400E851FFF779FF4FF029004FF01301FFF752
:1012440073FF4FF00500FFF743FE4FF0070040F235
:101254007311FFF769FF10BD10B503460C464FF03C
:1012640020001946FFF760FF4FF021002146FFF7E9
:101274005BFF10BD2DE9F04F85B0029003914FEA5A
:101284004203C3F10303019315460E460F468046FD
:1012940082464FF0000940F23824C2F200041FFADB
:1012A40085FB039A0BEB02039BB20093504619464D
:1012B400FFF7D2FF208880B2FFF724FF039BCBEB1C
:1012C400030B1FFA8BFB50465946FFF7C5FF2088D6
:1012D40080B2FFF717FF40460099FFF7BDFF208853
:1012E40080B2FFF70FFF40465946FFF7B5FF20884D
:1012F40080B2FFF707FFEAB20092029B02EB030BF6
:101304005FFA8BFB58463946FFF7A6FF208880B268
:10131400FFF7F8FE58463146FFF79EFF208880B25B
:10132400FFF7F0FE029A009BC3EB020B5FFA8BFB04
:1013340058463946FFF790FF208880B2FFF7E2FE57
:1013440058463146FFF788FF208880B2FFF7DAFE5F
:10135400019A002ABDBF02EB890306330193019A67
:10136400A1BF02F10A03C5EB090203EB8202019259
:10137400A8BF05F1FF3509F101090AF1010A5FFA75
:101384008AFA08F1FF385FFA88F807F10107BFB25B
:1013940006F1FF36B6B24D4581D205B0BDE8F08FF7
:1013A4002DE9F04706464FF0000040F23F11FFF7E9
:1013B40053FFFFF79DFE4FF00005A9464FF00107CC
:1013C400DFF85480DFF854A018E007FA04F27359E8
:1013D4001A4205D1BAF8000080B2FFF707FE04E014
:1013E400B8F8000080B2FFF701FE04F10104202CDC
:1013F400EBD105F10405B5F5165F01D04C46E4E7E1
:1014040040F60040C4F201004FF004014FF0010225
:10141400FFF7E8FDBDE8F087380200202400002033
:101424002DE9F04104460E4690461D46FFF714FF91
:1014340025B14746B8F1000F1FD134E0FFF758FE3D
:101444004546B8F1000F0DD04FF0000440F23826A5
:10145400C2F20006308880B2FFF7C8FD04F101042F
:10146400AC42F7D340F60040C4F201004FF004014F
:101474004FF00102FFF7B6FD15E04FF0000540F212
:101484003828C2F20008B8F8000080B2FFF73AFE2C
:1014940004F10104E4B220463146FFF7DDFE05F114
:1014A4000105BD42EFD3BDE8F08100BF2DE9F04155
:1014B40004460D4617461E461A464FF00003FFF732
:1014C400AFFF07EB0400C0B2294632464FF00003D9
:1014D400FFF7A6FF204629463A464FF00103FFF7DF
:1014E4009FFF05F10105C6EB0506B1B220463A4659
:1014F4004FF00103FFF794FFBDE8F0812DE9F84FA9
:1015040082468B461646FFF7A7FE4FF0000540F2D1
:101514003827C2F20007DFF8648040F60049C4F2BD
:101524000109FFF7E5FD4FF00004735B43FA04F390
:1015340013F0010F05D1B8F8000080B2FFF756FD93
:1015440003E0388880B2FFF751FD04F10104102C48
:10155400EBD148464FF004014FF00102FFF742FD82
:101564000AF1010A5FFA8AFA50465946FFF774FEF7
:1015740005F10205302DD4D1BDE8F88F24000020F8
:1015840010B5C1F59E7101F1030189B243F63C43E4
:10159400C0F60003A2F12002D2B202EB420203EB36
:1015A4000212FFF7ABFF10BD2DE9F04106460C46D1
:1015B40015461278B1F5A07F2CBF00230123002A21
:1015C4000CBF002303F00103ABB140F23F173046D8
:1015D4002146FFF7D5FF04F11004A4B215F8012F3A
:1015E400BC428CBF00230123002A0CBF002303F05C
:1015F4000103002BEBD1BDE8F08100BF10B545F22B
:101604004C12C0F600024FF00001FFF7CDFF10BDF1
:1016140070B505464FF0000040F23F11FFF71CFE85
:10162400FFF766FD4FF000042846FFF7DFFC04F1E6
:101634000104B4F5963FF7D140F60040C4F201002E
:101644004FF004014FF00102FFF7CCFC70BD00BF66
:1016540070B504460D461E46904209D300F10101BF
:10166400C2EB010291B24FF05000FFF75DFD05E0BF
:101674004FF050004FF00001FFF756FD4FF05100BE
:101684002146FFF751FDB54209D305F10101C6EB2F
:101694000106B1B24FF05200FFF746FD05E04FF0EE
:1016A40052004FF00001FFF73FFD4FF05300294671
:1016B400FFF73AFD20462946FFF7CEFD70BD00BF77
:1016C40010B54FF0EF0040F23F114FF0F0024FF42D
:1016D400A073FFF7BDFF4FF0030041F21801FFF7BD
:1016E40023FD10BD10B5FFF70BFCFFF727FC4FF0EF
:1016F4000500FFF7EDFB4FF0E5004FF40041FFF765
:1017040013FD4FF000004FF00101FFF70DFD4FF006
:1017140001004FF48071FFF707FD4FF002004FF412
:10172400E061FFF701FD4FF0030041F23001FFF7E4
:10173400FBFC4FF004004FF00001FFF7F5FC4FF005
:10174400080040F20221FFF7EFFC4FF009004FF0D0
:101754000001FFF7E9FC4FF00A004FF00001FFF72A
:10176400E3FC4FF00C004FF00001FFF7DDFC4FF0FD
:101774000D004FF00001FFF7D7FC4FF00F004FF0C2
:101784000001FFF7D1FC4FF010004FF00001FFF70C
:10179400CBFC4FF011004FF00001FFF7C5FC4FF0F8
:1017A40012004FF00001FFF7BFFC4FF013004FF0A1
:1017B4000001FFF7B9FC4FF01400FFF789FB4FF06D
:1017C400100041F2B071FFF7AFFC4FF0110040F28E
:1017D4003711FFF7A9FC4FF00500FFF779FB4FF035
:1017E400120040F23911FFF79FFC4FF00500FFF79C
:1017F4006FFB4FF013004FF4E851FFF795FC4FF0E7
:1018040029004FF01301FFF78FFC4FF00500FFF79D
:101814005FFB4FF020004FF00001FFF785FC4FF015
:1018240021004FF00001FFF77FFC4FF030004FF034
:101834000601FFF779FC4FF0310040F20111FFF788
:1018440073FC4FF032004FF00301FFF76DFC4FF0D3
:1018540035004FF48371FFF767FC4FF0360040F614
:101864000231FFF761FC4FF0370040F20231FFF71D
:101874005BFC4FF0380040F20771FFF755FC4FF066
:1018840039004FF00701FFF74FFC4FF03C004FF4D5
:10189400C061FFF749FC4FF03D0040F20B21FFF718
:1018A40043FC4FF050004FF00001FFF73DFC4FF0B8
:1018B40051004FF0EF01FFF737FC4FF052004FF0AB
:1018C4000001FFF731FC4FF0530040F23F11FFF7E6
:1018D4002BFC4FF060004FF41C51FFF725FC4FF038
:1018E40061004FF00101FFF71FFC4FF06A004FF059
:1018F4000001FFF719FC4FF080004FF00001FFF7E3
:1019040013FC4FF081004FF00001FFF70DFC4FF086
:1019140082004FF00001FFF707FC4FF083004FF007
:101924000001FFF701FC4FF084004FF00001FFF7C6
:10193400FBFB4FF085004FF00001FFF7F5FB4FF084
:1019440090004FF01001FFF7EFFB4FF092004FF0C3
:101954000001FFF7E9FB4FF093004FF00301FFF79D
:10196400E3FB4FF095004FF48871FFF7DDFB4FF078
:1019740097004FF00001FFF7D7FB4FF098004FF0AE
:101984000001FFF7D1FB4FF0030041F21801FFF70C
:10199400CBFB4FF0070040F27311FFF7C5FB10BDFE
:1019A40010B5FFF79FFE10BD2DE9F04143F600434B
:1019B400C4F200031A8822F038024FEA02424FEAC6
:1019C40012421A801A8892B242F008021A80FFF773
:1019D40057FB4FF07300FFF733FB4FF0000743F65C
:1019E40000431C46C4F200044FF0FF084FF080058A
:1019F4004FF001062046414600F096FE2046294657
:101A040000F0FCFE0028F9D12046314600F0F6FE35
:101A14000028F9D0204600F089FE07F10107FFB243
:101A2400052FE7D143F60040C4F200004FF0FF0158
:101A340000F07AFE43F60045C4F200054FF080043E
:101A44002846214600F0DAFE0028F9D143F6004585
:101A5400C4F200054FF001042846214600F0CEFEF2
:101A64000028F9D043F60044C4F20004204600F0F4
:101A74005DFE064620464FF0FF0100F055FE254668
:101A84004FF080042846214600F0B8FE0028F9D122
:101A940043F60045C4F200054FF0010428462146F0
:101AA40000F0ACFE0028F9D043F60044C4F2000470
:101AB400204600F03BFE40EA0626B6B240F600405F
:101AC400C4F201004FF004014FF00102FFF78AFA5B
:101AD400238823F038034FEA03434FEA1343238058
:101AE400B0B2BDE8F08100BF40F0BE6040F42020F9
:101AF4004EF60053CEF20003D8607047C3786BB340
:101B04004EF60053CEF20003DB686FEA0303C3F31F
:101B14000223C3F10402417801FA02F24FF00F01EB
:101B240021FA03F3817803EA010343EA020302780A
:101B34004FEA0310C0B24EF20013CEF2000303EBDF
:101B4400020181F800034FEA521102F01F024FF024
:101B5400010000FA02F243F8212010E003784FEA72
:101B6400531203F01F034FF0010101FA03F14EF287
:101B74000013CEF2000302F1200243F82210704752
:101B840021F0604121F07F0141EA00004EF600534C
:101B9400CEF200039860704741B14EF60053CEF286
:101BA40000031A6940EA0200186107E04EF6005388
:101BB400CEF200031A6922EA00001861704700BFE0
:101BC400042801BF4EF21003CEF200031A6842F05B
:101BD40004020FBF1A604EF21003CEF200031A681B
:101BE4001CBF22F004021A60704700BF40F2004399
:101BF400C4F201034FF000021A605A609A60DA607E
:101C04004FF6FF72C0F20F025A6170478379002BBE
:101C140040D040F20043C4F20103D3F800C001688D
:101C24006FEA010202EA0C0CC3F800C0D3F804C046
:101C340002EA0C025A6002791A44D2F800C04CEA53
:101C440001011160D3F808C002686FEA020101EAD9
:101C54000C0CC3F808C0D3F80CC001EA0C01D9601D
:101C6400417910290CD140F20043C4F20103996870
:101C740041EA02019960D96841EA0202DA6014E09B
:101C840040F20043C4F201030B44196841EA020222
:101C94001A600AE0027940F20043C4F201031344DB
:101CA4001A68016822EA01021A6070474FF00003C3
:101CB400036003714FF00C0242718371704700BFDF
:101CC40040F20043C4F201031A6940EA02001861B9
:101CD400704700BF40F20043C4F201035B6918423D
:101CE4000CBF00200120704740F20043C4F20103FE
:101CF4005861704740F20043C4F201031A685B69FB
:101D0400184208BF002003D010420CBF002001205D
:101D1400704700BF40F20043C4F2010358617047AA
:101D24002DE9F005CB7803F00F0413F0100F1CBF5E
:101D34008B781C430B7833B307684FF000034FF0E4
:101D440001054FF00F0805FA03F2B1F800C002EAEA
:101D54000C0C944512D14FEA830608FA06FA27EAD6
:101D64000A0704FA06F647EA0607CE78282E08BFC3
:101D7400C0F814C002D0482E08BF026103F1010369
:101D8400082BE0D107600B88FF2B2AD947684FF056
:101D940000034FF001054FF00F0803F1080205FAA4
:101DA40002F2B1F800C002EA0C0C944514D14FEAD7
:101DB400830608FA06FA27EA0A0704FA06F647EA47
:101DC4000607CE78282E08BFC0F814C091F803C0C7
:101DD400BCF1480F08BF026103F10103082BDCD1F9
:101DE4004760BDE8F00570474FF0FF3303804FF0C4
:101DF400020383704FF00403C37070478368194271
:101E04000CBF002001207047806880B2704700BF7B
:101E1400C36819420CBF002001207047C06880B21B
:101E2400704700BF01617047416170470AB10161A9
:101E340000E04161704700BFC160704741F48033E6
:101E440083618161836183698369704740F2000221
:101E5400C4F20102D2F800C04FF68073C0F200034E
:101E64000CEA030341EA001040EA030313607047DD
:101E740040F21C03C4F220231860704710B440F2EF
:101E84000003C4F201035A681FFA80FC00F44013F3
:101E9400B3F5401F0AD122F0706240F20003C4F28D
:101EA40001035C6824F070645C6013E010F4801F2C
:101EB4001FBFC0F30343032404FA03F39A4311BF7F
:101EC40042F07062430D1B010CFA03F304BF9A4302
:101ED40042F0706239B14FEA50504FEA00100CFAE8
:101EE40000FC42EA0C0240F20003C4F201035A600F
:101EF40010BC704710B401F003024FEA82024FEAAB
:101F0400910140F20003C4F2010301F1020153F80C
:101F140021404FF00F0C0CFA02FC24EA0C0C43F89D
:101F240021C053F821C000FA02F242EA0C0243F83D
:101F3400212010BC704700BF40F2DC03C4F2202310
:101F44001860704710B54FF00100014600F0CCFA5C
:101F54004FF001004FF0000100F0C6FA10BD00BFC1
:101F640010B540F60003C4F2010398420CD14FF0BF
:101F740004004FF0010100F0B7FA4FF004004FF0F5
:101F8400000100F0B1FA70E040F60043C4F201032E
:101F940098420CD14FF008004FF0010100F0A4FA70
:101FA4004FF008004FF0000100F09EFA5DE041F2AE
:101FB4000003C4F2010398420CD14FF010004FF01B
:101FC400010100F091FA4FF010004FF0000100F011
:101FD4008BFA4AE041F20043C4F2010398420CD167
:101FE4004FF020004FF0010100F07EFA4FF0200086
:101FF4004FF0000100F078FA37E041F60003C4F234
:10200400010398420CD14FF040004FF0010100F061
:102014006BFA4FF040004FF0000100F065FA24E045
:1020240041F60043C4F2010398420CD14FF0800002
:102034004FF0010100F058FA4FF080004FF000011A
:1020440000F052FA11E042F20003C4F20103984294
:102054000BD14FF480704FF0010100F045FA4FF4BA
:1020640080704FF0000100F03FFA10BD41F2000310
:10207400C4F202031A6842F001021A60596840F27D
:102084000002CFF2FF0201EA02025A601A6822F04B
:10209400847222F480321A601A6822F480221A6050
:1020A4005A6822F4FE025A601A6822F0A0521A609A
:1020B4004FF47F029A604FF00002DA62704700BF6B
:1020C40041F20003C4F202031A6822F480321A6057
:1020D4001A6822F480221A60B0F5803F03D0B0F56C
:1020E400802F11D108E041F20003C4F202031A6800
:1020F40042F480321A6007E041F20003C4F20203A2
:102104001A6842F4A0221A60704700BF41F200032B
:10211400C4F202031A6822F0F80242EAC00018600E
:10212400704700BF40F20003C4F2422318607047B6
:1021340041F20003C4F202035A6822F4741240EA22
:10214400020040EA01005860704700BF40F260039B
:10215400C4F242231860704741F20003C4F2020340
:10216400DA6A22F4803222F00F0240EA020242EAE2
:102174000102DA62704700BF41F20003C4F20203B5
:10218400DA6A22F0F00240EA0200D862704700BF27
:1021940041F20003C4F20203DA6A22F4706240EAF4
:1021A4000200D862704700BF40F26803C4F24223C1
:1021B4001860704741F20003C4F20203DA6A22F4A1
:1021C400704240EA0200D862704700BF40F27003D8
:1021D400C4F242231860704741F20003C4F20203C0
:1021E4005A6822F0030240EA02005860704700BFB8
:1021F40041F20003C4F20203586800F00C00704777
:1022040041F20003C4F202035A6822F0F00240EAE9
:1022140002005860704700BF41F20003C4F2020399
:102224005A6822F4E06240EA02005860704700BF36
:1022340041F20003C4F202035A6822F4605242EAF3
:10224400C0005860704700BF41B141F20903C4F2B5
:1022540002031A7840EA0200187007E041F2090309
:10226400C4F202031A7822EA00001870704700BF13
:1022740040F2D803C4F242231860704741F20003CD
:10228400C4F202035A6822F4404240EA0200586051
:10229400704700BF40F2C453C4F242231860704731
:1022A40040F2C853C4F242231860704741F220033D
:1022B400C4F202034FF000021A701A70012802D00F
:1022C40004280FD107E041F22003C4F202034FF0C7
:1022D40001021A7006E041F22003C4F202034FF037
:1022E40005021A70704700BF40F28043C4F24223D3
:1022F4001860704741F20003C4F202031A6A40EA0C
:1023040002001862704700BF40F23C43C4F242230B
:102314001860704710B441F20003C4F202035B6812
:1023240003F00C03042B02BF47F64003C0F27D13F5
:1023340003605AD0082B07D0002B51D141F200235F
:10234400C0F27A03036050E041F20003C4F20203D6
:1023540059685A68C1F383430D2B0CBF0621991C9D
:1023640012F4803F07D140F60013C0F23D0303FB93
:1023740001F3036039E041F20003C4F20203D3F82D
:102384002CC0DA6A02F00F0202F101021CF4803F51
:1023940009D147F64003C0F27D13B3FBF2F303FB0C
:1023A40001F1016021E041F20003C4F20203DC6A9E
:1023B400D3F82CC0C4F3031404F1010447F640031A
:1023C400C0F27D13B3FBF4F3CCF3032C0CF1020C39
:1023D4000CFB03F3B3FBF2F202FB01F1016004E036
:1023E40041F20023C0F27A03036041F20002C4F216
:1023F40002025168C1F3031140F22803C2F2000340
:10240400595CD0F800C02CFA01F14160D2F804C044
:10241400CCF3022C13F80CC021FA0CFCC0F808C051
:10242400D2F804C0CCF3C22C13F80CC021FA0CF17E
:10243400C1605268C2F3813213441B7CB1FBF3F1D7
:10244400016110BC704700BF41B141F20003C4F206
:1024540002035A6940EA0200586107E041F20003AE
:10246400C4F202035A6922EA00005861704700BFAF
:1024740041B141F20003C4F202039A6940EA020046
:10248400986107E041F20003C4F202039A6922EA68
:1024940000009861704700BF41B141F20003C4F2EB
:1024A4000203DA6940EA0200D86107E041F200035E
:1024B400C4F20203DA6922EA0000D861704700BF5F
:1024C40041B141F20003C4F202039A6A40EA0200F5
:1024D400986207E041F20003C4F202039A6A22EA16
:1024E40000009862704700BF41B141F20003C4F29A
:1024F4000203DA6840EA0200D86007E041F2000310
:10250400C4F20203DA6822EA0000D860704700BF10
:1025140041B141F20003C4F202031A6940EA020025
:10252400186107E041F20003C4F202031A6922EAC7
:1025340000001861704700BF40F24043C4F24223D8
:102544001860704740F24C03C4F24223186070478D
:1025540041F20703C4F20203187070474FEA5013A4
:10256400012B05D141F20003C4F202031A680CE006
:10257400022B03BF41F20003C4F202031A6A41F2C0
:1025840000031CBFC4F202035A6A00F01F004FF09C
:10259400010303FA00F002420CBF0020012070473F
:1025A40010B582B04FF0000301934FF03104204680
:1025B400FFF7D4FF019B03F101030193019BB3F5E2
:1025C400A06F01D00028F2D04FF03100FFF7C6FF12
:1025D400003818BF012002B010BD00BF41F2000353
:1025E400C4F202035A6A42F080725A62704700BF12
:1025F40041F20003C4F202039B6818420CBF00209E
:102604000120704741F20A03C4F2020318707047B4
:10261400028802F44152B1F802C00B884CEA030369
:10262400B1F804C043EA0C03B1F806C043EA0C0352
:10263400B1F808C043EA0C03B1F80AC043EA0C033A
:10264400B1F80CC043EA0C03B1F80EC043EA0C0322
:1026540042EA03039BB20380838B23F400634FEAB3
:1026640003434FEA134383830B8A0382704700BFFB
:102674004FF00003038043808380C3800381438140
:102684008381C3814FF00703038270474FF0000337
:10269400038043808380C3804FF002020281438120
:1026A400704700BF29B103889BB243F04003038005
:1026B40007E0038823F040034FEA03434FEA134340
:1026C4000380704729B1838B9BB243F48063838377
:1026D40007E0838B23F480634FEA03434FEA1343F9
:1026E400838370474FEA11114FF0010303FA01F19C
:1026F40089B22AB183889BB241EA0301818004E054
:1027040083889BB223EA0101818070472AB18388C0
:102714009BB241EA0301818004E083889BB223EAEF
:1027240001018180704700BF81817047808980B238
:10273400704700BF4FF6FF6399421FBF03889BB2E7
:1027440043F48073038001BF038823F480731B0464
:102754001B0C08BF0380704729B183889BB243F0E8
:102764000403838007E0838823F004034FEA0343D0
:102774004FEA134383807047038823F400634FEACE
:1027840003434FEA1343038003889BB241EA0301E6
:102794000180704703889BB243F4805303807047E1
:1027A40029B103889BB243F40053038007E00388F4
:1027B40023F400534FEA03434FEA13430380704763
:1027C400012919BF008B80B2808A80B2704700BF94
:1027D400008A80B2704700BFB1F5804F01BF038803
:1027E4009BB243F4804303801FBF038823F48043D8
:1027F4001B041B0C18BF0380704700BF03891942D8
:102804000CBF0020012070476FEA010189B20181E9
:10281400704700BF83881FFA83FC028992B201F0DB
:102824000F034FF0010000FA03F31A4208BF00201F
:102834000AD04FEA11114FF0010303FA01F11CEA27
:10284400010F0CBF00200120704700BF01F00F01F1
:102854004FF0010303FA01F36FEA03039BB2038110
:10286400704700BFF0B587B005460C46838B23F450
:102874007A6323F01F034FEA03434FEA134383832E
:102884004FF002010184868BB6B22389022B08BF64
:10289400002271D0A788002F0CBF0127022743F61E
:1028A4000003C4F2000398420CBF4FF400314FF40C
:1028B400802141F20003C4F20203DA6A114223D0F8
:1028C40041F20003C4F20203DB6AC3F30333A3F14E
:1028D4000602082A98BF023302D90F2B08BF14231B
:1028E40041F20002C4F20202D16AC1F3031101F100
:1028F400010147F64002C0F27D12B2FBF1F24FEA49
:10290400420203FB02F303E001A8FFF703FD019B6E
:10291400E188B1F5007F0CD14FEA132303EB830365
:102924004FEA43022189B2FBF1F202F1050292B2AD
:102934000DE04FEA4717B3FBF7F707EB87074FEABA
:1029440047022189B2FBF1F202F1050292B24CF680
:10295400CD43CCF6CC43A3FB02134FEAD30303F0DD
:1029640001024FEA5303A3F1020189B2FD2987BF93
:1029740000220223120292B243EA0203E28843EAEB
:1029840002039BB22B84238846EA030343F40063C7
:10299400628843EA0203A28843EA0203628943EAA3
:1029A40002039BB2AB8307B0F0BD00BF10B543F286
:1029B4000003C4F2010398420CD14FF480504FF04D
:1029C4000101FFF791FD4FF480504FF00001FFF734
:1029D4008BFD24E043F60003C4F2000398420CD1BB
:1029E4004FF480404FF00101FFF792FD4FF4804017
:1029F4004FF00001FFF78CFD11E043F60043C4F2F1
:102A0400000398420BD14FF400404FF00101FFF74F
:102A14007FFD4FF400404FF00001FFF779FD10BD3A
:102A24004FF4165303604FF000038380C380038187
:102A34004FF00C0242818381704700BF038A23F464
:102A440070634FEA03434FEA1343B1F802C00A88A4
:102A54004CEA0202B1F804C042EA0C02C98842EA14
:102A6400010292B242EA0303038270474FF000036B
:102A7400038043808380C380704700BF29B183896A
:102A84009BB243F40053838107E0838923F400530A
:102A94004FEA03434FEA134383817047C1F3421360
:102AA40001F01F014FF0010C0CFA01F1634508BF5E
:102AB4000C3003D0022B0CBF1030143022B1036849
:102AC40043EA0101016003E0036823EA01010160B4
:102AD400704700BF2AB1838A9BB241EA0301818215
:102AE40004E0838A9BB223EA01018182704700BF1C
:102AF400038A23F00F034FEA03434FEA134303828D
:102B0400038A9BB241EA030101827047838923F45B
:102B140000634FEA03434FEA1343838183899BB2E3
:102B240041EA03018181704729B183899BB243F053
:102B34000203838107E0838923F002034FEA0343FE
:102B44004FEA134383817047038A23F020034FEA3B
:102B540003434FEA13430382038A9BB241EA03010E
:102B64000182704729B1038A9BB243F480430382F4
:102B740007E0038A23F480434FEA03434FEA1343F5
:102B8400038270474FEAC1514FEAD15181807047A7
:102B940080884FEAC0504FEAD050704783899BB277
:102BA40043F0010383817047038BDBB20383038B00
:102BB4009BB243EA01210183704700BF038B03F4F6
:102BC4007F430383038B9BB241EA03010183704774
:102BD40029B1838A9BB243F02003838207E0838A6E
:102BE40023F020034FEA03434FEA134383827047E1
:102BF40029B1838A9BB243F01003838207E0838A5E
:102C040023F010034FEA03434FEA134383827047D0
:102C140029B1838A9BB243F00803838207E0838A45
:102C240023F008034FEA03434FEA134383827047B8
:102C3400838A23F004034FEA03434FEA1343838256
:102C4400838A9BB241EA03018182704729B1838A56
:102C54009BB243F00203838207E0838A23F00203DA
:102C64004FEA03434FEA13438382704703881942B0
:102C74000CBF0020012070476FEA010189B2018076
:102C8400704700BFC1F3421301F01F024FF0010C63
:102C94000CFA02FC012B04D1828992B20CEA0202E2
:102CA4000AE0022B03BF028A92B20CEA0202828A71
:102CB4001CBF92B20CEA02024FEA11214FF0010349
:102CC40003FA01F103889BB219420CBF00230123CC
:102CD400002A0CBF002003F0010070474FEA1121C5
:102CE4004FF0010303FA01F36FEA03039BB203807D
:102CF400704700BF30B587B004460D46038A23F4FD
:102D040040534FEA03434FEA1343CA8843EA02039A
:102D14000382838923F4B05323F00C034FEA034363
:102D24004FEA13430989AA8841EA0202698942EAFF
:102D3400010292B242EA03038381838A23F440733B
:102D44004FEA03434FEA1343AA8943EA0203838207
:102D540001A8FFF7DFFA43F60003C4F201039C4223
:102D64000CBF0499039901EB810101EB81012B68EC
:102D74004FEA8303B1FBF3F148F21F53C5F2EB139F
:102D8400A3FB01024FEA52124FF0640002FB101140
:102D94004FEA011101F13201A3FB0103C3F3431311
:102DA40043EA021292B2228107B030BD10B543F655
:102DB4000003C4F2010398420CD14FF480404FF059
:102DC4000101FFF791FB4FF480404FF00001FFF742
:102DD4008BFB4AE044F20043C4F2000398420CD156
:102DE4004FF400304FF00101FFF792FB4FF4003035
:102DF4004FF00001FFF78CFB37E044F60003C4F208
:102E0400000398420CD14FF480204FF00101FFF7EA
:102E14007FFB4FF480204FF00001FFF779FB24E0A3
:102E240044F60043C4F2000398420CD14FF400204E
:102E34004FF00101FFF76CFB4FF400204FF000014D
:102E4400FFF766FB11E045F20003C4F20003984269
:102E54000BD14FF480104FF00101FFF759FB4FF4F1
:102E640080104FF00001FFF753FB10BD44F60C60D7
:102E7400C0F60000704700BF10B500F0E7F910BDC0
:102E84002DE9F04104460D4617461E4601F1FF3375
:102E9400DBB23E2B04D913484FF06001FDF784F9EF
:102EA40004F10400F2B2394600F0C0F92575204659
:102EB40000F0EEF9079BD3F1010338BF0023069A13
:102EC400002A14BF002303F0010323B905484FF07F
:102ED4006A01FDF769F92046089900F061FCBDE834
:102EE400F08100BF144E000810B572B64FF0000216
:102EF400044B1A7000F010F862B6FDF783F9FDF781
:102F040075F9FCE73C00002010B5FDF74BF910BD46
:102F140010B500F01BFE10BD2DE9F84F40F245231B
:102F2400C2F200031B783BB144F61860C0F60000FF
:102F34004FF03001FDF738F940F23C23C2F20003B0
:102F44001B78002B67D040F23C21C2F200010B78C1
:102F540044F65462C0F60002D35C03F1FF33DBB2E3
:102F640019444978525C02EBC30303F0FF0340F2B7
:102F74003C02C2F200021278934251D940F2462236
:102F8400C2F20002127893424AD940F23C02C2F2E1
:102F9400000292F800B040F24C27C2F200079046BB
:102FA40040F23C26C2F2000644F6546AC0F6000A17
:102FB40040F24629C2F2000957F8235088F800303D
:102FC40062B6284600F0A0F804462846214600F0E0
:102FD40053FC204600F07CF972B63378A3B1337801
:102FE4001AF8033003F1FF33DBB206EB0302527825
:102FF4001AF8022002EBC30303F0FF039B4503D23C
:1030040099F800209342D7D840F23C03C2F200035F
:1030140083F800B004E040F23C03C2F200031B78E2
:10302400BDE8F88F70B504460D4672B64B7813B1FF
:1030340003F101034B7063683BBB656040F23C21C4
:10304400C2F2000191F800C044F67073C0F60003A8
:1030540044F6F872C0F60002207D105C18444078F3
:103064004CEA000001F8010B207D125C11440A783F
:103074001B5C42EA03030B7040F24523C2F20003D7
:103084001B780BBBFFF748FF1EE0E37B3BB944F61C
:103094002460C0F600004FF04501FDF785F8627B1F
:1030A400A36843F82250637B0BB9237B6373637B70
:1030B40003F1FF336373E37B03F1FF33DBB2E373A9
:1030C400227C9A4288BF237462B670BD10B5044650
:1030D4003F2806D840F24C23C2F2000353F82030B4
:1030E4003BB944F62C60C0F600004FF05A01FDF7DE
:1030F4005BF872B662B640F24C23C2F2000353F896
:103104002430187C10BD00BF10B5044672B6436865
:103114003BB944F62C60C0F600004FF03001FDF7D7
:1031240043F86068E27B237B9A4210D0A37BA268B9
:1031340052F8232062600BB9237BA373A37B03F1B2
:10314400FF33A373E37B03F10103E3732BE04FF03D
:1031540000036360217D44F6F873C0F600035B5CF2
:10316400124A134493F800C044F6B472C0F6000245
:10317400525C0CEA02021A701B78A3B940F23C2399
:10318400C2F2000393F800C044F6B472C0F6000221
:1031940044F6F871C0F60001247D095D0A445278B2
:1031A4000CEA02021A7062B610BD00BF3D02002094
:1031B40070B50C46037D1E4644F6F872C0F6000254
:1031C400D55C032917D940F28C32C2F2000211787F
:1031D4001A1E18BF0122A14294BF002202F001026C
:1031E4004AB13F2B07D840F24C23C2F2000353F8F4
:1031F4002630834207D044F63460C0F600004FF016
:103204003001FCF7D1FF72B640F29033C2F20003F2
:103214001B6803EBC40444F67073C0F60003625DDC
:103224009B5D42EA0303635562B670BD4FF0000331
:1032340003604160027243728372C2720273704708
:1032440044F63C60C0F60000704700BF10B5047D32
:1032540004F1FF33DBB23E2B07D840F24C23C2F219
:10326400000353F82430834204D008484FF054013B
:10327400FCF79AFF72B640F24C23C2F200034FF0FF
:10328400000243F8242062B610BD00BF444E00087B
:1032940070B50546047D04F1FF33DBB23E2B06D83E
:1032A40040F24C23C2F2000353F8243023B1074800
:1032B4004FF04001FCF778FF72B640F24C23C2F2A3
:1032C400000343F8245062B670BD00BF444E0008AA
:1032D40070B5044645784DB372B605F03F03012B33
:1032E40004DD05F1FF35457062B61FE04FEA951520
:1032F40005F1FF35EDB262B640F28833C2F2000345
:103304001B78AB4207D844F64C60C0F600004FF07F
:103314004901FCF749FF05EB850540F24C33C2F245
:10332400000303EB8500214600F0D4F970BD00BF13
:103334002DE9F047054689464FF0000440F24C362B
:10334400C2F2000640F28837C2F2000744F654780D
:10335400C0F600084FF0300A09E004F10104E4B2B9
:103364003B78A34203D840465146FCF71DFF04EBCB
:10337400840306EB83039B89AB42EED304EB840006
:1033840040F24C33C2F2000303EB800000F004F976
:10339400054638B944F65470C0F600004FF03A01BF
:1033A400FCF702FF85F8009004F101044FEA84144D
:1033B4006C702846BDE8F0872DE9F04106460F46BB
:1033C400154640F28833C2F200031B78022B07D95A
:1033D40044F65C70C0F600004FF02E01FCF7E4FEEA
:1033E40040F28833C2F200031B78A3B140F24C329E
:1033F400C2F2000203F1FF3303EB830302EB830207
:103404009389AB4207D344F65C70C0F600004FF0DA
:103414003101FCF7C9FE40F28834C2F2000423787B
:1034240003EB830040F24C33C2F2000303EB800051
:1034340031463A462B4600F0E1F8237803F10103C4
:103444002370BDE8F08100BF40F29033C2F2000364
:10345400186040F28C33C2F200031970704700BF49
:103464002DE9F04F83B0804640F28C33C2F2000362
:1034740002781B789A4207D344F66470C0F60000C1
:103484004FF02C01FCF790FE72B698F801301BB196
:1034940003F1010388F8013062B64FF0080B44F6DB
:1034A4005469C0F6000944F6B477C0F6000740F248
:1034B4004C26C2F200060BF1FF3B5FFA8BFB98F837
:1034C400002040F29033C2F200031B6803EBC203F6
:1034D40013F80B40F4B14FEACB0A5FFA8AFA44F6C8
:1034E4006473C0F60003019319F804507B5D04EA89
:1034F40003045544EDB256F8253023B901984FF032
:103504005501FCF751FE56F825004146FFF78AFDA8
:10351400002CE9D1BBF1000FCDD14046FFF7D8FE16
:1035240003B0BDE8F08F00BF2DE9F04172B640F260
:103534009433C2F200031C68002C2AD01E464FF0BC
:10354400000540F23A27C2F20007238A03F1FF3351
:103554009BB22382BBB9638A0BB123820DE033682B
:103564009C4202D1A368336006E0A3680BB1626891
:103574005A606368A2689A60656062B6E068214632
:10358400FFF750FD01E062B63D7072B6A468002CEE
:10359400DBD162B6BDE8F081034672B6006850B173
:1035A40002681A601A8A02F1FF3292B21A82598AA8
:1035B400914288BF5A8262B6704700BF10B5044674
:1035C40030B140F28833C2F200031B78834207D241
:1035D40045F23C00C0F600004FF04501FCF7E4FD65
:1035E40072B662B640F24C33C2F2000304F1FF3407
:1035F40004EB840403EB8403588A10BD2DE9F047DF
:1036040004468A4690461F46032A94BF002301239A
:1036140000290CBF002303F0010323B107F10403C5
:103624009BB29F4207D345F24400C0F600004FF01E
:103634003701FCF7B9FD1AF003031CBFC3F10403FF
:10364400C3EB0808534423604FF00403A381042F01
:103654009CBF042601250BD94FF004064FF0010549
:1036640006F10406B6B205F10105B742F8D8A68101
:10367400B04507D245F24400C0F600004FF04C01BB
:10368400FCF792FDC6EB08084FF00103E3812368C1
:10369400464513D84FEA8505C6F10001C6EB080874
:1036A40003EB05021A60E38903F10103E381884413
:1036B40018EB060F01D21346F2E713464FF000024F
:1036C4001A60E28922826282C4F804A0A360BDE881
:1036D400F08700BF70B504460D4643688B4206D898
:1036E4008368994203D8028AC3899A4207D945F26A
:1036F4005000C0F600004FF02D01FCF755FD72B6E6
:1037040023682B602560238A03F10103238262B6B8
:1037140070BD00BF70B504460D46032907D845F2B5
:103724005800C0F600004FF02901FCF73DFD4FF0B2
:1037340000036360A360E360238263822570637087
:1037440070BD00BF70B504460E46154662B10378DD
:10375400032B09D942680B1E18BF0123002A14BF8A
:10376400002303F001033BB945F26400C0F60000F6
:103774004FF03001FCF718FD25826460E66072B6F4
:1037840040F29433C2F200031A68A2601B6803B1CA
:103794005C6040F29433C2F200031C6062B670BDF8
:1037A4002DE9F04F89B0054603689847022807D0F1
:1037B40045F26C00C0F600004FF02D01FCF7F4FC5C
:1037C40043F6D926C0F6000645F28C07C0F600077A
:1037D4004FF0000B45F26C03C0F600030193DFF8D1
:1037E4009080DFF89090D5F800A0CDF808A0284686
:1037F4003946D0472B68B34204BFC5F800A05C46E5
:103804001BD05C4604F10104E4B262B208A901EBE6
:10381400820242F8183C2846394698472B68B3423E
:10382400F0D1DDF808A0C5F800A063B2052B04DDD3
:1038340001984FF04301FCF7B7FC63B208AA02EB0E
:10384400830353F8183C28464146984704F1FF3453
:10385400E4B214F0800FF0D028464946D04702283D
:1038640001D15646BFE7C5F800A009B0BDE8F08F06
:103874008E500008925000082DE9F04F89B005469B
:103884000C4606682F6828462146B8470328F9D015
:10389400022840F01081D5F800A0CDF808A00396C6
:1038A400BE420ED0874C45F28C08C0F6000828466C
:1038B4002146B04710B928464146B0472E68B74262
:1038C400F5D1574503D128467E49B847F7E045F27C
:1038D4008C01C0F600012846D0472C68A74200F0AE
:1038E400EE8045F28C01C0F600012846B847D5F8B1
:1038F4000080A04507D128467249B847DFE014F09C
:10390400800F77D086E0C24503D128466D49B84779
:1039140080E0039445F28C01C0F600012846A047DC
:10392400032818BF01262CD14FF0010445F28C0A5C
:10393400C0F6000A04F10106F6B22B6872B208A9B7
:1039440001EB820242F8183C9F420BD176B2052E5D
:10395400D5DD45F27800C0F600004FF07901FCF7A0
:1039640023FCCCE7284651469847032801D1F4B2FA
:10397400E0E773B2052B04DD53484FF08401FCF7F4
:1039840013FC28464F49B847F3B25AB208A901EBD1
:10399400820252F8182C904503D103F1FF33DCB2B4
:1039A400ADE703F1FF33DBB213F0800FEDD0454CEC
:1039B40045F28C07C0F60007F6B228462146C047F8
:1039C40010B928463946C047D5F8008033465AB264
:1039D40008A901EB820252F8182C424503D103F1E5
:1039E400FF33DCB28BE703F1FF33DBB213F0800F5C
:1039F400EDD0E2E7354E63B208AA02EB830353F835
:103A0400183C28463146984704F1FF34E4B214F0D8
:103A1400800FF0D0029E2E60DFF8B49045F28C0740
:103A2400C0F600074FF0000B45F27803C0F6000320
:103A34000193DFF8988039E0D5F800A0CDF808A00C
:103A440028463946D0472B68B34204BFC5F800A0C6
:103A54005C461BD05C4604F10104E4B262B208A9DE
:103A640001EB820242F8183C2846394698472B68F5
:103A7400B342F0D1DDF808A0C5F800A063B2052B6D
:103A840004DD01984FF0D701FCF78EFB63B208AA5E
:103A940002EB830353F8183C28464146984704F147
:103AA400FF34E4B214F0800FF0D05646284649465D
:103AB400B0470228C0D02E6009B0BDE8F08F4FF0A7
:103AC400000497E790500008785000088E500008D2
:103AD400925000084FF00100704700BF70B5074DC9
:103AE400074E761BB61006D0002455F82430013456
:103AF4009847A642F9D801F039FB70BD80510008FF
:103B04008451000870B50D4D0D4E761BB61006D0CD
:103B1400002455F8243001349847A642F9D8094DB9
:103B240001F01EFB084E761BB61006D0002455F893
:103B3400243001349847A642F9D870BD7C5100085E
:103B44007C5100087C51000880510008EFF310807C
:103B540072B606498A68FF231B041A438A604A68BE
:103B64001B021A434A6080F31088704718ED00E086
:103B740072B608480078002805D0012109060648D5
:103B840003B486B0704762B67047FFF7C5F962B6F2
:103B940000DF00003C0200208E3B000808B07047A4
:103BA4007068696C6F2E630034010020600100208E
:103BB4008C010020B8010020E40100207461626CD3
:103BC400652E63001402002000A24A0400A24A04E5
:103BD40000A24A040051250200A24A0480000020E9
:103BE4000800100020000000200000002000000059
:103BF400200000002000000000000200200000005F
:103C04004000000001000020000200000400000049
:103C14001000000008000000000002000100000085
:103C240000000D0009000000010000200002000057
:103C3400060028001700000000000000000000003B
:103C44000000000000000000000000000000000070
:103C54000000000000000000000000000000000060
:103C640000000000000000000000800180018001CD
:103C74008001800180018001800180018001800138
:103C8400800180010000000080018001000000002C
:103C9400000000000000000000000000CC00CC0088
:103CA400CC00CC00CC00CC000000000000000000E0
:103CB4000000000000000000000000000000000000
:103CC40000000000000000000000000000000000F0
:103CD40000000000600C600C600C30063006FE1F13
:103CE400FE1F300638071803FE1FFE1F18031803B3
:103CF4008C018C018C01000000008000E003F80FAF
:103D04009C0E8C1C8C188C009800F801E007800E27
:103D1400801C8C188C189C18B80CF00FE0038000E1
:103D240080000000000000000000000000000E18E9
:103D34001B0C110C11061106110311039B018E01BA
:103D4400C038C06C60446044304430441844186C3B
:103D54000C380000000000000000E001F003380708
:103D6400180618063003F001F000F8009C310E33F9
:103D7400061E061C061C063FFC73F0210000000012
:103D84000000000000000000000000000C000C0017
:103D94000C000C000C000C000000000000000000EF
:103DA400000000000000000000000000000000000F
:103DB4000000000000000000000000020003800179
:103DC400C000C000600060003000300030003000EF
:103DD400300030003000300060006000C000C000DF
:103DE4008001000300020000000020006000C00009
:103DF400800180010003000300060006000600069F
:103E0400000600060006000600030003800180018E
:103E1400C00060002000000000000000000000005E
:103E240000000000C000C000D806F807E00130031D
:103E3400380700000000000000000000000000003F
:103E4400000000000000000000000000000000006E
:103E54000000000080018001800180018001FC3F9E
:103E6400FC3F80018001800180018001000000008E
:103E7400000000000000000000000000000000003E
:103E8400000000000000000000000000000000002E
:103E9400000000000000000000008001800100011B
:103EA400000180000000000000000000000000008D
:103EB40000000000000000000000000000000000FE
:103EC400E007E00700000000000000000000000020
:103ED40000000000000000000000000000000000DE
:103EE40000000000000000000000000000000000CE
:103EF40000000000000000000000C000C00000003E
:103F040000000000000000000000000C000C00068F
:103F14000006000600030003000380038001800103
:103F24008001C000C000C00060006000000000000C
:103F340000000000000000000000E003F007380E5D
:103F4400180C0C180C180C180C180C180C180C184D
:103F54000C180C18180C380EF007E00300000000D1
:103F64000000000000000000000000018001C0010A
:103F7400F0019801880180018001800180018001A5
:103F84008001800180018001800180010000000027
:103F940000000000000000000000E003F80F180C0F
:103FA4000C180C1800180018000C000600038001FF
:103FB400C000600030001800FC1FFC1F000000005F
:103FC40000000000000000000000E001F807180EE7
:103FD4000C0C0C0C000C0006C003C007000C0018ED
:103FE40000180C180C18180CF807E0030000000067
:103FF40000000000000000000000000C000E000F94
:10400400000F800DC00C600C600C300C180C0C0CF4
:10401400FC3FFC3F000C000C000C000C00000000F6
:1040240000000000000000000000F80FF80F180066
:1040340018000C00EC03FC071C0E001C00180018F0
:1040440000180C181C0C180EF807E0030000000000
:1040540000000000000000000000C007F00F381C42
:10406400181818000C00CC03EC0F3C0E1C1C0C1888
:104074000C180C18181C380EF007E00300000000A0
:1040840000000000000000000000FC1FFC1F000CEA
:1040940000060006000380038001C001C000E000A8
:1040A400600060007000300030003000000000004C
:1040B40000000000000000000000E003F007380EDC
:1040C400180C180C180C3806F007F007180C0C180C
:1040D4000C180C180C18380CF80FE0030000000042
:1040E40000000000000000000000E003F007380EAC
:1040F4001C0C0C180C180C181C1C381EF81BE0198E
:104104000018000C000C1C0EF807F0010000000061
:10411400000000000000000000000000000000009B
:104124000000000080018001000000000000000089
:104134000000000000000000800180010000000079
:10414400000000000000000000000000000000006B
:104154000000000080018001000000000000000059
:104164000000000000000000800180010001000147
:1041740080000000000000000000000000000000BB
:1041840000000000000000000010001C800FE0038D
:10419400F8001800F800E003800F001C0010000075
:1041A400000000000000000000000000000000000B
:1041B4000000000000000000F81F000000000000E4
:1041C400F81F0000000000000000000000000000D4
:1041D40000000000000000000000000000000000DB
:1041E400000000000000000008003800F001C007D3
:1041F400001F0018001FC007F0013800080000006D
:1042040000000000000000000000E003F80F180C9C
:104214000C180C180018000C000600038001C000E4
:10422400C000C00000000000C000C000000000008A
:10423400000000000000000000000000E007181863
:104244000420C229224A1144094409440944092288
:104254001113E20C024004201818E00700000000CB
:104264000000000000000000000080038003C0067E
:10427400C006C006600C600C301830183018F83FC7
:10428400F83F1C700C600C6006C006C00000000003
:1042940000000000000000000000FC03FC0F0C0CF8
:1042A4000C180C180C180C0CFC07FC0F0C180C3018
:1042B4000C300C300C300C18FC1FFC070000000004
:1042C40000000000000000000000C007F01F3838A4
:1042D4001C300C700660060006000600060006008E
:1042E400060006600C701C30F01FE00700000000A0
:1042F40000000000000000000000FE03FE0F060E98
:104304000618061806300630063006300630063029
:10431400063006180618060EFE0FFE030000000005
:1043240000000000000000000000FC3FFC3F0C0007
:104334000C000C000C000C00FC1FFC1F0C000C00FB
:104344000C000C000C000C00FC3FFC3F00000000C3
:1043540000000000000000000000F83FF83F1800D3
:104364001800180018001800F81FF81F180018008B
:1043740018001800180018001800180000000000A9
:1043840000000000000000000000E00FF83F3C784F
:104394000E6006E007C00300030003FE03FE03C033
:1043A40007C006C00EC03CF0F83FE00F000000005C
:1043B400000000000000000000000C300C300C3045
:1043C4000C300C300C300C30FC3FFC3F0C300C300B
:1043D4000C300C300C300C300C300C300000000071
:1043E4000000000000000000000080018001800146
:1043F40080018001800180018001800180018001B1
:1044040080018001800180018001800100000000A2
:104414000000000000000000000000060006000686
:104424000006000600060006000600060006000658
:104434000006180618063807F003E0010000000023
:104444000000000000000000000006300618060C02
:10445400060606038601C60066007600DE008E01AD
:1044640006030606060C0618063006600000000067
:1044740000000000000000000000180018001800F0
:104484001800180018001800180018001800180068
:104494001800180018001800F81FF81F000000008A
:1044A400000000000000000000000EE01EF01EF0FE
:1044B4001EF036D836D836D836D866CC66CC66CC1C
:1044C400C6C6C6C6C6C6C6C686C386C30000000026
:1044D400000000000000000000000C301C303C30E4
:1044E4003C306C306C30CC30CC308C310C330C33F1
:1044F4000C360C360C3C0C3C0C380C300000000024
:1045040000000000000000000000E007F81F1C3855
:104514000E70066003C003C003C003C003C003C021
:1045240003C006600E701C38F81FE007000000008E
:1045340000000000000000000000FC0FFC1F0C380D
:104544000C300C300C300C300C18FC1FFC070C0029
:104554000C000C000C000C000C000C00000000000F
:1045640000000000000000000000E007F81F1C38F5
:104574000E70066003E003C003C003C003C003C0A1
:1045840007E006630E3F1C3CF83FE0F700C0000064
:1045940000000000000000000000FE0FFE1F0638AF
:1045A4000630063006300638FE1FFE0706030606F0
:1045B400060C0618061806300630066000000000D7
:1045C40000000000000000000000E003F80F1C0CD5
:1045D4000C180C180C001C00F803E00F001E003827
:1045E400063006300E301C1CF80FE00700000000F7
:1045F40000000000000000000000FE7FFE7F80013C
:10460400800180018001800180018001800180019E
:104614008001800180018001800180010000000090
:10462400000000000000000000000C300C300C30D2
:104634000C300C300C300C300C300C300C300C3096
:104644000C300C300C301818F81FE0070000000084
:104654000000000000000000000003600630063087
:1046640006300C180C180C18180C180C380E3006E0
:104674003006700760036003C001C0010000000041
:10468400000000000000000000000360C361C3617B
:10469400C3616633663366336633663366336C1BD5
:1046A4006C1B6C1B2C1A3C1E380E380E00000000CC
:1046B400000000000000000000000FE00C70183043
:1046C4003018700C600EC00780038003C003E0063E
:1046D400700C301C18180C300E6007E0000000004D
:1046E4000000000000000000000003C006600C3061
:1046F4001C383818300C6006E007C00380018001C4
:10470400800180018001800180018001000000009F
:1047140000000000000000000000FC7FFC7F00603F
:1047240000300018000C000600038001C000600087
:10473400300018000C000600FE7FFE7F0000000021
:1047440000000000000000000000E003E00360003F
:104754006000600060006000600060006000600055
:104764006000600060006000600060006000600045
:104774006000E003E003000000003000300060004F
:1047840060006000C000C000C000C0018001800162
:10479400800100030003000300060006000000007F
:1047A40000000000000000000000E003E00300033C
:1047B40000030003000300030003000300030003DD
:1047C40000030003000300030003000300030003CD
:1047D4000003E003E003000000000000C001C0018A
:1047E40060036003600330063006180C180C0000E8
:1047F40000000000000000000000000000000000B5
:1048040000000000000000000000000000000000A4
:104814000000000000000000000000000000000094
:1048240000000000000000000000FFFFFFFF000088
:10483400000000000000000000000C000C000C0050
:104844000C000C000C000000000000000000000040
:104854000000000000000000000000000000000054
:104864000000000000000000000000000000000044
:1048740000000000F003F8071C0C0C0C000FF00FF4
:10488400F80C0C0C0C0C1C0FF80FF01800000000B6
:1048940000000000000000000000180018001800CC
:1048A40018001800D803F80F380C1818181818181E
:1048B400181818181818380CF80FD803000000003E
:1048C40000000000000000000000000000000000E4
:1048D40000000000C003F007300E180C1800180088
:1048E40018001800180C300EF007C0030000000078
:1048F400000000000000000000000018001800186C
:1049040000180018C01BF01F301C181818181818AD
:10491400181818181818301CF01FC01B00000000CD
:104924000000000000000000000000000000000083
:1049340000000000C003F00F300C1818F81FF81F17
:10494400180018003818301CF00FC00700000000D1
:1049540000000000000000000000800FC00FC00035
:10496400C000C000F007F007C000C000C000C000D5
:10497400C000C000C000C000C000C00000000000B3
:104984000000000000000000000000000000000023
:1049940000000000E00DF80F180E0C0C0C0C0C0CB1
:1049A4000C0C0C0C0C0C180EF80FE00D000C0C0C7D
:1049B4001C06F807F0010000000018001800180099
:1049C40018001800D807F80F381C181818181818E9
:1049D40018181818181818181818181800000000B3
:1049E40000000000000000000000C000C000000043
:1049F40000000000C000C000C000C000C000C00033
:104A0400C000C000C000C000C000C0000000000022
:104A140000000000000000000000C000C000000012
:104A240000000000C000C000C000C000C000C00002
:104A3400C000C000C000C000C000C000C000C00072
:104A4400C000F8007800000000000C000C000C000E
:104A54000C000C000C0C0C060C038C01CC006C003C
:104A6400FC009C018C030C030C060C0C00000000E1
:104A740000000000000000000000C000C000C000F2
:104A8400C000C000C000C000C000C000C000C00022
:104A9400C000C000C000C000C000C0000000000092
:104AA4000000000000000000000000000000000002
:104AB400000000007C3CFF7EC7E383C183C183C147
:104AC40083C183C183C183C183C183C1000000004A
:104AD40000000000000000000000000000000000D2
:104AE400000000009807F80F381C18181818181838
:104AF4001818181818181818181818180000000092
:104B040000000000000000000000000000000000A1
:104B140000000000C003F00F300C18181818181803
:104B2400181818181818300CF00FC00300000000F3
:104B34000000000000000000000000000000000071
:104B440000000000D803F80F380C181818181818AB
:104B5400181818181818380CF80FD803180018006B
:104B640018001800180000000000000000000000F9
:104B740000000000C01BF01F301C1818181818186B
:104B8400181818181818301CF01FC01B001800182B
:104B940000180018001800000000000000000000C9
:104BA40000000000B007F003700030003000300057
:104BB40030003000300030003000300000000000D1
:104BC40000000000000000000000000000000000E1
:104BD40000000000E003F003380E180C3800F00366
:104BE400C007000C180C380EF007E00300000000AA
:104BF4000000000000000000000000008000C00071
:104C0400C000C000F007F007C000C000C000C00032
:104C1400C000C000C000C000C00780070000000042
:104C24000000000000000000000000000000000080
:104C34000000000018181818181818181818181850
:104C4400181818181818381CF01FE0190000000074
:104C54000000000000000000000000000000000050
:104C6400000000000C18180C180C180C3006300644
:104C74003006600360036003C001C001000000004F
:104C84000000000000000000000000000000000020
:104C940000000000C141C141C36163636363636396
:104CA4003636363636361C1C1C1C1C1C0000000014
:104CB40000000000000000000000000000000000F0
:104CC400000000001C38381C300C600660036003D0
:104CD400600360036006300C381C1C3800000000C0
:104CE40000000000000000000000000000000000C0
:104CF400000000001830301830187018600C600C78
:104D0400E00CC006C006800380038003800180019C
:104D1400C001F0007000000000000000000000006E
:104D240000000000FC1FFC1F000C000600038001B3
:104D3400C000600030001800FC1FFC1F00000000D1
:104D44000000000000000000000000038001C0001B
:104D5400C000C000C000C000C0006000600030009F
:104D640060004000C000C000C000C000C000C0001F
:104D74008001000300000000000080018001800128
:104D84008001800180018001800180018001800117
:104D94008001800180018001800180018001800107
:104DA400800180018001000000006000C000C0019B
:104DB400800180018001800180010003000300065E
:104DC40000030001800180018001800180018001D5
:104DD400C0006000000000000000000000000000AF
:104DE4000000000000000000F010F81F080F000091
:104DF40000000000000000000000000000000000AF
:104E04000000000000000000342E312E303300007A
:104E1400716B0000716B5F73636865640000000070
:104E240071615F6669666F0071615F6765745F00D9
:104E340071615F7375620000342E312E30330000CF
:104E440071665F616374000071665F6763000000F0
:104E5400000102020303030304040404040404041D
:104E640005050505050505050505050505050505EE
:104E740006060606060606060606060606060606CE
:104E840006060606060606060606060606060606BE
:104E9400070707070707070707070707070707079E
:104EA400070707070707070707070707070707078E
:104EB400070707070707070707070707070707077E
:104EC400070707070707070707070707070707076E
:104ED400080808080808080808080808080808084E
:104EE400080808080808080808080808080808083E
:104EF400080808080808080808080808080808082E
:104F0400080808080808080808080808080808081D
:104F1400080808080808080808080808080808080D
:104F240008080808080808080808080808080808FD
:104F340008080808080808080808080808080808ED
:104F440008080808080808080808080808080808DD
:104F540071665F6E6577000071665F706F6F6C00DD
:104F640071665F70737075620000000000010204D6
:104F7400081020408001020408102040800102042F
:104F8400081020408001020408102040800102041F
:104F9400081020408001020408102040800102040F
:104FA4000810204080010204081020408000000006
:104FB400FFFEFDFBF7EFDFBF7FFEFDFBF7EFDFBF7B
:104FC4007FFEFDFBF7EFDFBF7FFEFDFBF7EFDFBFEB
:104FD4007FFEFDFBF7EFDFBF7FFEFDFBF7EFDFBFDB
:104FE4007FFEFDFBF7EFDFBF7FFEFDFBF7EFDFBFCB
:104FF4007F0000000000000000000000000101012B
:10500400010101010102020202020202020303037E
:10501400030303030304040404040404040505054E
:10502400050505050506060606060606060707071E
:105034000707070707000000716D705F676574005C
:10504400716D705F696E697400000000716D705F4E
:10505400707574007174655F63746F720000000092
:105064007174655F61726D007168736D5F696E69FB
:10507400000000007168736D5F64697300000000D4
:10508400342E312E303300000000010002000300F2
:105094002020205175616E74756D204C65617073AC
:1050A40020202020000000002020202020445050F8
:1050B400206578616D706C65202020200000000060
:1050C4002051502F432028514B29202020202020DC
:1050D40020202020000000004450503A000000002E
:1050E400202073746174652D6D616368696E652E2B
:1050F400636F6D200000000030202C31202C322002
:105104002C33202C342020202000000068756E678A
:105114007279202000000000656174696E672020A8
:10512400000000007468696E6B696E67000000001F
:10513400737461727475705F73746D333266313079
:10514400785F636C000000002020202020202020B5
:1051540020202020202020202020202000000000CB
:10516400F8B500BFF8BC08BC9E467047F8B500BF50
:08517400F8BC08BC9E46704720
:04517C0079010008AD
:0451800055010008CD
:1051840000140140001401400014014000140140C7
:105194000014014000440040000801400010014098
:1051A400000C0140FFFF00000000000001020304A6
:1051B400010203040607080902040608400000006F
:0400000508000A5194
:00000001FF
