:10000000F80B002021190000051900000000000075
:100010000519000005190000051900000519000068
:100020000519000005190000051900000519000058
:10003000051900000519000005190000F100000075
:100040000519000005190000051900000519000038
:100050000519000005190000051900000519000028
:100060000519000005190000051900000519000018
:100070000519000005190000051900000519000008
:1000800005190000051900000519000005190000F8
:1000900005190000051900000519000005190000E8
:1000A00005190000051900000519000005190000D8
:1000B00005190000051900000519000005190000C8
:1000C00005190000051900000519000005190000B8
:1000D00005190000051900000519000005190000A8
:1000E0000519000005190000051900000519000098
:1000F000684620F007018D4601B54EF21003CEF29E
:1001000000031B6840F20003C2F2000359681A683A
:100110008A181A6002F000F9BDE801408546704770
:1001200040B14FF4C043C4F200034FF02002C3F8C3
:10013000802070474FF4C043C4F200034FF0000228
:10014000C3F88020704700BF82B04FF000030193D6
:10015000019B03F1FF320192002BF9D102B07047ED
:1001600040F2EC73C2F200031A6848F68903C8F63D
:100170008803A3FB02134FEA1313B3F1807F16D257
:1001800023F07F4303F1FF324EF21003CEF200035F
:100190005A604FF46D42CEF200024FF0E00182F857
:1001A00023104FF000029A604FF007021A604FF4DC
:1001B0006D43CEF200034FF0200283F823204FF46A
:1001C0006143CEF200034FF0000283F800234FF0AA
:1001D00001021A60704700BF704700BF00B583B0CE
:1001E0004FF4C043C4F200034FF02002C3F8802054
:1001F0004FF00002C3F8802062B64FF44043C4F2CF
:1002000000039B6913F0800F1ED002A84FF010036B
:1002100020F8023D72B604F023FA62B6BDF806304B
:1002200003F1FF32ADF8062073B14FF44041C4F240
:10023000000110F8013B0B60BDF8063003F1FF32FE
:10024000ADF80620002BF4D103B000BD72B6FEE776
:1002500008B5FFF7FBFF08BD10B540F20004C2F27D
:10026000000404F108004FF4C06102F0D3FF4FF422
:100270006043C4F20F03D3F8042142F00102C3F833
:100280000421D3F8082142F00102C3F8082100BF7D
:1002900000BF00BF4FF4804363F31F43D3F8002433
:1002A00022F003024FF4804363F31F43C3F800249A
:1002B0004FF4804363F31F43D3F8202442F003023A
:1002C0004FF4804363F31F43C3F820244FF480436B
:1002D00063F31F43D3F8002542F003024FF4804339
:1002E00063F31F43C3F800254FF4804363F31F43B8
:1002F000D3F8182522F003024FF4804363F31F4321
:10030000C3F818254FF4804363F31F43D3F80C253B
:1003100022F003024FF4804363F31F43C3F80C251C
:100320004FF4804363F31F43D3F8102522F00302F8
:100330004FF4804363F31F43C3F810254FF4804309
:1003400063F31F43D3F8142522F003024FF48043D4
:1003500063F31F43C3F814254FF4804363F31F4333
:10036000D3F81C2542F003024FF4804363F31F438C
:10037000C3F81C2540F2EC73C2F2000319684FEA7F
:10038000C1024BF2C533C9F2A213A3FB02024FEA2A
:10039000124202F101024FEAD2104FF44043C4F27C
:1003A00000035862C2F345029A624FF06002DA62BB
:1003B000DA6A42F01002DA621A6B42F4407242F0DA
:1003C00001021A6348F68903C8F68803A3FB0123D8
:1003D0004FEA1313636023604FF0FF0002F022FF27
:1003E0004FF00A0002F040FF4FF00B0002F03CFF1C
:1003F0004FF00C0002F038FF4FF00D0002F034FF18
:100400004FF00E0002F030FF4FF00F0002F02CFF13
:100410004FF0100002F028FF4FF0110002F024FF0F
:100420004FF0120002F020FF4FF0130002F01CFF0B
:100430004FF0140002F018FF4FF0150002F014FF07
:100440004FF0160002F010FF4FF0170002F00CFF03
:100450004FF0180002F008FF4FF0190002F004FFFF
:100460004FF01A0002F000FF4FF01C0002F0FCFEFB
:100470004FF01D0002F0F8FE4FF01E0002F0F4FEF7
:100480004FF0200002F0F0FE4FF0210002F0ECFEF1
:100490004FF0220002F0E8FE4FF0230002F0E4FEED
:1004A0004FF0240002F0E0FE4FF0250002F0DCFEE9
:1004B0004FF0270002F0D8FE4FF0280002F0D4FEE3
:1004C0004FF0290002F0D0FE4FF02A0002F0CCFEDF
:1004D0004FF0010010BD00BF10B501F0BBFA4FF4A2
:1004E0006043C4F20F03D3F8082142F00502C3F8B9
:1004F000082100BF00BF00BF4FF4C043C4F2000397
:10050000D3F8002442F02002C3F80024D3F81C25BD
:1005100042F02002C3F81C254FF00004C3F88040CD
:10052000D3F8002422F01002C3F80024D3F81C25CD
:1005300042F01002C3F81C254FF0010000F01CFA35
:1005400045F21010C0F200002146224600F058F992
:1005500045F22010C0F2000021464FF0010200F0E9
:100560004FF92046FFF778FE38B944F65410C0F230
:1005700000004FF06601FFF769FE10BD704700BF35
:100580004EF21003CEF200031B6813F4807F4EF28C
:100590001003CEF200039A6840F20003C2F2000397
:1005A00007BF1868C2EB000058681B681CBFC01862
:1005B000C2EB0000704700BF30B583B004460D4663
:1005C0000B788DF804304FF000038DF8053000EB08
:1005D000C0014FEA410101A801F106014FF00102FB
:1005E00000F00EF940F65813C2F200031B7A13F024
:1005F000400F21D040F69813C2F200031A683AB1B6
:1006000044F6A053C0F2000353F824309A4213D1A9
:1006100072B64FF0460002F049FEFFF7B1FF03F05B
:1006200051FD4FF01100214602F0ACFF284604F0C6
:1006300051F802F011FF62B603B030BD30B583B09F
:1006400002AD4FF0100325F8023D72B64FF440445E
:10065000C4F200041BE062B6A26912F0800FFBD066
:10066000BDF8062002F1FF31ADF8061052B113F8C3
:10067000012B2260BDF8062002F1FF31ADF8061013
:10068000002AF4D14FF01003ADF8063072B62846B8
:1006900003F0E6FF03460028DDD162B603B030BDAB
:1006A0004FF00003C4F202034FF07A021A60986020
:1006B0004FF003025A6070470138FDD17047704710
:1006C00010B504464FF00002C4F202025369002B39
:1006D000FCD040F20863C2F200031868FFF7ECFF99
:1006E0004FF00003C4F202039C604FF001025A6015
:1006F00010BD00BF38B505464FF00002C4F202023B
:100700005369002BFCD040F20863C2F200031C685E
:100710002046FFF7D1FF4FF00003C4F202039D60B3
:100720004FF005025A604FF00002C4F20202536912
:10073000002BFCD02046FFF7BFFF38BD2DE9F0416C
:100740000D46B9B106464FF00004C4F2020440F26F
:100750000867C2F200074FF001086369002BFCD064
:100760003868FFF7A9FF16F8013BA360C4F80480BE
:10077000013DF2D1BDE8F08170B54FF08000FFF788
:100780008FFF40F20863C2F200031E7944F65C1347
:10079000C0F20003002E03F1080018BF18464FF006
:1007A0000601FFF7CBFF4FF05F044FF0000528462E
:1007B000FFF786FF013CFAD14FF00000FFF79AFFE8
:1007C0004FF08000FFF76CFF002E0C4B03F1080088
:1007D00018BF18464FF00601FFF7B0FF4FF00004B6
:1007E00025462846FFF76CFF04F101045F2CF8D181
:1007F0004FF00000FFF77EFF70BD00BF6C490000A6
:100800002DE9F84306460C4615464FF08000FFF7E9
:1008100047FF002D14BFB120B020FFF751FF4FF06C
:100820008000FFF74DFF40F20863C2F200035D79DC
:10083000281900F00F00FFF743FF4FF08000FFF78B
:100840003FFF6519C5F3031040F01000FFF738FFB4
:100850004FF04000FFF734FF3378002B3DD1BDE867
:10086000F88304F106045A2C1CD803EB8303A3F18C
:10087000A00038184146FFF761FF5A2C03D02E46DE
:1008800015F8013B2BB94FF00000FFF733FFBDE82F
:10089000F8834846FFF714FF15F8013C002BE0D120
:1008A000BDE8F883C4F15F0544F65C14C0F20004AF
:1008B00003EB8303E018A0F180002946FFF73EFF19
:1008C0003378A3F1200303EB8303E418651995F84B
:1008D0002000FFF70FFFBDE8F8835A2CE2D806F19D
:1008E0000105034F4FF005084FF00009BDE700BFB9
:1008F0007C4900002DE9F84F0446154698460A9FAA
:1009000040F20863C2F2000393F805A08A4487B35B
:10091000CAF3031949F010094FF080060AF00F0AD4
:1009200008F1FF3B3046FFF7BBFE002D14BFB1209E
:10093000B020FFF7C5FE3046FFF7C2FE5046FFF776
:10094000BFFE3046FFF7BCFE4846FFF7B9FE4FF04A
:100950004000FFF7B5FE20465946FFF7EFFE44443E
:1009600014F8010CFFF7C6FE013F02D005F10105A6
:10097000D8E7BDE8F88F00BF2DE9F84304464FF4EF
:100980006043C4F20F03D3F8042142F48052C3F849
:100990000421D3F8082142F00202C3F808215A6862
:1009A000C2F30032D6B240F20863C2F200031A71F9
:1009B000002E00F0BB8040F20863C2F200034FF04B
:1009C00004025A714FF46043C4F20F03D3F80821B4
:1009D00042F00802C3F808214FF00100FFF76CFE57
:1009E0004FF4E043C4F20003D3F8002442F0800245
:1009F000C3F800244FF08002C3F800224FF4A04354
:100A0000C4F20003D3F8002422F00C02C3F800243F
:100A1000D3F8202442F00C02C3F82024D3F8002598
:100A200042F00C02C3F80025D3F8182522F00C027E
:100A3000C3F81825D3F80C2542F00C02C3F80C2596
:100A4000D3F8102542F00C02C3F81025D3F81C256A
:100A500042F00C02C3F81C25D3F8282522F00C0222
:100A6000C3F828254FF00003C4F202031A6A42F0CB
:100A700010021A6248F2A062C0F201024FF4D4538D
:100A8000C0F20603002C0CBF14461C4604EB840481
:100A90004FEA840440F2EC73C2F200031B6803F1D6
:100AA000FF331B19B3FBF4F404F1FF344FF00003E0
:100AB000C4F20203DC60DA6840F20863C2F20003A9
:100AC00002F1010202EB02124FEA82021A604FF0B9
:100AD000000444F65C18C0F2000808F51377B94624
:100AE0001AE05EB308F5FE7563195878FFF7D8FD74
:100AF00004F10200615D2818A1F10201FFF71EFE5A
:100B0000635D08EB0402D31893F8FC01FFF7F2FDD4
:100B10002B5D03F10103E418002E0CBF71234D235C
:100B20009C42DED3FFF728FEBDE8F88340F208635D
:100B3000C2F200034FF024025A715FE7E3195878BC
:100B4000FFF7AEFD04F10200E15D3818A1F10201EA
:100B5000FFF7F4FDE35D08EB0402D31893F84C02B1
:100B6000FFF7C8FD4D46D3E72DE9F0414FF00004F3
:100B700044F65C17C0F2000707F51376B04619E09B
:100B80002BB307F5FE7563195878FFF789FD04F15B
:100B90000200615D2818A1F10201FFF7CFFD635D3E
:100BA0003A19D31893F8FC01FFF7A4FD2B5D03F16C
:100BB0000103E41840F20863C2F200031B79002B22
:100BC0000CBF71224D229442DAD3BDE8F081A31903
:100BD0005878FFF765FD04F10200A15D3018A1F11E
:100BE0000201FFF7ABFDA35D3A19D31893F84C024D
:100BF000FFF780FD4546D9E708B54FF08000FFF7C5
:100C00004FFD4FF0AE00FFF75BFD4FF08000FFF7A8
:100C100057FD4FF0AD00FFF753FD4FF08000FFF799
:100C20004FFD4FF08A00FFF765FD08BD2DE9F0414B
:100C300084B005460C4600F02BFC00F04BFE284625
:100C40002146FFF749FC01F03BFD4FF0FF0002F0A9
:100C5000E9FA4FF0270002F007FB4FF0280002F0FE
:100C600003FB4FF0290002F0FFFA4FF02A0002F0D8
:100C7000FBFA4FF01F0002F0F7FA4FF0340002F0D9
:100C8000F3FA40F65813C2F20003DB7913F0200F99
:100C900000F0B18072B64FF03D0002F007FB40F269
:100CA0001060C2F2000003F00DFA44F61C40C0F2DE
:100CB000000003F077FC02F0CFFB62B6FFF7BEFC4A
:100CC00040F65813C2F20003DB7913F0200F00F056
:100CD000928072B64FF03D0002F0E8FA664803F0E9
:100CE000F1F9664803F05EFC02F0B6FB62B6FFF76E
:100CF000A5FC40F65813C2F20003DB7913F0200F75
:100D000079D072B64FF03D0002F0D0FA5C4803F0A3
:100D1000D9F95C4803F046FC02F09EFB62B6FFF78F
:100D20008DFC40F65813C2F20003DB7913F0200F5C
:100D300061D072B64FF03D0002F0B8FA40F2106098
:100D4000C2F2000000F13C0400F1500003F0BAF9D7
:100D50004D4803F027FC02F07FFB62B6FFF76EFC04
:100D600040F65813C2F20003DB7913F0200F42D093
:100D700072B64FF03D0002F099FA04F1280003F03A
:100D8000A1F9424803F00EFC02F066FB62B6FFF7E1
:100D900055FC40F65813C2F20003DB7913F0200F24
:100DA00029D072B64FF03D0002F080FA04F13C0009
:100DB00003F088F9364803F0F5FB02F04DFB62B60C
:100DC000FFF73CFC40F65813C2F20003DB7913F046
:100DD000200F10D072B64FF03D0002F067FA04F118
:100DE000500003F06FF92B4803F0DCFB02F034FBFA
:100DF00062B6FFF723FC40F21065C2F2000505F170
:100E0000A0004FF0070101F007FA28464FF0280133
:100E10004FF0040201F0BCF91F4F05F13C054FF003
:100E2000000426464FF0050804F10104E4B257F827
:100E3000040F00960196029621462A46434601F089
:100E40007DFC05F11405052CEED144F62463C0F2B7
:100E5000000318684FF000040094019402944FF0CE
:100E60000601054A4FF0050301F068FC01F02EFC75
:100E7000204604B0BDE8F081380600202C4C00006C
:100E80004C0600203C4C0000504C0000644C00001C
:100E9000784C00008C4C00009C4D000010B50446BE
:100EA00040F2E863C2F200031B78002B40F06B8134
:100EB00040F65813C2F20003DB7913F0200F00F064
:100EC000EF8072B64FF03D0002F0F0F9CA4803F02F
:100ED000F9F844F6A040C0F2000003F063FB02F012
:100EE000BBFA62B6FFF7AAFB40F65813C2F2000342
:100EF000DB7913F0200F00F0D38072B64FF03D0085
:100F000002F0D4F9BD4803F0DDF8BD4803F04AFB18
:100F100002F0A2FA62B6FFF791FB40F65813C2F254
:100F20000003DB7913F0200F00F0BA8072B64FF0A7
:100F30003D0002F0BBF9B34803F0C4F8B24803F037
:100F400031FB02F089FA62B6FFF778FB40F65813DE
:100F5000C2F20003DB7913F0200F00F0A18072B61B
:100F60004FF03D0002F0A2F9A84803F0ABF8A84802
:100F700003F018FB02F070FA62B6FFF75FFB40F671
:100F80005813C2F20003DB7913F0200F00F08880C1
:100F900072B64FF03D0002F089F99E4803F092F8D6
:100FA0009D4803F0FFFA02F057FA62B6FFF746FBDE
:100FB00040F65813C2F20003DB7913F0200F6FD014
:100FC00072B64FF03D0002F071F9944803F07AF8E0
:100FD000934803F0E7FA02F03FFA62B6FFF72EFB00
:100FE00040F65813C2F20003DB7913F0200F57D0FC
:100FF00072B64FF03D0002F059F98A4803F062F8EA
:10100000894803F0CFFA02F027FA62B6FFF716FB21
:1010100040F65813C2F20003DB7913F0200F3FD0E3
:1010200072B64FF03D0002F041F9804803F04AF8F3
:101030007F4803F0B7FA02F00FFA62B6FFF7FEFA44
:1010400040F65813C2F20003DB7913F0200F27D0CB
:1010500072B64FF03D0002F029F9764803F032F8FD
:10106000754803F09FFA02F0F7F962B6FFF7E6FA67
:1010700040F65813C2F20003DB7913F0200F0FD0B3
:1010800072B64FF03D0002F011F96C4803F01AF807
:101090006B4803F087FA02F0DFF962B6FFF7CEFA89
:1010A00040F65813C2F20003DB7913F0400F63D00F
:1010B00072B64FF03E0002F0F9F840F69D60C0F2C3
:1010C000000002F0FFFF5F4803F06CFA02F0C4F981
:1010D00062B6FFF7B3FA40F65813C2F20003DB79A9
:1010E00013F0400F48D072B64FF03E0002F0DEF829
:1010F00041F23930C0F2000002F0E4FF524803F040
:1011000051FA02F0A9F962B6FFF798FA40F65813BF
:10111000C2F20003DB7913F0400F2DD072B64FF00E
:101120003E0002F0C3F841F2CD30C0F2000002F000
:10113000C9FF464803F036FA02F08EF962B6FFF7AF
:101140007DFA40F65813C2F20003DB7913F0400F2A
:1011500012D072B64FF03E0002F0A8F841F27920AA
:10116000C0F2000002F0AEFF394803F01BFA02F0B3
:1011700073F962B6FFF762FA40F2E863C2F2000365
:101180004FF001021A7040F65813C2F20003DB79E7
:1011900013F0100F62D072B64FF03C0002F086F8E8
:1011A0004FF0080002F002FE204602F08BFF2948B3
:1011B00003F0F8F902F050F962B6FFF73FFA40F693
:1011C0005813C2F20003DB7913F0100F46D072B649
:1011D0004FF03C0002F06AF84FF0090002F0E6FD23
:1011E000204602F06FFF1C4803F0DCF902F034F9EE
:1011F00062B6FFF723FA31E0EC0600200407002076
:10120000AC4C000018070020C04C00003007002044
:10121000CC4C000044070020E04C00005C0700209C
:10122000EC4C000070070020004D000088070020F3
:101230000C4D00009C070020204D0000B40700204A
:101240002C4D0000404D0000504D0000604D00004E
:10125000704D0000804D00008C4D000020464FF086
:10126000040100F051FE41F23933C0F20003236063
:101270004FF0020010BD00BF38B504460B7803F1F3
:10128000FF33082B48D8DFE803F005114731314719
:10129000474727004FF00005458500F1180021461B
:1012A0004FF0050201F0B2F9284638BD4FF00300B7
:1012B0004FF0050100F00EFF1D4BE41A4FEAA404A5
:1012C00048F6A333CBF62E2303FB04F3837000F020
:1012D000ABFF4FF0000038BDFEF736FF41F2393367
:1012E000C0F2000323604FF0020038BD104BC41A57
:1012F0004FEAA40448F6A333CBF62E2303FB04F3F2
:101300008A78DBB29A420FD10A484FF0AA01FEF761
:101310009DFF4FF0000038BD43F2F513C0F200030B
:1013200003604FF0030038BD4FF0000038BD00BF30
:10133000EC060020984D000038B504460B7803F108
:10134000FF33082B32D8DFE803F00531311B1B31A6
:10135000313111004FF00005458500F1180021469C
:101360004FF0070201F052F9284638BDFEF7ECFEB7
:1013700041F2CD33C0F2000323604FF0020038BDCC
:10138000104BC41A4FEAA40448F6A333CBF62E231D
:1013900003FB04F38A78DBB29A420FD10A484FF07C
:1013A0007801FEF753FF4FF0000038BD43F2F5130C
:1013B000C0F2000303604FF0030038BD4FF000009F
:1013C00038BD00BFEC060020984D000010B5044663
:1013D0000B78042B1FD0052B35D0012B49D14FF0B2
:1013E00003004FF0080100F075FE0146264BE41A99
:1013F0004FEAA40448F6A333CBF62E2303FB04F3F1
:10140000837044F62463C0F20003186800F00AFDFC
:101410004FF0000010BD1C4A821A4FEAA20248F6A3
:10142000A333CBF62E2303FB02F38A78DBB29A4276
:101430001FD1FEF789FE41F27923C0F20003236039
:101440004FF0020010BD104BC41A4FEAA40448F636
:10145000A333CBF62E2303FB04F38A78DBB29A4244
:101460000FD10A484FF09001FEF7F0FE4FF0000058
:1014700010BD43F2F513C0F2000323604FF00300E8
:1014800010BD4FF0000010BDEC060020984D00008C
:101490002DE9F0414FF000052C460C4E40F69D67BB
:1014A000C0F200074FF02C08775108FB046000F1F0
:1014B00018004FF0090101F091F804F1010405F161
:1014C0002C05052CF0D1BDE8F08100BFEC06002012
:1014D00010B5044640F65813C2F20003DB7913F04E
:1014E000200F15D072B64FF03D0001F0DFFE40F244
:1014F000C870C2F2000002F0E5FD44F6B450C0F23C
:10150000000003F04FF801F0A7FF62B6FFF796F86E
:1015100040F65813C2F20003DB7913F0400F48D0B5
:1015200072B64FF03E0001F0C1FE43F2F510C0F27A
:10153000000002F0C7FD614803F034F801F08CFFB1
:1015400062B6FFF77BF840F65813C2F20003DB796E
:1015500013F0400F2DD072B64FF03E0001F0A6FE02
:1015600041F2D140C0F2000002F0ACFD544803F05B
:1015700019F801F071FF62B6FFF760F840F65813F2
:10158000C2F20003DB7913F0400F12D072B64FF0B5
:101590003E0001F08BFE41F2D960C0F2000002F083
:1015A00091FD484802F0FEFF01F056FF62B6FFF7DA
:1015B00045F840F65813C2F20003DB7913F0100F20
:1015C0006AD072B64FF03C0001F070FE4FF005009B
:1015D00002F0ECFB4FF0000002F074FD3A4802F01C
:1015E000E1FF01F039FF62B6FFF728F840F6581323
:1015F000C2F20003DB7913F0100F4DD072B64FF03A
:101600003C0001F053FE4FF0040002F0CFFB4FF01E
:10161000000002F057FD2D4802F0C4FF01F01CFF4E
:1016200062B6FFF70BF840F65813C2F20003DB79FD
:1016300013F0100F30D072B64FF03C0001F036FEC0
:101640004FF0060002F0B2FB4FF0000002F03AFD4E
:101650001F4802F0A7FF01F0FFFE62B6FEF7EEFFA3
:1016600040F65813C2F20003DB7913F0100F13D0C9
:1016700072B64FF03C0001F019FE4FF0080002F086
:1016800095FB204602F01EFD124802F08BFF01F090
:10169000E3FE62B6FEF7D2FF20464FF0050100F0F0
:1016A00033FC20464FF0060100F02EFC41F2D963D6
:1016B000C0F2000323604FF0020010BDC04D0000D7
:1016C000CC4D0000DC4D0000EC4D0000F84D00005A
:1016D000004E0000104E0000F8B504460D460B7891
:1016E000062B00F0E180082B03D0052B40F0E180B1
:1016F00047E0FEF729FDAD78042D02D863195B7F22
:1017000023B173484FF06001FEF7A0FD284645F273
:101710003011C0F20001FEF74FFF05F1010346F260
:101720006762C6F2666282FB03124FEA620202EB54
:1017300082029B1ADBB2E218127EDAB96219127EBB
:10174000C2B961194FF001020A76E3181A764FF018
:1017500003004FF0040100F0BDFC857000F064FD53
:10176000284645F23C11C0F20001FEF725FF4FF07C
:101770000000F8BD64194FF0010363774FF00000DB
:10178000F8BDFEF7E1FCAD78042D02D863195B7F4C
:1017900023B14F484FF07401FEF758FD284645F23B
:1017A0004811C0F20001FEF707FF05F1010346F200
:1017B0006766C6F2666686FB03264FEA660606EB98
:1017C00086069E1BF6B263191B7E012B03D1A3195B
:1017D0001B7E012B04D03E484FF07901FEF736FD09
:1017E00062194FF000031376A219137605F1040372
:1017F00046F26767C6F2666787FB03174FEA67071B
:1018000007EB8707DF1BFFB2E3195B7FDBB1E3194F
:101810001B7EC3B9E3194FF001021A7665192A76C7
:101820004FF000025A774FF003004FF0040100F030
:1018300051FC877000F0F8FC384645F23C11C0F2CC
:101840000001FEF7B9FEA3195B7F002B39D006F12A
:10185000010346F26762C6F2666282FB03124FEA38
:10186000620202EB82029B1ADBB2E218127E002AAD
:101870002AD1E3184FF001021A76A41922764FF00C
:10188000000565774FF003004FF0040100F022FCE3
:10189000867000F0C9FC304645F23C11C0F20001F0
:1018A000FEF78AFE2846F8BD00F00CFF4FF000005E
:1018B000F8BD43F2F513C0F2000303604FF00300DC
:1018C000F8BD4FF00000F8BD4FF00000F8BD00BFBC
:1018D0001C4E000040F2C873C2F2000341F2D14234
:1018E000C0F200021A604FF000021A765A775A7658
:1018F0009A779A76DA77DA7683F820201A7783F85F
:1019000021207047684620F007018D4601B545F259
:101910005410C0F2000040F20711FEF799FCFEE7F8
:10192000684620F007018D4601B540F20002C2F280
:10193000000240F20003C2F200039A4211D245F2C3
:101940006C12C0F2000240F20003C2F2000340F247
:101950000000C2F2000052F8041B43F8041B83424B
:10196000F9D340F20002C2F2000240F6A013C2F224
:1019700000039A420AD213464FF0000140F6A0122B
:10198000C2F2000243F8041B9342FBD302F0BEFFF5
:10199000FFF74CF945F25410C0F200004FF481718A
:1019A000FEF756FCBDE8014085467047704700BF12
:1019B000EFF30980704700BF80F30988704700BFCC
:1019C000EFF30880704700BF80F30888704700BFBE
:1019D000EFF31280704700BF80F31188704700BF9B
:1019E000EFF31080704700BF80F31088704700BF8E
:1019F000EFF31380704700BF80F31388704700BF78
:101A000000BA704740BA7047C0BA704790FAA0F069
:101A1000704700BFD0E84F0FC0B27047D0E85F0FEB
:101A200080B2704750E8000F704700BFC1E8400F18
:101A3000704700BFC1E8500F704700BF41E8000089
:101A4000704700BFEFF31480704700BF80F3148825
:101A5000704700BF30B482B04FF46043C4F20F034C
:101A600042F61002C0F280721A6743F6D122C0F229
:101A70008E721A6642F6C222C0F28E421A6642F690
:101A80001002C0F280021A674FF000030193019B1D
:101A9000B3F57A7F09D240F2E73200BF019B03F130
:101AA00001030193019B9342F7D94FF46043C4F2C1
:101AB0000F0340F6C222C0F28E421A6642F61002AE
:101AC000C0F280021A674FF000030193019BB3F547
:101AD0007A7F09D240F2E73200BF019B03F1010394
:101AE0000193019B9342F7D94FF46043C4F20F0373
:101AF00040F6C222C0F2CE421A661B6D13F0400FB0
:101B000008D14FF46042C4F20F0200BF136D13F00E
:101B1000400FFAD04FF46043C4F20F0340F2C222E8
:101B2000C0F2CE421A6642F61002C0F280021A6774
:101B30004FF000030193019BB3F57A7F09D240F285
:101B4000E73200BF019B03F101030193019B934224
:101B5000F7D94FF46043C4F20F03196E1A6F002ACD
:101B6000B4BF02F0700301F03003202B00F0858039
:101B700004D883B1102B40F0528115E0602B00F0A7
:101B8000E580702B00F0DF80302B08BF47F2305328
:101B900040F04581DCE044F62863C0F20003C1F365
:101BA000841053F82030D3E04FF46043C4F20F03A5
:101BB0001B6813F0E04F04BF4EF2C013C0F2E40301
:101BC00000F0C6804FF46043C4F20F0318684FF072
:101BD0000003C7F2FF0300EA0303B3F1805F04BF11
:101BE0004EF2C013C0F2E40300F0B2804FF4604341
:101BF000C4F20F0318684FF00003C7F2FF0300EAB6
:101C000003034FF00000C1F2010083420DD14FF4F5
:101C10006043C4F20F031B689BB2022B04BF4FF456
:101C2000D853C0F2B70300F093804FF46043C4F27E
:101C30000F0318684FF00003C7F2FF0300EA030325
:101C40004FF00000C1F2030083421CBF4FF4105359
:101C5000C0F2F4037CD14FF46043C4F20F031C685C
:101C6000A4B24FF4D853C0F2B7034FF41050C0F2EF
:101C7000F400002C18BF03466AE04FF46043C4F23E
:101C80000F031B6813F0E04F04BF43F67003C0F26C
:101C900039035DD04FF46043C4F20F0318684FF06E
:101CA0000003C7F2FF0300EA0303B3F1805F04BF40
:101CB00043F67003C0F239034AD04FF46043C4F2D4
:101CC0000F0318684FF00003C7F2FF0300EA030395
:101CD0004FF00000C1F2010083420CD14FF4604389
:101CE000C4F20F031B689BB2022B04BF4CF2C0630B
:101CF000C0F22D032CD04FF46043C4F20F031868D8
:101D00004FF00003C7F2FF0300EA03034FF00000A7
:101D1000C1F2030083421CBF4FF41063C0F23D03C5
:101D200016D14FF46043C4F20F031C68A4B24CF206
:101D3000C063C0F22D034FF41060C0F23D00002CD0
:101D400018BF034604E04FF4004301E04FF4800362
:101D5000002A03DA12F4006F03D03AE011F4006FA6
:101D600037D14FF46044C4F20F04606E246814F05D
:101D7000E04F0DD04FF46044C4F20F0425684FF0DB
:101D80000004C7F2FF0405EA0404B4F1805F0CD13B
:101D9000C0F3481404F1020404FB03F300F01F0431
:101DA00004F10204B3FBF4F30BE0C0F3481404FBAA
:101DB00003F300F01F0404F101044FEA4404B3FBF1
:101DC000F4F310F4804F18BF5B0810F4004F18BFF5
:101DD0009B0811F4800F1DD0002A15DA12F0804FF5
:101DE0000BD012F4006F08D14FEA4303C2F38652BE
:101DF00002F10102B3FBF2F30CE0C2F3C55202F1AF
:101E00000102B3FBF2F305E0C1F3C35101F101019B
:101E1000B3FBF1F340F2EC72C2F20002136002B0C5
:101E200030BC704738B504460D4672B640F65813BC
:101E3000C2F200035B7813F0400F20D040F6881305
:101E4000C2F200031B680BB1834218D14FF00E00A1
:101E500001F02CFAFEF794FB02F034F9287801F037
:101E6000A5FF204602F02EF9687801F09FFFE07B85
:101E700001F09CFF207C01F099FF01F0EDFA6B78F6
:101E800013B103F101036B706368DBB9656040F661
:101E90004413C2F200031D78217D44F64872C0F25B
:101EA0000002505C44F6C062C0F20002141864786C
:101EB00045EA04041C701B185878525C40EA020280
:101EC0005A701EE0E37B3BB944F68460C0F2000028
:101ED0004FF04501FEF7BAF9627BA36843F8225040
:101EE000637B0BB9237B6373637B03F1FF33637302
:101EF000E37B03F1FF33DBB2E373227C9A4288BFBA
:101F0000237462B638BD00BFF8B507460D46047DA0
:101F100044F64873C0F200031E5D032917D940F64A
:101F20003813C2F200031A78231E18BF01238A4215
:101F300094BF002303F001034BB13F2C07D840F2BC
:101F4000F073C2F2000353F82430834207D044F602
:101F50008C60C0F200004FF03001FEF777F972B6E6
:101F600040F65813C2F200035B7813F0100F17D03D
:101F700040F68813C2F200031B680BB19F420FD1D9
:101F80004FF00C0001F092F9FEF7FAFA02F09AF81D
:101F9000284601F00BFF384602F094F801F05CFA95
:101FA00040F63413C2F200031B6803EBC50544F688
:101FB000C063C0F20003AA5D1B5D42EA0303AB5598
:101FC00062B6F8BD44F69460C0F20000704700BFEE
:101FD00038B50546047D04F1FF33DBB23E2B06D84D
:101FE00040F2F073C2F2000353F8243023B11748D3
:101FF0004FF04001FEF72AF972B640F2F073C2F2D8
:10200000000343F8245040F65813C2F200035B78F3
:1020100013F0040F17D040F68813C2F200031B68B8
:102020000BB19D420FD14FF00A0001F03FF9FEF7CE
:10203000A7FA02F047F8284602F044F8204601F0DB
:10204000B5FE01F009FA62B638BD00BF9C4E000033
:1020500038B50546047D04F1FF33DBB23E2B07D8CB
:1020600040F2F073C2F2000353F82430834204D0EC
:1020700017484FF05401FEF7E9F872B640F2F073DA
:10208000C2F200034FF0000243F8242040F6581338
:10209000C2F200035B7813F0080F17D040F68813E4
:1020A000C2F200031B680BB19D420FD14FF00B0031
:1020B00001F0FCF8FEF764FA02F004F8284602F09A
:1020C00001F8204601F072FE01F0C6F962B638BD93
:1020D0009C4E00002DE9F843074689464FF0000466
:1020E00040F6F805C2F2000540F6F406C2F200061A
:1020F00044F6A468C0F200080AE004F10104E4B266
:102100003378A34204D840464FF03001FEF79EF8E2
:1021100004EB840305EB83039B89BB42EDD340F6BC
:102120005813C2F20003DB7813F0100F11D072B60F
:102130004FF01C0001F0BAF8FEF722FA01F0C2FFDE
:10214000384601F0B7FE484601F030FE01F084F950
:1021500062B604EB840040F6F803C2F2000303EB1E
:10216000800000F063F9054638B944F6A460C0F277
:1021700000004FF03A01FEF769F885F8009004F18D
:1021800001044FEA84146C702846BDE8F88300BF50
:10219000F8B506460F46154640F6F403C2F20003B2
:1021A0001B78022B07D944F6AC60C0F200004FF058
:1021B0002E01FEF74BF840F6F403C2F200031B7841
:1021C000A3B140F6F402C2F2000203F1FF3303EBC5
:1021D000830302EB8302138AAB4207D344F6AC605D
:1021E000C0F200004FF03101FEF730F840F6F40481
:1021F000C2F2000404F10402237803EB830302EB30
:10220000830031463A462B4600F068F9237803F103
:1022100001032370F8BD00BF40F63413C2F200037F
:1022200018601971704700BF2DE9F04F83B0074661
:1022300040F63813C2F2000302781B789A4207D3A3
:1022400044F6B460C0F200004FF02C01FDF7FEFF31
:1022500072B640F65813C2F20003DB7813F0040F95
:102260000FD04FF01A0001F021F8FEF789F901F0C4
:1022700029FF387801F09AFD787801F097FD01F098
:10228000EBF87B7813B103F101037B7062B64FF07A
:10229000080B40F63411C2F20001019144F6D879DE
:1022A000C0F2000944F6047AC0F2000A40F2F07667
:1022B000C2F200060BF1FF3B5FFA8BFB3A78019903
:1022C0000B6803EBC20313F80B40E4B14FEACB08F1
:1022D0005FFA88F819F804501AF805301C40454494
:1022E000EDB256F825303BB944F6B460C0F20000B8
:1022F0004FF05501FDF7AAFF56F825003946FFF7C4
:1023000091FD002CE6D1BBF1000FD3D1384600F08F
:1023100023FB03B0BDE8F08FF8B572B640F6581352
:10232000C2F2000393F90330002B11DA4FF01F00C3
:1023300000F0BCFF40F69C13C2F200031A6802F1E1
:1023400001021A60186880B201F0B4FD01F084F84F
:1023500040F64013C2F200031C68002C64D040F623
:102360005815C2F2000540F69417C2F200071E4647
:10237000238A03F1FF339BB22382002B48D1638A67
:102380000BB1238223E033689C4202D1A3683360FF
:1023900006E0A3680BB162685A606368A2689A603D
:1023A0004FF0000363602B7913F0020F0FD03B68EE
:1023B0000BB19C420BD14FF0210000F077FF20467B
:1023C00001F080FEE06801F07DFE01F045F82B7918
:1023D00013F0200F16D03B680BB19C4212D14FF086
:1023E000250000F063FFFEF7CBF801F06BFE2046FE
:1023F00001F068FE207801F0D9FCE06801F062FE8F
:1024000001F02AF862B6E0682146FFF70BFD07E00D
:1024100062B640F63C13C2F200034FF000021A709D
:1024200072B6A468002CA3D162B6F8BD38B50446D4
:1024300072B6056855B12B680360038A03F1FF3358
:102440009BB20382428A9A4288BF438240F6581365
:10245000C2F20003DB7813F0010F1BD040F68C139F
:10246000C2F200031B6813B16268934212D14FF0AD
:10247000180000F01BFFFEF783F801F023FE6068F0
:1024800001F020FE208A01F015FD608A01F012FDA6
:1024900000F0E2FF62B6284638BD00BF10B5044622
:1024A00030B140F6F403C2F200031B78834207D236
:1024B00044F68C70C0F200004FF04501FDF7C6FEF7
:1024C00072B662B640F6F803C2F2000304F1FF34BC
:1024D00004EB840403EB8403588A10BD2DE9F0411A
:1024E000044617461E468846032A94BF002301234C
:1024F00000290CBF002303F0010323B106F10403FC
:102500009BB29E4207D344F69470C0F200004FF095
:102510003601FDF79BFEC4F800804FF00403A38151
:10252000042E9CBF042301250BD94FF004034FF068
:10253000010503F104039BB205F101059E42F8D8A1
:10254000A3811E469F4207D244F69470C0F2000059
:102550004FF04401FDF77AFEBF1B4FF00103E3810A
:102560002268BE4288BF13460FD84FEA8505C6F1E0
:102570000001BF1B00E01A4653191360E28902F103
:102580000102E2817F18F742F5D34FF000021A6092
:10259000E28922826282C4F80480A36040F6581364
:1025A000C2F2000393F90230002B15DA40F68C13C7
:1025B000C2F200031B680BB198450DD172B64FF003
:1025C000170000F073FE606801F07CFDE08901F007
:1025D00071FC00F041FF62B6BDE8F08138B50446F9
:1025E0000D46032907D844F6A070C0F200004FF052
:1025F0002901FDF72BFE4FF000036360A360E36049
:10260000238263822570637038BD00BF70B50446B5
:102610000D46164662B10378032B09D942680B1E9A
:1026200018BF0123002A14BF002303F001033BB9A4
:1026300044F6AC70C0F200004FF03001FDF706FE2A
:1026400026826460E56072B640F65813C2F2000359
:102650001B7913F0010F1DD040F69413C2F2000352
:102660001B680BB19C4215D14FF0200000F01EFEFC
:10267000FDF786FF01F026FD204601F023FD2846E8
:1026800001F020FD304601F015FC608A01F012FCDB
:1026900000F0E2FE40F64013C2F200031B68A360A4
:1026A00003B15C6040F64013C2F200031C6062B6E6
:1026B00070BD00BF44F6B470C0F20000704700BFA8
:1026C000704700BF08B5FDF787FD08BD2DE9F04153
:1026D000FDF746FD40F64414C2F2000440F2F077E4
:1026E000C2F2000744F6D878C0F2000872B6237828
:1026F0000BB3237873B1237818F8033003F1FF3359
:10270000DBB2E218527818F8022002EBC30303F0A0
:10271000FF0301E04FF0000357F8235062B628464C
:1027200000F03CF806462846314600F071FA304683
:1027300000F012F9DAE7FDF751FDD7E7F8B50446E6
:102740000D4616461F4601F1FF32D2B2069BD3F169
:10275000010338BF00233E2A8CBF002303F001038E
:1027600023B90B484FF06701FDF770FD04F1040039
:102770003146FAB200F0C4F825752046FFF728FC70
:102780002046089900F088F9FDF758FFF8BD00BF12
:10279000BC4F000008B5FFF75BFC08BD70B50446F0
:1027A00072B643683BB944F6C870C0F200004FF0FF
:1027B0003001FDF74BFD6568E37B227B934234D00B
:1027C000A17BA06850F82100606001B9A273A27BD0
:1027D00002F1FF32A27303F10103E37340F65813D1
:1027E000C2F200039B7813F0010F68D040F6881303
:1027F000C2F200031B680BB19C4260D14FF0100085
:1028000000F054FDFDF7BCFE01F05CFC287801F0FF
:10281000CDFA204601F056FC687801F0C7FAE07B5B
:1028200001F0C4FA00F018FE49E04FF000036360C5
:10283000217D44F64873C0F20003585C40F644130F
:10284000C2F200031B185E7844F60472C0F2000264
:10285000525C06EA02025A705B786BB940F6441388
:10286000C2F20003197844F60472C0F20002101894
:10287000427801EA02021A7040F65813C2F20003CD
:102880009B7813F0020F1AD040F68813C2F20003AF
:102890001B680BB19C4212D14FF0110000F006FDF5
:1028A000FDF76EFE01F00EFC287801F07FFA20465D
:1028B00001F008FC687801F079FA00F0CDFD62B60D
:1028C000284670BD10B504463F2806D840F2F07384
:1028D000C2F2000353F820303BB944F6C870C0F28E
:1028E00000004FF05A01FDF7B1FC72B662B640F23B
:1028F000F073C2F2000353F82430187C10BD00BFFF
:1029000038B50D4614464FF0000303604160027273
:1029100043728372C272027340F65813C2F200030C
:102920009B7813F0040F15D040F69013C2F2000309
:102930001B680BB198420DD172B64FF0120000F037
:10294000B5FC284601F0BEFB204601F02FFA00F04E
:1029500083FD62B638BD00BF38B504464578002D0A
:1029600059D072B605F03F03012B1CDD05F1FF3590
:10297000457040F65813C2F20003DB7813F0200FC5
:102980000FD04FF01D0000F091FCFDF7F9FD01F0B4
:1029900099FB207801F00AFA607801F007FA00F05C
:1029A0005BFD62B638BD4FEA951505F1FF35EDB216
:1029B00040F65813C2F20003DB7813F0400F0FD03B
:1029C0004FF01E0000F072FCFDF7DAFD01F07AFB1B
:1029D000207801F0EBF9607801F0E8F900F03CFDB7
:1029E00062B640F6F403C2F200031B78AB4207D88C
:1029F00044F6D070C0F200004FF04901FDF726FC0C
:102A000005EB850540F6F803C2F2000303EB8500F1
:102A1000214600F001F838BD38B504460D4643683C
:102A20008B4206D88368994203D8028AC3899A42A6
:102A300007D945F2D800C0F200004FF02D01FDF794
:102A400005FC72B623682B602560238A03F101031D
:102A5000238240F65813C2F20003DB7813F0020F12
:102A600018D040F68C13C2F200031B6813B16268E1
:102A700093420FD14FF0190000F018FCFDF780FDD4
:102A800001F020FB606801F01DFB208A01F012FAC2
:102A900000F0E2FC62B638BD2DE9F04786B005468D
:102AA00003689847022807D045F2E000C0F2000012
:102AB0004FF02D01FDF7CAFB43F2F516C0F20006F8
:102AC00040F65819C2F2000940F6841AC2F2000A10
:102AD00045F20017C0F2000707F1020899F800302C
:102AE00013F0080F15D0DAF800300BB19D4210D169
:102AF00072B64FF0030000F0D9FB284601F0E2FA6D
:102B0000304601F0DFFA286801F0DCFA00F0A4FC9E
:102B100062B62C68009428463946A0472B68B34219
:102B200004BF2C6000241DD04FF0000404F1010408
:102B3000E4B262B206A901EB820242F8183C2846D0
:102B4000394698472B68B342F0D1009B2B6063B2A3
:102B5000052B07DD45F2E000C0F200004FF0440114
:102B6000FDF774FB63B206AA02EB830353F8186CFB
:102B700028464146B047B8B999F8003013F0020F23
:102B800012D0DAF800300BB19D420DD172B64FF081
:102B9000010000F08BFB284601F094FA304601F06A
:102BA00091FA00F059FC62B604F1FF34E4B214F07B
:102BB000800FD7D0009E28461449B04702288DD0F8
:102BC0002E6040F65813C2F200031B7813F0100F6A
:102BD00019D040F68413C2F200031B680BB19D426A
:102BE00011D172B64FF0040000F060FBFDF7C8FC95
:102BF00001F068FA284601F065FA286801F062FAE7
:102C000000F02AFC62B606B0BDE8F087065100006D
:102C10002DE9F04F89B005468B46066840F65813FB
:102C2000C2F200035B7813F0010F1DD040F684134D
:102C3000C2F200031B680BB1984215D172B64FF077
:102C4000080000F033FBFDF79BFC01F03BFA9BF81A
:102C5000000001F0ABF8284601F034FA304601F0EC
:102C600031FA00F0F9FB62B6D5F8009028465946D3
:102C7000C8470328F8D0022840F05F822B680293EF
:102C800003964E452CD0954C40F65817C2F20007DB
:102C900045F20018C0F2000828462146B047E0B9C6
:102CA0003B7813F0040F15D040F68413C2F20003F2
:102CB0001B680BB19D420DD172B64FF0020000F0BF
:102CC000F5FA284601F0FEF9304601F0FBF900F074
:102CD000C3FB62B628464146B0472E68B145DBD1FA
:102CE000029CA14526D128467C49C847002840F0CF
:102CF0007D8240F65813C2F200031B7813F0040FD4
:102D000000F0748240F68413C2F200031B6813B112
:102D10009D4240F06B8272B64FF0020000F0C6FA9E
:102D2000284601F0CFF9484601F0CCF900F094FBB9
:102D300062B65BE2284645F20011C0F20001A047EE
:102D40002E68B14500F05282284645F20011C0F2CB
:102D50000001C8472F68B74226D128465F49C847B7
:102D6000002840F0438240F65813C2F200031B785B
:102D700013F0040F00F03A8240F68413C2F200030D
:102D80001B6813B19D4240F0318272B64FF00200D1
:102D900000F08CFA284601F095F9484601F092F9C6
:102DA00000F05AFB62B621E2BC422BD128464B49C7
:102DB000C847002840F00F8140F65813C2F20003C4
:102DC0001B7813F0040F00F0068140F68413C2F262
:102DD00000031B6813B19D4240F0FD8072B64FF0B6
:102DE000020000F063FA284601F06CF9484601F051
:102DF00069F900F031FB62B6EDE014F0800F00F0ED
:102E0000B980E8E00396284645F20011C0F20001BF
:102E1000B047032802BF012445F20018C0F20008A1
:102E200001D02AE0344604F10106F6B22B6872B2F2
:102E300008A901EB820242F8183C99450BD176B201
:102E4000052EDADD45F2EC00C0F200004FF07A0109
:102E5000FDF7FCF9D1E72846414698470328E1D021
:102E6000344676B2052E0ADD45F2EC00C0F20000D1
:102E70004FF08501FDF7EAF901E04FF00104284623
:102E80001649C847E8B940F65813C2F200031B7848
:102E900013F0040F15D040F68413C2F200031B6830
:102EA0000BB19D420DD172B64FF0020000F0FEF959
:102EB000284601F007F9484601F004F900F0CCFA81
:102EC00062B623465AB208A901EB820252F8182CC6
:102ED000974205D103F1FF33DCB28EE704510000C5
:102EE00003F1FF33DBB213F0800FEBD0A74E40F6B7
:102EF0005818C2F2000845F2001AC0F2000A28462B
:102F00003146B847E8B998F8003013F0040F15D0EF
:102F100040F68413C2F200031B680BB19D420DD131
:102F200072B64FF0020000F0C1F9284601F0CAF86D
:102F3000384601F0C7F800F08FFA62B628465146CD
:102F4000B8472F6823465AB208A901EB820252F80B
:102F5000182CBA4203D103F1FF33DCB24DE703F181
:102F6000FF33DBB213F0800FEDD04FF00102002AE7
:102F7000C5D142E7864F40F65818C2F2000840F625
:102F8000841AC2F2000A63B208A901EB830353F862
:102F9000186C28463946B047B8B998F8003013F095
:102FA000020F12D0DAF800300BB19D420DD172B68B
:102FB0004FF0010000F07AF9284601F083F830461E
:102FC00001F080F800F048FA62B604F1FF34E4B290
:102FD00014F0800FD7D0029E2E6040F6581AC2F22D
:102FE000000A40F68412C2F200020192DFF8A081CA
:102FF00073E09AF8003013F0080F15D001990B68B0
:103000000BB19D4210D172B64FF0030000F04EF9A3
:10301000284601F057F8304601F054F8286801F0CE
:1030200051F800F019FA62B62C680294284645F26D
:103030000011C0F20001A0472B68B34204BF2C600E
:10304000002421D04FF0000445F20017C0F2000721
:1030500004F10104E4B262B208A901EB820242F871
:10306000183C2846394698472B68B342F0D1029B5A
:103070002B6063B2052B07DD45F2EC00C0F20000C7
:103080004FF0D901FDF7E2F863B208AA02EB83031F
:1030900053F8186C28464146B047B8B99AF8003042
:1030A00013F0020F12D001990B680BB19D420DD1A4
:1030B00072B64FF0010000F0F9F8284601F002F86E
:1030C000304600F0FFFF00F0C7F962B604F1FF34AC
:1030D000E4B214F0800FD7D0029E28462D49B047A5
:1030E000022886D0344640F65813C2F200031B78FB
:1030F00013F0400F76D040F68413C2F200031B6831
:103100000BB19D426ED172B64FF0060000F0CEF8C2
:10311000FDF736FA00F0D6FF9BF8000000F046FEFF
:10312000284600F0CFFF484600F0CCFF204600F0D4
:10313000C9FF00F091F962B654E001282CD140F6A5
:103140005813C2F2000393F90030002B4ADA40F61C
:103150008413C2F200031B680BB19D4242D172B6C8
:103160004FF0070000F0A2F8FDF70AFA00F0AAFFFE
:103170009BF8000000F01AFE284600F0A3FF30463E
:1031800000F0A0FF00F068F962B62BE004510000E7
:10319000025100000651000040F65813C2F200032D
:1031A0001B7813F0200F1DD040F68413C2F20003E9
:1031B0001B680BB19D4215D172B64FF0050000F0AF
:1031C00075F8FDF7DDF900F07DFF9BF8000000F0D9
:1031D000EDFD284600F076FF484600F073FF00F052
:1031E0003BF962B62E6009B0BDE8F08F4FF00004E5
:1031F000C0E600BF4FF00100704700BF45F2F80085
:10320000C0F20000704700BF45F20810C0F2000095
:10321000704700BF40F65013C2F200031860998057
:10322000704700BFFF280ED140F65011C2F20001D6
:1032300001F1070301F127014FF0FF0203F8012F0D
:103240008B42FBD1704740F65013C2F2000303EBF0
:10325000D00300F007004FF0010202FA00F01A7AE2
:1032600010431872704700BFFF280ED140F650116E
:10327000C2F2000101F1070301F127014FF0000242
:1032800003F8012F8B42FBD1704740F65013C2F276
:10329000000303EBD00300F007004FF0010202FA35
:1032A00000F01A7A22EA00001872704710B440F653
:1032B0005013C2F2000393F8282002F10102D2B2A7
:1032C00083F8282083F82920A2F17D03DBB2012BAB
:1032D0003CD840F65013C2F200035A8D19684FF0E3
:1032E0007D048C545A8D02F1010292B25A859B885A
:1032F000934201BF40F65013C2F2000300225A85E8
:1033000040F65013C2F200039A8D02F101029A8531
:103310005A8D196893F8284084F020048C545A8DF3
:1033200002F1010292B25A859B88934201BF40F696
:103330005013C2F2000300225A8540F65013C2F225
:1033400000039A8D02F101029A851CE040F65013A9
:10335000C2F20003598D1C6862545A8D02F10102B9
:1033600092B25A859B88934201BF40F65013C2F235
:10337000000300225A8540F65013C2F200039A8DD2
:1033800002F101029A8540F65013C2F2000393F84D
:103390002920821883F82920A0F17D03DBB2012BBC
:1033A0003AD840F65013C2F200035A8D19684FF014
:1033B0007D048C545A8D02F1010292B25A859B8889
:1033C000934201BF40F65013C2F2000300225A8517
:1033D00040F65013C2F200039A8D02F101029A8561
:1033E0005A8D196880F0200088545A8D02F101022C
:1033F00092B25A859B88934201BF40F65013C2F2A5
:10340000000300225A8540F65013C2F200039A8D41
:1034100002F101029A851CE040F65013C2F200034B
:103420005A8D196888545A8D02F1010292B25A8558
:103430009B88934201BF40F65013C2F20003002262
:103440005A8540F65013C2F200039A8D02F1010230
:103450009A8510BC704700BF40F65013C2F20003BB
:1034600093F829206FEA0202D2B283F82920A2F150
:103470007D03DBB2012B3CD840F65013C2F20003AF
:103480005A8D19684FF07D0088545A8D02F101025F
:1034900092B25A859B88934201BF40F65013C2F204
:1034A00000030021598540F65013C2F200039A8DA3
:1034B00002F101029A855A8D196893F8290080F06B
:1034C000200088545A8D02F1010292B25A859B88DD
:1034D000934201BF40F65013C2F2000300225A8506
:1034E00040F65013C2F200039A8D02F101029A8550
:1034F0001CE040F65013C2F20003598D1868425484
:103500005A8D02F1010292B25A859B88934201BF03
:1035100040F65013C2F200030021598540F65013C3
:10352000C2F200039A8D02F101029A8540F650130F
:10353000C2F200035A8D19684FF07E008854598DED
:1035400001F1010189B259859A88914201BF40F683
:103550005013C2F200030021598540F65013C2F205
:103560000003998D01F1010189B299858A423FBF1B
:1035700040F65013C2F20003598DD98538BF9A85A1
:10358000704700BF30B440F65013C2F2000393F806
:103590002920821883F82920A0F17D03DBB2012BBA
:1035A0003AD840F65013C2F200035A8D1C684FF00F
:1035B0007D05A5545A8D02F1010292B25A859B886D
:1035C000934201BF40F65013C2F2000300225A8515
:1035D00040F65013C2F200039A8D02F101029A855F
:1035E0005A8D1C6880F02000A0545A8D02F101020F
:1035F00092B25A859B88934201BF40F65013C2F2A3
:10360000000300225A8540F65013C2F200039A8D3F
:1036100002F101029A851CE040F65013C2F2000349
:103620005A8D1C68A0545A8D02F1010292B25A853B
:103630009B88934201BF40F65013C2F20003002260
:103640005A8540F65013C2F200039A8D02F101022E
:103650009A8540F65013C2F2000393F829208A1885
:1036600083F82920A1F17D03DBB2012B3AD840F683
:103670005013C2F200035A8D18684FF07D04845431
:103680005A8D02F1010292B25A859B88934201BF82
:1036900040F65013C2F2000300225A8540F6501340
:1036A000C2F200039A8D02F101029A855A8D1868C0
:1036B00081F0200181545A8D02F1010292B25A85A3
:1036C0009B88934201BF40F65013C2F200030022D0
:1036D0005A8540F65013C2F200039A8D02F101029E
:1036E0009A851CE040F65013C2F200035A8D186808
:1036F00081545A8D02F1010292B25A859B889342FD
:1037000001BF40F65013C2F2000300225A8540F672
:103710005013C2F200039A8D02F101029A8530BC67
:10372000704700BF30B440F65013C2F2000393F864
:103730002920821883F82920A0F17D03DBB2012B18
:103740003AD840F65013C2F200035A8D1C684FF06D
:103750007D05A5545A8D02F1010292B25A859B88CB
:10376000934201BF40F65013C2F2000300225A8573
:1037700040F65013C2F200039A8D02F101029A85BD
:103780005A8D1C6880F02000A0545A8D02F101026D
:1037900092B25A859B88934201BF40F65013C2F201
:1037A00000030020588540F65013C2F200039A8DA2
:1037B00002F101029A851CE040F65013C2F20003A8
:1037C0005A8D1C68A0545A8D02F1010292B25A859A
:1037D0009B88934201BF40F65013C2F200030022BF
:1037E0005A8540F65013C2F200039A8D02F101028D
:1037F0009A85CAB240F65013C2F2000393F829002A
:10380000101883F82900A2F17D03DBB2012B3AD80E
:1038100040F65013C2F20003588D1C684FF07D052E
:103820002554588D00F1010080B258859B88834251
:1038300001BF40F65013C2F200030020588540F645
:103840005013C2F20003988D00F101009885588D45
:103850001C6882F0200222545A8D02F1010292B2B9
:103860005A859B88934201BF40F65013C2F2000371
:1038700000225A8540F65013C2F200039A8D02F1DD
:1038800001029A851CE040F65013C2F20003588DE5
:103890001C6822545A8D02F1010292B25A859B880B
:1038A000934201BF40F65013C2F200030020588536
:1038B00040F65013C2F200039A8D02F101029A857C
:1038C0004FEA1121CAB240F65013C2F2000393F836
:1038D0002900101883F82900A2F17D03DBB2012B27
:1038E0003AD840F65013C2F20003598D18684FF0D1
:1038F0007D044454598D01F1010189B259859B8899
:103900008B4201BF40F65013C2F2000300215985DB
:1039100040F65013C2F20003998D01F1010199851F
:10392000598D186882F0200242545A8D02F101022A
:1039300092B25A859B88934201BF40F65013C2F25F
:10394000000300225A8540F65013C2F200039A8DFC
:1039500002F101029A851CE040F65013C2F2000306
:103960005A8D186881545A8D02F1010292B25A851B
:103970009B88934201BF40F65013C2F2000300201F
:10398000588540F65013C2F200039A8D02F10102ED
:103990009A8530BC704700BF30B440F65013C2F275
:1039A000000393F82920821883F82920A0F17D03D1
:1039B000DBB2012B3AD840F65013C2F200035A8D05
:1039C0001C684FF07D05A5545A8D02F1010292B298
:1039D0005A859B88934201BF40F65013C2F2000300
:1039E00000225A8540F65013C2F200039A8D02F16C
:1039F00001029A855A8D1C6880F02000A0545A8DCF
:103A000002F1010292B25A859B88934201BF40F6AF
:103A10005013C2F200030020588540F65013C2F242
:103A200000039A8D02F101029A851CE040F65013C2
:103A3000C2F200035A8D1C68A0545A8D02F1010293
:103A400092B25A859B88934201BF40F65013C2F24E
:103A5000000300225A8540F65013C2F200039A8DEB
:103A600002F101029A85CAB240F65013C2F2000375
:103A700093F82900101883F82900A2F17D03DBB226
:103A8000012B3AD840F65013C2F20003588D1C683F
:103A90004FF07D052554588D00F1010080B2588506
:103AA0009B88834201BF40F65013C2F200030020FE
:103AB000588540F65013C2F20003988D00F10100C2
:103AC0009885588D1C6882F0200222545A8D02F18C
:103AD000010292B25A859B88934201BF40F650136F
:103AE000C2F2000300225A8540F65013C2F20003CE
:103AF0009A8D02F101029A851CE040F65013C2F241
:103B00000003588D1C6822545A8D02F1010292B2B2
:103B10005A859B88934201BF40F65013C2F20003BE
:103B20000020588540F65013C2F200039A8D02F12E
:103B300001029A854FEA1121CAB240F65013C2F22F
:103B4000000393F82900101883F82900A2F17D03DF
:103B5000DBB2012B3AD840F65013C2F20003588D65
:103B60001C684FF07D052554588D00F1010080B28E
:103B700058859B88834201BF40F65013C2F2000370
:103B80000020588540F65013C2F20003988D00F1D2
:103B900001009885588D1C6882F0200222545A8DAD
:103BA00002F1010292B25A859B88934201BF40F60E
:103BB0005013C2F2000300225A8540F65013C2F29D
:103BC00000039A8D02F101029A851CE040F6501321
:103BD000C2F20003588D1C6822545A8D02F1010272
:103BE00092B25A859B88934201BF40F65013C2F2AD
:103BF00000030020588540F65013C2F200039A8D4E
:103C000002F101029A854FEA1121CAB240F650131F
:103C1000C2F2000393F82900101883F82900A2F1DA
:103C20007D03DBB2012B3AD840F65013C2F20003F9
:103C3000588D1C684FF07D052554588D00F101000A
:103C400080B258859B88834201BF40F65013C2F270
:103C500000030020588540F65013C2F20003988DEF
:103C600000F101009885588D1C6882F020022254D2
:103C70005A8D02F1010292B25A859B88934201BF8C
:103C800040F65013C2F2000300225A8540F650134A
:103C9000C2F200039A8D02F101029A851CE040F6FF
:103CA0005013C2F20003588D1C6822545A8D02F141
:103CB000010292B25A859B88934201BF40F650138D
:103CC000C2F200030020588540F65013C2F20003F0
:103CD0009A8D02F101029A854FEA112140F65013A4
:103CE000C2F2000393F829208A1883F82920A1F151
:103CF0007D03DBB2012B3AD840F65013C2F2000329
:103D00005A8D18684FF07D0484545A8D02F10102D7
:103D100092B25A859B88934201BF40F65013C2F27B
:103D2000000300225A8540F65013C2F200039A8D18
:103D300002F101029A855A8D186881F020018154A0
:103D40005A8D02F1010292B25A859B88934201BFBB
:103D500040F65013C2F200030020588540F650137D
:103D6000C2F200039A8D02F101029A851CE040F62E
:103D70005013C2F200035A8D186881545A8D02F113
:103D8000010292B25A859B88934201BF40F65013BC
:103D9000C2F2000300225A8540F65013C2F200031B
:103DA0009A8D02F101029A8530BC704710B440F63A
:103DB0007913C2F200031A7882181A70A0F17D03F9
:103DC000DBB2012B4ED840F67A13C2F200031988F9
:103DD00040F65012C2F2000212684FF07D045454B3
:103DE0001A8802F1010292B21A8040F65413C2F20C
:103DF00000031B88934201BF40F67A13C2F200030E
:103E000000221A8040F67C13C2F200031A8802F1E5
:103E100001021A8040F67A13C2F20003198840F6B4
:103E20005012C2F20002126880F0200050541A882A
:103E300002F1010292B21A8040F65413C2F200035A
:103E40001B88934201BF40F67A13C2F2000300229E
:103E50001A8040F67C13C2F200031A8802F10102B4
:103E60001A8024E040F67A13C2F20003198840F663
:103E70005012C2F20002126850541A8802F1010274
:103E800092B21A8040F65413C2F200031B88934288
:103E900001BF40F67A13C2F2000300221A8040F6F6
:103EA0007C13C2F200031A8802F101021A8010BCCE
:103EB000704700BF30B4C2B240F67913C2F20003BB
:103EC000197851181970A2F17D03DBB2012B4ED87D
:103ED00040F67A13C2F200031C8840F65011C2F279
:103EE000000109684FF07D050D55198801F10101A8
:103EF00089B2198040F65413C2F200031B888B422A
:103F000001BF40F67A13C2F200030021198040F687
:103F10007C13C2F20003198801F10101198040F6F7
:103F20007A13C2F200031C8840F65011C2F200015D
:103F3000096882F020020A551A8802F1010292B241
:103F40001A8040F65413C2F200031B88934201BF4B
:103F500040F67A13C2F2000300221A8040F67C1366
:103F6000C2F200031A8802F101021A8024E040F62E
:103F70007A13C2F200031C8840F65011C2F200010D
:103F800009680A551A8802F1010292B21A8040F6B5
:103F90005413C2F200031B88934201BF40F67A1308
:103FA000C2F200030021198040F67C13C2F2000324
:103FB0001A8802F101021A804FEA1020C2B240F6BC
:103FC0007913C2F20003197851181970A2F17D0318
:103FD000DBB2012B4ED840F67A13C2F200031888E8
:103FE00040F65011C2F2000109684FF07D040C54F4
:103FF000198801F1010189B2198040F65413C2F207
:1040000000031B888B4201BF40F67A13C2F2000303
:104010000021198040F67C13C2F20003198801F1D7
:104020000101198040F67A13C2F20003188840F6A5
:104030005011C2F20001096882F020020A541A8865
:1040400002F1010292B21A8040F65413C2F2000348
:104050001B88934201BF40F67A13C2F2000300228C
:104060001A8040F67C13C2F200031A8802F10102A2
:104070001A8024E040F67A13C2F20003198840F651
:104080005012C2F20002126850541A8802F1010262
:1040900092B21A8040F65413C2F200031B88934276
:1040A00001BF40F67A13C2F200030021198040F6E6
:1040B0007C13C2F200031A8802F101021A8030BC9C
:1040C000704700BF30B4C2B240F67913C2F20003A9
:1040D000197851181970A2F17D03DBB2012B4ED86B
:1040E00040F67A13C2F200031C8840F65011C2F267
:1040F000000109684FF07D050D55198801F1010196
:1041000089B2198040F65413C2F200031B888B4217
:1041100001BF40F67A13C2F200030021198040F675
:104120007C13C2F20003198801F10101198040F6E5
:104130007A13C2F200031C8840F65011C2F200014B
:10414000096882F020020A551A8802F1010292B22F
:104150001A8040F65413C2F200031B88934201BF39
:1041600040F67A13C2F2000300221A8040F67C1354
:10417000C2F200031A8802F101021A8024E040F61C
:104180007A13C2F200031C8840F65011C2F20001FB
:1041900009680A551A8802F1010292B21A8040F6A3
:1041A0005413C2F200031B88934201BF40F67A13F6
:1041B000C2F200030021198040F67C13C2F2000312
:1041C0001A8802F101021A804FEA1020C2B240F6AA
:1041D0007913C2F20003197851181970A2F17D0306
:1041E000DBB2012B4ED840F67A13C2F200031C88D2
:1041F00040F65011C2F2000109684FF07D050D55DF
:10420000198801F1010189B2198040F65413C2F2F4
:1042100000031B888B4201BF40F67A13C2F20003F1
:104220000021198040F67C13C2F20003198801F1C5
:104230000101198040F67A13C2F200031C8840F68F
:104240005011C2F20001096882F020020A551A8852
:1042500002F1010292B21A8040F65413C2F2000336
:104260001B88934201BF40F67A13C2F2000300227A
:104270001A8040F67C13C2F200031A8802F1010290
:104280001A8024E040F67A13C2F200031C8840F63C
:104290005011C2F2000109680A551A8802F10102A0
:1042A00092B21A8040F65413C2F200031B88934264
:1042B00001BF40F67A13C2F200030021198040F6D4
:1042C0007C13C2F200031A8802F101021A804FEA3D
:1042D0001020C2B240F67913C2F2000319785118C7
:1042E0001970A2F17D03DBB2012B4ED840F67A1390
:1042F000C2F200031C8840F65011C2F200010968A6
:104300004FF07D050D55198801F1010189B2198021
:1043100040F65413C2F200031B888B4201BF40F6E3
:104320007A13C2F200030021198040F67C13C2F216
:104330000003198801F10101198040F67A13C2F2D5
:1043400000031C8840F65011C2F20001096882F097
:1043500020020A551A8802F1010292B21A8040F630
:104360005413C2F200031B88934201BF40F67A1334
:10437000C2F2000300221A8040F67C13C2F200034E
:104380001A8802F101021A8024E040F67A13C2F280
:1043900000031C8840F65011C2F2000109680A555A
:1043A0001A8802F1010292B21A8040F65413C2F246
:1043B00000031B88934201BF40F67A13C2F2000348
:1043C0000021198040F67C13C2F200031A8802F122
:1043D00001021A804FEA102040F67913C2F200035E
:1043E0001A7882181A70A0F17D03DBB2012B4ED827
:1043F00040F67A13C2F20003198840F65012C2F256
:10440000000212684FF07D0454541A8802F1010230
:1044100092B21A8040F65413C2F200031B889342F2
:1044200001BF40F67A13C2F2000300221A8040F660
:104430007C13C2F200031A8802F101021A8040F6CE
:104440007A13C2F20003198840F65012C2F2000239
:10445000126880F0200050541A8802F1010292B2D2
:104460001A8040F65413C2F200031B88934201BF26
:1044700040F67A13C2F200030021198040F67C1343
:10448000C2F200031A8802F101021A8024E040F609
:104490007A13C2F20003198840F65012C2F20002E9
:1044A000126850541A8802F1010292B21A8040F642
:1044B0005413C2F200031B88934201BF40F67A13E3
:1044C000C2F2000300221A8040F67C13C2F20003FD
:1044D0001A8802F101021A8030BC70472DE9F003FE
:1044E0000278002A34D040F67914C2F2000440F673
:1044F0007A13C2F2000340F65017C2F2000740F6EA
:104500005416C2F200064FF0000C40F67C11C2F2C5
:10451000000125785219227005461A88D7F80080C4
:1045200090F8009008F802901A8802F1010292B205
:104530001A80B6F80080904508BFA3F800C00A882A
:1045400002F101020A80427800F10100002AE0D164
:1045500040F67A13C2F20003198840F65012C2F2F4
:10456000000212684FF0000050541A8802F1010254
:1045700092B21A8040F65413C2F200031B88934291
:1045800001BF40F67A13C2F2000300221A8040F6FF
:104590007C13C2F200031A8802F101021A80BDE8FE
:1045A000F00370472DE9F00103787BB340F67914EE
:1045B000C2F2000440F67A12C2F2000240F650172E
:1045C000C2F2000740F65416C2F200064FF0000C8B
:1045D00040F67C11C2F2000125785D19257015881E
:1045E000D7F8008008F80530138803F101039BB267
:1045F000138035889D4208BFA2F800C00B8803F1E4
:1046000001030B8010F8013F002BE5D140F67A132F
:10461000C2F20003198840F65012C2F2000212687A
:104620004FF0000050541A8802F1010292B21A8031
:1046300040F65413C2F200031B88934201BF40F6B8
:104640007A13C2F2000300221A8040F67C13C2F2F1
:1046500000031A8802F101021A80BDE8F0017047D8
:1046600030B440F67C13C2F20003198811B90180FE
:1046700008462DE040F65412C2F2000240F67E13C6
:10468000C2F2000315881C882C1BA4B28C4228BFE0
:104690000C460588AC4228BF2C46048040F67C11AD
:1046A000C2F200010888001B088019886418A4B2AF
:1046B0001C801388A34201BF40F67E13C2F20003A0
:1046C00000221A8040F65013C2F200031868401806
:1046D00030BC70472DE9F00140F67A13C2F20003B6
:1046E000198840F65012C2F2000212684FF0080416
:1046F00054541A8802F1010292B21A8040F65413FF
:10470000C2F200031B88934201BF40F67A13C2F243
:10471000000300221A8040F67C13C2F200031A88BC
:1047200002F101021A8040F67913C2F200031A78EE
:1047300002F108021A70027882B340F67A13C2F2CC
:10474000000340F65017C2F2000740F65416C2F2BA
:1047500000064FF0000C40F67C14C2F2000440F654
:104760007911C2F200011D88D7F8008008F80520F1
:104770001A8802F1010292B21A803588954208BF68
:10478000A3F800C0228802F1010222800D7802788D
:10479000AA180A7010F8012F002AE4D140F67A1303
:1047A000C2F20003198840F65012C2F200021268E9
:1047B0004FF0000050541A8802F1010292B21A80A0
:1047C00040F65413C2F200031B88934201BF40F627
:1047D0007A13C2F2000300221A8040F67C13C2F260
:1047E00000031A8802F101021A80BDE8F001704747
:1047F0002DE9F00140F67A13C2F20003198840F661
:104800005012C2F2000212684FF0080454541A8881
:1048100002F1010292B21A8040F65413C2F2000370
:104820001B88934201BF40F67A13C2F200030022B4
:104830001A8040F67C13C2F200031A8802F10102CA
:104840001A8040F67913C2F200031A7802F10802C6
:104850001A70037883B340F67A12C2F2000240F66F
:104860005017C2F2000740F65416C2F200064FF08D
:10487000000C40F67C15C2F2000540F67914C2F235
:1048800000041188D7F8008008F80130118801F180
:10489000010189B21180B6F80080884508BFA2F8EE
:1048A00000C0298801F10101298021785B1823705B
:1048B00010F8013F002BE4D140F67A13C2F2000356
:1048C000198840F65012C2F2000212684FF0000040
:1048D00050541A8802F1010292B21A8040F6541321
:1048E000C2F200031B88934201BF40F67A13C2F262
:1048F000000300221A8040F67C13C2F200031A88DB
:1049000002F101021A80BDE8F001704770B5002481
:104910000C4D0D4E761BB61003E055F8043B0134E8
:104920009847B442F9D3094DFDF740F8084E0024EA
:10493000761BB61003E055F8043B01349847B442A7
:10494000F9D370BD6C5100006C5100006C51000037
:104950006C5100006273702E63000000B080048010
:1049600010400000B080048012400000B18004803C
:1049700010400000B18004801240000000000000E0
:104980000000004F00000007000700147F147F1490
:10499000242A7F2A122313086462364955225000C4
:1049A00005030000001C2241000041221C001408E5
:1049B0003E081408083E08080050300000080808A7
:1049C0000808006060000020100804023E514945BC
:1049D0003E00427F400042615149462141454B31F2
:1049E0001814127F1027454545393C4A4949300182
:1049F000710905033649494936064949291E0036D9
:104A00003600000056360000081422410014141429
:104A10001414004122140802015109063249794157
:104A20003E7E1111117E7F494949363E4141412266
:104A30007F4141221C7F494949417F090909013EC3
:104A40004149497A7F0808087F00417F41002040A2
:104A5000413F017F081422417F404040407F020CCB
:104A6000027F7F0408107F3E4141413E7F090909D2
:104A7000063E4151215E7F0919294646494949317F
:104A800001017F01013F4040403F1F2040201F3F68
:104A90004038403F631408146307087008076151E9
:104AA000494543007F414100020408102000414174
:104AB0007F00040201020440404040400001020423
:104AC0000020545454787F484444383844444420A7
:104AD000384444487F3854545418087E0901020C65
:104AE0005252523E7F0804047800447D400020402A
:104AF000443D007F1028440000417F40007C0418A2
:104B000004787C0804047838444444387C14141431
:104B100008081414187C7C080404084854545420D1
:104B2000043F4440203C4040207C1C2040201C3C52
:104B30004030403C44281028440C5050503C4464C1
:104B4000544C44000836410000007F00000041360C
:104B500008000201020402000480AE80E30680AD7A
:104B6000808A80E30680A8801F80E30480C880E3F9
:104B70000480A080E30480D880E304800580E304FF
:104B8000804080E3068081805D80E30680D98011CB
:104B900080E30680D5800180E30680D3800080E337
:104BA0000480AF80E30000000480AE80E304800452
:104BB00080E304801280E3068081802B80E3048000
:104BC000A180E304804080E30680D3800080E30678
:104BD00080A8800F80E30480A480E30480A680E3A3
:104BE0000480B080E30480C880E30680D5807280B2
:104BF000E30680D8800080E30680D9802280E30627
:104C000080DA801280E30680DB800F80E30680ADCF
:104C1000808B80E30480AF80E30000006C5F736DE5
:104C20006C506F6F6C53746F000000006C5F7461A8
:104C3000626C65517565756553746F006C5F706863
:104C4000696C6F517565756553746F5B305D0000FD
:104C50006C5F7068696C6F517565756553746F5BD7
:104C6000315D00006C5F7068696C6F5175657565CA
:104C700053746F5B325D00006C5F7068696C6F51DC
:104C80007565756553746F5B335D00006C5F7068AC
:104C9000696C6F517565756553746F5B345D0000A9
:104CA000266C5F7068696C6F5B305D00266C5F70AE
:104CB00068696C6F5B305D2E74696D654576740054
:104CC000266C5F7068696C6F5B315D00266C5F708D
:104CD00068696C6F5B315D2E74696D654576740033
:104CE000266C5F7068696C6F5B325D00266C5F706C
:104CF00068696C6F5B325D2E74696D654576740012
:104D0000266C5F7068696C6F5B335D00266C5F704A
:104D100068696C6F5B335D2E74696D6545767400F0
:104D2000266C5F7068696C6F5B345D00266C5F7029
:104D300068696C6F5B345D2E74696D6545767400CF
:104D4000265068696C6F5F696E697469616C0000F8
:104D5000265068696C6F5F7468696E6B696E670076
:104D6000265068696C6F5F68756E67727900000025
:104D7000265068696C6F5F656174696E670000003A
:104D800048554E4752595F534947000054494D45D5
:104D90004F55545F534947007068696C6F2E63002C
:104DA000EC060020180700204407002070070020B0
:104DB0009C070020266C5F7461626C650000000037
:104DC000265148736D5F746F700000002654616255
:104DD0006C655F696E697469616C0000265461627C
:104DE0006C655F73657276696E670000444F4E456F
:104DF0005F534947000000004541545F5349470055
:104E00005445524D494E4154455F534947000000B7
:104E100048554E4752595F53494700007461626CD0
:104E2000652E6300C807002040420F0000201C00D0
:104E300080841E0000802500999E360000403800C6
:104E400000093D0000803E0000004B00404B4C003C
:104E500000204E00808D5B0000C05D00008070006F
:104E600000127A0000007D0080969800001BB700B9
:104E70000080BB00C0E8CE00647ADA000024F400B1
:104E80000000FA0071615F6669666F0071615F73AF
:104E900075620000342E312E3037000071665F617C
:104EA0006374000071665F6E6577000071665F7005
:104EB0006F6F6C0071665F70737075620000000048
:104EC0000001020408102040800102040810204064
:104ED00080010204081020408001020408102040D4
:104EE00080010204081020408001020408102040C4
:104EF00080010204081020408001020408102040B4
:104F000080000000FFFEFDFBF7EFDFBF7FFEFDFB33
:104F1000F7EFDFBF7FFEFDFBF7EFDFBF7FFEFDFB9F
:104F2000F7EFDFBF7FFEFDFBF7EFDFBF7FFEFDFB8F
:104F3000F7EFDFBF7FFEFDFBF7EFDFBF7FFEFDFB7F
:104F4000F7EFDFBF7F00000000000000000000005E
:104F5000000101010101010101020202020202023B
:104F6000020303030303030303040404040404040B
:104F700004050505050505050506060606060606DB
:104F8000060707070707070707000000716D705F36
:104F900067657400716D705F696E69740000000070
:104FA0007174655F63746F72000000007174655FF7
:104FB00061726D00342E312E303500007176616ED5
:104FC000696C6C610000000071615F6765745F006F
:104FD00071665F67630000000001020203030303C0
:104FE0000404040404040404050505050505050579
:104FF0000505050505050505060606060606060659
:105000000606060606060606060606060606060640
:105010000606060606060606070707070707070728
:105020000707070707070707070707070707070710
:105030000707070707070707070707070707070700
:1050400007070707070707070707070707070707F0
:1050500007070707070707070808080808080808D8
:1050600008080808080808080808080808080808C0
:1050700008080808080808080808080808080808B0
:1050800008080808080808080808080808080808A0
:105090000808080808080808080808080808080890
:1050A0000808080808080808080808080808080880
:1050B0000808080808080808080808080808080870
:1050C0000808080808080808080808080808080860
:1050D0000808080808080808716D705F707574008A
:1050E0007168736D5F696E69000000007168736DAF
:1050F0005F64697300000000342E312E30370000E9
:105100000000010002000300342E312E3037000071
:1051100044696E696E67205068696C6F73000000A7
:1051200030202C31202C32202C33202C3400000055
:1051300068756E67727920200000000065617469EF
:105140006E672020000000007468696E6B696E67EE
:1051500000000000737461727475705F73746D3356
:0C51600032663130785F636C00000000A4
:0400000300001921BF
:00000001FF
