:10000000900D0020D51A0000B91A00000000000071
:10001000B91A0000B91A0000B91A0000B91A000094
:10002000B91A0000B91A0000B91A0000414D0000C9
:10003000B91A0000B91A0000154D000001070000B0
:1000400015060000B91A0000B91A0000B91A00001C
:10005000B91A0000B91A0000B91A0000B91A000054
:10006000B91A0000B91A0000B91A0000B91A000044
:10007000B91A0000B91A0000B91A0000B91A000034
:10008000B91A0000B91A0000B91A0000B91A000024
:10009000B91A0000B91A0000B91A0000B91A000014
:1000A000B91A0000B91A0000B91A0000B91A000004
:1000B000B91A0000B91A0000B91A0000B91A0000F4
:1000C000B91A0000B91A0000B91A0000B91A0000E4
:1000D000B91A0000B91A0000B91A0000B91A0000D4
:1000E000B91A0000B91A0000B91A0000B91A0000C4
:1000F00040B14FF4C043C4F200034FF02002C3F8F4
:10010000802070474FF4C043C4F200034FF0000258
:10011000C3F88020704700BF82B04FF00003019306
:10012000019B03F1FF320192002BF9D102B070471D
:1001300040F2F073C2F200031A6848F68903C8F669
:100140008803A3FB02134FEA1313B3F1807F16D287
:1001500023F07F4303F1FF324EF21003CEF200038F
:100160005A604FF46D42CEF200024FF0E00182F887
:1001700023104FF000029A604FF007021A604FF40C
:100180006D43CEF200034FF0200283F823204FF49A
:100190006143CEF200034FF0000283F800234FF0DA
:1001A00001021A60704700BF704700BF00B583B0FE
:1001B00072B64FF4C043C4F200034FF02002C3F8FC
:1001C00080204FF00002C3F8802062B64FF4404315
:1001D000C4F200039B6913F0800F1ED002A84FF0F9
:1001E000100320F8023D72B604F008FC62B6BDF8B8
:1001F000063003F1FF32ADF8062073B14FF44041F1
:10020000C4F2000110F8013B0B60BDF8063003F1A9
:10021000FF32ADF80620002BF4D103B000BD00BFC3
:1002200072B6FEE708B5FFF7FBFF08BD10B540F258
:100230000404C2F2000420464FF4C06103F0B8F990
:100240004FF46043C4F20F03D3F8042142F00102DB
:10025000C3F80421D3F8082142F00102C3F80821B1
:1002600000BF00BF00BF4FF4804363F31F43D3F8C8
:10027000002422F003024FF4804363F31F43C3F8CA
:1002800000244FF4804363F31F43D3F8202442F04B
:1002900003024FF4804363F31F43C3F820244FF459
:1002A000804363F31F43D3F8002542F003024FF469
:1002B000804363F31F43C3F800254FF4804363F387
:1002C0001F43D3F8182522F003024FF4804363F351
:1002D0001F43C3F818254FF4804363F31F43D3F83B
:1002E0000C2522F003024FF4804363F31F43C3F84D
:1002F0000C254FF4804363F31F43D3F8102522F0FD
:1003000003024FF4804363F31F43C3F810254FF4F7
:10031000804363F31F43D3F8142522F003024FF404
:10032000804363F31F43C3F814254FF4804363F302
:100330001F43D3F81C2542F003024FF4804363F3BC
:100340001F43C3F81C2540F2F073C2F20003196882
:100350004FEAC1024BF2C533C9F2A213A3FB02025A
:100360004FEA124202F101024FEAD2104FF4404329
:10037000C4F200035862C2F345029A624FF0600271
:10038000DA62DA6A42F01002DA621A6B42F4407200
:1003900042F001021A6348F68903C8F68803A3FBFA
:1003A00001234FEA1313C4F80036C4F804364FF0A3
:1003B000FF0003F005F94FF00A0003F023F94FF0B6
:1003C0000B0003F01FF94FF00C0003F01BF94FF086
:1003D0000D0003F017F94FF00E0003F013F94FF082
:1003E0000F0003F00FF94FF0100003F00BF94FF07E
:1003F000110003F007F94FF0120003F003F94FF07A
:10040000130003F0FFF84FF0140003F0FBF84FF077
:10041000150003F0F7F84FF0160003F0F3F84FF073
:10042000170003F0EFF84FF0180003F0EBF84FF06F
:10043000190003F0E7F84FF01A0003F0E3F84FF06B
:100440001C0003F0DFF84FF01D0003F0DBF84FF065
:100450001E0003F0D7F84FF0200003F0D3F84FF060
:10046000210003F0CFF84FF0220003F0CBF84FF05B
:10047000230003F0C7F84FF0240003F0C3F84FF057
:10048000250003F0BFF84FF0270003F0BBF84FF052
:10049000280003F0B7F84FF0290003F0B3F84FF04D
:1004A0002A0003F0AFF84FF0010010BD10B501F0C5
:1004B000ABFB4FF46043C4F20F03D3F8082142F0C2
:1004C0000502C3F8082100BF00BF00BF4FF4C043BE
:1004D000C4F20003D3F8002442F02002C3F8002441
:1004E000D3F81C2542F02002C3F81C254FF000046D
:1004F000C3F88040D3F8002422F01002C3F800248F
:10050000D3F81C2542F01002C3F81C254FF001005F
:1005100000F00CFB45F20450C0F2000021462246D8
:1005200000F048FA45F21450C0F2000021464FF0A6
:10053000010200F03FFA2046FFF778FE38B944F692
:100540004450C0F200004FF07201FFF769FE10BD89
:10055000704700BF4EF21003CEF200031B6813F485
:10056000807F4EF21003CEF200039A6840F204033B
:10057000C2F2000307BFD3F80406C2EB0000D3F8B1
:100580000006D3F804361CBFC018C2EB0000704749
:1005900030B583B004460D460B788DF804304FF02B
:1005A00000038DF8053000EBC0014FEA410101A8BE
:1005B00001F106014FF0010200F0FCF940F6601372
:1005C000C2F200031B7A13F0400F21D040F6A013B3
:1005D000C2F200031A683AB145F29013C0F2000368
:1005E00053F824309A4213D172B64FF0460003F00C
:1005F0002BF8FFF7AFFF03F033FF4FF01100214658
:1006000003F08EF9284604F033FA03F0F3F862B6EB
:1006100003B030BD684620F007018D4619B572B6AB
:1006200040F2FD73C2F200031A7802F10102D2B265
:100630001A7040F66013C2F200035B7913F0020FE8
:1006400017D04FF0290002F0FFFFFFF783FF03F000
:1006500007FF40F2FD73C2F20003187803F074FD47
:1006600040F20003C2F20003187803F06DFD03F0BE
:10067000C1F862B645F21423C0F200031C684FF0C3
:1006800002004FF0070102F0A5F80146204601F0F4
:1006900003FE72B640F66013C2F200035B7913F0FA
:1006A000040F17D04FF02A0002F0CEFFFFF752FFE1
:1006B00003F0D6FE40F2FD73C2F20003187803F097
:1006C00043FD40F20003C2F20003187803F03CFD42
:1006D00003F090F840F2FD73C2F200031A7802F1C1
:1006E000FF32D2B21A704EF60453CEF200034FF02E
:1006F00080521A6062B6BDE819408546704700BF57
:10070000684620F007018D4601B572B640F2FD73D0
:10071000C2F200031A7802F10102D2B21A7040F656
:100720006013C2F200035B7913F0020F17D04FF091
:10073000290002F089FFFFF70DFF03F091FE40F260
:10074000FD73C2F20003187803F0FEFC40F20003D0
:10075000C2F20003187803F0F7FC03F04BF862B61E
:100760004EF21003CEF200031B6840F20403C2F203
:100770000003D3F80016D3F804268A18C3F8042619
:1007800002F04AF972B640F66013C2F200035B79D8
:1007900013F0040F17D04FF02A0002F055FFFFF7B7
:1007A000D9FE03F05DFE40F2FD73C2F2000318783B
:1007B00003F0CAFC40F20003C2F20003187803F011
:1007C000C3FC03F017F840F2FD73C2F200031A787D
:1007D00002F1FF32D2B21A704EF60453CEF2000389
:1007E0004FF080521A6062B6BDE8014085467047FE
:1007F00030B583B002AD4FF0100325F8023D72B65C
:100800004FF44044C4F200041BE062B6A26912F047
:10081000800FFBD0BDF8062002F1FF31ADF80610C5
:1008200052B113F8012B2260BDF8062002F1FF310E
:10083000ADF80610002AF4D14FF01003ADF80630E1
:1008400072B6284604F0DAF803460028DDD162B615
:1008500003B030BD4FF00003C4F202034FF07A0240
:100860001A6098604FF003025A6070470138FDD15A
:100870007047704710B504464FF00002C4F2020200
:100880005369002BFCD040F20C63C2F200031868DD
:10089000FFF7ECFF4FF00003C4F202039C604FF03F
:1008A00001025A6010BD00BF38B505464FF0000286
:1008B000C4F202025369002BFCD040F20C63C2F276
:1008C00000031C682046FFF7D1FF4FF00003C4F27D
:1008D00002039D604FF005025A604FF00002C4F21F
:1008E00002025369002BFCD02046FFF7BFFF38BD42
:1008F0002DE9F0410D46B9B106464FF00004C4F2AF
:10090000020440F20C67C2F200074FF0010863696D
:10091000002BFCD03868FFF7A9FF16F8013BA36055
:10092000C4F80480013DF2D1BDE8F08170B54FF00C
:100930008000FFF78FFF40F20C63C2F200031E79C4
:1009400044F64C53C0F20003002E03F1080018BF18
:1009500018464FF00601FFF7CBFF4FF05F044FF052
:1009600000052846FFF786FF013CFAD14FF0000052
:10097000FFF79AFF4FF08000FFF76CFF002E0C4B43
:1009800003F1080018BF18464FF00601FFF7B0FF4B
:100990004FF0000425462846FFF76CFF04F10104E0
:1009A0005F2CF8D14FF00000FFF77EFF70BD00BF55
:1009B0005C4D00002DE9F84306460C4615464FF005
:1009C0008000FFF747FF002D14BFB120B020FFF7D4
:1009D00051FF4FF08000FFF74DFF40F20C63C2F271
:1009E00000035D79281900F00F00FFF743FF4FF077
:1009F0008000FFF73FFF6519C5F3031040F01000BA
:100A0000FFF738FF4FF04000FFF734FF3378002B3B
:100A10003DD1BDE8F88304F106045A2C1CD803EB41
:100A20008303A3F1A00038184146FFF761FF5A2C59
:100A300003D02E4615F8013B2BB94FF00000FFF70D
:100A400033FFBDE8F8834846FFF714FF15F8013C73
:100A5000002BE0D1BDE8F883C4F15F0544F64C54A7
:100A6000C0F2000403EB8303E018A0F180002946E4
:100A7000FFF73EFF3378A3F1200303EB8303E41871
:100A8000651995F82000FFF70FFFBDE8F8835A2C91
:100A9000E2D806F10105034F4FF005084FF00009B9
:100AA000BDE700BF6C4D00002DE9F84F0446154628
:100AB00098460A9F40F20C63C2F2000393F805A027
:100AC0008A4487B3CAF3031949F010094FF080062E
:100AD0000AF00F0A08F1FF3B3046FFF7BBFE002D7E
:100AE00014BFB120B020FFF7C5FE3046FFF7C2FEAD
:100AF0005046FFF7BFFE3046FFF7BCFE4846FFF703
:100B0000B9FE4FF04000FFF7B5FE20465946FFF70B
:100B1000EFFE444414F8010CFFF7C6FE013F02D07B
:100B200005F10105D8E7BDE8F88F00BF2DE9F843CE
:100B300004464FF46043C4F20F03D3F8042142F497
:100B40008052C3F80421D3F8082142F00202C3F80E
:100B500008215A68C2F30032D6B240F20C63C2F2E6
:100B600000031A71002E00F0BB8040F20C63C2F249
:100B700000034FF004025A714FF46043C4F20F03B4
:100B8000D3F8082142F00802C3F808214FF0010011
:100B9000FFF76CFE4FF4E043C4F20003D3F80024E7
:100BA00042F08002C3F800244FF08002C3F8002214
:100BB0004FF4A043C4F20003D3F8002422F00C0247
:100BC000C3F80024D3F8202442F00C02C3F82024F8
:100BD000D3F8002542F00C02C3F80025D3F81825FD
:100BE00022F00C02C3F81825D3F80C2542F00C02B1
:100BF000C3F80C25D3F8102542F00C02C3F81025D9
:100C0000D3F81C2542F00C02C3F81C25D3F8282584
:100C100022F00C02C3F828254FF00003C4F20203AF
:100C20001A6A42F010021A6248F2A062C0F201028F
:100C30004FF4D453C0F20603002C0CBF14461C46DC
:100C400004EB84044FEA840440F2F073C2F2000320
:100C50001B6803F1FF331B19B3FBF4F404F1FF34F9
:100C60004FF00003C4F20203DC60DA6840F20C6368
:100C7000C2F2000302F1010202EB02124FEA820209
:100C80001A604FF0000444F64C58C0F2000808F512
:100C90001377B9461AE05EB308F5FE756319587804
:100CA000FFF7D8FD04F10200615D2818A1F10201EF
:100CB000FFF71EFE635D08EB0402D31893F8FC01F6
:100CC000FFF7F2FD2B5D03F10103E418002E0CBFCA
:100CD00071234D239C42DED3FFF728FEBDE8F88345
:100CE00040F20C63C2F200034FF024025A715FE736
:100CF000E3195878FFF7AEFD04F10200E15D381802
:100D0000A1F10201FFF7F4FDE35D08EB0402D31843
:100D100093F84C02FFF7C8FD4D46D3E72DE9F041AB
:100D20004FF0000444F64C57C0F2000707F5137665
:100D3000B04619E02BB307F5FE7563195878FFF735
:100D400089FD04F10200615D2818A1F10201FFF79D
:100D5000CFFD635D3A19D31893F8FC01FFF7A4FDAA
:100D60002B5D03F10103E41840F20C63C2F20003AF
:100D70001B79002B0CBF71224D229442DAD3BDE8BF
:100D8000F081A3195878FFF765FD04F10200A15D19
:100D90003018A1F10201FFF7ABFDA35D3A19D3189A
:100DA00093F84C02FFF780FD4546D9E708B54FF0B0
:100DB0008000FFF74FFD4FF0AE00FFF75BFD4FF0F7
:100DC0008000FFF757FD4FF0AD00FFF753FD4FF0E8
:100DD0008000FFF74FFD4FF08A00FFF765FD08BD6B
:100DE0002DE9F04184B005460C4600F02BFC00F0E4
:100DF0004BFE28462146FFF759FB01F0F3F84FF070
:100E0000FF0002F0DDFB4FF0270002F0FBFB4FF08C
:100E1000280002F0F7FB4FF0290002F0F3FB4FF03F
:100E20002A0002F0EFFB4FF01F0002F0EBFB4FF047
:100E3000340002F0E7FB40F66013C2F20003DB79F6
:100E400013F0200F00F0B18072B64FF03D0002F0B9
:100E5000FBFB40F21460C2F2000003F001FB45F21C
:100E60000C00C0F2000003F06BFD02F0C3FC62B6A0
:100E7000FFF7BEFC40F66013C2F20003DB7913F00B
:100E8000200F00F0928072B64FF03D0002F0DCFBC4
:100E9000664803F0E5FA664803F052FD02F0AAFC4A
:100EA00062B6FFF7A5FC40F66013C2F20003DB79DF
:100EB00013F0200F79D072B64FF03D0002F0C4FB62
:100EC0005C4803F0CDFA5C4803F03AFD02F092FC76
:100ED00062B6FFF78DFC40F66013C2F20003DB79C7
:100EE00013F0200F61D072B64FF03D0002F0ACFB62
:100EF00040F21460C2F2000000F13C0400F1500026
:100F000003F0AEFA4D4803F01BFD02F073FC62B62D
:100F1000FFF76EFC40F66013C2F20003DB7913F0BA
:100F2000200F42D072B64FF03D0002F08DFB04F16D
:100F3000280003F095FA424803F002FD02F05AFC43
:100F400062B6FFF755FC40F66013C2F20003DB798E
:100F500013F0200F29D072B64FF03D0002F074FB61
:100F600004F13C0003F07CFA364803F0E9FC02F09F
:100F700041FC62B6FFF73CFC40F66013C2F200038E
:100F8000DB7913F0200F10D072B64FF03D0002F065
:100F90005BFB04F1500003F063FA2B4803F0D0FC34
:100FA00002F028FC62B6FFF723FC40F21465C2F29F
:100FB000000505F1A0004FF0070101F0ADFC284647
:100FC0004FF028014FF0040201F062FC1F4F05F1C1
:100FD0003C054FF0000426464FF0050804F10104DB
:100FE000E4B257F8040F00960196029621462A466D
:100FF000434601F011F805F11405052CEED145F238
:101000001423C0F2000318684FF000040094019408
:1010100002944FF00601054A4FF0050300F0FCFF73
:1010200000F0E8FF204604B0BDE8F0813C06002057
:101030001C500000500600202C50000040500000C2
:1010400054500000685000007C5000008C5100009B
:1010500010B5044640F2EC63C2F200031B78002B8B
:1010600040F06B8140F66013C2F20003DB7913F0AD
:10107000200F00F0EF8072B64FF03D0002F0E4FA6E
:10108000CA4803F0EDF945F29000C0F2000003F009
:1010900057FC02F0AFFB62B6FFF7AAFB40F6601305
:1010A000C2F20003DB7913F0200F00F0D38072B698
:1010B0004FF03D0002F0C8FABD4803F0D1F9BD4839
:1010C00003F03EFC02F096FB62B6FFF791FB40F6A0
:1010D0006013C2F20003DB7913F0200F00F0BA8036
:1010E00072B64FF03D0002F0AFFAB34803F0B8F922
:1010F000B24803F025FC02F07DFB62B6FFF778FBF7
:1011000040F66013C2F20003DB7913F0200F00F009
:10111000A18072B64FF03D0002F096FAA84803F0A5
:101120009FF9A84803F00CFC02F064FB62B6FFF7DD
:101130005FFB40F66013C2F20003DB7913F0200F6F
:1011400000F0888072B64FF03D0002F07DFA9E48B4
:1011500003F086F99D4803F0F3FB02F04BFB62B607
:10116000FFF746FB40F66013C2F20003DB7913F091
:10117000200F6FD072B64FF03D0002F065FA944830
:1011800003F06EF9934803F0DBFB02F033FB62B629
:10119000FFF72EFB40F66013C2F20003DB7913F079
:1011A000200F57D072B64FF03D0002F04DFA8A483A
:1011B00003F056F9894803F0C3FB02F01BFB62B64B
:1011C000FFF716FB40F66013C2F20003DB7913F061
:1011D000200F3FD072B64FF03D0002F035FA804844
:1011E00003F03EF97F4803F0ABFB02F003FB62B66D
:1011F000FFF7FEFA40F66013C2F20003DB7913F04A
:10120000200F27D072B64FF03D0002F01DFA76484D
:1012100003F026F9754803F093FB02F0EBFA62B68F
:10122000FFF7E6FA40F66013C2F20003DB7913F031
:10123000200F0FD072B64FF03D0002F005FA6C4857
:1012400003F00EF96B4803F07BFB02F0D3FA62B6B1
:10125000FFF7CEFA40F66013C2F20003DB7913F019
:10126000400F63D072B64FF03E0002F0EDF941F24C
:101270005100C0F2000003F0F3F85F4803F060FB98
:1012800002F0B8FA62B6FFF7B3FA40F66013C2F2A2
:101290000003DB7913F0400F48D072B64FF03E00E8
:1012A00002F0D2F941F2ED40C0F2000003F0D8F8AC
:1012B000524803F045FB02F09DFA62B6FFF798FA38
:1012C00040F66013C2F20003DB7913F0400F2DD01B
:1012D00072B64FF03E0002F0B7F941F28150C0F211
:1012E000000003F0BDF8464803F02AFB02F082FA42
:1012F00062B6FFF77DFA40F66013C2F20003DB79B5
:1013000013F0400F12D072B64FF03E0002F09CF97D
:1013100041F22D40C0F2000003F0A2F8394803F07A
:101320000FFB02F067FA62B6FFF762FA40F2EC6375
:10133000C2F200034FF001021A7040F66013C2F2CD
:101340000003DB7913F0100F62D072B64FF03C004F
:1013500002F07AF94FF0080002F0F6FE204603F0A2
:101360007FF8294803F0ECFA02F044FA62B6FFF77E
:101370003FFA40F66013C2F20003DB7913F0100F5E
:1013800046D072B64FF03C0002F05EF94FF0090013
:1013900002F0DAFE204603F063F81C4803F0D0FAAE
:1013A00002F028FA62B6FFF723FA31E0F0060020D7
:1013B000080700209C5000001C070020B0500000CF
:1013C00034070020BC50000048070020D050000027
:1013D00060070020DC50000074070020F05000007F
:1013E0008C070020FC500000A007002010510000D6
:1013F000B80700201C51000030510000405100008F
:101400005051000060510000705100007C510000FC
:1014100020464FF0040101F06BF841F2ED43C0F2B9
:10142000000323604FF0020010BD00BF38B5044632
:101430000B7803F1FF33082B48D8DFE803F00511E0
:1014400047313147474727004FF00005458500F1F8
:10145000180021464FF0050201F098FC284638BDDF
:101460004FF003004FF0050101F0B4F91D4BE41AF1
:101470004FEAA40448F6A333CBF62E2303FB04F370
:10148000837001F051FA4FF0000038BDFEF744FEC2
:1014900041F2ED43C0F2000323604FF0020038BD7B
:1014A000104BC41A4FEAA40448F6A333CBF62E23FC
:1014B00003FB04F38A78DBB29A420FD10A484FF05B
:1014C000AA01FEF7ADFE4FF0000038BD43F2915384
:1014D000C0F2000303604FF0030038BD4FF000007E
:1014E00038BD00BFF00600208851000038B5044622
:1014F0000B7803F1FF33082B32D8DFE803F0053116
:10150000311B1B31313111004FF00005458500F1D1
:10151000180021464FF0070201F038FC284638BD7C
:10152000FEF7FAFD41F28153C0F2000323604FF051
:10153000020038BD104BC41A4FEAA40448F6A33386
:10154000CBF62E2303FB04F38A78DBB29A420FD149
:101550000A484FF07801FEF763FE4FF0000038BDF7
:1015600043F29153C0F2000303604FF0030038BD13
:101570004FF0000038BD00BFF00600208851000089
:1015800010B504460B78042B1FD0052B35D0012B4A
:1015900049D14FF003004FF0080101F01BF901465B
:1015A000264BE41A4FEAA40448F6A333CBF62E23C5
:1015B00003FB04F3837045F21423C0F200031868A0
:1015C00000F06AFE4FF0000010BD1C4A821A4FEA7C
:1015D000A20248F6A333CBF62E2303FB02F38A784C
:1015E000DBB29A421FD1FEF797FD41F22D43C0F2C4
:1015F000000323604FF0020010BD104BC41A4FEAE5
:10160000A40448F6A333CBF62E2303FB04F38A7815
:10161000DBB29A420FD10A484FF09001FEF700FE6C
:101620004FF0000010BD43F29153C0F2000323605D
:101630004FF0030010BD4FF0000010BDF006002079
:10164000885100002DE9F0414FF000052C460C4E6A
:1016500041F25107C0F200074FF02C08775108FB08
:10166000046000F118004FF0090101F077FB04F16C
:10167000010405F12C05052CF0D1BDE8F08100BF77
:10168000F006002010B5044640F66013C2F20003D5
:10169000DB7913F0200F15D072B64FF03D0001F04A
:1016A000D3FF40F2CC70C2F2000002F0D9FE45F246
:1016B000A410C0F2000003F043F902F09BF862B6F8
:1016C000FFF796F840F66013C2F20003DB7913F0DF
:1016D000400F48D072B64FF03E0001F0B5FF43F224
:1016E0009150C0F2000002F0BBFE614803F028F9FF
:1016F00002F080F862B6FFF77BF840F66013C2F2A2
:101700000003DB7913F0400F2DD072B64FF03E008E
:1017100001F09AFF41F28560C0F2000002F0A0FEE5
:10172000544803F00DF902F065F862B6FFF760F86F
:1017300040F66013C2F20003DB7913F0400F12D0C1
:1017400072B64FF03E0001F07FFF41F68D00C0F20F
:10175000000002F085FE484803F0F2F802F04AF873
:1017600062B6FFF745F840F66013C2F20003DB797A
:1017700013F0100F6AD072B64FF03C0001F064FF16
:101780004FF0050002F0E0FC4FF0000002F068FEB0
:101790003A4803F0D5F802F02DF862B6FFF728F8C2
:1017A00040F66013C2F20003DB7913F0100F4DD046
:1017B00072B64FF03C0001F047FF4FF0040002F01A
:1017C000C3FC4FF0000002F04BFE2D4803F0B8F8C8
:1017D00002F010F862B6FFF70BF840F66013C2F2A1
:1017E0000003DB7913F0100F30D072B64FF03C00DD
:1017F00001F02AFF4FF0060002F0A6FC4FF00000B7
:1018000002F02EFE1F4803F09BF801F0F3FF62B6D2
:10181000FEF7EEFF40F66013C2F20003DB7913F02F
:10182000100F13D072B64FF03C0001F00DFF4FF0D7
:10183000080002F089FC204602F012FE124803F074
:101840007FF801F0D7FF62B6FEF7D2FF20464FF0D7
:10185000050100F04DFE20464FF0060100F048FE65
:1018600041F68D03C0F2000323604FF0020010BD6B
:10187000B0510000BC510000CC510000DC51000010
:10188000E8510000F051000000520000F8B5044695
:101890000D460B78062B00F0E180082B03D0052BBA
:1018A00040F0E18047E0FEF737FCAD78042D02D828
:1018B00063195B7F23B173484FF06001FEF7B0FC02
:1018C000284645F22451C0F20001FEF761FE05F101
:1018D000010346F26762C6F2666282FB03124FEAB8
:1018E000620202EB82029B1ADBB2E218127EDAB9C4
:1018F0006219127EC2B961194FF001020A76E3182B
:101900001A764FF003004FF0040100F063FF85707A
:1019100001F00AF8284645F23051C0F20001FEF706
:1019200037FE4FF00000F8BD64194FF001036377F4
:101930004FF00000F8BDFEF7EFFBAD78042D02D8A4
:1019400063195B7F23B14F484FF07401FEF768FCC9
:10195000284645F23C51C0F20001FEF719FE05F1A0
:10196000010346F26766C6F2666686FB03264FEA07
:10197000660606EB86069E1BF6B263191B7E012BDC
:1019800003D1A3191B7E012B04D03E484FF07901EF
:10199000FEF746FC62194FF000031376A219137686
:1019A00005F1040346F26767C6F2666787FB031713
:1019B0004FEA670707EB8707DF1BFFB2E3195B7F7F
:1019C000DBB1E3191B7EC3B9E3194FF001021A76AC
:1019D00065192A764FF000025A774FF003004FF056
:1019E000040100F0F7FE877000F09EFF384645F2D4
:1019F0003051C0F20001FEF7CBFDA3195B7F002B35
:101A000039D006F1010346F26762C6F2666282FBD4
:101A100003124FEA620202EB82029B1ADBB2E21867
:101A2000127E002A2AD1E3184FF001021A76A41977
:101A300022764FF0000565774FF003004FF0040168
:101A400000F0C8FE867000F06FFF304645F230515E
:101A5000C0F20001FEF79CFD2846F8BD00F0C6FA72
:101A60004FF00000F8BD43F29153C0F20003036051
:101A70004FF00300F8BD4FF00000F8BD4FF000003C
:101A8000F8BD00BF0C52000040F2CC73C2F200035C
:101A900041F28562C0F200021A604FF000021A762D
:101AA0005A775A769A779A76DA77DA7683F8202018
:101AB0001A7783F821207047684620F007018D4689
:101AC00001B545F24850C0F2000040F20711FEF7A0
:101AD000A9FBFEE7684620F007018D4601B540F2FC
:101AE0000002C2F2000240F20403C2F200039A4272
:101AF00011D245F26052C0F2000240F20003C2F27D
:101B0000000340F20400C2F2000052F8041B43F844
:101B1000041B8342F9D340F20402C2F2000240F6F1
:101B2000A813C2F200039A420AD213464FF00001F2
:101B300040F6A812C2F2000243F8041B9342FBD302
:101B400003F0B2F8FFF74CF945F24850C0F200003C
:101B50004FF48171FEF766FBBDE801408546704792
:101B6000704700BFEFF30980704700BF80F309881A
:101B7000704700BFEFF30880704700BF80F308880C
:101B8000704700BFEFF31280704700BF80F31188E9
:101B9000704700BFEFF31080704700BF80F31088DC
:101BA000704700BFEFF31380704700BF80F31388C6
:101BB000704700BF00BA704740BA7047C0BA70475C
:101BC00090FAA0F0704700BFD0E84F0FC0B2704746
:101BD000D0E85F0F80B2704750E8000F704700BF39
:101BE000C1E8400F704700BFC1E8500F704700BF09
:101BF00041E80000704700BFEFF31480704700BF5A
:101C000080F31488704700BF30B482B04FF4604353
:101C1000C4F20F0342F61002C0F280721A6743F654
:101C2000D122C0F28E721A6642F6C222C0F28E42F1
:101C30001A6642F61002C0F280021A674FF00003E3
:101C40000193019BB3F57A7F09D240F2E73200BFDE
:101C5000019B03F101030193019B9342F7D94FF4D8
:101C60006043C4F20F0340F6C222C0F28E421A66ED
:101C700042F61002C0F280021A674FF0000301938F
:101C8000019BB3F57A7F09D240F2E73200BF019B96
:101C900003F101030193019B9342F7D94FF4604391
:101CA000C4F20F0340F6C222C0F2CE421A661B6D88
:101CB00013F0400F08D14FF46042C4F20F0200BF8E
:101CC000136D13F0400FFAD04FF46043C4F20F03CA
:101CD00040F2C222C0F2CE421A6642F61002C0F2B0
:101CE00080021A674FF000030193019BB3F57A7FDE
:101CF00009D240F2E73200BF019B03F101030193D7
:101D0000019B9342F7D94FF46043C4F20F03196E5D
:101D10001A6F002AB4BF02F0700301F03003202BC9
:101D200000F0858004D883B1102B40F0528115E07B
:101D3000602B00F0E580702B00F0DF80302B08BFB7
:101D400047F2305340F04581DCE045F21823C0F201
:101D50000003C1F3841053F82030D3E04FF4604304
:101D6000C4F20F031B6813F0E04F04BF4EF2C01320
:101D7000C0F2E40300F0C6804FF46043C4F20F03E6
:101D800018684FF00003C7F2FF0300EA0303B3F142
:101D9000805F04BF4EF2C013C0F2E40300F0B280D3
:101DA0004FF46043C4F20F0318684FF00003C7F20A
:101DB000FF0300EA03034FF00000C1F20100834279
:101DC0000DD14FF46043C4F20F031B689BB2022B8A
:101DD00004BF4FF4D853C0F2B70300F093804FF420
:101DE0006043C4F20F0318684FF00003C7F2FF030B
:101DF00000EA03034FF00000C1F2030083421CBF5E
:101E00004FF41053C0F2F4037CD14FF46043C4F29A
:101E10000F031C68A4B24FF4D853C0F2B7034FF4B9
:101E20001050C0F2F400002C18BF03466AE04FF4D3
:101E30006043C4F20F031B6813F0E04F04BF43F686
:101E40007003C0F239035DD04FF46043C4F20F0356
:101E500018684FF00003C7F2FF0300EA0303B3F171
:101E6000805F04BF43F67003C0F239034AD04FF4D9
:101E70006043C4F20F0318684FF00003C7F2FF037A
:101E800000EA03034FF00000C1F2010083420CD1CD
:101E90004FF46043C4F20F031B689BB2022B04BFD4
:101EA0004CF2C063C0F22D032CD04FF46043C4F257
:101EB0000F0318684FF00003C7F2FF0300EA0303A3
:101EC0004FF00000C1F2030083421CBF4FF41063C7
:101ED000C0F23D0316D14FF46043C4F20F031C68F7
:101EE000A4B24CF2C063C0F22D034FF41060C0F2F4
:101EF0003D00002C18BF034604E04FF4004301E00E
:101F00004FF48003002A03DA12F4006F03D03AE0A2
:101F100011F4006F37D14FF46044C4F20F04606EC7
:101F2000246814F0E04F0DD04FF46044C4F20F0465
:101F300025684FF00004C7F2FF0405EA0404B4F179
:101F4000805F0CD1C0F3481404F1020404FB03F3D6
:101F500000F01F0404F10204B3FBF4F30BE0C0F340
:101F6000481404FB03F300F01F0404F101044FEADA
:101F70004404B3FBF4F310F4804F18BF5B0810F473
:101F8000004F18BF9B0811F4800F1DD0002A15DAEE
:101F900012F0804F0BD012F4006F08D14FEA4303C8
:101FA000C2F3865202F10102B3FBF2F30CE0C2F37A
:101FB000C55202F10102B3FBF2F305E0C1F3C351D4
:101FC00001F10101B3FBF1F340F2F072C2F2000241
:101FD000136002B030BC704745F27420C0F20000BC
:101FE000704700BF08B502F083FE08BD08B5FEF7D4
:101FF000DBF808BD08B572B640F20003C2F2000378
:102000004FF000021A7000F03FF862B6FEF790F849
:10201000FEF7CCF8FCE700BFF8B504460D461646BF
:102020001F4601F1FF33DBB23E2B04D913484FF0BA
:102030006001FEF7F5F804F104003146FAB200F051
:10204000B5FA2575204600F0E3FA079BD3F10103AA
:1020500038BF0023069A002A14BF002303F00103AF
:1020600023B906484FF06A01FEF7DAF820460899CE
:1020700000F0E0FEFEF7BCFBF8BD00BF7C520000A4
:1020800008B500F005FB08BD2DE9F04740F2FD73EF
:10209000C2F200031B783BB145F28020C0F2000081
:1020A0004FF03001FEF7BCF840F2F473C2F20003C7
:1020B0001B78002B00F08B8040F2F472C2F2000219
:1020C000117845F2BC23C0F20003595C01F1FF31E5
:1020D000C9B2521852789C5C04EBC10404F0FF04AE
:1020E00040F20003C2F200031B789C4274D940F610
:1020F0000003C2F200031B789C426DD940F200033A
:10210000C2F2000393F800A05FFA8AF940F60406D1
:10211000C2F200061F4640F66018C2F2000856F8E8
:1021200024503C7098F8063013F0100F17D040F68A
:102130009013C2F200031B680BB19D420FD14FF008
:10214000340001F081FAFEF705FA02F089F9204621
:1021500001F0FAFF484601F0F7FF01F04BFB62B6D1
:10216000284600F013F904462846214600F01EFFD9
:10217000204600F0CFFA72B640F2F473C2F20003C8
:102180001B78E3B140F2F472C2F20002117845F21A
:10219000BC23C0F200035C5C04F1FF34E4B212190A
:1021A00052789B5C03EBC40404F0FF04A14506D203
:1021B00040F60003C2F200031B789C42AFD840F205
:1021C0000003C2F2000383F800A0BDE8F08740F2EC
:1021D0000003C2F200031B78BDE8F08710B572B6A9
:1021E00040F60003C2F200031C781B7883423EBF16
:1021F00040F60003C2F20003187040F66013C2F20A
:1022000000039B7913F0040F13D04FF0320001F05C
:102210001BFAFEF79FF902F023F9204601F094FF24
:1022200040F60003C2F20003187801F08DFF01F0C0
:10223000E1FA62B6204610BD10B5044672B640F60B
:102240006013C2F200039B7913F0080F13D04FF014
:10225000330001F0F9F9FEF77DF902F001F92046AB
:1022600001F072FF40F60003C2F20003187801F09B
:102270006BFF01F0BFFA40F60003C2F200031B78C7
:102280009C4206D240F60003C2F200031C70FFF726
:10229000FBFE62B610BD00BF38B504460D4672B6EF
:1022A00040F66013C2F200035B7813F0400F20D0B9
:1022B00040F69013C2F200031B680BB1834218D1A1
:1022C0004FF00E0001F0C0F9FEF744F902F0C8F833
:1022D000287801F039FF204602F0C2F8687801F052
:1022E00033FFE07B01F030FF207C01F02DFF01F097
:1022F00081FA6B7813B103F101036B7063681BBB48
:10230000656040F2F473C2F200031D78217D45F24E
:102310006042C0F20002505C45F2D832C0F20002C6
:102320001418647845EA04041C701B185878525C31
:1023300040EA02025A7040F2FD73C2F200031B78B9
:102340000BBBFFF7A1FE1EE0E37B3BB945F28C20FF
:10235000C0F200004FF04501FDF762FF627BA36809
:1023600043F82250637B0BB9237B6373637B03F1D8
:10237000FF336373E37B03F1FF33DBB2E373227C50
:102380009A4288BF237462B638BD00BF70B5044658
:1023900072B643683BB945F29420C0F200004FF09A
:1023A0003001FDF73DFF6568E37B227B934234D02B
:1023B000A17BA06850F82100606001B9A273A27BE4
:1023C00002F1FF32A27303F10103E37340F66013DD
:1023D000C2F200039B7813F0010F68D040F690130F
:1023E000C2F200031B680BB19C4260D14FF0100099
:1023F00001F02AF9FEF7AEF802F032F8287801F081
:10240000A3FE204602F02CF8687801F09DFEE07BE8
:1024100001F09AFE01F0EEF949E04FF0000363602D
:10242000217D45F26043C0F20003585C40F2F47332
:10243000C2F200031B185E7845F21C42C0F2000293
:10244000525C06EA02025A705B786BB940F2F47390
:10245000C2F20003197845F21C42C0F200021018C3
:10246000427801EA02021A7040F66013C2F20003D9
:102470009B7813F0020F1AD040F69013C2F20003BB
:102480001B680BB19C4212D14FF0110001F0DCF837
:10249000FEF760F801F0E4FF287801F055FE2046D1
:1024A00001F0DEFF687801F04FFE01F0A3F962B69B
:1024B000284670BD10B504463F2806D840F60403F0
:1024C000C2F2000353F820303BB945F29420C0F229
:1024D00000004FF05A01FDF7A3FE72B662B640F657
:1024E0000403C2F2000353F82430187C10BD00BF6F
:1024F000F8B507460D46047D45F26043C0F200037F
:102500001E5D032917D940F64C13C2F200031A7856
:10251000231E18BF01238A4294BF002303F0010346
:102520004BB13F2C07D840F60403C2F2000353F826
:102530002430834207D045F29C20C0F200004FF0C7
:102540003001FDF76DFE72B640F66013C2F2000373
:102550005B7813F0100F17D040F69013C2F200030F
:102560001B680BB19F420FD14FF00C0001F06CF8CB
:10257000FDF7F0FF01F074FF284601F0E5FD384655
:1025800001F06EFF01F036F940F64813C2F2000385
:102590001B6803EBC50545F2D833C0F20003AA5D02
:1025A0001B5D42EA0303AB5562B6F8BD38B50D4674
:1025B00014464FF00003036041600272437283725D
:1025C000C272027340F66013C2F200039B7813F0EC
:1025D000040F15D040F69813C2F200031B680BB12C
:1025E00098420DD172B64FF0120001F02DF8284636
:1025F00001F036FF204601F0A7FD01F0FBF862B6BE
:1026000038BD00BF45F2A420C0F20000704700BFF3
:1026100038B50546047D04F1FF33DBB23E2B06D806
:1026200040F60403C2F2000353F8243023B11748E4
:102630004FF04001FDF7F4FD72B640F60403C2F21C
:10264000000343F8245040F66013C2F200035B78A5
:1026500013F0040F17D040F69013C2F200031B686A
:102660000BB19D420FD14FF00A0000F0EDFFFDF7D6
:1026700071FF01F0F5FE284601F0F2FE204601F060
:1026800063FD01F0B7F862B638BD00BFAC52000080
:1026900038B50546047D04F1FF33DBB23E2B07D885
:1026A00040F60403C2F2000353F82430834204D0FE
:1026B00017484FF05401FDF7B3FD72B640F604031E
:1026C000C2F200034FF0000243F8242040F66013EA
:1026D000C2F200035B7813F0080F17D040F6901396
:1026E000C2F200031B680BB19D420FD14FF00B00EB
:1026F00000F0AAFFFDF72EFF01F0B2FE284601F020
:10270000AFFE204601F020FD01F074F862B638BD3E
:10271000AC52000038B504464578002D59D072B649
:1027200005F03F03012B1CDD05F1FF35457040F638
:102730006013C2F20003DB7813F0200F0FD04FF0CC
:102740001D0000F081FFFDF705FF01F089FE2078F4
:1027500001F0FAFC607801F0F7FC01F04BF862B68A
:1027600038BD4FEA951505F1FF35EDB240F660131F
:10277000C2F20003DB7813F0400F0FD04FF01E00C1
:1027800000F062FFFDF7E6FE01F06AFE207801F03E
:10279000DBFC607801F0D8FC01F02CF862B640F662
:1027A0000813C2F200031B78AB4207D845F2B420ED
:1027B000C0F200004FF04901FDF732FD05EB850541
:1027C00040F60C13C2F2000303EB8500214600F033
:1027D00085FA38BD2DE9F843074689464FF00004D5
:1027E00040F60C15C2F2000540F60816C2F20006CB
:1027F00045F2BC38C0F200080AE004F10104E4B27A
:102800003378A34204D840464FF03001FDF708FD6D
:1028100004EB840305EB83039B89BB42EDD340F6B5
:102820006013C2F20003DB7813F0100F11D072B600
:102830004FF01C0000F008FFFDF78CFE01F010FEC9
:10284000384601F005FD484601F07EFC00F0D2FF5D
:1028500062B604EB840040F60C13C2F2000303EBF3
:10286000800000F063F9054638B945F2BC30C0F28B
:1028700000004FF03A01FDF7D3FC85F8009004F119
:1028800001044FEA84146C702846BDE8F88300BF49
:10289000F8B506460F46154640F60813C2F2000387
:1028A0001B78022B07D945F2C430C0F200004FF06C
:1028B0002E01FDF7B5FC40F60813C2F200031B78A9
:1028C000A3B140F60812C2F2000203F1FF3303EB9A
:1028D000830302EB8302138AAB4207D345F2C43071
:1028E000C0F200004FF03101FDF79AFC40F60814E9
:1028F000C2F2000404F10402237803EB830302EB29
:10290000830031463A462B4600F068F9237803F1FC
:1029100001032370F8BD00BF40F64813C2F2000364
:1029200018601971704700BF2DE9F04F83B007465A
:1029300040F64C13C2F2000302781B789A4207D388
:1029400045F2CC30C0F200004FF02C01FDF768FCDE
:1029500072B640F66013C2F20003DB7813F0040F86
:102960000FD04FF01A0000F06FFEFDF7F3FD01F0FD
:1029700077FD387801F0E8FB787801F0E5FB00F0AE
:1029800039FF7B7813B103F101037B7062B64FF01E
:10299000080B40F64811C2F20001019145F2BC2932
:1029A000C0F2000945F21C4AC0F2000A40F60406D3
:1029B000C2F200060BF1FF3B5FFA8BFB3A780199FC
:1029C0000B6803EBC20313F80B40E4B14FEACB08EA
:1029D0005FFA88F819F804501AF805301C4045448D
:1029E000EDB256F825303BB945F2CC30C0F20000CC
:1029F0004FF05501FDF714FC56F825003946FFF756
:102A00004BFC002CE6D1BBF1000FD3D13846FFF7C9
:102A100081FE03B0BDE8F08FF8B572B640F66013E2
:102A2000C2F2000393F90330002B11DA4FF01F00BC
:102A300000F00AFE40F6A413C2F200031A6802F185
:102A400001021A60186880B201F002FC00F0D2FEA8
:102A500040F65413C2F200031C68002C64D040F608
:102A60006015C2F2000540F69C17C2F200071E4630
:102A7000238A03F1FF339BB22382002B48D1638A60
:102A80000BB1238223E033689C4202D1A3683360F8
:102A900006E0A3680BB162685A606368A2689A6036
:102AA0004FF0000363602B7913F0020F0FD03B68E7
:102AB0000BB19C420BD14FF0210000F0C5FD204628
:102AC00001F0CEFCE06801F0CBFC00F093FE2B7926
:102AD00013F0200F16D03B680BB19C4212D14FF07F
:102AE000250000F0B1FDFDF735FD01F0B9FC2046F1
:102AF00001F0B6FC207801F027FBE06801F0B0FCA3
:102B000000F078FE62B6E0682146FFF7C5FB07E0FB
:102B100062B640F65013C2F200034FF000021A7082
:102B200072B6A468002CA3D162B6F8BD38B50446CD
:102B300072B6056855B12B680360038A03F1FF3351
:102B40009BB20382428A9A4288BF438240F6601356
:102B5000C2F20003DB7813F0010F1BD040F6941390
:102B6000C2F200031B6813B16268934212D14FF0A6
:102B7000180000F069FDFDF7EDFC01F071FC6068E4
:102B800001F06EFC208A01F063FB608A01F060FBBB
:102B900000F030FE62B6284638BD00BF10B50446CE
:102BA00030B140F60813C2F200031B78834207D20B
:102BB00045F2A440C0F200004FF04501FDF730FBA4
:102BC00072B662B640F60C13C2F2000304F1FF3491
:102BD00004EB840403EB8403588A10BD2DE9F04113
:102BE000044617461E468846032A94BF0023012345
:102BF00000290CBF002303F0010323B106F10403F5
:102C00009BB29E4207D345F2AC40C0F200004FF0A9
:102C10003601FDF705FBC4F800804FF00403A381E3
:102C2000042E9CBF042301250BD94FF004034FF061
:102C3000010503F104039BB205F101059E42F8D89A
:102C4000A3811E469F4207D245F2AC40C0F200006D
:102C50004FF04401FDF7E4FABF1B4FF00103E3819D
:102C60002268BE4288BF13460FD84FEA8505C6F1D9
:102C70000001BF1B00E01A4653191360E28902F1FC
:102C80000102E2817F18F742F5D34FF000021A608B
:102C9000E28922826282C4F80480A36040F6601355
:102CA000C2F2000393F90230002B15DA40F69413B8
:102CB000C2F200031B680BB198450DD172B64FF0FC
:102CC000170000F0C1FC606801F0CAFBE08901F068
:102CD000BFFA00F08FFD62B6BDE8F08138B504465A
:102CE0000D4643688B4206D88368994203D8028A0E
:102CF000C3899A4207D945F2B840C0F200004FF0AC
:102D00002D01FDF78DFA72B623682B602560238AAA
:102D100003F10103238240F66013C2F20003DB7863
:102D200013F0020F18D040F69413C2F200031B6890
:102D300013B1626893420FD14FF0190000F084FC88
:102D4000FDF708FC01F08CFB606801F089FB208A2C
:102D500001F07EFA00F04EFD62B638BD38B504468B
:102D60000D46032907D845F2C040C0F200004FF0DD
:102D70002901FDF755FA4FF000036360A360E3609B
:102D8000238263822570637038BD00BF70B504462E
:102D90000D46164662B10378032B09D942680B1E13
:102DA00018BF0123002A14BF002303F001033BB91D
:102DB00045F2CC40C0F200004FF03001FDF730FA90
:102DC00026826460E56072B640F66013C2F20003CA
:102DD0001B7913F0010F1DD040F69C13C2F20003C3
:102DE0001B680BB19C4215D14FF0200000F02CFC69
:102DF000FDF7B0FB01F034FB204601F031FB284623
:102E000001F02EFB304601F023FA608A01F020FA2F
:102E100000F0F0FC40F65413C2F200031B68A360FC
:102E200003B15C6040F65413C2F200031C6062B64A
:102E300070BD00BF2DE9F04786B00546036898478E
:102E4000022807D045F2D440C0F200004FF02D0117
:102E5000FDF7E6F943F29156C0F2000640F660191C
:102E6000C2F2000940F68C1AC2F2000A45F2F44799
:102E7000C0F2000707F1020899F8003013F0080FBC
:102E800015D0DAF800300BB19D4210D172B64FF078
:102E9000030000F0D9FB284601F0E2FA304601F0C9
:102EA000DFFA286801F0DCFA00F0A4FC62B62C68B6
:102EB000009428463946A0472B68B34204BF2C60D3
:102EC00000241DD04FF0000404F10104E4B262B20A
:102ED00006A901EB820242F8183C28463946984779
:102EE0002B68B342F0D1009B2B6063B2052B07DD4A
:102EF00045F2D440C0F200004FF04401FDF790F9D4
:102F000063B206AA02EB830353F8186C28464146C5
:102F1000B047B8B999F8003013F0020F12D0DAF8C0
:102F200000300BB19D420DD172B64FF0010000F0A0
:102F30008BFB284601F094FA304601F091FA00F03C
:102F400059FC62B604F1FF34E4B214F0800FD7D01C
:102F5000009E28461449B04702288DD02E6040F6C6
:102F60006013C2F200031B7813F0100F19D040F663
:102F70008C13C2F200031B680BB19D4211D172B6D3
:102F80004FF0040000F060FBFDF7E4FA01F068FA8E
:102F9000284601F065FA286801F062FA00F02AFC80
:102FA00062B606B0BDE8F087FA5400002DE9F04F94
:102FB00089B005468B46066840F66013C2F20003EE
:102FC0005B7813F0010F1DD040F68C13C2F20003A2
:102FD0001B680BB1984215D172B64FF0080000F093
:102FE00033FBFDF7B7FA01F03BFA9BF8000001F064
:102FF000ABF8284601F034FA304601F031FA00F01F
:10300000F9FB62B6D5F8009028465946C847032810
:10301000F8D0022840F05F822B68029303964E4559
:103020002CD0954C40F66017C2F2000745F2F448E8
:10303000C0F2000828462146B047E0B93B7813F0BB
:10304000040F15D040F68C13C2F200031B680BB1BD
:103050009D420DD172B64FF0020000F0F5FA2846FD
:1030600001F0FEF9304601F0FBF900F0C3FB62B657
:1030700028464146B0472E68B145DBD1029CA145A8
:1030800026D128467C49C847002840F07D8240F67A
:103090006013C2F200031B7813F0040F00F0748277
:1030A00040F68C13C2F200031B6813B19D4240F03E
:1030B0006B8272B64FF0020000F0C6FA284601F0AB
:1030C000CFF9484601F0CCF900F094FB62B65BE220
:1030D000284645F2F441C0F20001A0472E68B145F0
:1030E00000F05282284645F2F441C0F20001C84780
:1030F0002F68B74226D128465F49C847002840F0CC
:10310000438240F66013C2F200031B7813F0040FF1
:1031100000F03A8240F68C13C2F200031B6813B130
:103120009D4240F0318272B64FF0020000F08CFAFE
:10313000284601F095F9484601F092F900F05AFB53
:1031400062B621E2BC422BD128464B49C847002831
:1031500040F00F8140F66013C2F200031B7813F0B9
:10316000040F00F0068140F68C13C2F200031B68C6
:1031700013B19D4240F0FD8072B64FF0020000F0A6
:1031800063FA284601F06CF9484601F069F900F04D
:1031900031FB62B6EDE014F0800F00F0B980E8E09A
:1031A0000396284645F2F441C0F20001B0470328D7
:1031B00002BF012445F2F448C0F2000801D02AE021
:1031C000344604F10106F6B22B6872B208A901EB8D
:1031D000820242F8183C99450BD176B2052EDADD11
:1031E00045F2E040C0F200004FF07A01FDF718F818
:1031F000D1E72846414698470328E1D0344676B2C5
:10320000052E0ADD45F2E040C0F200004FF08501D6
:10321000FDF706F801E04FF0010428461649C847BB
:10322000E8B940F66013C2F200031B7813F0040FF4
:1032300015D040F68C13C2F200031B680BB19D42FF
:103240000DD172B64FF0020000F0FEF9284601F0F1
:1032500007F9484601F004F900F0CCFA62B62346BB
:103260005AB208A901EB820252F8182C974205D1F4
:1032700003F1FF33DCB28EE7F854000003F1FF33B3
:10328000DBB213F0800FEBD0A74E40F66018C2F20D
:10329000000845F2F44AC0F2000A28463146B84711
:1032A000E8B998F8003013F0040F15D040F68C13ED
:1032B000C2F200031B680BB19D420DD172B64FF0F4
:1032C000020000F0C1F9284601F0CAF8384601F0C2
:1032D000C7F800F08FFA62B628465146B8472F6803
:1032E00023465AB208A901EB820252F8182CBA42BE
:1032F00003D103F1FF33DCB24DE703F1FF33DBB25F
:1033000013F0800FEDD04FF00102002AC5D142E743
:10331000864F40F66018C2F2000840F68C1AC2F2DE
:10332000000A63B208A901EB830353F8186C28461E
:103330003946B047B8B998F8003013F0020F12D0F0
:10334000DAF800300BB19D420DD172B64FF001009A
:1033500000F07AF9284601F083F8304601F080F851
:1033600000F048FA62B604F1FF34E4B214F0800FC2
:10337000D7D0029E2E6040F6601AC2F2000A40F6D4
:103380008C12C2F200020192DFF8A08173E09AF879
:10339000003013F0080F15D001990B680BB19D4256
:1033A00010D172B64FF0030000F04EF9284601F03C
:1033B00057F8304601F054F8286801F051F800F051
:1033C00019FA62B62C680294284645F2F441C0F21C
:1033D0000001A0472B68B34204BF2C60002421D019
:1033E0004FF0000445F2F447C0F2000704F1010475
:1033F000E4B262B208A901EB820242F8183C284606
:10340000394698472B68B342F0D1029B2B6063B2D8
:10341000052B07DD45F2E040C0F200004FF0D90176
:10342000FCF7FEFE63B208AA02EB830353F8186CA4
:1034300028464146B047B8B99AF8003013F0020F59
:1034400012D001990B680BB19D420DD172B64FF0AD
:10345000010000F0F9F8284601F002F8304600F0CB
:10346000FFFF00F0C7F962B604F1FF34E4B214F0D4
:10347000800FD7D0029E28462D49B047022886D01B
:10348000344640F66013C2F200031B7813F0400F7D
:1034900076D040F68C13C2F200031B680BB19D423C
:1034A0006ED172B64FF0060000F0CEF8FDF752F87C
:1034B00000F0D6FF9BF8000000F046FE284600F022
:1034C000CFFF484600F0CCFF204600F0C9FF00F0D7
:1034D00091F962B654E001282CD140F66013C2F293
:1034E000000393F90030002B4ADA40F68C13C2F245
:1034F00000031B680BB19D4242D172B64FF007002A
:1035000000F0A2F8FDF726F800F0AAFF9BF80000F3
:1035100000F01AFE284600F0A3FF304600F0A0FF9E
:1035200000F068F962B62BE0F8540000F654000091
:10353000FA54000040F66013C2F200031B7813F047
:10354000200F1DD040F68C13C2F200031B680BB194
:103550009D4215D172B64FF0050000F075F8FCF7EA
:10356000F9FF00F07DFF9BF8000000F0EDFD28461C
:1035700000F076FF484600F073FF00F03BF962B6BA
:103580002E6009B0BDE8F08F4FF00004C0E600BF28
:103590004FF00100704700BF45F2EC40C0F2000060
:1035A000704700BF45F2FC40C0F20000704700BF0A
:1035B00040F65813C2F2000318609980704700BFAC
:1035C000FF280ED140F65811C2F2000101F10703A5
:1035D00001F127014FF0FF0203F8012F8B42FBD1CD
:1035E000704740F65813C2F2000303EBD00300F01B
:1035F00007004FF0010202FA00F01A7A1043187225
:10360000704700BFFF280ED140F65811C2F20001EA
:1036100001F1070301F127014FF0000203F8012F28
:103620008B42FBD1704740F65813C2F2000303EB04
:10363000D00300F007004FF0010202FA00F01A7AFE
:1036400022EA00001872704710B440F65813C2F214
:10365000000393F8282002F10102D2B283F8282057
:1036600083F82920A2F17D03DBB2012B3CD840F680
:103670005813C2F200035A8D19684FF07D048C5420
:103680005A8D02F1010292B25A859B88934201BF82
:1036900040F65813C2F2000300225A8540F6581330
:1036A000C2F200039A8D02F101029A855A8D1968BF
:1036B00093F8284084F020048C545A8D02F10102C2
:1036C00092B25A859B88934201BF40F65813C2F2CA
:1036D000000300225A8540F65813C2F200039A8D67
:1036E00002F101029A851CE040F65813C2F2000371
:1036F000598D1C6862545A8D02F1010292B25A85AA
:103700009B88934201BF40F65813C2F20003002287
:103710005A8540F65813C2F200039A8D02F1010255
:103720009A8540F65813C2F2000393F829208218B4
:1037300083F82920A0F17D03DBB2012B3AD840F6B3
:103740005813C2F200035A8D19684FF07D048C544F
:103750005A8D02F1010292B25A859B88934201BFB1
:1037600040F65813C2F2000300225A8540F658135F
:10377000C2F200039A8D02F101029A855A8D1968EE
:1037800080F0200088545A8D02F1010292B25A85CD
:103790009B88934201BF40F65813C2F200030022F7
:1037A0005A8540F65813C2F200039A8D02F10102C5
:1037B0009A851CE040F65813C2F200035A8D19682E
:1037C00088545A8D02F1010292B25A859B88934225
:1037D00001BF40F65813C2F2000300225A8540F69A
:1037E0005813C2F200039A8D02F101029A8510BCAF
:1037F000704700BF40F65813C2F2000393F8292027
:103800006FEA0202D2B283F82920A2F17D03DBB273
:10381000012B3CD840F65813C2F200035A8D1968A8
:103820004FF07D0088545A8D02F1010292B25A8500
:103830009B88934201BF40F65813C2F20003002157
:10384000598540F65813C2F200039A8D02F1010225
:103850009A855A8D196893F8290080F020008854C1
:103860005A8D02F1010292B25A859B88934201BFA0
:1038700040F65813C2F2000300225A8540F658134E
:10388000C2F200039A8D02F101029A851CE040F613
:103890005813C2F20003598D186842545A8D02F130
:1038A000010292B25A859B88934201BF40F6581399
:1038B000C2F200030021598540F65813C2F20003FA
:1038C0009A8D02F101029A8540F65813C2F2000364
:1038D0005A8D19684FF07E008854598D01F101010D
:1038E00089B259859A88914201BF40F65813C2F2B5
:1038F00000030021598540F65813C2F20003998D48
:1039000001F1010189B299858A423FBF40F65813FF
:10391000C2F20003598DD98538BF9A85704700BF20
:1039200030B440F65813C2F2000393F829208218ED
:1039300083F82920A0F17D03DBB2012B3AD840F6B1
:103940005813C2F200035A8D1C684FF07D05A55430
:103950005A8D02F1010292B25A859B88934201BFAF
:1039600040F65813C2F2000300225A8540F658135D
:10397000C2F200039A8D02F101029A855A8D1C68E9
:1039800080F02000A0545A8D02F1010292B25A85B3
:103990009B88934201BF40F65813C2F200030022F5
:1039A0005A8540F65813C2F200039A8D02F10102C3
:1039B0009A851CE040F65813C2F200035A8D1C6829
:1039C000A0545A8D02F1010292B25A859B8893420B
:1039D00001BF40F65813C2F2000300225A8540F698
:1039E0005813C2F200039A8D02F101029A8540F643
:1039F0005813C2F2000393F829208A1883F829206B
:103A0000A1F17D03DBB2012B3AD840F65813C2F284
:103A100000035A8D18684FF07D0484545A8D02F1CA
:103A2000010292B25A859B88934201BF40F6581317
:103A3000C2F2000300225A8540F65813C2F2000376
:103A40009A8D02F101029A855A8D186881F0200141
:103A500081545A8D02F1010292B25A859B88934299
:103A600001BF40F65813C2F2000300225A8540F607
:103A70005813C2F200039A8D02F101029A851CE0EC
:103A800040F65813C2F200035A8D186881545A8DBB
:103A900002F1010292B25A859B88934201BF40F61F
:103AA0005813C2F2000300225A8540F65813C2F29E
:103AB00000039A8D02F101029A8530BC704700BF65
:103AC00030B440F65813C2F2000393F8292082184C
:103AD00083F82920A0F17D03DBB2012B3AD840F610
:103AE0005813C2F200035A8D1C684FF07D05A5548F
:103AF0005A8D02F1010292B25A859B88934201BF0E
:103B000040F65813C2F2000300225A8540F65813BB
:103B1000C2F200039A8D02F101029A855A8D1C6847
:103B200080F02000A0545A8D02F1010292B25A8511
:103B30009B88934201BF40F65813C2F20003002055
:103B4000588540F65813C2F200039A8D02F1010223
:103B50009A851CE040F65813C2F200035A8D1C6887
:103B6000A0545A8D02F1010292B25A859B88934269
:103B700001BF40F65813C2F2000300225A8540F6F6
:103B80005813C2F200039A8D02F101029A85CAB25B
:103B900040F65813C2F2000393F82900101883F876
:103BA0002900A2F17D03DBB2012B3AD840F658136D
:103BB000C2F20003588D1C684FF07D052554588DC6
:103BC00000F1010080B258859B88834201BF40F616
:103BD0005813C2F200030020588540F65813C2F271
:103BE0000003988D00F101009885588D1C6882F0C3
:103BF000200222545A8D02F1010292B25A859B880A
:103C0000934201BF40F65813C2F2000300225A85C6
:103C100040F65813C2F200039A8D02F101029A8510
:103C20001CE040F65813C2F20003588D1C68225461
:103C30005A8D02F1010292B25A859B88934201BFCC
:103C400040F65813C2F200030020588540F658137E
:103C5000C2F200039A8D02F101029A854FEA112106
:103C6000CAB240F65813C2F2000393F829001018A4
:103C700083F82900A2F17D03DBB2012B3AD840F68C
:103C80005813C2F20003598D18684FF07D04445454
:103C9000598D01F1010189B259859B888B4201BF81
:103CA00040F65813C2F200030021598540F658131C
:103CB000C2F20003998D01F101019985598D1868AF
:103CC00082F0200242545A8D02F1010292B25A85CA
:103CD0009B88934201BF40F65813C2F200030022B2
:103CE0005A8540F65813C2F200039A8D02F1010280
:103CF0009A851CE040F65813C2F200035A8D1868EA
:103D000081545A8D02F1010292B25A859B889342E6
:103D100001BF40F65813C2F200030020588540F658
:103D20005813C2F200039A8D02F101029A8530BC49
:103D3000704700BF30B440F65813C2F2000393F846
:103D40002920821883F82920A0F17D03DBB2012B02
:103D50003AD840F65813C2F200035A8D1C684FF04F
:103D60007D05A5545A8D02F1010292B25A859B88B5
:103D7000934201BF40F65813C2F2000300225A8555
:103D800040F65813C2F200039A8D02F101029A859F
:103D90005A8D1C6880F02000A0545A8D02F1010257
:103DA00092B25A859B88934201BF40F65813C2F2E3
:103DB00000030020588540F65813C2F200039A8D84
:103DC00002F101029A851CE040F65813C2F200038A
:103DD0005A8D1C68A0545A8D02F1010292B25A8584
:103DE0009B88934201BF40F65813C2F200030022A1
:103DF0005A8540F65813C2F200039A8D02F101026F
:103E00009A85CAB240F65813C2F2000393F829000B
:103E1000101883F82900A2F17D03DBB2012B3AD8F8
:103E200040F65813C2F20003588D1C684FF07D0510
:103E30002554588D00F1010080B258859B8883423B
:103E400001BF40F65813C2F200030020588540F627
:103E50005813C2F20003988D00F101009885588D27
:103E60001C6882F0200222545A8D02F1010292B2A3
:103E70005A859B88934201BF40F65813C2F2000353
:103E800000225A8540F65813C2F200039A8D02F1BF
:103E900001029A851CE040F65813C2F20003588DC7
:103EA0001C6822545A8D02F1010292B25A859B88F5
:103EB000934201BF40F65813C2F200030020588518
:103EC00040F65813C2F200039A8D02F101029A855E
:103ED0004FEA1121CAB240F65813C2F2000393F818
:103EE0002900101883F82900A2F17D03DBB2012B11
:103EF0003AD840F65813C2F20003588D1C684FF0B0
:103F00007D052554588D00F1010080B258859B88AD
:103F1000834201BF40F65813C2F2000300205885C7
:103F200040F65813C2F20003988D00F10100988505
:103F3000588D1C6882F0200222545A8D02F1010231
:103F400092B25A859B88934201BF40F65813C2F241
:103F5000000300225A8540F65813C2F200039A8DDE
:103F600002F101029A851CE040F65813C2F20003E8
:103F7000588D1C6822545A8D02F1010292B25A8562
:103F80009B88934201BF40F65813C2F20003002001
:103F9000588540F65813C2F200039A8D02F10102CF
:103FA0009A854FEA1121CAB240F65813C2F20003B3
:103FB00093F82900101883F82900A2F17D03DBB2E1
:103FC000012B3AD840F65813C2F20003588D1C68F2
:103FD0004FF07D052554588D00F1010080B25885C1
:103FE0009B88834201BF40F65813C2F200030020B1
:103FF000588540F65813C2F20003988D00F1010075
:104000009885588D1C6882F0200222545A8D02F146
:10401000010292B25A859B88934201BF40F6581321
:10402000C2F2000300225A8540F65813C2F2000380
:104030009A8D02F101029A851CE040F65813C2F2F3
:104040000003588D1C6822545A8D02F1010292B26D
:104050005A859B88934201BF40F65813C2F2000371
:104060000020588540F65813C2F200039A8D02F1E1
:1040700001029A854FEA112140F65813C2F200035B
:1040800093F829208A1883F82920A1F17D03DBB257
:10409000012B3AD840F65813C2F200035A8D186823
:1040A0004FF07D0484545A8D02F1010292B25A8578
:1040B0009B88934201BF40F65813C2F200030022CE
:1040C0005A8540F65813C2F200039A8D02F101029C
:1040D0009A855A8D186881F0200181545A8D02F119
:1040E000010292B25A859B88934201BF40F6581351
:1040F000C2F200030020588540F65813C2F20003B4
:104100009A8D02F101029A851CE040F65813C2F222
:1041100000035A8D186881545A8D02F1010292B23F
:104120005A859B88934201BF40F65813C2F20003A0
:1041300000225A8540F65813C2F200039A8D02F10C
:1041400001029A8530BC704710B440F68113C2F268
:1041500000031A7882181A70A0F17D03DBB2012BDC
:104160004ED840F68213C2F20003198840F6581266
:10417000C2F2000212684FF07D0454541A8802F112
:10418000010292B21A8040F65C13C2F200031B884F
:10419000934201BF40F68213C2F2000300221A804C
:1041A00040F68413C2F200031A8802F101021A8059
:1041B00040F68213C2F20003198840F65812C2F288
:1041C0000002126880F0200050541A8802F10102A7
:1041D00092B21A8040F65C13C2F200031B8893422D
:1041E00001BF40F68213C2F2000300221A8040F69B
:1041F0008413C2F200031A8802F101021A8024E03B
:1042000040F68213C2F20003198840F65812C2F237
:104210000002126850541A8802F1010292B21A8008
:1042200040F65C13C2F200031B88934201BF40F6C4
:104230008213C2F2000300221A8040F68413C2F2F5
:1042400000031A8802F101021A8010BC704700BFF7
:1042500030B4C2B240F68113C2F20003197851188B
:104260001970A2F17D03DBB2012B4ED840F6821308
:10427000C2F200031C8840F65811C2F2000109681E
:104280004FF07D050D55198801F1010189B21980A2
:1042900040F65C13C2F200031B888B4201BF40F65C
:1042A0008213C2F200030021198040F68413C2F287
:1042B0000003198801F10101198040F68213C2F24E
:1042C00000031C8840F65811C2F20001096882F010
:1042D00020020A551A8802F1010292B21A8040F6B1
:1042E0005C13C2F200031B88934201BF40F68213A5
:1042F000C2F2000300221A8040F68413C2F20003C7
:104300001A8802F101021A8024E040F68213C2F2F8
:1043100000031C8840F65811C2F2000109680A55D2
:104320001A8802F1010292B21A8040F65C13C2F2BE
:1043300000031B88934201BF40F68213C2F20003C0
:104340000021198040F68413C2F200031A8802F19A
:1043500001021A804FEA1020C2B240F68113C2F265
:104360000003197851181970A2F17D03DBB2012BFB
:104370004ED840F68213C2F20003188840F6581156
:10438000C2F2000109684FF07D040C54198801F154
:10439000010189B2198040F65C13C2F200031B8848
:1043A0008B4201BF40F68213C2F200030021198044
:1043B00040F68413C2F20003198801F1010119804B
:1043C00040F68213C2F20003188840F65811C2F278
:1043D0000001096882F020020A541A8802F10102E1
:1043E00092B21A8040F65C13C2F200031B8893421B
:1043F00001BF40F68213C2F2000300221A8040F689
:104400008413C2F200031A8802F101021A8024E028
:1044100040F68213C2F20003198840F65812C2F225
:104420000002126850541A8802F1010292B21A80F6
:1044300040F65C13C2F200031B88934201BF40F6B2
:104440008213C2F200030021198040F68413C2F2E5
:1044500000031A8802F101021A8030BC704700BFC5
:1044600030B4C2B240F68113C2F200031978511879
:104470001970A2F17D03DBB2012B4ED840F68213F6
:10448000C2F200031C8840F65811C2F2000109680C
:104490004FF07D050D55198801F1010189B2198090
:1044A00040F65C13C2F200031B888B4201BF40F64A
:1044B0008213C2F200030021198040F68413C2F275
:1044C0000003198801F10101198040F68213C2F23C
:1044D00000031C8840F65811C2F20001096882F0FE
:1044E00020020A551A8802F1010292B21A8040F69F
:1044F0005C13C2F200031B88934201BF40F6821393
:10450000C2F2000300221A8040F68413C2F20003B4
:104510001A8802F101021A8024E040F68213C2F2E6
:1045200000031C8840F65811C2F2000109680A55C0
:104530001A8802F1010292B21A8040F65C13C2F2AC
:1045400000031B88934201BF40F68213C2F20003AE
:104550000021198040F68413C2F200031A8802F188
:1045600001021A804FEA1020C2B240F68113C2F253
:104570000003197851181970A2F17D03DBB2012BE9
:104580004ED840F68213C2F200031C8840F6581140
:10459000C2F2000109684FF07D050D55198801F13F
:1045A000010189B2198040F65C13C2F200031B8836
:1045B0008B4201BF40F68213C2F200030021198032
:1045C00040F68413C2F20003198801F10101198039
:1045D00040F68213C2F200031C8840F65811C2F262
:1045E0000001096882F020020A551A8802F10102CE
:1045F00092B21A8040F65C13C2F200031B88934209
:1046000001BF40F68213C2F2000300221A8040F676
:104610008413C2F200031A8802F101021A8024E016
:1046200040F68213C2F200031C8840F65811C2F211
:10463000000109680A551A8802F1010292B21A8033
:1046400040F65C13C2F200031B88934201BF40F6A0
:104650008213C2F200030021198040F68413C2F2D3
:1046600000031A8802F101021A804FEA1020C2B238
:1046700040F68113C2F20003197851181970A2F1A3
:104680007D03DBB2012B4ED840F68213C2F2000349
:104690001C8840F65811C2F2000109684FF07D05F0
:1046A0000D55198801F1010189B2198040F65C139A
:1046B000C2F200031B888B4201BF40F68213C2F294
:1046C00000030021198040F68413C2F20003198808
:1046D00001F10101198040F68213C2F200031C8827
:1046E00040F65811C2F20001096882F020020A5512
:1046F0001A8802F1010292B21A8040F65C13C2F2EB
:1047000000031B88934201BF40F68213C2F20003EC
:1047100000221A8040F68413C2F200031A8802F1C4
:1047200001021A8024E040F68213C2F200031C88C2
:1047300040F65811C2F2000109680A551A8802F1C0
:10474000010292B21A8040F65C13C2F200031B8889
:10475000934201BF40F68213C2F200030021198088
:1047600040F68413C2F200031A8802F101021A8093
:104770004FEA102040F68113C2F200031A78821823
:104780001A70A0F17D03DBB2012B4ED840F68213E4
:10479000C2F20003198840F65812C2F200021268F1
:1047A0004FF07D0454541A8802F1010292B21A802B
:1047B00040F65C13C2F200031B88934201BF40F62F
:1047C0008213C2F2000300221A8040F68413C2F260
:1047D00000031A8802F101021A8040F68213C2F225
:1047E0000003198840F65812C2F20002126880F0E5
:1047F000200050541A8802F1010292B21A8040F649
:104800005C13C2F200031B88934201BF40F682137F
:10481000C2F200030021198040F68413C2F20003A3
:104820001A8802F101021A8024E040F68213C2F2D3
:104830000003198840F65812C2F200021268505460
:104840001A8802F1010292B21A8040F65C13C2F299
:1048500000031B88934201BF40F68213C2F200039B
:1048600000221A8040F68413C2F200031A8802F173
:1048700001021A8030BC70472DE9F0030278002A4B
:1048800034D040F68114C2F2000440F68213C2F222
:10489000000340F65817C2F2000740F65C16C2F259
:1048A00000064FF0000C40F68411C2F2000125789A
:1048B0005219227005461A88D7F8008090F80090A7
:1048C00008F802901A8802F1010292B21A80B6F832
:1048D0000080904508BFA3F800C00A8802F10102D9
:1048E0000A80427800F10100002AE0D140F68213EC
:1048F000C2F20003198840F65812C2F20002126890
:104900004FF0000050541A8802F1010292B21A804E
:1049100040F65C13C2F200031B88934201BF40F6CD
:104920008213C2F2000300221A8040F68413C2F2FE
:1049300000031A8802F101021A80BDE8F0037047F3
:104940002DE9F00103787BB340F68114C2F2000434
:1049500040F68212C2F2000240F65817C2F2000777
:1049600040F65C16C2F200064FF0000C40F68411CF
:10497000C2F2000125785D1925701588D7F80080EE
:1049800008F80530138803F101039BB213803588C2
:104990009D4208BFA2F800C00B8803F101030B8001
:1049A00010F8013F002BE5D140F68213C2F200035C
:1049B000198840F65812C2F2000212684FF0000047
:1049C00050541A8802F1010292B21A8040F65C1328
:1049D000C2F200031B88934201BF40F68213C2F269
:1049E000000300221A8040F68413C2F200031A88E2
:1049F00002F101021A80BDE8F001704730B440F6C0
:104A00008413C2F20003198811B9018008462DE011
:104A100040F65C12C2F2000240F68613C2F20003B6
:104A200015881C882C1BA4B28C4228BF0C46058814
:104A3000AC4228BF2C46048040F68411C2F200012B
:104A40000888001B088019886418A4B21C80138889
:104A5000A34201BF40F68613C2F2000300221A806F
:104A600040F65813C2F200031868401830BC704773
:104A70002DE9F00140F68213C2F20003198840F6D6
:104A80005812C2F2000212684FF0080454541A88F7
:104A900002F1010292B21A8040F65C13C2F20003E6
:104AA0001B88934201BF40F68213C2F2000300222A
:104AB0001A8040F68413C2F200031A8802F1010240
:104AC0001A8040F68113C2F200031A7802F108023C
:104AD0001A70027882B340F68213C2F2000340F6E5
:104AE0005817C2F2000740F65C16C2F200064FF0FB
:104AF000000C40F68414C2F2000440F68111C2F2A8
:104B000000011D88D7F8008008F805201A8802F1F6
:104B1000010292B21A803588954208BFA3F800C0FE
:104B2000228802F1010222800D780278AA180A7008
:104B300010F8012F002AE4D140F68213C2F20003DC
:104B4000198840F65812C2F2000212684FF00000B5
:104B500050541A8802F1010292B21A8040F65C1396
:104B6000C2F200031B88934201BF40F68213C2F2D7
:104B7000000300221A8040F68413C2F200031A8850
:104B800002F101021A80BDE8F00170472DE9F00141
:104B900040F68213C2F20003198840F65812C2F29E
:104BA000000212684FF0080454541A8802F10102FE
:104BB00092B21A8040F65C13C2F200031B88934243
:104BC00001BF40F68213C2F2000300221A8040F6B1
:104BD0008413C2F200031A8802F101021A8040F61F
:104BE0008113C2F200031A7802F108021A700378E6
:104BF00083B340F68212C2F2000240F65817C2F2A6
:104C0000000740F65C16C2F200064FF0000C40F6BA
:104C10008415C2F2000540F68114C2F20004118826
:104C2000D7F8008008F80130118801F1010189B23C
:104C30001180B6F80080884508BFA2F800C0298816
:104C400001F10101298021785B18237010F8013FE0
:104C5000002BE4D140F68213C2F20003198840F61B
:104C60005812C2F2000212684FF0000050541A8825
:104C700002F1010292B21A8040F65C13C2F2000304
:104C80001B88934201BF40F68213C2F20003002248
:104C90001A8040F68413C2F200031A8802F101025E
:104CA0001A80BDE8F001704770B500240C4D0D4E20
:104CB000761BB61003E055F8043B01349847B44224
:104CC000F9D3094DFCF74CFF084E0024761BB610B3
:104CD00003E055F8043B01349847B442F9D370BD62
:104CE00060550000605500006055000060550000F0
:104CF000EFF3108072B606498A68FF231B041A433B
:104D00008A604A681B021A434A6080F31088704721
:104D100018ED00E072B608480078002805D001219F
:104D20000906064803B486B0704762B67047FDF7BF
:104D3000ABF962B600DF0000F40700202E4D000042
:104D400008B070476273702E63000000B08004806A
:104D500010400000B080048012400000B180048048
:104D600010400000B18004801240000000000000EC
:104D70000000004F00000007000700147F147F149C
:104D8000242A7F2A122313086462364955225000D0
:104D900005030000001C2241000041221C001408F1
:104DA0003E081408083E08080050300000080808B3
:104DB0000808006060000020100804023E514945C8
:104DC0003E00427F400042615149462141454B31FE
:104DD0001814127F1027454545393C4A494930018E
:104DE000710905033649494936064949291E0036E5
:104DF0003600000056360000081422410014141436
:104E00001414004122140802015109063249794163
:104E10003E7E1111117E7F494949363E4141412272
:104E20007F4141221C7F494949417F090909013ECF
:104E30004149497A7F0808087F00417F41002040AE
:104E4000413F017F081422417F404040407F020CD7
:104E5000027F7F0408107F3E4141413E7F090909DE
:104E6000063E4151215E7F0919294646494949318B
:104E700001017F01013F4040403F1F2040201F3F74
:104E80004038403F631408146307087008076151F5
:104E9000494543007F414100020408102000414180
:104EA0007F0004020102044040404040000102042F
:104EB0000020545454787F484444383844444420B3
:104EC000384444487F3854545418087E0901020C71
:104ED0005252523E7F0804047800447D4000204036
:104EE000443D007F1028440000417F40007C0418AE
:104EF00004787C0804047838444444387C1414143E
:104F000008081414187C7C080404084854545420DD
:104F1000043F4440203C4040207C1C2040201C3C5E
:104F20004030403C44281028440C5050503C4464CD
:104F3000544C44000836410000007F000000413618
:104F400008000201020402000480AE80E30680AD86
:104F5000808A80E30680A8801F80E30480C880E305
:104F60000480A080E30480D880E304800580E3040B
:104F7000804080E3068081805D80E30680D98011D7
:104F800080E30680D5800180E30680D3800080E343
:104F90000480AF80E30000000480AE80E30480045E
:104FA00080E304801280E3068081802B80E304800C
:104FB000A180E304804080E30680D3800080E30684
:104FC00080A8800F80E30480A480E30480A680E3AF
:104FD0000480B080E30480C880E30680D5807280BE
:104FE000E30680D8800080E30680D9802280E30633
:104FF00080DA801280E30680DB800F80E30680ADDC
:10500000808B80E30480AF80E30000006C5F736DF1
:105010006C506F6F6C53746F000000006C5F7461B4
:10502000626C65517565756553746F006C5F70686F
:10503000696C6F517565756553746F5B305D000009
:105040006C5F7068696C6F517565756553746F5BE3
:10505000315D00006C5F7068696C6F5175657565D6
:1050600053746F5B325D00006C5F7068696C6F51E8
:105070007565756553746F5B335D00006C5F7068B8
:10508000696C6F517565756553746F5B345D0000B5
:10509000266C5F7068696C6F5B305D00266C5F70BA
:1050A00068696C6F5B305D2E74696D654576740060
:1050B000266C5F7068696C6F5B315D00266C5F7099
:1050C00068696C6F5B315D2E74696D65457674003F
:1050D000266C5F7068696C6F5B325D00266C5F7078
:1050E00068696C6F5B325D2E74696D65457674001E
:1050F000266C5F7068696C6F5B335D00266C5F7057
:1051000068696C6F5B335D2E74696D6545767400FC
:10511000266C5F7068696C6F5B345D00266C5F7035
:1051200068696C6F5B345D2E74696D6545767400DB
:10513000265068696C6F5F696E697469616C000004
:10514000265068696C6F5F7468696E6B696E670082
:10515000265068696C6F5F68756E67727900000031
:10516000265068696C6F5F656174696E6700000046
:1051700048554E4752595F534947000054494D45E1
:105180004F55545F534947007068696C6F2E630038
:10519000F00600201C0700204807002074070020AC
:1051A000A0070020266C5F7461626C65000000003F
:1051B000265148736D5F746F700000002654616261
:1051C0006C655F696E697469616C00002654616288
:1051D0006C655F73657276696E670000444F4E457B
:1051E0005F534947000000004541545F5349470061
:1051F0005445524D494E4154455F534947000000C4
:1052000048554E4752595F53494700007461626CDC
:10521000652E6300CC07002040420F0000201C00D8
:1052200080841E0000802500999E360000403800D2
:1052300000093D0000803E0000004B00404B4C0048
:1052400000204E00808D5B0000C05D00008070007B
:1052500000127A0000007D0080969800001BB700C5
:105260000080BB00C0E8CE00647ADA000024F400BD
:105270000000FA00342E312E30370000716B000030
:10528000716B5F73636865640000000071615F6645
:1052900069666F0071615F6765745F0071615F735C
:1052A00075620000342E312E3037000071665F6168
:1052B0006374000071665F67630000000001020212
:1052C000030303030404040404040404050505059E
:1052D000050505050505050505050505060606067A
:1052E000060606060606060606060606060606065E
:1052F000060606060606060606060606070707074A
:10530000070707070707070707070707070707072D
:10531000070707070707070707070707070707071D
:10532000070707070707070707070707070707070D
:1053300007070707070707070707070708080808F9
:1053400008080808080808080808080808080808DD
:1053500008080808080808080808080808080808CD
:1053600008080808080808080808080808080808BD
:1053700008080808080808080808080808080808AD
:10538000080808080808080808080808080808089D
:10539000080808080808080808080808080808088D
:1053A000080808080808080808080808080808087D
:1053B00008080808080808080808080871665F6EE9
:1053C0006577000071665F706F6F6C0071665F706B
:1053D0007370756200000000000102040810204094
:1053E00080010204081020408001020408102040BF
:1053F00080010204081020408001020408102040AF
:10540000800102040810204080010204081020409E
:10541000800102040810204080000000FFFEFDFB18
:10542000F7EFDFBF7FFEFDFBF7EFDFBF7FFEFDFB8A
:10543000F7EFDFBF7FFEFDFBF7EFDFBF7FFEFDFB7A
:10544000F7EFDFBF7FFEFDFBF7EFDFBF7FFEFDFB6A
:10545000F7EFDFBF7FFEFDFBF7EFDFBF7F00000050
:105460000000000000000000000101010101010135
:105470000102020202020202020303030303030306
:1054800003040404040404040405050505050505D6
:1054900005060606060606060607070707070707A6
:1054A00007000000716D705F67657400716D705F5B
:1054B000696E697400000000716D705F7075740032
:1054C0007174655F63746F72000000007174655FD2
:1054D00061726D007168736D5F696E690000000034
:1054E0007168736D5F64697300000000342E312EA3
:1054F000303700000000010002000300342E312E7E
:105500003037000044696E696E67205068696C6FBF
:105510007300000030202C31202C32202C33202C22
:105520003400000068756E6772792020000000006A
:10553000656174696E672020000000007468696E00
:105540006B696E6700000000737461727475705F40
:1055500073746D3332663130785F636C0000000025
:045560004000000007
:0400000300001AD50A
:00000001FF
