:10000000BC0D00202535000009350000000000006F
:1000100009350000093500000935000009350000E8
:1000200009350000093500000935000009350000D8
:10003000093500000935000009350000F100000015
:1000400009350000093500000935000009350000B8
:1000500009350000093500000935000009350000A8
:100060000935000009350000093500000935000098
:100070000935000009350000093500000935000088
:10008000093500009502000009350000093500001F
:100090000935000009350000093500000935000068
:1000A0000935000009350000093500000935000058
:1000B0000935000009350000093500000935000048
:1000C0000935000009350000093500000935000038
:1000D0000935000009350000093500000935000028
:1000E0000935000009350000093500000935000018
:1000F000684620F007018D4601B54EF21003CEF29E
:1001000000031B6840F20003C2F2000359681A683A
:100110008A181A6003F002FF46F6BC00C0F2000025
:1001200003F084FEBDE801408546704700B583B00A
:100130000B464FEAD20200924FF000010A4600F04F
:100140009DFC03B000BD00BF10B504460B46104631
:1001500021461A4600F018FC10BD00BF704700BFD2
:1001600008B500F0C5FD08BD08B500F009FE08BDE2
:1001700040F6B013C2F200031A6848F68903C8F6C5
:100180008803A3FB02134FEA1313B3F1807F16D247
:1001900023F07F4303F1FF324EF21003CEF200034F
:1001A0005A604FF46D42CEF200024FF0E00182F847
:1001B00023104FF000029A604FF007021A604FF4CC
:1001C0006D43CEF200034FF0400283F823204FF43A
:1001D0006143CEF200034FF0200283F811234FF069
:1001E000000283F800234FF400321A604FF001023E
:1001F0001A604FF40043C4F203034FF00802DA60C0
:100200009A6842F008029A604FF48053C4F20303E4
:10021000DA6842F00112DA60704700BF704700BF31
:1002200000B583B04FF4C043C4F200034FF0200286
:10023000C3F880204FF00002C3F8802062B64FF46C
:100240004043C4F200039B6913F0800F1ED002A844
:100250004FF0100320F8023D72B606F075F862B652
:10026000BDF8063003F1FF32ADF8062073B14FF44C
:100270004041C4F2000110F8013B0B60BDF80630AC
:1002800003F1FF32ADF80620002BF4D103B000BD1E
:1002900072B6FEE7684620F007018D4619B54FF4A7
:1002A0000043C4F203034FF00802DA60D3F8AC3025
:1002B00013F4807F04D048484FF05C01FFF7E8FF5B
:1002C0004FF40043C4F20303D3F8A84040F2000304
:1002D000C2F200039A6804F10404A41A02EBE404D5
:1002E0009C60A4EBC4044FEA440404F560544FEA54
:1002F0009424DB689C4216D04FF004004FF00901B3
:1003000003F0EAFC01464FF00A038370C47046F61E
:100310005473C0F20003186803F086FB40F2000338
:10032000C2F20003DC604FF4C043C4F200031A6C55
:1003300040F20003C2F200031B7C032B47D8DFE826
:1003400003F00211202F40F20003C2F200035B69A8
:100350009A423CD040F20003C2F200034FF0010287
:100360001A7434E040F20003C2F200035B699A425F
:1003700040F20003C2F2000314BF022200221A74EA
:1003800025E040F20003C2F200035B699A4240F2AA
:100390000003C2F2000314BF032200221A7416E005
:1003A00040F20003C2F200035B699A4208D040F2B7
:1003B0000003C2F200035A6112B9084803F036FD87
:1003C00040F20003C2F200034FF000021A74BDE8CD
:1003D00019408546704700BFC0680000C86800002B
:1003E00008B5FFF755FF08BD10B540F20004C2F292
:1003F000000404F118004FF4C06104F07FFD4FF4D5
:100400006043C4F20F03D3F8042142F00102C3F8A1
:100410000421D3F8082142F00102C3F8082100BFEB
:1004200000BF00BF4FF4804363F31F43D3F80024A1
:1004300022F003024FF4804363F31F43C3F8002408
:100440004FF4804363F31F43D3F8202442F00302A8
:100450004FF4804363F31F43C3F820244FF48043D9
:1004600063F31F43D3F8002542F003024FF48043A7
:1004700063F31F43C3F800254FF4804363F31F4326
:10048000D3F8182522F003024FF4804363F31F438F
:10049000C3F818254FF4804363F31F43D3F80C25AA
:1004A00022F003024FF4804363F31F43C3F80C258B
:1004B0004FF4804363F31F43D3F8102522F0030267
:1004C0004FF4804363F31F43C3F810254FF4804378
:1004D00063F31F43D3F8142522F003024FF4804343
:1004E00063F31F43C3F814254FF4804363F31F43A2
:1004F000D3F81C2542F003024FF4804363F31F43FB
:10050000C3F81C2540F6B013C2F2000319684FEA85
:10051000C1024BF2C533C9F2A213A3FB02024FEA98
:10052000124202F101024FEAD2104FF44043C4F2EA
:1005300000035862C2F345029A624FF06002DA6229
:10054000DA6A42F01002DA621A6B42F4407242F048
:1005500001021A6348F68903C8F68803A3FB012346
:100560004FEA1313636023604FF0FF0004F0CEFCEA
:100570004FF00A0004F0ECFC4FF00B0004F0E8FC34
:100580004FF00C0004F0E4FC4FF00D0004F0E0FC30
:100590004FF00E0004F0DCFC4FF00F0004F0D8FC2C
:1005A0004FF0100004F0D4FC4FF0110004F0D0FC28
:1005B0004FF0120004F0CCFC4FF0130004F0C8FC24
:1005C0004FF0140004F0C4FC4FF0150004F0C0FC20
:1005D0004FF0160004F0BCFC4FF0170004F0B8FC1C
:1005E0004FF0180004F0B4FC4FF0190004F0B0FC18
:1005F0004FF01A0004F0ACFC4FF01C0004F0A8FC13
:100600004FF01D0004F0A4FC4FF01E0004F0A0FC0D
:100610004FF0200004F09CFC4FF0210004F098FC07
:100620004FF0220004F094FC4FF0230004F090FC03
:100630004FF0240004F08CFC4FF0250004F088FCFF
:100640004FF0270004F084FC4FF0280004F080FCF9
:100650004FF0290004F07CFC4FF02A0004F078FCF5
:100660004FF0010010BD00BF10B502F0F5FF4FF4D0
:100670006043C4F20F03D3F8002142F48032C3F880
:100680000021D3F8042142F44032C3F80421D3F806
:10069000082142F00502C3F8082100BF00BF00BFD7
:1006A0004FF40043C4F203035A6922F4704242F447
:1006B000A0425A611A6A22F470421A62D3F8A0204A
:1006C00022F06F0242F06002C3F8A020D3F8A42009
:1006D00022F00F0242F00602C3F8A4201A6842F08A
:1006E00008021A604FF48053C4F20303DA6822F060
:1006F0000112DA604FF000041C604FF002025A60F1
:1007000040F6B012C2F20002116848F68902C8F63B
:100710008802A2FB01024FEA92129A62DA6842F062
:100720000202DA60DA6842F02002DA604FF4C04375
:10073000C4F20003D3F8002442F02002C3F80024DE
:10074000D3F81C2542F02002C3F81C25C3F88040D2
:10075000D3F8002422F01002C3F80024D3F81C259B
:1007600042F01002C3F81C254FF0010000F0C8F958
:100770002046FFF739FE20B902484FF0C301FFF7CA
:1007800087FD10BDC0680000704700BF4EF2100327
:10079000CEF200031B6813F4807F4EF21003CEF2FA
:1007A00000039A6840F20003C2F2000307BF186812
:1007B000C2EB000058681B681CBFC018C2EB0000E9
:1007C000704700BF30B583B002AD4FF0100325F87D
:1007D000023D72B64FF44044C4F200041BE062B61E
:1007E000A26912F0800FFBD0BDF8062002F1FF31A4
:1007F000ADF8061052B113F8012B2260BDF80620A7
:1008000002F1FF31ADF80610002AF4D14FF01003C9
:10081000ADF8063072B6284605F096FD034600286E
:10082000DDD162B603B030BD4FF00003C4F2020365
:100830004FF07A021A6098604FF003025A607047D6
:100840000138FDD17047704710B504464FF00002E3
:10085000C4F202025369002BFCD040F21863C2F2CA
:1008600000031868FFF7ECFF4FF00003C4F2020327
:100870009C604FF001025A6010BD00BF38B50546BC
:100880004FF00002C4F202025369002BFCD040F288
:100890001863C2F200031C682046FFF7D1FF4FF037
:1008A0000003C4F202039D604FF005025A604FF04E
:1008B0000002C4F202025369002BFCD02046FFF76D
:1008C000BFFF38BD2DE9F0410D46B9B106464FF0E6
:1008D0000004C4F2020440F21867C2F200074FF0AD
:1008E00001086369002BFCD03868FFF7A9FF16F8F0
:1008F000013BA360C4F80480013DF2D1BDE8F08162
:1009000070B54FF08000FFF78FFF40F21863C2F21E
:1009100000031E7946F6CC03C0F20003002E03F15B
:10092000080018BF18464FF00601FFF7CBFF4FF045
:100930005F044FF000052846FFF786FF013CFAD11F
:100940004FF00000FFF79AFF4FF08000FFF76CFFB9
:10095000002E0C4B03F1080018BF18464FF006019B
:10096000FFF7B0FF4FF0000425462846FFF76CFF65
:1009700004F101045F2CF8D14FF00000FFF77EFF77
:1009800070BD00BFDC6800002DE9F84306460C4648
:1009900015464FF08000FFF747FF002D14BFB12030
:1009A000B020FFF751FF4FF08000FFF74DFF40F2FE
:1009B0001863C2F200035D79281900F00F00FFF7F9
:1009C00043FF4FF08000FFF73FFF6519C5F30310A9
:1009D00040F01000FFF738FF4FF04000FFF734FF02
:1009E0003378002B3DD1BDE8F88304F106045A2C7E
:1009F0001CD803EB8303A3F1A00038184146FFF78E
:100A000061FF5A2C03D02E4615F8013B2BB94FF04D
:100A10000000FFF733FFBDE8F8834846FFF714FFF7
:100A200015F8013C002BE0D1BDE8F883C4F15F0567
:100A300046F6CC04C0F2000403EB8303E018A0F1F7
:100A400080002946FFF73EFF3378A3F1200303EB34
:100A50008303E418651995F82000FFF70FFFBDE840
:100A6000F8835A2CE2D806F10105034F4FF0050830
:100A70004FF00009BDE700BFEC6800002DE9F84F1A
:100A80000446154698460A9F40F21863C2F20003D6
:100A900093F805A08A4487B3CAF3031949F01009F3
:100AA0004FF080060AF00F0A08F1FF3B3046FFF7CF
:100AB000BBFE002D14BFB120B020FFF7C5FE3046AD
:100AC000FFF7C2FE5046FFF7BFFE3046FFF7BCFE01
:100AD0004846FFF7B9FE4FF04000FFF7B5FE20464D
:100AE0005946FFF7EFFE444414F8010CFFF7C6FE29
:100AF000013F02D005F10105D8E7BDE8F88F00BF3E
:100B00002DE9F84304464FF46043C4F20F03D3F8D1
:100B1000042142F48052C3F80421D3F8082142F0A2
:100B20000202C3F808215A68C2F30032D6B240F27A
:100B30001863C2F200031A71002E00F0BB8040F26D
:100B40001863C2F200034FF004025A714FF460437D
:100B5000C4F20F03D3F8082142F00802C3F80821B9
:100B60004FF00100FFF76CFE4FF4E043C4F20003C6
:100B7000D3F8002442F08002C3F800244FF0800232
:100B8000C3F800224FF4A043C4F20003D3F80024BA
:100B900022F00C02C3F80024D3F8202442F00C0207
:100BA000C3F82024D3F8002542F00C02C3F8002536
:100BB000D3F8182522F00C02C3F81825D3F80C2519
:100BC00042F00C02C3F80C25D3F8102542F00C02B9
:100BD000C3F81025D3F81C2542F00C02C3F81C25DD
:100BE000D3F8282522F00C02C3F828254FF0000383
:100BF000C4F202031A6A42F010021A6248F2A062BA
:100C0000C0F201024FF4D453C0F20603002C0CBF13
:100C100014461C4604EB84044FEA840440F6B013E7
:100C2000C2F200031B6803F1FF331B19B3FBF4F49A
:100C300004F1FF344FF00003C4F20203DC60DA6811
:100C400040F21863C2F2000302F1010202EB021249
:100C50004FEA82021A604FF0000446F6CC08C0F258
:100C6000000808F51377B9461AE05EB308F5FE757B
:100C700063195878FFF7D8FD04F10200615D281868
:100C8000A1F10201FFF71EFE635D08EB0402D31819
:100C900093F8FC01FFF7F2FD2B5D03F10103E4186B
:100CA000002E0CBF71234D239C42DED3FFF728FE9C
:100CB000BDE8F88340F21863C2F200034FF024024B
:100CC0005A715FE7E3195878FFF7AEFD04F10200AF
:100CD000E15D3818A1F10201FFF7F4FDE35D08EBD7
:100CE0000402D31893F84C02FFF7C8FD4D46D3E732
:100CF0002DE9F0414FF0000446F6CC07C0F20007A2
:100D000007F51376B04619E02BB307F5FE756319A6
:100D10005878FFF789FD04F10200615D2818A1F100
:100D20000201FFF7CFFD635D3A19D31893F8FC0178
:100D3000FFF7A4FD2B5D03F10103E41840F21863F3
:100D4000C2F200031B79002B0CBF71224D2294428A
:100D5000DAD3BDE8F081A3195878FFF765FD04F1F7
:100D60000200A15D3018A1F10201FFF7ABFDA35D08
:100D70003A19D31893F84C02FFF780FD4546D9E79E
:100D800008B54FF08000FFF74FFD4FF0AE00FFF7C2
:100D90005BFD4FF08000FFF757FD4FF0AD00FFF710
:100DA00053FD4FF08000FFF74FFD4FF08A00FFF733
:100DB00065FD08BD30B585B005460C4601F0F6F876
:100DC00001F06EFB02F09AFA28462146FFF74CFC30
:100DD00003F0EAFA40F22064C2F2000420464FF029
:100DE00034014FF0040202F0D5FF04F134004FF05B
:100DF00041014FF0050202F0CDFF04F178004FF001
:100E0000080103F00BF840F61C33C2F20003DB7953
:100E100013F0200F76D072B64FF03D0004F0BAF810
:100E200004F1B80004F0C2FF46F68C30C0F20000B6
:100E300005F02CFA04F084F962B6FFF7C3FC40F623
:100E40001C33C2F20003DB7913F0200F5AD072B6C4
:100E50004FF03D0004F09EF804F1C00004F0A6FF3E
:100E60007F4805F013FA04F06BF962B6FFF7AAFCAD
:100E700040F61C33C2F20003DB7913F0200F41D09F
:100E800072B64FF03D0004F085F804F1CC0004F098
:100E90008DFF744805F0FAF904F052F962B6FFF7D5
:100EA00091FC40F61C33C2F20003DB7913F0200FF3
:100EB00028D072B64FF03D0004F06CF8204604F0E4
:100EC00075FF694805F0E2F904F03AF962B6FFF7F8
:100ED00079FC40F61C33C2F20003DB7913F0200FDB
:100EE00010D072B64FF03D0004F054F804F1340015
:100EF00004F05CFF5D4805F0C9F904F021F962B621
:100F0000FFF760FC40F61C33C2F20003DB7913F0FC
:100F1000100F6BD072B64FF03C0004F03BF84FF06E
:100F2000040004F0B7FD4FF0000004F03FFF50480C
:100F300005F0ACF904F004F962B6FFF743FC40F6A3
:100F40001C33C2F20003DB7913F0100F4ED072B6DF
:100F50004FF03C0004F01EF84FF0050004F09AFD3D
:100F60004FF0000004F022FF424805F08FF904F032
:100F7000E7F862B6FFF726FC40F61C33C2F2000326
:100F8000DB7913F0100F31D072B64FF03C0004F053
:100F900001F84FF0060004F07DFD4FF0000004F072
:100FA00005FF354805F072F904F0CAF862B6FFF79C
:100FB00009FC40F61C33C2F20003DB7913F0100F7A
:100FC00014D072B64FF03C0003F0E4FF4FF007007E
:100FD00004F060FD4FF0000004F0E8FE274805F043
:100FE00055F904F0ADF862B6FFF7ECFB46F69C63EA
:100FF000C0F20003186840F22065C2F200054FF00D
:1010000000040094019402944FF0010105F1B8022C
:101010004FF0020303F006FA46F65473C0F20003E1
:1010200018680094019402944FF0020105F1C00287
:101030004FF0030303F0F6F947F23413C0F2000354
:1010400018680094019402944FF0030105F1CC025A
:101050004FF00A0303F0E6F903F0ACF905B030BD38
:10106000A06B0000B06B0000C46B0000D46B0000EC
:10107000E46B0000F46B0000086C0000186C0000CA
:101080000B78152B0BD18B780371CB78437141F220
:101090003953C0F2000303604FF00200704744F67A
:1010A000DD63C0F2000303604FF00300704700BF30
:1010B00010B5044640F21473C2F200031B78002BF3
:1010C00040F0098140F61C33C2F20003DB7913F0D3
:1010D000200F72D072B64FF03D0003F05BFFC8489E
:1010E00004F064FE46F62840C0F2000005F0CEF899
:1010F00004F026F862B6FFF765FB40F61C33C2F237
:101100000003DB7913F0200F57D072B64FF03D008B
:1011100003F040FFBB4804F049FEBB4805F0B6F8B9
:1011200004F00EF862B6FFF74DFB40F61C33C2F236
:101130000003DB7913F0200F3FD072B64FF03D0073
:1011400003F028FFB14804F031FEB14805F09EF8E5
:1011500003F0F6FF62B6FFF735FB40F61C33C2F230
:101160000003DB7913F0200F27D072B64FF03D005B
:1011700003F010FFA74804F019FEA74805F086F811
:1011800003F0DEFF62B6FFF71DFB40F61C33C2F230
:101190000003DB7913F0200F0FD072B64FF03D0043
:1011A00003F0F8FE9D4804F001FE9D4805F06EF83E
:1011B00003F0C6FF62B6FFF705FB40F61C33C2F230
:1011C0000003DB7913F0400F7ED072B64FF03E0083
:1011D00003F0E0FE41F2B100C0F2000004F0E6FDD1
:1011E000904805F053F803F0ABFF62B6FFF7EAFA58
:1011F00040F61C33C2F20003DB7913F0400F63D0DA
:1012000072B64FF03E0003F0C5FE41F28100C0F21D
:10121000000004F0CBFD844805F038F803F090FF9F
:1012200062B6FFF7CFFA40F61C33C2F20003DB7957
:1012300013F0400F48D072B64FF03E0003F0AAFE04
:1012400041F2D940C0F2000004F0B0FD774805F04B
:101250001DF803F075FF62B6FFF7B4FA40F61C33D1
:10126000C2F20003DB7913F0400F2DD072B64FF0BD
:101270003E0003F08FFE41F23950C0F2000004F04E
:1012800095FD6B4805F002F803F05AFF62B6FFF7D0
:1012900099FA40F61C33C2F20003DB7913F0400FD9
:1012A00012D072B64FF03E0003F074FE41F24D4092
:1012B000C0F2000004F07AFD5E4804F0E7FF03F09E
:1012C0003FFF62B6FFF77EFA40F21473C2F20003EA
:1012D0004FF001021A7040F61C33C2F20003DB79B2
:1012E00013F0100F00F0848072B64FF03C0003F052
:1012F00051FE4FF0150004F0CDFB204604F056FDE2
:101300004D4804F0C3FF03F01BFF62B6FFF75AFA23
:1013100040F61C33C2F20003DB7913F0100F67D0E4
:1013200072B64FF03C0003F035FE4FF0160004F0AB
:10133000B1FB204604F03AFD404804F0A7FF03F05B
:10134000FFFE62B6FFF73EFA40F61C33C2F200031E
:10135000DB7913F0100F4BD072B64FF03C0003F066
:1013600019FE4FF0170004F095FB204604F01EFD17
:10137000334804F08BFF03F0E3FE62B6FFF722FA76
:1013800040F61C33C2F20003DB7913F0100F2FD0AC
:1013900072B64FF03C0003F0FDFD4FF00F0004F07B
:1013A00079FB204604F002FD264804F06FFF03F0AD
:1013B000C7FE62B6FFF706FA40F61C33C2F200031E
:1013C000DB7913F0100F13D072B64FF03C0003F02E
:1013D000E1FD4FF0100004F05DFB204604F0E6FC58
:1013E000194804F053FF03F0ABFE62B6FFF7EAF9C9
:1013F00041F28103C0F2000323604FF0020010BDF0
:101400001807002020070020346C00002807002067
:10141000406C0000300700204C6C000038070020B2
:10142000586C0000646C0000746C0000846C000058
:10143000906C0000A06C0000B46C0000C46C000054
:10144000D86C0000EC6C0000FC6C000010B5044689
:101450000B78012B02D0042B36D103E04FF00000B3
:10146000A07110BD03793BB382790E2A24D802F112
:101470000102827103F1FF3303714FF005004FF059
:10148000140102F029FC0146237903F10103837062
:101490006379A3F10203C370A3794FEA930303F1C5
:1014A0000603037147F23413C0F20003186802F018
:1014B000BBFA4FF0000010BD41F28103C0F20003FF
:1014C00023604FF0020010BD41F2D943C0F2000387
:1014D00003604FF0030010BD10B504460B78022BDB
:1014E00002D0172B1ED115E04FF003004FF016016C
:1014F00002F0F2FB01460F4BE41A4FEAE404847059
:1015000047F23413C0F20003186802F08DFA4FF06E
:10151000000010BD41F28103C0F2000303604FF0F0
:10152000020010BD44F6DD63C0F2000303604FF01B
:10153000030010BD1807002030B583B004460B78B7
:101540000F2B28D0102B44D0042B5FD10379D3B1BB
:1015500003F1FF3303714FF005004FF0110102F06A
:10156000BBFB0146237983706379C3704FF003039B
:10157000037147F23413C0F20003186802F054FA02
:101580004FF000004FE041F28103C0F2000303601E
:101590004FF0020047E0057942790B798878009096
:1015A000C97801914FF00300294601F0DFFE0028C1
:1015B00034D046F65473C0F2000318681B4902F099
:1015C00033FA41F28103C0F2000323604FF00200BE
:1015D00029E0057942790B7988780090C9780191E2
:1015E0004FF00300294601F0C1FED0B146F69C63DE
:1015F000C0F2000318680E4902F016FA41F24D439A
:10160000C0F2000323604FF002000CE041F2D94326
:10161000C0F2000303604FF0030004E04FF000004D
:1016200001E04FF0000003B030BD00BF0C6D0000C2
:10163000106D000010B50446042804D90A484FF084
:101640003801FEF725FE40F21473C2F200034FEAA0
:10165000C404191941F2B102C0F200024A6003F158
:101660000403181910BD00BF146D00000B78152B72
:101670000BD18B780371CB78437141F62533C0F2DF
:10168000000303604FF00200704744F6DD63C0F2D0
:10169000000303604FF00300704700BF10B504461D
:1016A00040F24073C2F200031B78002B40F0098126
:1016B00040F61C33C2F20003DB7913F0200F72D026
:1016C00072B64FF03D0003F065FCC84804F06EFBB5
:1016D00046F61C50C0F2000004F0D8FD03F030FDC7
:1016E00062B6FFF76FF840F61C33C2F20003DB79F5
:1016F00013F0200F57D072B64FF03D0003F04AFCB4
:10170000BB4804F053FBBB4804F0C0FD03F018FDD8
:1017100062B6FFF757F840F61C33C2F20003DB79DC
:1017200013F0200F3FD072B64FF03D0003F032FCB3
:10173000B14804F03BFBB14804F0A8FD03F000FD04
:1017400062B6FFF73FF840F61C33C2F20003DB79C4
:1017500013F0200F27D072B64FF03D0003F01AFCB3
:10176000A74804F023FBA74804F090FD03F0E8FC31
:1017700062B6FFF727F840F61C33C2F20003DB79AC
:1017800013F0200F0FD072B64FF03D0003F002FCB3
:101790009D4804F00BFB9D4804F078FD03F0D0FC5D
:1017A00062B6FFF70FF840F61C33C2F20003DB7994
:1017B00013F0400F7ED072B64FF03E0003F0EAFB0C
:1017C00041F29D60C0F2000004F0F0FA904804F08D
:1017D0005DFD03F0B5FC62B6FEF7F4FF40F61C3386
:1017E000C2F20003DB7913F0400F63D072B64FF002
:1017F0003E0003F0CFFB41F26D60C0F2000004F048
:10180000D5FA844804F042FD03F09AFC62B6FEF774
:10181000D9FF40F61C33C2F20003DB7913F0400F0E
:1018200048D072B64FF03E0003F0B4FB41F6C5203D
:10183000C0F2000004F0BAFA774804F027FD03F084
:101840007FFC62B6FEF7BEFF40F61C33C2F2000317
:10185000DB7913F0400F2DD072B64FF03E0003F04D
:1018600099FB41F62530C0F2000004F09FFA6B4866
:1018700004F00CFD03F064FC62B6FEF7A3FF40F633
:101880001C33C2F20003DB7913F0400F12D072B6A2
:101890004FF03E0003F07EFB41F63920C0F200001D
:1018A00004F084FA5E4804F0F1FC03F049FC62B6EF
:1018B000FEF788FF40F24073C2F200034FF00102CE
:1018C0001A7040F61C33C2F20003DB7913F0100FDC
:1018D00000F0848072B64FF03C0003F05BFB4FF0E9
:1018E000150004F0D7F8204604F060FA4D4804F0E3
:1018F000CDFC03F025FC62B6FEF764FF40F61C3316
:10190000C2F20003DB7913F0100F67D072B64FF00C
:101910003C0003F03FFB4FF0160004F0BBF82046FC
:1019200004F044FA404804F0B1FC03F009FC62B64C
:10193000FEF748FF40F61C33C2F20003DB7913F0D8
:10194000100F4BD072B64FF03C0003F023FB4FF06A
:10195000170004F09FF8204604F028FA334804F0FA
:1019600095FC03F0EDFB62B6FEF72CFF40F61C334E
:10197000C2F20003DB7913F0100F2FD072B64FF0D4
:101980003C0003F007FB4FF00F0004F083F8204603
:1019900004F00CFA264804F079FC03F0D1FB62B69F
:1019A000FEF710FF40F61C33C2F20003DB7913F0A0
:1019B000100F13D072B64FF03C0003F0EBFA4FF06B
:1019C000100004F067F8204604F0F0F9194804F01C
:1019D0005DFC03F0B5FB62B6FEF7F4FE41F26D6309
:1019E000C0F2000323604FF0020010BD4407002046
:1019F0004C070020286D000054070020346D0000C3
:101A00005C070020406D0000640700204C6D000062
:101A1000586D0000686D0000786D0000846D000056
:101A2000946D0000A86D0000B86D0000CC6D000042
:101A3000E06D0000F06D000010B504460B78012B3E
:101A400002D0042B36D103E04FF00000A07110BD8E
:101A500003793BB382790E2A24D802F10102827104
:101A600003F1FF3303714FF005004FF0140102F052
:101A700033F90146237903F1010383706379A3F1FC
:101A80000203C370A3794FEA930303F106030371C2
:101A900047F23413C0F20003186801F0C5FF4FF09D
:101AA000000010BD41F26D63C0F2000323604FF0EF
:101AB000020010BD41F6C523C0F2000303604FF0E1
:101AC000030010BD10B504460B78022B02D0172B73
:101AD0001ED115E04FF003004FF0160102F0FCF8A4
:101AE00001460F4BE41A4FEAE404847047F23413C2
:101AF000C0F20003186801F097FF4FF0000010BD1E
:101B000041F26D63C0F2000303604FF0020010BDAC
:101B100044F6DD63C0F2000303604FF0030010BD24
:101B20004407002030B583B004460B780F2B28D033
:101B3000102B44D0042B5FD10379D3B103F1FF33D1
:101B400003714FF005004FF0110102F0C5F8014696
:101B5000237983706379C3704FF00403037147F2F4
:101B60003413C0F20003186801F05EFF4FF000006C
:101B70004FE041F26D63C0F2000303604FF00200DA
:101B800047E0057942790B7988780090C97801910E
:101B90004FF00400294601F0E9FB002834D046F656
:101BA0005473C0F2000318681B4901F03DFF41F275
:101BB0006D63C0F2000323604FF0020029E0057955
:101BC00042790B7988780090C97801914FF005002F
:101BD000294601F0CBFBD0B146F69C63C0F200036E
:101BE00018680E4901F020FF41F63923C0F20003C6
:101BF00023604FF002000CE041F6C523C0F2000361
:101C000003604FF0030004E04FF0000001E04FF0EC
:101C1000000003B030BD00BF006E0000046E000085
:101C200010B50446042804D90A484FF03801FEF7DD
:101C30002FFB40F24073C2F200034FEAC4041919AB
:101C400041F29D62C0F200024A6003F104031819D8
:101C500010BD00BF086E00000B78122B0BD18B78E3
:101C60000376CB78437641F61173C0F2000303602C
:101C70004FF00200704744F6DD63C0F200030360DA
:101C80004FF00300704700BF38B504464FF0040121
:101C900001F03CFF40F61C33C2F20003DB7913F085
:101CA000200F15D072B64FF03D0003F073F940F2EB
:101CB0006C70C2F2000004F079F846F61060C0F2D1
:101CC000000004F0E3FA03F03BFA62B6FEF77AFD97
:101CD00040F61C33C2F20003DB7913F0400F63D0EF
:101CE00072B64FF03E0003F055F941F68940C0F25C
:101CF000000004F05BF85C4804F0C8FA03F020FA36
:101D000062B6FEF75FFD40F61C33C2F20003DB79DA
:101D100013F0400F48D072B64FF03E0003F03AF98E
:101D200041F65940C0F2000004F040F84F4804F07A
:101D3000ADFA03F005FA62B6FEF744FD40F61C3337
:101D4000C2F20003DB7913F0400F2DD072B64FF0D2
:101D50003E0003F01FF941F61170C0F2000004F0DC
:101D600025F8434804F092FA03F0EAF962B6FEF768
:101D700029FD40F61C33C2F20003DB7913F0400F5B
:101D800012D072B64FF03E0003F004F941F68560C0
:101D9000C0F2000004F00AF8364804F077FA03F0C5
:101DA000CFF962B6FEF70EFD40F61C33C2F2000317
:101DB000DB7913F0100F4FD072B64FF03C0003F0F8
:101DC000E9F84FF0120003F065FE40F26C75C2F2C4
:101DD0000005284603F0EAFF274804F057FA03F00D
:101DE000AFF962B6FEF7EEFC40F61C33C2F2000318
:101DF000DB7913F0100F2FD072B64FF03C0003F0D8
:101E0000C9F84FF00D0003F045FE284603F0CEFF61
:101E10001A4804F03BFA03F093F962B6FEF7D2FCDD
:101E200040F61C33C2F20003DB7913F0100F13D01D
:101E300072B64FF03C0003F0ADF84FF0130003F022
:101E400029FE284603F0B2FF0D4804F01FFA03F004
:101E500077F962B6FEF7B6FC41F65943C0F20003CB
:101E600023604FF0020038BD1C6E0000306E000091
:101E7000406E0000506E0000646E0000786E00003E
:101E8000886E000010B504460B78012B02D0042B9D
:101E900036D103E04FF00000A07610BD037E3BB3C7
:101EA000827E0E2A24D802F10102827603F1FF33EA
:101EB00003764FF005004FF0140101F00DFF0146CD
:101EC000237E03F103038370637EA3F10403C370D5
:101ED000A37E4FEA930303F10603037147F2341321
:101EE000C0F20003186801F09FFD4FF0000010BD24
:101EF00041F65943C0F2000323604FF0020010BDC9
:101F000044F6DD63C0F2000303604FF0030010BD30
:101F100010B504460B780D2B29D0132B2FD0042B92
:101F20003CD1037E03F102025F2A18DC22764FF0D7
:101F300005004FF0100101F0CFFE0146237E8370B3
:101F4000637EC3704FF00203037147F23413C0F293
:101F50000003186801F068FD4FF0000010BD41F665
:101F60005943C0F2000303604FF0020010BD41F678
:101F70008563C0F2000303604FF0020010BD46F617
:101F80005473C0F20003186801F04EFD41F6594346
:101F9000C0F2000323604FF0020010BD44F6DD6381
:101FA000C0F2000303604FF0030010BD40F26C73F9
:101FB000C2F2000341F68942C0F200021A60704783
:101FC0000B78032B02D0092B0FD107E041F6FD73EC
:101FD000C0F2000303604FF0020070478B78037675
:101FE000CB7843764FF00000704744F6DD63C0F2D3
:101FF000000303604FF00300704700BF0B780C2B09
:1020000001BF42F27D33C0F20003036002201FBF14
:1020100041F6C173C0F2000303600320704700BFA4
:1020200038B504464FF0040101F070FD20464FF032
:10203000050101F06BFD40F61C33C2F20003DB79B1
:1020400013F0200F15D072B64FF03D0002F0A2FF42
:1020500040F28870C2F2000003F0A8FE46F6A060CD
:10206000C0F2000004F012F903F06AF862B6FEF75D
:10207000A9FB40F61C33C2F20003DB7913F0400FDA
:102080007ED072B64FF03E0002F084FF42F2210093
:10209000C0F2000003F08AFE864804F0F7F803F06F
:1020A0004FF862B6FEF78EFB40F61C33C2F2000317
:1020B000DB7913F0400F63D072B64FF03E0002F0B0
:1020C00069FF41F6C170C0F2000003F06FFE7A486C
:1020D00004F0DCF803F034F862B6FEF773FB40F668
:1020E0001C33C2F20003DB7913F0400F48D072B604
:1020F0004FF03E0002F04EFF41F6FD70C0F20000CE
:1021000003F054FE6D4804F0C1F803F019F862B60C
:10211000FEF758FB40F61C33C2F20003DB7913F0E4
:10212000400F2DD072B64FF03E0002F033FF42F266
:102130007D30C0F2000003F039FE614804F0A6F8DB
:1021400002F0FEFF62B6FEF73DFB40F61C33C2F222
:102150000003DB7913F0400F12D072B64FF03E004F
:1021600002F018FF42F2DD20C0F2000003F01EFE74
:10217000544804F08BF802F0E3FF62B6FEF722FB4E
:1021800040F61C33C2F20003DB7913F0100F00F0AD
:10219000888072B64FF03C0002F0FCFE4FF0090060
:1021A00003F078FC40F28875C2F20005284603F07F
:1021B000FDFD454804F06AF802F0C2FF62B6FEF782
:1021C00001FB40F61C33C2F20003DB7913F0100F61
:1021D00067D072B64FF03C0002F0DCFE4FF00C000E
:1021E00003F058FC284603F0E1FD384804F04EF8AF
:1021F00002F0A6FF62B6FEF7E5FA40F61C33C2F223
:102200000003DB7913F0100F4BD072B64FF03C0097
:1022100002F0C0FE4FF00D0003F03CFC284603F036
:10222000C5FD2B4804F032F802F08AFF62B6FEF7D3
:10223000C9FA40F61C33C2F20003DB7913F0100F29
:102240002FD072B64FF03C0002F0A4FE4FF00E000B
:1022500003F020FC284603F0A9FD1E4804F016F800
:1022600002F06EFF62B6FEF7ADFA40F61C33C2F222
:102270000003DB7913F0100F13D072B64FF03C005F
:1022800002F088FE4FF0130003F004FC284603F030
:102290008DFD114803F0FAFF02F052FF62B6FEF71F
:1022A00091FA41F6C173C0F2000323604FF00200BF
:1022B00038BD00BFA86E0000B86E0000C86E0000F8
:1022C000D86E0000E86E0000F86E0000106F00008D
:1022D000206F0000306F0000406F000010B5044612
:1022E0000B78012B02D0042B3FD103E04FF000000C
:1022F000A07610BD837E0E2B1FD803F101038376D9
:102300004FF005004FF0140101F0E6FC0146A37EFA
:102310004FEA930303F106030371237E8370637E08
:1023200003F1FF33C37047F23413C0F2000318689F
:1023300001F07AFB4FF0000010BD4FF004004FF0A9
:10234000070101F0C9FC0146A38B438047F2341317
:10235000C0F20003186801F067FB41F6FD73C0F29C
:10236000000323604FF0020010BD41F6C173C0F2BC
:10237000000303604FF0030010BD00BF38B50446F2
:102380000B7803F1FF33122B7FD8DFE803F00A7ECE
:102390007E1F587E7E7E7E7E7E7E76767E7E7E7EF2
:1023A0006F004FF0000585834FF004004FF01801D7
:1023B00001F092FC0146A48B448047F23413C0F232
:1023C0000003186801F030FB284638BD4FF00500C7
:1023D0004FF00F0101F080FC0146237E8370637E85
:1023E000C3704FF00103037147F23413C0F20003CE
:1023F0001D68284601F018FBA38B03F101039BB273
:10240000A3834CF6CD42CCF6CC42A2FB03124FEA9A
:10241000D20202EB8202A3EB42039BB2002B3CD11F
:102420004FF004004FF0180101F056FC0146A48B58
:102430004480284601F0F8FA4FF0000038BD4FF014
:1024400004004FF0120101F047FC0146237E837027
:10245000637E03F10203C37046F69C63C0F200037F
:10246000186801F0E1FA4FF0000038BD4A88838B0C
:10247000D31883834FF0000038BD42F2DD23C0F251
:10248000000303604FF0020038BD41F6C173C0F293
:10249000000303604FF0030038BD4FF0000038BD6B
:1024A00040F28873C2F2000342F22102C0F200023D
:1024B0001A604FF00A021A764FF008025A767047F7
:1024C0000B78032B02D0052B10D107E042F6E53341
:1024D000C0F2000303604FF00200704742F60D6344
:1024E000C0F2000303604FF00200704742F2B153A4
:1024F000C0F2000303604FF00300704740F2A8737E
:10250000C2F20003186840F6CD52C0F2010202FB8D
:1025100000F018604FEA1020704700BF2DE9F0412D
:102520000D4616461C46092907D946F65870C0F2D2
:10253000000040F2CB21FDF7ABFE2F4646F6587364
:10254000C0F2000303EBC5031D7CC6F160039D428E
:10255000C4BF1D46EDB235B3144B9E194FF00003B6
:1025600046F65872C0F2000202EBC707C4F1000839
:102570005FFA88F85FFA84FC002CFA68D15CACBF83
:1025800001FA0CF141FA08F132780A4306F8012BFE
:1025900096F85F0040EA112186F85F1003F101030D
:1025A000DAB29542E8D8BDE8F08100BFAC07002060
:1025B00038B505460C460B78062B19D0162B1FD1C3
:1025C0008B78042B04D803F1100350F823303BB967
:1025D00046F65870C0F200004FF0A901FDF758FE12
:1025E000A37803F110034FF0000045F8230038BD35
:1025F00043F2B923C0F2000303604FF0020038BD7C
:1026000044F6DD63C0F2000303604FF0030038BD01
:10261000F8B5074600F1500400F164054FF00006DC
:1026200054F8040F314602F0ABF86069314602F00D
:10263000A7F8AC42F4D140F2A873C2F2000340F212
:10264000D2421A6038464FF0040101F05FFA384672
:102650004FF0050101F05AFA38464FF0060101F03B
:1026600055FA40F61C33C2F20003DB7913F0200F59
:102670003FD072B64FF03D0002F08CFCD74803F01B
:1026800095FBD74803F002FE02F05AFD62B6FEF752
:1026900099F840F61C33C2F20003DB7913F0200FE7
:1026A00027D072B64FF03D0002F074FCCD4803F025
:1026B0007DFBCD4803F0EAFD02F042FD62B6FEF775
:1026C00081F840F61C33C2F20003DB7913F0200FCF
:1026D0000FD072B64FF03D0002F05CFCC34803F02F
:1026E00065FBC34803F0D2FD02F02AFD62B6FEF797
:1026F00069F840F61C33C2F20003DB7913F0400F97
:1027000000F0EE8072B64FF03E0002F043FC42F261
:102710001160C0F2000003F049FBB64803F0B6FDBB
:1027200002F00EFD62B6FEF74DF840F61C33C2F221
:102730000003DB7913F0400F00F0D28072B64FF047
:102740003E0002F027FC43F2B920C0F2000003F083
:102750002DFBA94803F09AFD02F0F2FC62B6FEF7E9
:1027600031F840F61C33C2F20003DB7913F0400F5E
:1027700000F0B68072B64FF03E0002F00BFC42F261
:10278000B150C0F2000003F011FB9C4803F07EFD45
:1027900002F0D6FC62B6FEF715F840F61C33C2F222
:1027A0000003DB7913F0400F00F09A8072B64FF00F
:1027B0003E0002F0EFFB42F62D70C0F2000003F085
:1027C000F5FA8F4803F062FD02F0BAFC62B6FDF73D
:1027D000F9FF40F61C33C2F20003DB7913F0400F1F
:1027E0007ED072B64FF03E0002F0D4FB42F60D6090
:1027F000C0F2000003F0DAFA824803F047FD02F06D
:102800009FFC62B6FDF7DEFF40F61C33C2F2000308
:10281000DB7913F0400F63D072B64FF03E0002F048
:10282000B9FB42F64540C0F2000003F0BFFA76481B
:1028300003F02CFD02F084FC62B6FDF7C3FF40F606
:102840001C33C2F20003DB7913F0400F48D072B69C
:102850004FF03E0002F09EFB42F2C140C0F2000089
:1028600003F0A4FA694803F011FD02F069FC62B6B6
:10287000FDF7A8FF40F61C33C2F20003DB7913F02A
:10288000400F2DD072B64FF03E0002F083FB42F6AF
:10289000E530C0F2000003F089FA5D4803F0F6FC71
:1028A00002F04EFC62B6FDF78DFF40F61C33C2F21B
:1028B0000003DB7913F0400F12D072B64FF03E00E8
:1028C00002F068FB42F61D30C0F2000003F06EFA21
:1028D000504803F0DBFC02F033FC62B6FDF772FFF8
:1028E00040F61C33C2F20003DB7913F0100F00F046
:1028F000048172B64FF03C0002F04CFB4FF00A002E
:1029000003F0C8F8354C204603F050FA424803F073
:10291000BDFC02F015FC62B6FDF754FF40F61C3317
:10292000C2F20003DB7913F0100F00F0E68072B6FC
:102930004FF03C0002F02EFB4FF00B0003F0AAF822
:10294000204603F033FA354803F0A0FC02F0F8FB10
:1029500062B6FDF737FF40F61C33C2F20003DB79A5
:1029600013F0100F00F0C98072B64FF03C0002F077
:1029700011FB4FF00F0003F08DF8204603F016FA1C
:10298000274803F083FC02F0DBFB62B6FDF71AFF79
:1029900040F61C33C2F20003DB7913F0100F00F095
:1029A000AC8072B64FF03C0002F0F4FA4FF0100029
:1029B00003F070F8204603F0F9F91A4803F066FCBA
:1029C00002F0BEFB62B6FDF7FDFE40F61C33C2F21C
:1029D0000003DB7913F0100F26E000BF6C08002025
:1029E000B46F000084080020C06F00009808002029
:1029F000D86F0000F06F0000007000001070000041
:102A00002070000030700000407000005470000022
:102A10006C70000088700000A4700000B8700000A6
:102A2000CC700000DC70000067D072B64FF03C0044
:102A300002F0B0FA4FF0110003F02CF8204603F03A
:102A4000B5F9324803F022FC02F07AFB62B6FDF7DA
:102A5000B9FE40F61C33C2F20003DB7913F0100F0D
:102A60004BD072B64FF03C0002F094FA4FF01600D3
:102A700003F010F8204603F099F9254803F006FC0E
:102A800002F05EFB62B6FDF79DFE40F61C33C2F21B
:102A90000003DB7913F0100F2FD072B64FF03C001B
:102AA00002F078FA4FF0140002F0F4FF204603F031
:102AB0007DF9184803F0EAFB02F042FB62B6FDF72D
:102AC00081FE40F61C33C2F20003DB7913F0100FD5
:102AD00013D072B64FF03C0002F05CFA4FF01800D1
:102AE00002F0D8FF204603F061F90B4803F0CEFB5B
:102AF00002F026FB62B6FDF765FE42F60D63C0F2FA
:102B000000033B604FF00200F8BD00BFEC70000016
:102B1000FC700000107100002071000070B50446C8
:102B20000B78022B36D00B2B4AD0012B50D1FFF75C
:102B3000E5FC05462A4E30464FF000014FF0C0023A
:102B400003F026FE40F67D43CCF2CE73A3FB0523B3
:102B50004FEA531303EB830203EBC202AA1A204687
:102B60004FF00001D2B205F00703FFF7D7FC304663
:102B70004FF060014FF01002FDF7D8FA4FF000055A
:102B8000E58704F12C0021464FF00A0201F040FBDA
:102B9000284670BD00F12C0001F08EFB104C204641
:102BA0004FF000014FF0C00203F0F2FD20464FF05D
:102BB00060014FF01002FDF7B9FA4FF0000070BD50
:102BC00042F6E533C0F2000303604FF0020070BD2F
:102BD00042F2C143C0F2000303604FF0030070BD36
:102BE000AC07002038B504460B78022B11D00B2B14
:102BF00018D0012B1ED1FDF7B7FA4FF00005E5877D
:102C000004F12C0021464FF05A0201F001FB284646
:102C100038BD00F12C0001F04FFBFDF7A1FA4FF099
:102C2000000038BD42F61D33C0F2000303604FF0D0
:102C3000020038BD42F2C143C0F2000303604FF00E
:102C4000030038BD70B504460B7803F1FF330A2B3F
:102C500058D8DFE803F006265757575757575735C8
:102C60004F004FF00F02428500F11800214601F09D
:102C7000CFFA4FF000052E46E58704F12C002146DF
:102C80004FF0960201F0C4FA84F87C504FF0150022
:102C9000294647F29042C0F20002FDF755FA284655
:102CA00070BD00F1180001F007FB04F12C0001F0E9
:102CB00003FB4FF00000FDF751FA4FF0000070BD2C
:102CC00090F87C5085F0010580F87C5047F29C42DA
:102CD000C0F2000247F29043C0F200034FF015002B
:102CE0004FF000018D4208BF1A46FDF72DFA4FF054
:102CF000000070BD42F60D63C0F2000303604FF0A8
:102D0000020070BD42F2B153C0F2000303604FF005
:102D1000030070BD70B50446FFF7F0FBC0B22F286A
:102D200006D894F87F301BB103F1FF3384F87F306D
:102D3000D02806D994F880301BB103F1FF3384F812
:102D40008030FFF7DBFBC0B22F2818D894F87F3013
:102D5000C3F1100194F88020891A94F881209142DF
:102D60000DDD94F87D205A2A05D994F87E1003F1E0
:102D70000102914203DD03F1010384F87F30D02882
:102D80001AD994F8803094F87F10C1F11001C91A53
:102D900094F8812091420FDD94F87D205A2A07D9BA
:102DA00094F87E1001F10101C3F11002914203DA9F
:102DB00003F1010384F8803040F2A875C2F20005E7
:102DC00005F5A476304606F101014FF0BF0203F08D
:102DD0008FFC94F88010C1F110014FF0FF3202FA1D
:102DE00001F194F87F3002FA03F361EA030385F8F6
:102DF000A7314FEA132385F8073205F10400314665
:102E00004FF0C00203F0DAFA70BD00BF38B50446D7
:102E10000B7803F1FF330A2B6BD8DFE803F0062EA3
:102E20006A4A626A6A6A6A3942004FF0000580F8AD
:102E30007D5080F87E5080F87F5080F880504FF0B1
:102E40000D0380F881302F4829464FF0C00203F06F
:102E50009FFC4FF00F02628504F11800214601F03B
:102E6000D7F9E58704F12C0021464FF4167201F0E2
:102E7000CFF984F87C50284638BD00F1180001F0E5
:102E80001BFA04F12C0001F017FA4FF0000038BDD6
:102E900090F87C3083F0010380F87C304FF0000024
:102EA00038BD42F2C143C0F2000303604FF002009C
:102EB00038BDFFF72FFF94F87C3043B120464FF028
:102EC00000014FF014024FF00403FFF727FB0E48F8
:102ED0004FF060014FF01002FDF728F94FF00000AD
:102EE00038BD42F62D73C0F2000303604FF00200BC
:102EF00038BD42F2B153C0F2000303604FF003004B
:102F000038BD00BFF0080020AC07002070B50E46A9
:102F100000F13C0400F1500554F8040F10B13146A3
:102F200001F0EAFCAC42F7D170BD00BF2DE9F043DF
:102F300083B005460C460B7803F1FF33172B00F2E4
:102F4000B181DFE813F018002E00AF013A00AF01A5
:102F5000AF013E01AF01AF01AF01AF01AF01AF0162
:102F6000AF01AA00AA002101AF01AF012101AF0109
:102F7000AF01AF012B014FF00D0385F88130C5483B
:102F80004FF000014FF0C00203F002FC46F654730C
:102F9000C0F200031868C04900F046FD4FF0000081
:102FA00087E102A94FF0170301F8083D284669465A
:102FB000FFF7ACFF4FF000007BE1B8484FF0600135
:102FC0004FF01002FDF7B2F82846FFF7A3FEFFF717
:102FD00095FAC0B295F87D301BB103F1FF3385F847
:102FE0007D3095F87D2002F10A0207288CBF00236E
:102FF00001235F2ACCBF002303F00103002B45D03F
:103000002B6C63B105F140034FF0010653F8042F18
:103010003AB106F10106F6B2052EF7D136E04FF0CF
:103020000006FFF76BFA87B210F0010F06F11003EC
:1030300007BF05EB8602526D06F11A0255F82220F1
:1030400045F823204FF0600285F87D2095F87F0039
:1030500000F1020395F88010C1F10C01091AB7FBC9
:10306000F1F001FB10715B18DBB285F87E304FF098
:1030700015018DF800108DF802208DF8033006F14F
:10308000100655F82600694601F036FC2846214610
:10309000FFF73CFF4FF000000BE18E7891F80380C2
:1030A0000F79092F07D946F65870C0F2000040F298
:1030B000E521FDF7EDF846F65873C0F2000303EB87
:1030C000C70393F810C0C6F160039C45C4BF9C467B
:1030D0005FFA8CFCBCF1000F48D046F65873C0F282
:1030E000000303EBC703D8685FFA88F9027802FA95
:1030F00009F240F2A873C2F200039B1993F8483119
:103100001A4224D140F2A873C2F200039B1993F82B
:10311000A83113EA12231AD15E4B9B194FF000021B
:103120000FE010F8011F01FA09F193F801E003F133
:1031300001031EEA010F0AD193F860E01EEA112E86
:1031400005D102F10102D2B26245EAD30EE0237842
:103150000F2B07BF46F65473C0F2000346F69C637C
:10316000C0F2000318684E4900F05EFC284639465C
:1031700032464FFA88F3FFF7D1F928462146FFF788
:10318000C5FE4FF0000094E028460979A27894F932
:103190000330FFF7C3F94FF000008AE04888FCF7DE
:1031A000DDFF628844F6D353C1F26203A3FB02132E
:1031B0004FEAD313C3F10D0385F881304FF00000BF
:1031C00077E04C882046FCF7C9FF344E30464FF07C
:1031D00000014FF0C00203F0DBFA30464FF060010F
:1031E0004FF01002FCF7A2FF4FF012004FF0010168
:1031F00047F2A842C0F20002FCF7A6FF4FF000031E
:103200008DF804304CF6CD43CCF6CC43A3FB04023E
:103210004FEAD20202EB8201A4EB410404F1300434
:103220008DF8034091B2A3FB01024FEAD20202EBF8
:103230008200A1EB400101F130018DF8021091B242
:10324000A3FB01024FEAD20202EB8200A1EB400194
:1032500001F130018DF8011092B2A3FB02134FEA85
:10326000D30303EB8303A2EB430202F1300302AA70
:1032700002F8083D4FF036004FF001016A46FCF7B6
:1032800063FF42F64543C0F200032B604FF002009B
:103290000FE000BFF00800202C710000AC070020F8
:1032A0003071000042F2B153C0F200032B604FF0C6
:1032B000030003B0BDE8F08310B50B78012B13D1E8
:1032C0000D4C20464FF000014FF0C00203F060FAB1
:1032D00020464FF060014FF01002FCF727FF01F08D
:1032E00065F84FF0000010BD44F6DD63C0F2000346
:1032F00003604FF0030010BDAC07002070B540F232
:10330000A875C2F2000542F21163C0F20003C5F8CD
:10331000C43005F1DC004FF00A0100F061FF05F157
:10332000F0004FF00B0100F05BFF05F58A754FF0E0
:10333000000426462046FEF77DF945F8040F204696
:10334000FEF76EFC686145F8146C04F10104E4B208
:10335000052CEFD140F2A873C2F200034FF0000237
:1033600083F8412183F8422170BD00BF2DE9F84365
:1033700007460D4690461E469DF820409DF8249035
:10338000092B8CBF0023012309288CBF002303F0E5
:1033900001033BB946F65870C0F2000040F2033119
:1033A000FCF776FFA54247D846F65873C0F20003F3
:1033B00003EBC6031B7CEA18A24240F38580101B76
:1033C000C0B246F65872C0F2000202EBC702127C8D
:1033D000904228BF104600287AD046F65873C0F2B3
:1033E000000303EBC606F168641BE4B24E4603EB30
:1033F000C707FA6847460B5D03FA09F9137803FA21
:1034000008F819EA080F04BF0C1900230BD063E079
:10341000657804F1010412F8011F05FA06F501FAB6
:1034200007F10D425CD103F10103DBB28342EFD31C
:103430004FF00000BDE8F88346F65873C0F2000371
:1034400003EBC7031B7CE218AA424DDD581B201872
:10345000C0B246F65872C0F2000202EBC602127CFD
:10346000904228BF1046002842D046F65873C0F25A
:10347000000303EBC707F9682C1BE4B2474603EBD4
:10348000C606F2684E460B5D03FA08F8137803FA95
:1034900009F918EA090F04BF0C1900230BD02BE01F
:1034A000617804F1010412F8015F05FA06F501FAEA
:1034B00007F10D4224D103F10103DBB29842EFD8AA
:1034C0004FF00000BDE8F8834FF00000BDE8F8833E
:1034D0004FF00000BDE8F8834FF00100BDE8F8832D
:1034E0004FF00100BDE8F8834FF00000BDE8F8831D
:1034F0004FF00000BDE8F8834FF00100BDE8F8830D
:103500004FF00100BDE8F883684620F007018D46C2
:1035100001B547F2B040C0F2000040F20711FCF7DD
:103520005FFFFEE7684620F007018D4601B540F2D7
:103530000002C2F2000240F20003C2F200039A420B
:1035400011D247F2C842C0F2000240F20003C2F2B8
:10355000000340F20000C2F2000052F8041B43F8DE
:10356000041B8342F9D340F20002C2F2000240F68B
:103570006433C2F200039A420AD213464FF00001AC
:1035800040F66432C2F2000243F8041B9342FBD3BC
:1035900003F08AF8FDF70EFC47F2B040C0F20000DD
:1035A0004FF48171FCF71CFFBDE801408546704770
:1035B000704700BFEFF30980704700BF80F30988B0
:1035C000704700BFEFF30880704700BF80F30888A2
:1035D000704700BFEFF31280704700BF80F311887F
:1035E000704700BFEFF31080704700BF80F3108872
:1035F000704700BFEFF31380704700BF80F313885C
:10360000704700BF00BA704740BA7047C0BA7047F1
:1036100090FAA0F0704700BFD0E84F0FC0B27047DB
:10362000D0E85F0F80B2704750E8000F704700BFCE
:10363000C1E8400F704700BFC1E8500F704700BF9E
:1036400041E80000704700BFEFF31480704700BFEF
:1036500080F31488704700BF30B482B04FF46043E9
:10366000C4F20F0342F61002C0F280721A6743F6EA
:10367000D122C0F28E721A6642F6C222C0F28E4287
:103680001A6642F61002C0F280021A674FF0000379
:103690000193019BB3F57A7F09D240F2E73200BF74
:1036A000019B03F101030193019B9342F7D94FF46E
:1036B0006043C4F20F0340F6C222C0F28E421A6683
:1036C00042F61002C0F280021A674FF00003019325
:1036D000019BB3F57A7F09D240F2E73200BF019B2C
:1036E00003F101030193019B9342F7D94FF4604327
:1036F000C4F20F0340F6C222C0F2CE421A661B6D1E
:1037000013F0400F08D14FF46042C4F20F0200BF23
:10371000136D13F0400FFAD04FF46043C4F20F035F
:1037200040F2C222C0F2CE421A6642F61002C0F245
:1037300080021A674FF000030193019BB3F57A7F73
:1037400009D240F2E73200BF019B03F1010301936C
:10375000019B9342F7D94FF46043C4F20F03196EF3
:103760001A6F002AB4BF02F0700301F03003202B5F
:1037700000F0858004D883B1102B40F0528115E011
:10378000602B00F0E580702B00F0DF80302B08BF4D
:1037900047F2305340F04581DCE047F2A813C0F215
:1037A0000003C1F3841053F82030D3E04FF460439A
:1037B000C4F20F031B6813F0E04F04BF4EF2C013B6
:1037C000C0F2E40300F0C6804FF46043C4F20F037C
:1037D00018684FF00003C7F2FF0300EA0303B3F1D8
:1037E000805F04BF4EF2C013C0F2E40300F0B28069
:1037F0004FF46043C4F20F0318684FF00003C7F2A0
:10380000FF0300EA03034FF00000C1F2010083420E
:103810000DD14FF46043C4F20F031B689BB2022B1F
:1038200004BF4FF4D853C0F2B70300F093804FF4B5
:103830006043C4F20F0318684FF00003C7F2FF03A0
:1038400000EA03034FF00000C1F2030083421CBFF3
:103850004FF41053C0F2F4037CD14FF46043C4F230
:103860000F031C68A4B24FF4D853C0F2B7034FF44F
:103870001050C0F2F400002C18BF03466AE04FF469
:103880006043C4F20F031B6813F0E04F04BF43F61C
:103890007003C0F239035DD04FF46043C4F20F03EC
:1038A00018684FF00003C7F2FF0300EA0303B3F107
:1038B000805F04BF43F67003C0F239034AD04FF46F
:1038C0006043C4F20F0318684FF00003C7F2FF0310
:1038D00000EA03034FF00000C1F2010083420CD163
:1038E0004FF46043C4F20F031B689BB2022B04BF6A
:1038F0004CF2C063C0F22D032CD04FF46043C4F2ED
:103900000F0318684FF00003C7F2FF0300EA030338
:103910004FF00000C1F2030083421CBF4FF410635C
:10392000C0F23D0316D14FF46043C4F20F031C688C
:10393000A4B24CF2C063C0F22D034FF41060C0F289
:103940003D00002C18BF034604E04FF4004301E0A3
:103950004FF48003002A03DA12F4006F03D03AE038
:1039600011F4006F37D14FF46044C4F20F04606E5D
:10397000246814F0E04F0DD04FF46044C4F20F04FB
:1039800025684FF00004C7F2FF0405EA0404B4F10F
:10399000805F0CD1C0F3481404F1020404FB03F36C
:1039A00000F01F0404F10204B3FBF4F30BE0C0F3D6
:1039B000481404FB03F300F01F0404F101044FEA70
:1039C0004404B3FBF4F310F4804F18BF5B0810F409
:1039D000004F18BF9B0811F4800F1DD0002A15DA84
:1039E00012F0804F0BD012F4006F08D14FEA43035E
:1039F000C2F3865202F10102B3FBF2F30CE0C2F310
:103A0000C55202F10102B3FBF2F305E0C1F3C35169
:103A100001F10101B3FBF1F340F6B012C2F2000272
:103A2000136002B030BC704738B504460D4672B61C
:103A300040F61C33C2F200035B7813F0400F20D035
:103A400040F64C33C2F200031B680BB1834218D11D
:103A50004FF00E0001F09EFAFCF798FE02F0A6F976
:103A6000287802F017F8204602F0A0F9687802F0F2
:103A700011F8E07B02F00EF8207C02F00BF801F068
:103A80005FFB6B7813B103F101036B706368DBB903
:103A9000656040F60833C2F200031D78217D47F2CD
:103AA000C822C0F20002505C47F24022C0F200027D
:103AB0001418647845EA04041C701B185878525C8A
:103AC00040EA02025A701EE0E37B3BB947F2042051
:103AD000C0F200004FF04501FCF7DAFB627BA368FF
:103AE00043F82250637B0BB9237B6373637B03F141
:103AF000FF336373E37B03F1FF33DBB2E373227CB9
:103B00009A4288BF237462B638BD00BFF8B5074635
:103B10000D46047D47F2C823C0F200031E5D032951
:103B200017D940F6FC23C2F200031A78231E18BFEF
:103B300001238A4294BF002303F001034BB13F2CC1
:103B400007D840F6B413C2F2000353F8243083427E
:103B500007D047F20C20C0F200004FF03001FCF714
:103B600097FB72B640F61C33C2F200035B7813F089
:103B7000100F17D040F64C33C2F200031B680BB194
:103B80009F420FD14FF00C0001F004FAFCF7FEFD4C
:103B900002F00CF9284601F07DFF384602F006F9E4
:103BA00001F0CEFA40F6F823C2F200031B6803EBE3
:103BB000C50547F24023C0F20003AA5D1B5D42EA3F
:103BC0000303AB5562B6F8BD47F21420C0F2000003
:103BD000704700BF38B50546047D04F1FF33DBB202
:103BE0003E2B06D840F6B413C2F2000353F824303B
:103BF00023B117484FF04001FCF74AFB72B640F67C
:103C0000B413C2F2000343F8245040F61C33C2F24E
:103C100000035B7813F0040F17D040F64C33C2F268
:103C200000031B680BB19D420FD14FF00A0001F059
:103C3000B1F9FCF7ABFD02F0B9F8284602F0B6F88E
:103C4000204601F027FF01F07BFA62B638BD00BFC5
:103C50001C72000038B50546047D04F1FF33DBB269
:103C60003E2B07D840F6B413C2F2000353F82430B9
:103C7000834204D017484FF05401FCF709FB72B699
:103C800040F6B413C2F200034FF0000243F82420C0
:103C900040F61C33C2F200035B7813F0080F17D014
:103CA00040F64C33C2F200031B680BB19D420FD1AA
:103CB0004FF00B0001F06EF9FCF768FD02F076F8AA
:103CC000284602F073F8204601F0E4FE01F038FACD
:103CD00062B638BD1C7200002DE9F84307468946DC
:103CE0004FF0000440F6BC25C2F2000540F6B826AD
:103CF000C2F2000647F22428C0F200080AE004F1EC
:103D00000104E4B23378A34204D840464FF03001B6
:103D1000FCF7BEFA04EB840305EB83039B89BB42EB
:103D2000EDD340F61C33C2F20003DB7813F0100F22
:103D300011D072B64FF01C0001F02CF9FCF726FDF3
:103D400002F034F8384601F029FF484601F0A2FE9F
:103D500001F0F6F962B604EB840040F6BC23C2F22F
:103D6000000303EB800000F063F9054638B947F221
:103D70002420C0F200004FF03A01FCF789FA85F8E0
:103D8000009004F101044FEA84146C702846BDE8E9
:103D9000F88300BFF8B506460F46154640F6B8232F
:103DA000C2F200031B78022B07D947F22C20C0F285
:103DB00000004FF02E01FCF76BFA40F6B823C2F278
:103DC00000031B78A3B140F6B822C2F2000203F14F
:103DD000FF3303EB830302EB8302138AAB4207D367
:103DE00047F22C20C0F200004FF03101FCF750FAEE
:103DF00040F6B824C2F2000404F10402237803EB75
:103E0000830302EB830031463A462B4600F068F903
:103E1000237803F101032370F8BD00BF40F6F823B7
:103E2000C2F2000318601971704700BF2DE9F04F0E
:103E300083B0074640F6FC23C2F2000302781B78E9
:103E40009A4207D347F23420C0F200004FF02C0111
:103E5000FCF71EFA72B640F61C33C2F20003DB78A0
:103E600013F0040F0FD04FF01A0001F093F8FCF795
:103E70008DFC01F09BFF387801F00CFE787801F0A2
:103E800009FE01F05DF97B7813B103F101037B704A
:103E900062B64FF0080B40F6F821C2F20001019122
:103EA00047F25839C0F2000947F2842AC0F2000AEA
:103EB00040F6B416C2F200060BF1FF3B5FFA8BFB33
:103EC0003A7801990B6803EBC20313F80B40E4B195
:103ED0004FEACB085FFA88F819F804501AF8053051
:103EE0001C404544EDB256F825303BB947F234202A
:103EF000C0F200004FF05501FCF7CAF956F8250052
:103F00003946FFF791FD002CE6D1BBF1000FD3D16C
:103F1000384600F095FB03B0BDE8F08FF8B572B6F7
:103F200040F61C33C2F2000393F90330002B11DA80
:103F30004FF01F0001F02EF840F66033C2F200038C
:103F40001A6802F101021A60186880B201F026FEB8
:103F500001F0F6F840F60433C2F200031C68002CAE
:103F600064D040F61C35C2F2000540F65837C2F264
:103F700000071E46238A03F1FF339BB22382002BE6
:103F800048D1638A0BB1238223E033689C4202D17B
:103F9000A368336006E0A3680BB162685A60636887
:103FA000A2689A604FF0000363602B7913F0020F50
:103FB0000FD03B680BB19C420BD14FF0210000F0B9
:103FC000E9FF204601F0F2FEE06801F0EFFE01F0AB
:103FD000B7F82B7913F0200F16D03B680BB19C4239
:103FE00012D14FF0250000F0D5FFFCF7CFFB01F018
:103FF000DDFE204601F0DAFE207801F04BFDE0689E
:1040000001F0D4FE01F09CF862B6E0682146FFF7AB
:104010000BFD07E062B640F60033C2F200034FF03A
:1040200000021A7072B6A468002CA3D162B6F8BD63
:1040300038B5044672B6056855B12B680360038A2B
:1040400003F1FF339BB20382428A9A4288BF4382C4
:1040500040F61C33C2F20003DB7813F0010F1BD0D3
:1040600040F65033C2F200031B6813B162689342FA
:1040700012D14FF0180000F08DFFFCF787FB01F024
:1040800095FE606801F092FE208A01F087FD608A4B
:1040900001F084FD01F054F862B6284638BD00BF37
:1040A00010B5044630B140F6B823C2F200031B78C5
:1040B000834207D247F20C30C0F200004FF04501B6
:1040C000FCF7E6F872B662B640F6BC23C2F2000313
:1040D00004F1FF3404EB840403EB8403588A10BD1D
:1040E0002DE9F041044617461E468846032A94BF30
:1040F0000023012300290CBF002303F0010323B197
:1041000006F104039BB29E4207D347F21430C0F27B
:1041100000004FF03601FCF7BBF8C4F800804FF008
:104120000403A381042E9CBF042301250BD94FF067
:1041300004034FF0010503F104039BB205F10105EF
:104140009E42F8D8A3811E469F4207D247F2143000
:10415000C0F200004FF04401FCF79AF8BF1B4FF08B
:104160000103E3812268BE4288BF13460FD84FEA9D
:104170008505C6F10001BF1B00E01A465319136004
:10418000E28902F10102E2817F18F742F5D34FF094
:1041900000021A60E28922826282C4F80480A3606D
:1041A00040F61C33C2F2000393F90230002B15DAFB
:1041B00040F65033C2F200031B680BB198450DD195
:1041C00072B64FF0170000F0E5FE606801F0EEFDFA
:1041D000E08901F0E3FC00F0B3FF62B6BDE8F081D6
:1041E00038B504460D46032907D847F22030C0F2FF
:1041F00000004FF02901FCF74BF84FF0000363601B
:10420000A360E360238263822570637038BD00BFC2
:1042100070B504460D46164662B10378032B09D9E2
:1042200042680B1E18BF0123002A14BF002303F0AD
:1042300001033BB947F22C30C0F200004FF03001CF
:10424000FCF726F826826460E56072B640F61C33FF
:10425000C2F200031B7913F0010F1DD040F6583352
:10426000C2F200031B680BB19C4215D14FF0200035
:1042700000F090FEFCF78AFA01F098FD204601F06C
:1042800095FD284601F092FD304601F087FC608ADA
:1042900001F084FC00F054FF40F60433C2F2000346
:1042A0001B68A36003B15C6040F60433C2F20003F4
:1042B0001C6062B670BD00BF10B5044672B642689D
:1042C000002A43D040F60433C2F200031B68984230
:1042D00006D140F60433C2F2000382681A6005E09A
:1042E000836803B15A606368A2689A604FF0000364
:1042F000636040F61C33C2F200031B7913F0080F11
:1043000008BF012048D040F65833C2F200031B68B2
:104310001BB19C4218BF01203ED14FF0230000F09A
:1043200039FEFCF733FA01F041FD204601F03EFD75
:10433000E06801F03BFD208A01F030FC608A01F06A
:104340002DFC00F0FDFE4FF0010025E040F61C338F
:10435000C2F200031B7913F0040F08BF00201BD02A
:1043600040F65833C2F200031B681BB19C4218BFD1
:10437000002011D14FF0220000F00CFEFCF706FAED
:1043800001F014FD204601F011FDE06801F00EFD82
:1043900000F0D6FE4FF0000062B610BD47F2343098
:1043A000C0F20000704700BF704700BF08B5FBF7C0
:1043B00035FF08BD2DE9F041FBF7DAFE40F6083481
:1043C000C2F2000440F6B417C2F2000747F25838B0
:1043D000C0F2000872B623780BB3237873B1237848
:1043E00018F8033003F1FF33DBB2E218527818F803
:1043F000022002EBC30303F0FF0301E04FF00003D0
:1044000057F8235062B6284600F03CF80646284686
:10441000314600F071FA304600F012F9DAE7FBF7A6
:10442000FFFED7E7F8B504460D4616461F4601F1D4
:10443000FF32D2B2069BD3F1010338BF00233E2ADC
:104440008CBF002303F0010323B90B484FF0670131
:10445000FBF71EFF04F104003146FAB200F0C4F885
:1044600025752046FFF7B6FB2046089900F088F92D
:10447000FCF7A8F9F8BD00BF3C73000008B5FFF7D2
:10448000E9FB08BD70B5044672B643683BB947F214
:104490004830C0F200004FF03001FBF7F9FE6568CC
:1044A000E37B227B934234D0A17BA06850F82100AB
:1044B000606001B9A273A27B02F1FF32A27303F123
:1044C0000103E37340F61C33C2F200039B7813F040
:1044D000010F68D040F64C33C2F200031B680BB1E9
:1044E0009C4260D14FF0100000F054FDFCF74EF9F3
:1044F00001F05CFC287801F0CDFA204601F056FC72
:10450000687801F0C7FAE07B01F0C4FA00F018FE09
:1045100049E04FF000036360217D47F2C823C0F2F9
:104520000003585C40F60833C2F200031B185E78A3
:1045300047F28422C0F20002525C06EA02025A707C
:104540005B786BB940F60833C2F20003197847F282
:104550008422C0F200021018427801EA02021A70A6
:1045600040F61C33C2F200039B7813F0020F1AD0FE
:1045700040F64C33C2F200031B680BB19C4212D1CF
:104580004FF0110000F006FDFCF700F901F00EFC01
:10459000287801F07FFA204601F008FC687801F0E5
:1045A00079FA00F0CDFD62B6284670BD10B504461C
:1045B0003F2806D840F6B413C2F2000353F8203067
:1045C0003BB947F24830C0F200004FF05A01FBF708
:1045D0005FFE72B662B640F6B413C2F2000353F83F
:1045E0002430187C10BD00BF38B50D4614464FF07E
:1045F000000303604160027243728372C2720273ED
:1046000040F61C33C2F200039B7813F0040F15D060
:1046100040F65433C2F200031B680BB198420DD12F
:1046200072B64FF0120000F0B5FC284601F0BEFB58
:10463000204601F02FFA00F083FD62B638BD00BFBE
:1046400038B504464578002D59D072B605F03F03C1
:10465000012B1CDD05F1FF35457040F61C33C2F21D
:104660000003DB7813F0200F0FD04FF01D0000F097
:1046700091FCFCF78BF801F099FB207801F00AFA25
:10468000607801F007FA00F05BFD62B638BD4FEAD2
:10469000951505F1FF35EDB240F61C33C2F200036B
:1046A000DB7813F0400F0FD04FF01E0000F072FCCB
:1046B000FCF76CF801F07AFB207801F0EBF96078F8
:1046C00001F0E8F900F03CFD62B640F6B823C2F212
:1046D00000031B78AB4207D847F25030C0F200000D
:1046E0004FF04901FBF7D4FD05EB850540F6BC23EF
:1046F000C2F2000303EB8500214600F001F838BD4B
:1047000038B504460D4643688B4206D88368994203
:1047100003D8028AC3899A4207D947F25840C0F2A7
:1047200000004FF02D01FBF7B3FD72B623682B603C
:104730002560238A03F10103238240F61C33C2F271
:104740000003DB7813F0020F18D040F65033C2F2AA
:1047500000031B6813B1626893420FD14FF0190038
:1047600000F018FCFCF712F801F020FB606801F083
:104770001DFB208A01F012FA00F0E2FC62B638BD9F
:104780002DE9F04786B0054603689847022807D010
:1047900047F26040C0F200004FF02D01FBF778FDBA
:1047A00044F6DD66C0F2000640F61C39C2F200098C
:1047B00040F6483AC2F2000A47F28047C0F20007CA
:1047C00007F1020899F8003013F0080F15D0DAF855
:1047D00000300BB19D4210D172B64FF0030000F0D3
:1047E000D9FB284601F0E2FA304601F0DFFA2868EA
:1047F00001F0DCFA00F0A4FC62B62C6800942846B4
:104800003946A0472B68B34204BF2C6000241DD05A
:104810004FF0000404F10104E4B262B206A901EB16
:10482000820242F8183C2846394698472B68B34222
:10483000F0D1009B2B6063B2052B07DD47F260408F
:10484000C0F200004FF04401FBF722FD63B206AA5C
:1048500002EB830353F8186C28464146B047B8B9B9
:1048600099F8003013F0020F12D0DAF800300BB1D3
:104870009D420DD172B64FF0010000F08BFB28462F
:1048800001F094FA304601F091FA00F059FC62B65A
:1048900004F1FF34E4B214F0800FD7D0009E284614
:1048A0001449B04702288DD02E6040F61C33C2F266
:1048B00000031B7813F0100F19D040F64833C2F2F2
:1048C00000031B680BB19D4211D172B64FF004007A
:1048D00000F060FBFBF75AFF01F068FA284601F090
:1048E00065FA286801F062FA00F02AFC62B606B0A8
:1048F000BDE8F087867400002DE9F04F89B00546C9
:104900008B46066840F61C33C2F200035B7813F056
:10491000010F1DD040F64833C2F200031B680BB1F3
:10492000984215D172B64FF0080000F033FBFBF748
:104930002DFF01F03BFA9BF8000001F0ABF8284690
:1049400001F034FA304601F031FA00F0F9FB62B6BA
:10495000D5F8009028465946C8470328F8D00228C1
:1049600040F05F822B68029303964E452CD0954C05
:1049700040F61C37C2F2000747F28048C0F2000838
:1049800028462146B047E0B93B7813F0040F15D014
:1049900040F64833C2F200031B680BB19D420DD1B3
:1049A00072B64FF0020000F0F5FA284601F0FEF969
:1049B000304601F0FBF900F0C3FB62B628464146E1
:1049C000B0472E68B145DBD1029CA14526D12846CF
:1049D0007C49C847002840F07D8240F61C33C2F273
:1049E00000031B7813F0040F00F0748240F6483384
:1049F000C2F200031B6813B19D4240F06B8272B695
:104A00004FF0020000F0C6FA284601F0CFF9484600
:104A100001F0CCF900F094FB62B65BE2284647F265
:104A20008041C0F20001A0472E68B14500F05282DB
:104A3000284647F28041C0F20001C8472F68B742BC
:104A400026D128465F49C847002840F0438240F6F7
:104A50001C33C2F200031B7813F0040F00F03A82FB
:104A600040F64833C2F200031B6813B19D4240F088
:104A7000318272B64FF0020000F08CFA284601F045
:104A800095F9484601F092F900F05AFB62B621E22E
:104A9000BC422BD128464B49C847002840F00F8123
:104AA00040F61C33C2F200031B7813F0040F00F031
:104AB000068140F64833C2F200031B6813B19D42E1
:104AC00040F0FD8072B64FF0020000F063FA284615
:104AD00001F06CF9484601F069F900F031FB62B66B
:104AE000EDE014F0800F00F0B980E8E0039628466E
:104AF00047F28041C0F20001B047032802BF012401
:104B000047F28048C0F2000801D02AE0344604F1A0
:104B10000106F6B22B6872B208A901EB820242F8D4
:104B2000183C99450BD176B2052EDADD47F26C4080
:104B3000C0F200004FF07A01FBF7AAFBD1E728464C
:104B4000414698470328E1D0344676B2052E0ADD67
:104B500047F26C40C0F200004FF08501FBF798FB74
:104B600001E04FF0010428461649C847E8B940F66D
:104B70001C33C2F200031B7813F0040F15D040F66B
:104B80004833C2F200031B680BB19D420DD172B6CF
:104B90004FF0020000F0FEF9284601F007F9484600
:104BA00001F004F900F0CCFA62B623465AB208A923
:104BB00001EB820252F8182C974205D103F1FF3322
:104BC000DCB28EE78474000003F1FF33DBB213F034
:104BD000800FEBD0A74E40F61C38C2F2000847F217
:104BE000804AC0F2000A28463146B847E8B998F82A
:104BF000003013F0040F15D040F64833C2F2000322
:104C00001B680BB19D420DD172B64FF0020000F04F
:104C1000C1F9284601F0CAF8384601F0C7F800F09B
:104C20008FFA62B628465146B8472F6823465AB2D3
:104C300008A901EB820252F8182CBA4203D103F101
:104C4000FF33DCB24DE703F1FF33DBB213F0800F2B
:104C5000EDD04FF00102002AC5D142E7864F40F661
:104C60001C38C2F2000840F6483AC2F2000A63B2A9
:104C700008A901EB830353F8186C28463946B0475E
:104C8000B8B998F8003013F0020F12D0DAF80030FB
:104C90000BB19D420DD172B64FF0010000F07AF9D0
:104CA000284601F083F8304601F080F800F048FA19
:104CB00062B604F1FF34E4B214F0800FD7D0029E44
:104CC0002E6040F61C3AC2F2000A40F64832C2F2A8
:104CD00000020192DFF8A08173E09AF8003013F02F
:104CE000080F15D001990B680BB19D4210D172B617
:104CF0004FF0030000F04EF9284601F057F8304617
:104D000001F054F8286801F051F800F019FA62B681
:104D10002C680294284647F28041C0F20001A04767
:104D20002B68B34204BF2C60002421D04FF0000454
:104D300047F28047C0F2000704F10104E4B262B216
:104D400008A901EB820242F8183C284639469847E8
:104D50002B68B342F0D1029B2B6063B2052B07DDB9
:104D600047F26C40C0F200004FF0D901FBF790FA17
:104D700063B208AA02EB830353F8186C2846414635
:104D8000B047B8B99AF8003013F0020F12D0019969
:104D90000B680BB19D420DD172B64FF0010000F0CF
:104DA000F9F8284601F002F8304600F0FFFF00F065
:104DB000C7F962B604F1FF34E4B214F0800FD7D023
:104DC000029E28462D49B047022886D0344640F638
:104DD0001C33C2F200031B7813F0400F76D040F66C
:104DE0004833C2F200031B680BB19D426ED172B60C
:104DF0004FF0060000F0CEF8FBF7C8FC00F0D6FF3D
:104E00009BF8000000F046FE284600F0CFFF484621
:104E100000F0CCFF204600F0C9FF00F091F962B627
:104E200054E001282CD140F61C33C2F2000393F960
:104E30000030002B4ADA40F64833C2F200031B6808
:104E40000BB19D4242D172B64FF0070000F0A2F8BC
:104E5000FBF79CFC00F0AAFF9BF8000000F01AFE94
:104E6000284600F0A3FF304600F0A0FF00F068F9EC
:104E700062B62BE084740000827400008674000027
:104E800040F61C33C2F200031B7813F0200F1DD034
:104E900040F64833C2F200031B680BB19D4215D1A6
:104EA00072B64FF0050000F075F8FBF76FFC00F0EC
:104EB0007DFF9BF8000000F0EDFD284600F076FF36
:104EC000484600F073FF00F03BF962B62E6009B06F
:104ED000BDE8F08F4FF00004C0E600BF4FF00100C6
:104EE000704700BF47F27840C0F20000704700BF33
:104EF00047F28840C0F20000704700BF40F614330C
:104F0000C2F2000318609980704700BFFF280ED1DD
:104F100040F61431C2F2000101F1070301F127014B
:104F20004FF0FF0203F8012F8B42FBD1704740F690
:104F30001433C2F2000303EBD00300F007004FF07C
:104F4000010202FA00F01A7A10431872704700BF8B
:104F5000FF280ED140F61431C2F2000101F107031F
:104F600001F127014FF0000203F8012F8B42FBD122
:104F7000704740F61433C2F2000303EBD00300F095
:104F800007004FF0010202FA00F01A7A22EA00004C
:104F90001872704710B440F61433C2F2000393F84D
:104FA000282002F10102D2B283F8282083F82920B8
:104FB000A2F17D03DBB2012B3CD840F61433C2F2E0
:104FC00000035A8D19684FF07D048C545A8D02F1FC
:104FD000010292B25A859B88934201BF40F6143376
:104FE000C2F2000300225A8540F61433C2F20003D5
:104FF0009A8D02F101029A855A8D196893F828401A
:1050000084F020048C545A8D02F1010292B25A8528
:105010009B88934201BF40F61433C2F20003002282
:105020005A8540F61433C2F200039A8D02F1010250
:105030009A851CE040F61433C2F20003598D1C68B7
:1050400062545A8D02F1010292B25A859B889342B2
:1050500001BF40F61433C2F2000300225A8540F625
:105060001433C2F200039A8D02F101029A8540F6D0
:105070001433C2F2000393F82920821883F8292000
:10508000A0F17D03DBB2012B3AD840F61433C2F213
:1050900000035A8D19684FF07D048C545A8D02F12B
:1050A000010292B25A859B88934201BF40F61433A5
:1050B000C2F2000300225A8540F61433C2F2000304
:1050C0009A8D02F101029A855A8D196880F02000AC
:1050D00088545A8D02F1010292B25A859B889342FC
:1050E00001BF40F61433C2F2000300225A8540F695
:1050F0001433C2F200039A8D02F101029A851CE07A
:1051000040F61433C2F200035A8D196888545A8D40
:1051100002F1010292B25A859B88934201BF40F688
:105120001433C2F2000300225A8540F61433C2F24F
:1051300000039A8D02F101029A8510BC704700BFEE
:1051400040F61433C2F2000393F829206FEA0202FA
:10515000D2B283F82920A2F17D03DBB2012B3CD827
:1051600040F61433C2F200035A8D19684FF07D00E7
:1051700088545A8D02F1010292B25A859B8893425B
:1051800001BF40F61433C2F200030021598540F6F6
:105190001433C2F200039A8D02F101029A855A8DEE
:1051A000196893F8290080F0200088545A8D02F184
:1051B000010292B25A859B88934201BF40F6143394
:1051C000C2F2000300225A8540F61433C2F20003F3
:1051D0009A8D02F101029A851CE040F61433C2F266
:1051E0000003598D186842545A8D02F1010292B29F
:1051F0005A859B88934201BF40F61433C2F20003E4
:105200000021598540F61433C2F200039A8D02F151
:1052100001029A8540F61433C2F200035A8D1968D0
:105220004FF07E008854598D01F1010189B25985F2
:105230009A88914201BF40F61433C2F20003002164
:10524000598540F61433C2F20003998D01F1010132
:1052500089B299858A423FBF40F61433C2F20003F7
:10526000598DD98538BF9A85704700BF30B440F654
:105270001433C2F2000393F82920821883F82920FE
:10528000A0F17D03DBB2012B3AD840F61433C2F211
:1052900000035A8D1C684FF07D05A5545A8D02F10C
:1052A000010292B25A859B88934201BF40F61433A3
:1052B000C2F2000300225A8540F61433C2F2000302
:1052C0009A8D02F101029A855A8D1C6880F02000A7
:1052D000A0545A8D02F1010292B25A859B889342E2
:1052E00001BF40F61433C2F2000300225A8540F693
:1052F0001433C2F200039A8D02F101029A851CE078
:1053000040F61433C2F200035A8D1C68A0545A8D23
:1053100002F1010292B25A859B88934201BF40F686
:105320001433C2F2000300225A8540F61433C2F24D
:1053300000039A8D02F101029A8540F61433C2F2FD
:10534000000393F829208A1883F82920A1F17D030E
:10535000DBB2012B3AD840F61433C2F200035A8D67
:1053600018684FF07D0484545A8D02F1010292B204
:105370005A859B88934201BF40F61433C2F2000362
:1053800000225A8540F61433C2F200039A8D02F1CE
:1053900001029A855A8D186881F0200181545A8D36
:1053A00002F1010292B25A859B88934201BF40F6F6
:1053B0001433C2F2000300225A8540F61433C2F2BD
:1053C00000039A8D02F101029A851CE040F6143325
:1053D000C2F200035A8D186881545A8D02F10102FD
:1053E00092B25A859B88934201BF40F61433C2F2B1
:1053F000000300225A8540F61433C2F200039A8D4E
:1054000002F101029A8530BC704700BF30B440F60B
:105410001433C2F2000393F82920821883F829205C
:10542000A0F17D03DBB2012B3AD840F61433C2F26F
:1054300000035A8D1C684FF07D05A5545A8D02F16A
:10544000010292B25A859B88934201BF40F6143301
:10545000C2F2000300225A8540F61433C2F2000360
:105460009A8D02F101029A855A8D1C6880F0200005
:10547000A0545A8D02F1010292B25A859B88934240
:1054800001BF40F61433C2F200030020588540F6F5
:105490001433C2F200039A8D02F101029A851CE0D6
:1054A00040F61433C2F200035A8D1C68A0545A8D82
:1054B00002F1010292B25A859B88934201BF40F6E5
:1054C0001433C2F2000300225A8540F61433C2F2AC
:1054D00000039A8D02F101029A85CAB240F6143394
:1054E000C2F2000393F82900101883F82900A2F1F2
:1054F0007D03DBB2012B3AD840F61433C2F200032D
:10550000588D1C684FF07D052554588D00F1010021
:1055100080B258859B88834201BF40F61433C2F2A3
:1055200000030020588540F61433C2F20003988D22
:1055300000F101009885588D1C6882F020022254E9
:105540005A8D02F1010292B25A859B88934201BFA3
:1055500040F61433C2F2000300225A8540F6143399
:10556000C2F200039A8D02F101029A851CE040F616
:105570001433C2F20003588D1C6822545A8D02F174
:10558000010292B25A859B88934201BF40F61433C0
:10559000C2F200030020588540F61433C2F2000323
:1055A0009A8D02F101029A854FEA1121CAB240F6A2
:1055B0001433C2F2000393F82900101883F829006D
:1055C000A2F17D03DBB2012B3AD840F61433C2F2CC
:1055D0000003598D18684FF07D044454598D01F132
:1055E000010189B259859B888B4201BF40F6143373
:1055F000C2F200030021598540F61433C2F20003C1
:10560000998D01F101019985598D186882F0200268
:1056100042545A8D02F1010292B25A859B889342FC
:1056200001BF40F61433C2F2000300225A8540F64F
:105630001433C2F200039A8D02F101029A851CE034
:1056400040F61433C2F200035A8D186881545A8D03
:1056500002F1010292B25A859B88934201BF40F643
:105660001433C2F200030020588540F61433C2F20E
:1056700000039A8D02F101029A8530BC704700BF89
:1056800030B440F61433C2F2000393F82920821894
:1056900083F82920A0F17D03DBB2012B3AD840F634
:1056A0001433C2F200035A8D1C684FF07D05A554D7
:1056B0005A8D02F1010292B25A859B88934201BF32
:1056C00040F61433C2F2000300225A8540F6143328
:1056D000C2F200039A8D02F101029A855A8D1C686C
:1056E00080F02000A0545A8D02F1010292B25A8536
:1056F0009B88934201BF40F61433C2F2000300209E
:10570000588540F61433C2F200039A8D02F101026B
:105710009A851CE040F61433C2F200035A8D1C68CF
:10572000A0545A8D02F1010292B25A859B8893428D
:1057300001BF40F61433C2F2000300225A8540F63E
:105740001433C2F200039A8D02F101029A85CAB2A3
:1057500040F61433C2F2000393F82900101883F8BE
:105760002900A2F17D03DBB2012B3AD840F61433B5
:10577000C2F20003588D1C684FF07D052554588DEA
:1057800000F1010080B258859B88834201BF40F63A
:105790001433C2F200030020588540F61433C2F2DD
:1057A0000003988D00F101009885588D1C6882F0E7
:1057B000200222545A8D02F1010292B25A859B882E
:1057C000934201BF40F61433C2F2000300225A850F
:1057D00040F61433C2F200039A8D02F101029A8559
:1057E0001CE040F61433C2F20003588D1C682254AA
:1057F0005A8D02F1010292B25A859B88934201BFF1
:1058000040F61433C2F200030020588540F61433EA
:10581000C2F200039A8D02F101029A854FEA11212A
:10582000CAB240F61433C2F2000393F829001018EC
:1058300083F82900A2F17D03DBB2012B3AD840F6B0
:105840001433C2F20003588D1C684FF07D052554B7
:10585000588D00F1010080B258859B88834201BFBA
:1058600040F61433C2F200030020588540F614338A
:10587000C2F20003988D00F101009885588D1C68D4
:1058800082F0200222545A8D02F1010292B25A850E
:105890009B88934201BF40F61433C2F200030022FA
:1058A0005A8540F61433C2F200039A8D02F10102C8
:1058B0009A851CE040F61433C2F20003588D1C6830
:1058C00022545A8D02F1010292B25A859B8893426A
:1058D00001BF40F61433C2F200030020588540F6A1
:1058E0001433C2F200039A8D02F101029A854FEA45
:1058F0001121CAB240F61433C2F2000393F8290012
:10590000101883F82900A2F17D03DBB2012B3AD8ED
:1059100040F61433C2F20003588D1C684FF07D0529
:105920002554588D00F1010080B258859B88834230
:1059300001BF40F61433C2F200030020588540F640
:105940001433C2F20003988D00F101009885588D40
:105950001C6882F0200222545A8D02F1010292B298
:105960005A859B88934201BF40F61433C2F200036C
:1059700000225A8540F61433C2F200039A8D02F1D8
:1059800001029A851CE040F61433C2F20003588DE0
:105990001C6822545A8D02F1010292B25A859B88EA
:1059A000934201BF40F61433C2F200030020588531
:1059B00040F61433C2F200039A8D02F101029A8577
:1059C0004FEA112140F61433C2F2000393F8292064
:1059D0008A1883F82920A1F17D03DBB2012B3AD884
:1059E00040F61433C2F200035A8D18684FF07D045C
:1059F00084545A8D02F1010292B25A859B889342D7
:105A000001BF40F61433C2F2000300225A8540F66B
:105A10001433C2F200039A8D02F101029A855A8D65
:105A2000186881F0200181545A8D02F1010292B26E
:105A30005A859B88934201BF40F61433C2F200039B
:105A40000020588540F61433C2F200039A8D02F10B
:105A500001029A851CE040F61433C2F200035A8D0D
:105A6000186881545A8D02F1010292B25A859B88BE
:105A7000934201BF40F61433C2F2000300225A855C
:105A800040F61433C2F200039A8D02F101029A85A6
:105A900030BC704710B440F63D33C2F200031A78B0
:105AA00082181A70A0F17D03DBB2012B4ED840F6AC
:105AB0003E33C2F20003198840F61432C2F20002EB
:105AC00012684FF07D0454541A8802F1010292B218
:105AD0001A8040F61833C2F200031B88934201BFBC
