:10000000A00500200D0B0000F10A00000000000018
:10001000F10A0000F10A0000F10A0000F10A0000F4
:10002000F10A0000F10A0000F10A0000F10A0000E4
:10003000F10A0000F10A0000F10A000021010000AD
:10004000F10A0000F10A0000F10A0000F10A0000C4
:10005000F10A0000F10A0000F10A0000F10A0000B4
:10006000F10A0000F10A0000F10A0000F10A0000A4
:10007000F10A0000F10A0000F10A0000F10A000094
:10008000F10A0000F10A0000F10A0000F10A000084
:10009000F10A0000F10A0000F10A0000F10A000074
:1000A000F10A0000F10A0000F10A0000F10A000064
:1000B000F10A0000F10A0000F10A0000F10A000054
:1000C000F10A0000F10A0000F10A0000F10A000044
:1000D000F10A0000F10A0000F10A0000F10A000034
:1000E000F10A0000F10A0000F10A0000F10A000024
:1000F00000BF704700284FEA411106DA064B00F0B6
:100100000F00C9B2C31819767047044BC9B2C3189F
:1001100083F80013704700BFFCEC00E000E100E052
:10012000684620F007018D4601B500F0EBFFBDE801
:1001300001408546704710B500F05EFD1B4B002462
:10014000D3F8082142F00502C3F80821FFF7D0FFD9
:10015000FFF7CEFFFFF7CCFF154B0120D3F80024AB
:1001600042F02002C3F80024D3F81C2542F02002FC
:10017000C3F81C25C3F88040D3F8002422F01002F5
:10018000C3F80024D3F81C2542F01002C3F81C2544
:1001900000F092F921462246064800F0F5F806489C
:1001A00021460122BDE8104000F0EEB800E00F400B
:1001B00000600040D51C0000E31C000007B50B7870
:1001C000122141438DF8043001A800230631012299
:1001D0008DF8053000F0D8F80EBD044B18B1202280
:1001E000C3F880207047C3F880007047006000406B
:1001F00082B000230193019B5A1E0192002BFAD179
:1002000002B07047114B10B51A681E23B2FBF3F30E
:10021000B3F1807F0DD20E4C23F07F43013B63602E
:100220004FF0FF300721FFF765FF0023A36007337E
:1002300023604FF0FF300121FFF75CFF00200146F3
:10024000FFF758FF034B01221A6010BDE4010020A4
:1002500010E000E000E100E07047054B2022C3F809
:100260008020203AC3F8802030BF62B6704700BFBC
:100270000060004072B6FEE7FCE700BF034B7A2245
:100280001A60773A98605A60704700BF00000240D9
:100290000138FDD17047704738B50546054C636994
:1002A000002BFBD0044B1868FFF7F2FF0123A56079
:1002B000636038BD000002400000002070B50646B3
:1002C000094C6369002BFBD0084B1D682846FFF7DB
:1002D000DFFF0523A6606360034B5B69002BFBD047
:1002E0002846BDE87040D3E700000240000000202F
:1002F00070B504460D460DE0084E7369002BFBD027
:10030000074B013D1868FFF7C3FF14F8013BB360CA
:1003100001237360002DEFD170BD00BF00000240CB
:100320000000002070B58020FFF7A8FF134B0621C6
:100330001C79134B5F25981F002C08BF1846FFF748
:10034000D7FF0020FFF7A8FF013DFAD12846FFF7AD
:10035000B5FF8020FFF792FF0A4B0621981F002C63
:1003600008BF1846FFF7C4FF5F240020FFF794FF83
:10037000013CFAD12046BDE870409FE70000002014
:10038000421700004E17000070B516460546802043
:100390000C46FFF773FF002E14BFB120B020FFF70B
:1003A0007BFF8020FFF778FF234B5E79361906F03C
:1003B0000F00FFF771FF36098020FFF76DFF06F091
:1003C0000F0040F01000FFF767FF4020FFF764FFC9
:1003D0002CE05A2C194A4FEA830112D8CB18A3F10A
:1003E000A00005211018FFF783FF5A2C02D0737864
:1003F00001350BB9002016E00020FFF74DFF063451
:1004000014E0CB18A3F1A000C4F15F04101821463A
:10041000A2F11806FFF76CFF2B78203B03EB830358
:10042000F6183419207EBDE8704047E72B782E4639
:10043000002BCED170BD00BF00000020541700007B
:100440002DE9F84398461B4B04465F791546CF19B2
:100450004FEA171909F00F09089E49F0100924E026
:100460008020FFF70BFF002D14BFB120B020FFF755
:1004700013FF8020FFF710FF07F00F00FFF70CFFBE
:100480008020FFF709FF4846FFF706FF4020FFF7EF
:1004900003FF204608F1FF314444FFF729FF14F819
:1004A000010CFFF70BFF0135013E002ED8D1BDE84E
:1004B000F88300BF000000202DE9F041514B524C61
:1004C000D3F80421064642F48052C3F80421D3F83D
:1004D000082142F00202C3F808215D68C5F3003527
:1004E0002571002D0CBF24220422627112D0D3F892
:1004F0000821012042F00802C3F80821FFF7C8FED6
:10050000424BD3F8002442F08002C3F8002480223A
:10051000C3F800223E4B3F49D3F8002422F00C02DE
:10052000C3F80024D3F8202442F00C02C3F820249E
:10053000D3F8002542F00C02C3F80025D3F81825A3
:1005400022F00C02C3F81825D3F80C2542F00C0257
:10055000C3F80C25D3F8102542F00C02C3F810257F
:10056000D3F81C2542F00C02C3F81C25D3F828252B
:1005700022F00C02C3F82825274B1A6A42F0100219
:100580001A62264A002E0CBF0E4616461422564307
:10059000234A1268013A9219B2FBF6F6013EDE6078
:1005A000DB684422013353432360002420E01D4EC6
:1005B000A6F14D03002D08BF3346771EA6F14E0865
:1005C000185D002D0CBF3E464646FFF757FE315DD5
:1005D000A01C30180239002D18BF4746FFF788FECF
:1005E0003B5D3F19F85CFFF769FE335D0133E418AA
:1005F000002D0CBF71234D239C42D8D3BDE8F041A0
:1006000090E600BF00E00F400000002000700040B6
:1006100000500040A086010000000240801A060041
:10062000E40100207D1900002DE9F041002421E0C3
:10063000154EA6F14D03002D08BF3346771EA6F1D7
:100640004E08185D002D0CBF3E464646FFF716FECD
:10065000315DA01C30180239002D14BF45463D46BF
:10066000FFF746FE2B5D2D19E85CFFF727FE335D93
:100670000133E418054B1D79002D0CBF71234D2368
:100680009C42D5D3BDE8F0817D1900000000002018
:1006900010B58020FFF7F2FDAE20FFF7FDFD8020B2
:1006A000FFF7FAFDAD20FFF7F7FD8020FFF7F4FD1F
:1006B0008A20BDE8104001E6F0B5054685B00C463D
:1006C00000F020F900F0FEF928462146FFF733FD3F
:1006D00000F0EAFD1548072100F0C2FC144828216B
:1006E000042200F08FFC134F134E00250135EDB2AC
:1006F00000243246052357F8040F2946009401943C
:100700000294143600F004FE052DEFD10B4B0621A8
:1007100018680B4A2B4600940194029400F0F8FDEF
:1007200000F0C5FD204605B0F0BD00BF0800002068
:1007300040000020F419000068000020141A000096
:10074000CC00002010B5074B04461A780AB90132D4
:100750001A702046042100F0C5FB034B02202360E1
:1007600010BD00BFE00000206D07000010B50B7841
:100770000446013B082B23D8DFE803F005222213AF
:10078000132222220D000023438521461830072220
:1007900000F066FD12E0FFF72BFD0C4B02202360FA
:1007A00010BD0B4BC41A0B4BA4105C438B78E4B206
:1007B000A34209D108487821FFF75CFD002010BD55
:1007C000064B0360032010BD002010BDE1070000B0
:1007D000E4000020A38B2EBAF0190000E9160000F7
:1007E00010B50B780446042B13D0052B20D0012B19
:1007F0002DD10821032000F0DBFB184B0146E41A41
:10080000174BA4105C43174B8470186800F02AFB48
:100810001BE0124B124AC31A9B1053438A78DBB277
:100820009A4214D1FFF7E4FC0F4B0220236010BD65
:100830000A4BC41A0A4BA4105C438B78E4B2A3425F
:1008400009D10A489021FFF715FD002010BD084B83
:100850000320236010BD002010BD00BFE400002075
:10086000A38B2EBA141A000075080000F0190000BE
:10087000E916000010B50B780446013B082B30D870
:10088000DFE803F0050D2F20202F2F2F1A00002363
:10089000438521461830052200F0E2FC1FE00320CA
:1008A000052100F085FB124BE41A124BA4105C43A7
:1008B000847000F0DBFB12E0FFF79AFC0E4B022085
:1008C000236010BD0A4BC41A0A4BA4105C438B78FA
:1008D000E4B2A34209D10948AA21FFF7CBFC0020CA
:1008E00010BD074B0360032010BD002010BD00BFEA
:1008F000E4000020A38B2EBA6D070000F019000061
:10090000E916000038B500252C46084B084A092195
:100910005A512C2202FB0433013403F1180000F079
:100920008BFC2C35052CF0D138BD00BFE400002035
:100930004507000010B50521044600F0D3FA204613
:10094000062100F0CFFA024B0220236010BD00BF49
:100950005509000070B50B780446062B0D4600F0D3
:100960009C80082B03D0052B40F09B8031E0FFF7E3
:100970003FFCAD78042D02D863195B7F1BB14C4856
:100980006021FFF777FC28464A49FFF717FC6A1CED
:10099000052392FBF3F303EB8303D31ADBB2E318D3
:1009A0001A7E92B96219167E7EB901210320117652
:1009B0001976091800F0FCFA857000F057FB2846FC
:1009C0003D49FFF7FBFB304670BD64190123637797
:1009D00065E0FFF70DFCAD78042D02D863195B7F4D
:1009E0001BB133487421FFF745FC28463349FFF714
:1009F000E5FB05266B1C93FBF6F606EB86069E1BB5
:100A000063191B7EF6B2012B03D1A3191B7E012BA8
:100A100003D027487921FFF72DFC00236119A21983
:100A20000B7604351376053395FBF3F303EB830361
:100A3000ED1AEDB263195A7F82B11A7E72B90120A4
:100A400018765A7708760421023000F0B1FA8570E2
:100A500000F00CFB28461849FFF7B0FBA319587F9C
:100A600020B3721C052192FBF1F101EB8101521AB6
:100A7000D2B2A418257EC5B9012222765D771A76F6
:100A80000421032000F094FA867000F0EFFA30465B
:100A90000949FFF793FB284670BD00F006FC0020D3
:100AA00070BD074B0360032070BD002070BD00BF08
:100AB0000C1A0000F11C0000FA1C0000031D0000CD
:100AC000E9160000084B094A1A6000221A765A7784
:100AD0005A769A779A76DA77DA7683F820201A7738
:100AE00083F82120704700BFC001002035090000B5
:100AF000684620F007018D4601B540F20711024813
:100B0000FFF7BAFBFEE700BF0C1D0000684620F0AF
:100B100007018D4601B50F4A0F4B03E052F8041B45
:100B200043F8041B0D498B42F8D30D4B02E0002221
:100B300043F8042B0B4A9342F9D300F0DBFDFFF797
:100B4000BBFD09484FF48171FFF796FBBDE80140FA
:100B500085467047241D0000000000200000002092
:100B600000000020480300200C1D0000704700BF5B
:100B7000EFF30980704780F309887047EFF308802E
:100B8000704780F308887047EFF31280704780F356
:100B900011887047EFF31080704780F3108870471A
:100BA000EFF31380704780F31388704700BA7047E3
:100BB00040BA7047C0BA704790FAA0F07047D0E8CA
:100BC0004F0FC0B27047D0E85F0F80B2704750E857
:100BD000000F7047C1E8400F7047C1E8500F7047E1
:100BE00041E800007047EFF31480704780F31488E9
:100BF0007047000000BF7047874B884A73B51A677B
:100C0000874A1A66874A1A66874A1A67002303E0EA
:100C1000FFF7F0FF019B01330193019BB3F57A7F4E
:100C2000F6D37D4B814A1A667F4A1A67002303E098
:100C3000FFF7E0FF019B01330193019BB3F57A7F3E
:100C4000F6D37B4A744B1A6601E0FFF7D3FF724B71
:100C50001A6D12F0400FF8D0764A1A66724A1A6777
:100C6000002303E0FFF7C6FF019B01330193019BC3
:100C7000B3F57A7FF6D3684B196E1A6F1846002ABF
:100C8000B4BF02F0700301F03003202B3AD004D837
:100C90006BB1102B40F0BE8010E0602B5DD0702B4C
:100CA00058D0302B40F0B68047F2305363E001F467
:100CB000F860614B800953F820305CE0564B1868AF
:100CC00010F0E04F4CD01C685C4804EA0000B0F122
:100CD000805F45D01C68594804EA0000584CA04287
:100CE00003D11B689BB2022B3CD04B48534B04688A
:100CF00004EA0303534CA34236D10368524C9BB21F
:100D0000524822E00068444B10F0E04F2ED01C689F
:100D10004A4804EA0000B0F1805F27D01C684748C9
:100D200004EA0000464CA04203D11B689BB2022B90
:100D30001ED03948414B046804EA0303414CA342E6
:100D400018D10368424C43489BB2002B0CBF23468A
:100D5000034610E04FF400430DE04FF480030AE037
:100D60003D4B08E0384B06E0384B04E03B4B02E0DB
:100D7000374B00E0374B002A02DA12F4006F01E033
:100D800011F4006F27D1244D686E2C6814F0E04FE9
:100D900043F6E07400EA040406D02E68274D06EA04
:100DA0000505B5F1805F06D16409023400F01F0526
:100DB0006343023505E06409634300F01F05013514
:100DC0006D00B3FBF5F310F4804F18BF5B0810F40F
:100DD000004F18BF9B0811F4800F19D0002A11DAB8
:100DE00012F0804F07D012F4006F04D102F0FE52CF
:100DF0005B00920D02E002F0FC52D20D0132B3FB17
:100E0000F2F305E001F0F061C90D0131B3FBF1F33C
:100E1000134A13607CBD00BF00E00F40102880071C
:100E2000D13A8E07C22A8E0410288000C20A8E048E
:100E3000C20ACE04C202CE04181A00000000FF70DD
:100E40000000011000000310001BB7000024F40094
:100E5000C0C62D0000093D00C0E1E4007038390033
:100E6000E401002038B504460D4672B64B780BB14C
:100E700001334B70636893B9227D1649164B885C29
:100E8000164965600C181D7864788A5C45EA04048C
:100E90001C701B18587840EA02025A7018E0E37B75
:100EA0001BB90F484521FFF7E5F9A368627B43F8BA
:100EB0002250637B0BB9237B6373637B227C013BF2
:100EC0006373E37B013BDBB29A42E37388BF237415
:100ED00062B638BD2B1B00003C030020A91A00009D
:100EE000741A000070B5114B047D03290D461E5D78
:100EF0000BD90F4B1B788B4207D934B13F2C04D848
:100F00000C4B53F82430834203D00B483021FFF7B9
:100F1000B1F972B6094B1B6803EBC505084BAA5D16
:100F20001B5D42EA0303AB5562B670BD2B1B00008C
:100F300030030020E80100207C1A00002C03002070
:100F4000A91A000000487047831A000070B5047D9C
:100F50000646631EDBB23E2B064D02D855F8243000
:100F60001BB105484021FFF785F972B645F82460AA
:100F700062B670BDE80100208A1A000038B5047D11
:100F8000094D631EDBB23E2B03D855F82430834253
:100F900003D006485421FFF76DF972B6002345F8D7
:100FA000243062B638BD00BFE80100208A1A000074
:100FB00070B505460E46002409E00F4B01341B783E
:100FC000E4B2A34203D80D483021FFF753F90C4B8C
:100FD000142000FB04308389AB42EED300F0C2F84A
:100FE000054618B905483A21FFF744F90134A40130
:100FF0002E706C70284670BDEC020020911A000023
:10100000F0020020F8B5134C074623780E46022B59
:10101000154603D910482E21FFF72CF923785BB130
:101020000C4A013B142101FB03231B8AAB4203D36F
:1010300009481D31FFF71EF92278084B142000FBE8
:10104000023039462B46324600F0B6F82378013399
:101050002370F8BDEC020020981A0000F002002076
:10106000014B1860197170472C0300202DE9F047DF
:101070001E4B02781B7804469A4203D31C482C214D
:10108000FFF7F8F872B663780BB10133637062B69C
:101090000825184B013D22781B68EDB203EBC20313
:1010A0004FEAC5095E5D5FFA89F916E0124B134FEE
:1010B00013F80680124B13F80830C8445FFA88F81A
:1010C0001E4057F828301BB909485521FFF7D2F8C0
:1010D00057F828002146FFF7C5FE002EE6D1002D67
:1010E000D7D12046BDE8F04700F092B93003002088
:1010F000A01A00002C030020AC1B0000E801002017
:10110000EA1A000038B572B6144D2C6822E0238A22
:10111000013B9BB22382BBB9638A0BB123820DE0F2
:101120002B689C42A36802D10C4A136004E00BB107
:1011300062685A60626893600023636062B6E06828
:101140002146FFF78FFE03E062B6054B00221A70BE
:1011500072B6A468002CDAD162B638BD380300201C
:1011600034030020034672B6006848B10268598A09
:101170001A601A8A013A92B291421A8288BF5A8240
:1011800062B6704710B5044618B1084B1B7883420D
:1011900003D207484521FFF76DF872B662B6054BDA
:1011A000013C142202FB0434608A10BDEC020020D2
:1011B0006C1B0000F00200202DE9F84304461546A0
:1011C00099460F4629B1032A03D904339BB24B45F4
:1011D00003D818483621FFF74DF804232760A38170
:1011E0004FF0010803E00436A68108F10108A68942
:1011F0004E45F8D3B54203D20E484421FFF73AF8E2
:101200000123E381AD1B23684FEA880807E003EB65
:1012100008021A60E389AD1B0133E3811346B5422E
:10122000F5D200221A60E289676022826282A3609E
:10123000BDE8F883741B0000032938B504460D4649
:1012400003D806482921FFF715F800236360A3603F
:10125000E360238263822570637038BD7D1B0000CC
:1012600070B504460D4616462AB10378032B02D901
:10127000436803B919B908483021FEF7FBFF2682FD
:101280006460E56072B6054A1368A36003B15C60F0
:10129000146062B670BD00BF861B000038030020DA
:1012A000004870478E1B00007047FEF7D5BF38B569
:1012B000FEF7A8FF72B6134B1A78FAB11A7862B12A
:1012C0001A7811498A5C013AD2B29B185B78CB5CE0
:1012D00003EBC20303F0FF0300E013460B4A52F88E
:1012E000235062B6284600F039F8044621462846C5
:1012F00000F01EF9204600F08BF8DBE7FEF7ADFFAB
:10130000D8E700BF3C030020AC1B0000E801002030
:101310002DE9F04117464A1ED2B23E2A98460446AD
:101320000D46069B089E00D81BB10A486721FEF7B0
:10133000A1FF3946201D5FFA88F200F05FF82046D1
:101340002575FFF703FE20463146BDE8F04100F069
:10135000A5B800BF951B0000FFF710BE70B504468E
:1013600072B643681BB916483021FEF783FFE37B52
:10137000227B606893420CD0A17BA56855F8215070
:10138000656001B9A273A27B0133013AA273E373D2
:1013900014E000236360257D0A4B0B4C595D0B4B19
:1013A000655D5A18567806EA0505557052782AB9CF
:1013B00061181D784A7805EA02021A7062B670BD9B
:1013C0009E1B00002B1B0000EA1A00003C030020BB
:1013D0003F2838B50446074D02D855F820301BB9D0
:1013E00005485A21FEF746FF72B662B655F824301A
:1013F000187C38BDE80100209E1B0000002303601C
:101400004160027243728372C272027370470000BD
:1014100070B545780446002D1DD072B605F03F0327
:10142000012B03DD013D457062B670BDAD09013D84
:10143000EDB262B6084B1B78AB4203D8074849218E
:10144000FEF718FF064B142000FB05302146BDE8CF
:10145000704000F007B870BDEC020020A61B000031
:10146000F002002038B5436804468B420D4606D88A
:101470008368994203D8028AC3899A4203D90648ED
:101480002D21FEF7F7FE72B623682B60238A2560B4
:101490000133238262B638BDAC1C0000F0B503688E
:1014A00087B004469847022803D01C482D21FEF738
:1014B000E1FE1B4E236806AF47F8183D2046194948
:1014C0009847002506E0013547F8043F20461549B6
:1014D000EDB298472368B342F5D1009E6BB2052B5D
:1014E000266003DD0D484421FEF7C4FE6FB20137CC
:1014F00000AB03EB8707013D57F8043D20460A493E
:10150000EDB2984715F0800FF5D020460749B04757
:101510000228CFD0266007B0F0BD00BFB41C000089
:10152000E9160000CD1C0000CF1C0000D31C0000F9
:101530002DE9F043056887B004460E46276820462B
:101540003146B8470328F9D0022840F0BF80D4F8CC
:1015500000900195CDF8009007E020465D49A8472E
:1015600010B920465C49A8472568BD42F5D14D45D4
:1015700009D120465749A84700256EB2013600A878
:1015800000EB86066CE020465349C847D4F800803B
:101590004545F1D020465049A84726684645E8D041
:1015A0004E4504D120464B49A847FF25E5E7CDF835
:1015B000048020464849C047012518E005F101088C
:1015C00023685FFA88F84FFA88F206A800EB8201D8
:1015D000BB4241F8183C06D1052ACEDD3F487A21AE
:1015E000FEF748FEC9E720463B4998474546032891
:1015F000E4D06BB2052B03DD38488521FEF73AFEB7
:1016000020463449B8476FB200AB013703EB870778
:101610003A462B4652F8041D013B8E4212D0DBB2F3
:1016200013F0800FF6D020462A49B04710B9204663
:101630002949B04726683A462B4652F8041D013B1B
:101640008E4201D1DDB298E7DBB213F0800FF4D007
:10165000E9E756F8043D204621499847013DEDB29F
:1016600015F0800FF5D0009D25602AE0236806AFB5
:1016700047F8183D204618499847002606E00136ED
:1016800047F8043F20461449F6B298472368AB4216
:10169000F5D1009D73B2052B256003DD0F48D921DC
:1016A000FEF7E8FD77B2013700A800EB8707013E9F
:1016B00057F8043D20460A49F6B2984716F0800FC5
:1016C000F5D020460749A8470228CFD0256007B0AB
:1016D000BDE8F083D11C0000CD1C0000BD1C000043
:1016E000CF1C0000D31C0000012070470048704749
:1016F000C61C000070B500240C4D0D4E761BB610B4
:1017000003E055F8043B01349847B442F9D3094D3E
:10171000FFF72CFA084E0024761BB61003E055F8AC
:10172000043B01349847B442F9D370BD241D000036
:10173000241D0000241D0000241D0000B080048032
:101740001040B08004801240B18004801040B1800D
:1017500004801240000000000000004F000000075D
:10176000000700147F147F14242A7F2A12231308F1
:10177000646236495522500005030000001C2241D6
:10178000000041221C0014083E081408083E080806
:1017900000503000000808080808006060000020C1
:1017A000100804023E5149453E00427F400042611C
:1017B0005149462141454B311814127F10274545A8
:1017C00045393C4A494930017109050336494949BF
:1017D00036064949291E00363600000056360000FC
:1017E0000814224100141414141400412214080295
:1017F00001510906324979413E7E1111117E7F491E
:101800004949363E414141227F4141221C7F49499D
:1018100049417F090909013E4149497A7F08080881
:101820007F00417F41002040413F017F0814224159
:101830007F404040407F020C027F7F0408107F3EC3
:101840004141413E7F090909063E4151215E7F0920
:10185000192946464949493101017F01013F40406C
:10186000403F1F2040201F3F4038403F6314081472
:101870006307087008076151494543007F414100F3
:1018800002040810200041417F00040201020440CC
:1018900040404040000102040020545454787F48E6
:1018A0004444383844444420384444487F385454ED
:1018B0005418087E0901020C5252523E7F0804045B
:1018C0007800447D40002040443D007F10284400C3
:1018D00000417F40007C041804787C0804047838B8
:1018E000444444387C14141408081414187C7C08EC
:1018F0000404084854545420043F4440203C4040D1
:10190000207C1C2040201C3C4030403C44281028B7
:10191000440C5050503C4464544C44000836410040
:1019200000007F00000041360800020102040204AA
:1019300080AE80E30680AD808A80E30680A8801FA9
:1019400080E30480C880E30480A080E30480D88022
:10195000E304800580E304804080E3068081805DAD
:1019600080E30680D9801180E30680D5800180E382
:101970000680D3800080E30480AF80E30480AE80E3
:10198000E304800480E304801280E3068081802BDE
:1019900080E30480A180E304804080E30680D3805C
:1019A0000080E30680A8800F80E30480A480E30425
:1019B00080A680E30480B080E30480C880E30680D2
:1019C000D5807280E30680D8800080E30680D980CD
:1019D0002280E30680DA801280E30680DB800F80BD
:1019E000E30680AD808B80E30480AF80E3000000DD
:1019F0007068696C6F2E6300E40000201001002005
:101A00003C01002068010020940100207461626C98
:101A1000652E6300C001002040420F0000201C0022
:101A200080841E0000802500999E3600004038000A
:101A300000093D0000803E0000004B00404B4C0080
:101A400000204E00808D5B0000C05D0000807000B3
:101A500000127A0000007D0080969800001BB700FD
:101A60000080BB00C0E8CE00647ADA000024F400F5
:101A70000000FA0071615F6669666F0071615F73F3
:101A8000756200342E312E30370071665F616374E9
:101A90000071665F6E65770071665F706F6F6C00D6
:101AA00071665F7073707562000001020408102097
:101AB0004080010204081020408001020408102028
:101AC0004080010204081020408001020408102018
:101AD0004080010204081020408001020408102008
:101AE00040800102040810204080FFFEFDFBF7EF5C
:101AF000DFBF7FFEFDFBF7EFDFBF7FFEFDFBF7EFF4
:101B0000DFBF7FFEFDFBF7EFDFBF7FFEFDFBF7EFE3
:101B1000DFBF7FFEFDFBF7EFDFBF7FFEFDFBF7EFD3
:101B2000DFBF7FFEFDFBF7EFDFBF7F00000000009F
:101B30000000000001010101010101010202020295
:101B40000202020203030303030303030404040465
:101B50000404040405050505050505050606060635
:101B6000060606060707070707070707716D705F78
:101B700067657400716D705F696E6974007174657A
:101B80005F63746F72007174655F61726D00342EF3
:101B9000312E3035007176616E696C6C6100716157
:101BA0005F6765745F0071665F6763000001020232
:101BB00003030303040404040404040405050505E5
:101BC00005050505050505050505050506060606C1
:101BD00006060606060606060606060606060606A5
:101BE0000606060606060606060606060707070791
:101BF0000707070707070707070707070707070775
:101C00000707070707070707070707070707070764
:101C10000707070707070707070707070707070754
:101C20000707070707070707070707070808080840
:101C30000808080808080808080808080808080824
:101C40000808080808080808080808080808080814
:101C50000808080808080808080808080808080804
:101C600008080808080808080808080808080808F4
:101C700008080808080808080808080808080808E4
:101C800008080808080808080808080808080808D4
:101C900008080808080808080808080808080808C4
:101CA000080808080808080808080808716D705F27
:101CB000707574007168736D5F696E690071687327
:101CC0006D5F64697300342E312E303700000001DF
:101CD000000200030044696E696E67205068696CF9
:101CE0006F730030202C31202C32202C33202C34E8
:101CF0000068756E677279202000656174696E678F
:101D00002020007468696E6B696E6700737461727D
:101D10007475705F73746D3332663130785F636CE5
:041D200000000000BF
:0400000300000B0DE1
:00000001FF
