:10000000F00A00204D200000312000000000000018
:10001000312000003120000031200000312000009C
:10002000312000003120000031200000493700005D
:1000300031200000312000001D370000F1000000D9
:100040004501000031200000312000003120000077
:10005000312000003120000031200000312000005C
:10006000312000003120000031200000312000004C
:10007000312000003120000031200000312000003C
:1000800031200000CD0300003120000031200000AD
:10009000312000003120000031200000312000001C
:1000A000312000003120000031200000312000000C
:1000B00031200000312000003120000031200000FC
:1000C00031200000312000003120000031200000EC
:1000D00031200000312000003120000031200000DC
:1000E00031200000312000003120000031200000CC
:1000F000684620F007018D4619B572B640F2B93452
:10010000C2F20004237803F10103DBB2237062B66C
:1001100002F086FD43F24C70C0F2000002F020FDB8
:1001200072B6237803F1FF33DBB223704EF604532B
:10013000CEF200034FF080521A6062B6BDE819405B
:1001400085467047684620F007018D4631B572B686
:1001500040F2B934C2F20004237803F10103DBB2A8
:10016000237062B643F6A823C0F200031D684FF067
:1001700002004FF0080102F063FC0146284602F03D
:10018000E7FA72B6237803F1FF33DBB223704EF641
:100190000453CEF200034FF080521A6062B6BDE8FD
:1001A00031408546704700BF10B501F0E9FF4FF4BC
:1001B0006043C4F20F03D3F8002142F48032C3F845
:1001C0000021D3F8042142F44032C3F80421D3F8CB
:1001D000082142F00502C3F8082100BF00BF00BF9C
:1001E0004FF40043C4F203035A6922F4704242F40C
:1001F000A0425A611A6A22F470421A62D3F8A0200F
:1002000022F06F0242F06002C3F8A020D3F8A420CD
:1002100022F00F0242F00602C3F8A4201A6842F04E
:1002200008021A604FF48053C4F20303DA6822F024
:100230000112DA604FF0000119604FF002025A60BB
:1002400040F2AC32C2F20002106848F68902C8F6E9
:100250008802A2FB00424FEA92129A62DA6842F0E8
:100260000202DA60DA6842F02002DA604FF4C0433A
:10027000C4F20003D3F8002442F02002C3F80024A3
:10028000D3F81C2542F02002C3F81C25C3F88010C7
:10029000D3F8002422F01002C3F80024D3F81C2560
:1002A00042F01002C3F81C254FF0010000F0C0FA24
:1002B00010BD00BF00B583B00B464FEAD2020092DA
:1002C0004FF000010A4600F071FA03B000BD00BF14
:1002D00010B504460B46104621461A4600F0ECF9CC
:1002E00010BD00BF704700BF08B500F099FB08BD06
:1002F00008B500F0DDFB08BD40F2AC33C2F20003EC
:100300001A6848F68903C8F68803A3FB02134FEA6C
:100310001313B3F1807F16D223F07F4303F1FF3232
:100320004EF21003CEF200035A604FF46D42CEF24B
:1003300000024FF0E00182F823104FF000029A60B3
:100340004FF007021A604FF46D43CEF200034FF0F6
:10035000400283F823204FF46143CEF200034FF0B4
:10036000200283F811234FF0000283F800234FF49A
:1003700000321A604FF001021A604FF40043C4F2D9
:1003800003034FF00802DA609A6842F008029A60AC
:100390004FF48053C4F20303DA6842F00112DA60CA
:1003A000704700BF704700BF72B64FF4C043C4F23D
:1003B00000034FF02002C3F880204FF00002C3F882
:1003C000802062B6704700BF72B6FEE7684620F034
:1003D00007018D4619B572B640F2B933C2F2000377
:1003E0001A7802F10102D2B21A7062B64FF40043D9
:1003F000C4F203034FF00802DA60D3F8AC3013F410
:10040000807F04D050484FF06201FFF7DDFF4FF4CA
:100410000043C4F20303D3F8A84040F20403C2F23D
:1004200000031A6804F10404A41A02EBE4041C603B
:10043000A4EBC4044FEA440404F560544FEA942446
:100440005B689C4216D04FF004004FF0090102F0A7
:10045000F7FA01464FF00A038370C47043F6402355
:10046000C0F20003186802F073F940F20403C2F20C
:1004700000035C604FF4C043C4F200031A6C40F206
:100480000403C2F200031B7A032B47D8DFE803F012
:100490000211202F40F20403C2F20003DB689A42EB
:1004A0003CD040F20403C2F200034FF001021A7282
:1004B00034E040F20403C2F20003DB689A4240F2E7
:1004C0000403C2F2000314BF022200221A7225E0C4
:1004D00040F20403C2F20003DB689A4240F20403D4
:1004E000C2F2000314BF032200221A7216E040F287
:1004F0000403C2F20003DB689A4208D040F204030E
:10050000C2F20003DA6012B9104802F029FB40F28F
:100510000403C2F200034FF000021A7272B640F2F6
:10052000B933C2F200031A7802F1FF32D2B21A7064
:100530004EF60453CEF200034FF080521A6062B6BA
:10054000BDE8194085467047503700005837000015
:1005500008B5FFF739FF08BD4FF00003C4F20203EE
:100560004FF07A021A6098604FF003025A607047A9
:100570000138FDD17047704710B504464FF00002B6
:10058000C4F202025369002BFCD040F21403C2F201
:1005900000031868FFF7ECFF4FF00003C4F20203FA
:1005A0009C604FF001025A6010BD00BF38B505468F
:1005B0004FF00002C4F202025369002BFCD040F25B
:1005C0001403C2F200031C682046FFF7D1FF4FF06E
:1005D0000003C4F202039D604FF005025A604FF021
:1005E0000002C4F202025369002BFCD02046FFF740
:1005F000BFFF38BD2DE9F0410D46B9B106464FF0B9
:100600000004C4F2020440F21407C2F200074FF0E3
:1006100001086369002BFCD03868FFF7A9FF16F8C2
:10062000013BA360C4F80480013DF2D1BDE8F08134
:1006300070B54FF08000FFF78FFF40F21403C2F255
:1006400000031E7943F25C73C0F20003002E03F135
:10065000080018BF18464FF00601FFF7CBFF4FF018
:100660005F044FF000052846FFF786FF013CFAD1F2
:100670004FF00000FFF79AFF4FF08000FFF76CFF8C
:10068000002E0C4B03F1080018BF18464FF006016E
:10069000FFF7B0FF4FF0000425462846FFF76CFF38
:1006A00004F101045F2CF8D14FF00000FFF77EFF4A
:1006B00070BD00BF6C3700002DE9F84306460C46BC
:1006C00015464FF08000FFF747FF002D14BFB12003
:1006D000B020FFF751FF4FF08000FFF74DFF40F2D1
:1006E0001403C2F200035D79281900F00F00FFF730
:1006F00043FF4FF08000FFF73FFF6519C5F303107C
:1007000040F01000FFF738FF4FF04000FFF734FFD4
:100710003378002B3DD1BDE8F88304F106045A2C50
:100720001CD803EB8303A3F1A00038184146FFF760
:1007300061FF5A2C03D02E4615F8013B2BB94FF020
:100740000000FFF733FFBDE8F8834846FFF714FFCA
:1007500015F8013C002BE0D1BDE8F883C4F15F053A
:1007600043F25C74C0F2000403EB8303E018A0F1D1
:1007700080002946FFF73EFF3378A3F1200303EB07
:100780008303E418651995F82000FFF70FFFBDE813
:10079000F8835A2CE2D806F10105034F4FF0050803
:1007A0004FF00009BDE700BF7C3700002DE9F84F8E
:1007B0000446154698460A9F40F21403C2F200030D
:1007C00093F805A08A4487B3CAF3031949F01009C6
:1007D0004FF080060AF00F0A08F1FF3B3046FFF7A2
:1007E000BBFE002D14BFB120B020FFF7C5FE304680
:1007F000FFF7C2FE5046FFF7BFFE3046FFF7BCFED4
:100800004846FFF7B9FE4FF04000FFF7B5FE20461F
:100810005946FFF7EFFE444414F8010CFFF7C6FEFB
:10082000013F02D005F10105D8E7BDE8F88F00BF10
:100830002DE9F84304464FF46043C4F20F03D3F8A4
:10084000042142F48052C3F80421D3F8082142F075
:100850000202C3F808215A68C2F30032D6B240F24D
:100860001403C2F200031A71002E00F0BB8040F2A4
:100870001403C2F200034FF004025A714FF46043B4
:10088000C4F20F03D3F8082142F00802C3F808218C
:100890004FF00100FFF76CFE4FF4E043C4F2000399
:1008A000D3F8002442F08002C3F800244FF0800205
:1008B000C3F800224FF4A043C4F20003D3F800248D
:1008C00022F00C02C3F80024D3F8202442F00C02DA
:1008D000C3F82024D3F8002542F00C02C3F8002509
:1008E000D3F8182522F00C02C3F81825D3F80C25EC
:1008F00042F00C02C3F80C25D3F8102542F00C028C
:10090000C3F81025D3F81C2542F00C02C3F81C25AF
:10091000D3F8282522F00C02C3F828254FF0000355
:10092000C4F202031A6A42F010021A6248F2A0628C
:10093000C0F201024FF4D453C0F20603002C0CBFE6
:1009400014461C4604EB84044FEA840440F2AC33A2
:10095000C2F200031B6803F1FF331B19B3FBF4F46D
:1009600004F1FF344FF00003C4F20203DC60DA68E4
:1009700040F21403C2F2000302F1010202EB021280
:100980004FEA82021A604FF0000443F25C78C0F232
:10099000000808F51377B9461AE05EB308F5FE754E
:1009A00063195878FFF7D8FD04F10200615D28183B
:1009B000A1F10201FFF71EFE635D08EB0402D318EC
:1009C00093F8FC01FFF7F2FD2B5D03F10103E4183E
:1009D000002E0CBF71234D239C42DED3FFF728FE6F
:1009E000BDE8F88340F21403C2F200034FF0240282
:1009F0005A715FE7E3195878FFF7AEFD04F1020082
:100A0000E15D3818A1F10201FFF7F4FDE35D08EBA9
:100A10000402D31893F84C02FFF7C8FD4D46D3E704
:100A20002DE9F0414FF0000443F25C77C0F200077B
:100A300007F51376B04619E02BB307F5FE75631979
:100A40005878FFF789FD04F10200615D2818A1F1D3
:100A50000201FFF7CFFD635D3A19D31893F8FC014B
:100A6000FFF7A4FD2B5D03F10103E41840F214032A
:100A7000C2F200031B79002B0CBF71224D2294425D
:100A8000DAD3BDE8F081A3195878FFF765FD04F1CA
:100A90000200A15D3018A1F10201FFF7ABFDA35DDB
:100AA0003A19D31893F84C02FFF780FD4546D9E771
:100AB00008B54FF08000FFF74FFD4FF0AE00FFF795
:100AC0005BFD4FF08000FFF757FD4FF0AD00FFF7E3
:100AD00053FD4FF08000FFF74FFD4FF08A00FFF706
:100AE00065FD08BD30B585B005460C4600F090FBAD
:100AF00000F0BEFC01F096F928462146FFF754FBB2
:100B000001F02CFD40F21C05C2F2000528464FF012
:100B100034014FF0040201F0D7FF05F134004FF02B
:100B200041014FF0050201F0CFFF05F178004FF0D1
:100B3000080102F00DF843F63C23C0F200031868E8
:100B40004FF000040094019402944FF0010105F16C
:100B5000B8024FF0020301F01BFD43F64023C0F240
:100B6000000318680094019402944FF0020105F10B
:100B7000C0024FF0030301F00BFD43F6A823C0F2BF
:100B8000000318680094019402944FF0030105F1EA
:100B9000CC024FF00A0301F0FBFC01F0E7FC05B0CA
:100BA00030BD00BF40F21013C2F200031B7833B90E
:100BB00040F21013C2F200034FF001021A7040F627
:100BC000D133C0F2000303604FF00200704700BF52
:100BD0000B78152B0BD18B780371CB78437140F6D2
:100BE000ED43C0F2000303604FF00200704743F290
:100BF000E513C0F2000303604FF00300704700BF2D
:100C000010B504460B78022B02D0172B1ED115E02D
:100C10004FF003004FF0160101F012FF01460F4B99
:100C2000E41A4FEAE404847043F6A823C0F20003F8
:100C3000186801F08DFD4FF0000010BD40F6D13373
:100C4000C0F2000303604FF0020010BD43F2E51351
:100C5000C0F2000303604FF0030010BD1401002038
:100C600010B504460B78012B02D0042B36D103E0DB
:100C70004FF00000A07110BD03793BB382790E2ABA
:100C800024D802F10102827103F1FF3303714FF0A6
:100C900005004FF0140101F0D3FE0146237903F162
:100CA000010383706379A3F10203C370A3794FEA50
:100CB000930303F10603037143F6A823C0F2000374
:100CC000186801F045FD4FF0000010BD40F6D1332B
:100CD000C0F2000323604FF0020010BD40F6014354
:100CE000C0F2000303604FF0030010BD30B583B0C5
:100CF00004460B780F2B28D0102B47D0042B62D141
:100D00000379D3B103F1FF3303714FF005004FF0C6
:100D1000110101F095FE0146237983706379C37058
:100D20004FF00303037143F6A823C0F200031868D1
:100D300001F00EFD4FF0000052E040F6D133C0F25A
:100D4000000303604FF002004AE0057942790B7915
:100D500088780090C97801914FF00300294601F08E
:100D600099F8002837D043F64023C0F200031868F2
:100D700043F61C21C0F2000101F0EAFC40F6D13339
:100D8000C0F2000323604FF0020029E005794279A8
:100D90000B7988780090C97801914FF003002946BB
:100DA00001F078F8D0B143F63C23C0F20003186894
:100DB0000C4901F0CDFC40F66143C0F20003236012
:100DC0004FF002000CE040F60143C0F20003036064
:100DD0004FF0030004E04FF0000001E04FF000008E
:100DE00003B030BD203A000010B50446042804D9F1
:100DF0000A484FF03801FFF7E7FA40F21013C2F249
:100E000000034FEAC404191940F6A532C0F20002EB
:100E10004A6003F10403181910BD00BF243A000012
:100E200040F23C13C2F200031B7833B940F23C138A
:100E3000C2F200034FF001021A7040F64D63C0F297
:100E4000000303604FF00200704700BF0B78152BC2
:100E50000BD18B780371CB78437140F66973C0F284
:100E6000000303604FF00200704743F2E513C0F245
:100E7000000303604FF00300704700BF10B5044645
:100E80000B78022B02D0172B1ED115E04FF0030078
:100E90004FF0160101F0D4FD01460F4BE41A4FEA62
:100EA000E404847043F6A823C0F20003186801F03C
:100EB0004FFC4FF0000010BD40F64D63C0F2000340
:100EC00003604FF0020010BD43F2E513C0F20003CF
:100ED00003604FF0030010BD4001002010B5044630
:100EE0000B78012B02D0042B36D103E04FF0000029
:100EF000A07110BD03793BB382790E2A24D802F188
:100F00000102827103F1FF3303714FF005004FF0CE
:100F1000140101F095FD0146237903F1010383706B
:100F20006379A3F10203C370A3794FEA930303F13A
:100F30000603037143F6A823C0F20003186801F00A
:100F400007FC4FF0000010BD40F64D63C0F20003F7
:100F500023604FF0020010BD40F67D63C0F2000335
:100F600003604FF0030010BD30B583B004460B782A
:100F70000F2B28D0102B47D0042B62D10379D3B18B
:100F800003F1FF3303714FF005004FF0110101F041
:100F900057FD0146237983706379C3704FF00403D2
:100FA000037143F6A823C0F20003186801F0D0FBD8
:100FB0004FF0000052E040F64D63C0F200030360C2
:100FC0004FF002004AE0057942790B798878009069
:100FD000C97801914FF00400294600F05BFF00281A
:100FE00037D043F64023C0F20003186843F62C21A3
:100FF000C0F2000101F0ACFB40F64D63C0F200030B
:1010000023604FF0020029E0057942790B79887856
:101010000090C97801914FF00500294600F03AFF91
:10102000D0B143F63C23C0F2000318680C4901F02C
:101030008FFB40F6DD63C0F2000323604FF0020037
:101040000CE040F67D63C0F2000303604FF0030044
:1010500004E04FF0000001E04FF0000003B030BDAD
:10106000303A000010B50446042804D90A484FF06D
:101070003801FFF7A9F940F23C13C2F200034FEA2E
:10108000C404191940F62162C0F200024A6003F15B
:101090000403181910BD00BF343A00000B78122B5E
:1010A0000BD18B780376CB78437641F2E903C0F21B
:1010B000000303604FF00200704743F2E513C0F2F3
:1010C000000303604FF00300704700BF10B50446F3
:1010D0004FF0040101F0F4FB41F29D03C0F2000364
:1010E00023604FF0020010BD10B504460B780D2BA5
:1010F00029D0132B2FD0042B3CD1037E03F1020205
:101100005F2A18DC22764FF005004FF0100101F045
:1011100097FC0146237E8370637EC3704FF0020309
:10112000037143F6A823C0F20003186801F010FB16
:101130004FF0000010BD41F29D03C0F200030360B8
:101140004FF0020010BD41F28513C0F200030360AE
:101150004FF0020010BD43F64023C0F200031868B0
:1011600001F0F6FA41F29D03C0F2000323604FF054
:10117000020010BD43F2E513C0F2000303604FF01C
:10118000030010BD10B504460B78012B02D0042BD0
:1011900036D103E04FF00000A07610BD037E3BB3D4
:1011A000827E0E2A24D802F10102827603F1FF33F7
:1011B00003764FF005004FF0140101F041FC0146A9
:1011C000237E03F103038370637EA3F10403C370E2
:1011D000A37E4FEA930303F10603037143F6A823AA
:1011E000C0F20003186801F0B3FA4FF0000010BD20
:1011F00041F29D03C0F2000323604FF0020010BDD6
:1012000043F2E513C0F2000303604FF0030010BD8A
:1012100040F26813C2F2000341F2CD02C0F20002B4
:101220001A6070470B78032B02D0092B0FD107E00F
:1012300041F26123C0F2000303604FF002007047E7
:101240008B780376CB7843764FF00000704743F2FB
:10125000E513C0F2000303604FF00300704700BFC6
:101260000B780C2B01BF41F2AD23C0F200030360E9
:1012700002201FBF41F22523C0F2000303600320B8
:10128000704700BF10B504464FF0040101F018FB91
:1012900020464FF0050101F013FB41F22523C0F277
:1012A000000323604FF0020010BD00BF38B50446B4
:1012B0000B7803F1FF33122B7FD8DFE803F00A7EAF
:1012C0007E1F587E7E7E7E7E7E7E76767E7E7E7ED3
:1012D0006F004FF0000585834FF004004FF01801B8
:1012E00001F0AEFB0146A48B448043F6A823C0F274
:1012F0000003186801F02CFA284638BD4FF00500AD
:101300004FF00F0101F09CFB0146237E8370637E4A
:10131000C3704FF00103037143F6A823C0F200032A
:101320001D68284601F014FAA38B03F101039BB258
:10133000A3834CF6CD42CCF6CC42A2FB03124FEA7B
:10134000D20202EB8202A3EB42039BB2002B3CD100
:101350004FF004004FF0180101F072FB0146A48B1E
:101360004480284601F0F4F94FF0000038BD4FF0FA
:1013700004004FF0120101F063FB0146237E8370ED
:10138000637E03F10203C37043F63C23C0F2000303
:10139000186801F0DDF94FF0000038BD4A88838BF2
:1013A000D31883834FF0000038BD41F2D133C0F22F
:1013B000000303604FF0020038BD41F22523C0F264
:1013C000000303604FF0030038BD4FF0000038BD4C
:1013D00010B504460B78012B02D0042B3FD103E05B
:1013E0004FF00000A07610BD837E0E2B1FD803F1B6
:1013F000010383764FF005004FF0140101F020FB4C
:101400000146A37E4FEA930303F106030371237E93
:101410008370637E03F1FF33C37043F6A823C0F2E9
:101420000003186801F094F94FF0000010BD4FF070
:1014300004004FF0070101F003FB0146A38B43803A
:1014400043F6A823C0F20003186801F081F941F2C5
:101450006123C0F2000323604FF0020010BD41F28F
:101460002523C0F2000303604FF0030010BD00BF4E
:1014700040F28413C2F2000341F28522C0F200025E
:101480001A604FF00A021A764FF008025A76704737
:101490000B78032B02D0052B10D107E041F6C55382
:1014A000C0F2000303604FF00200704741F60503ED
:1014B000C0F2000303604FF00200704741F2815315
:1014C000C0F2000303604FF00300704740F2A41322
:1014D000C2F20003186840F6CD52C0F2010202FBCE
:1014E00000F018604FEA1020704700BF2DE9F0416E
:1014F0000D4616461C46092907D943F64420C0F27A
:10150000000040F2CB21FEF75FFF2F4643F6442355
:10151000C0F2000303EBC5031D7CC6F160039D42CE
:10152000C4BF1D46EDB235B3144B9E194FF00003F6
:1015300043F64422C0F2000202EBC707C4F10008E0
:101540005FFA88F85FFA84FC002CFA68D15CACBFC3
:1015500001FA0CF141FA08F132780A4306F8012B3E
:1015600096F85F0040EA112186F85F1003F101034D
:10157000DAB29542E8D8BDE8F08100BFA8010020AA
:1015800038B505460C460B78062B19D0162B1FD103
:101590008B78042B04D803F1100350F823303BB9A7
:1015A00043F64420C0F200004FF0A901FEF70CFF03
:1015B000A37803F110034FF0000045F8230038BD75
:1015C00041F60513C0F2000303604FF0020038BD7E
:1015D00043F2E513C0F2000303604FF0030038BD8F
:1015E000F8B5074600F1500400F164054FF000061D
:1015F00054F8040F314601F065FC6069314601F092
:1016000061FCAC42F4D140F2A413C2F2000340F2F8
:10161000D2421A6038464FF0040101F051F93846C1
:101620004FF0050101F04CF938464FF0060101F08A
:1016300047F941F60503C0F200033B604FF002009A
:10164000F8BD00BF70B504460B78022B36D00B2BCB
:101650004AD0012B50D1FFF739FF05462A4E3046BC
:101660004FF000014FF0C00201F0B0FF40F67D43A3
:10167000CCF2CE73A3FB05234FEA531303EB830293
:1016800003EBC202AA1A20464FF00001D2B205F0C5
:101690000703FFF72BFF30464FF060014FF01002B9
:1016A000FEF708FE4FF00005E58704F12C00214607
:1016B0004FF00A0201F0B6FB284670BD00F12C0085
:1016C00001F0DEFB104C20464FF000014FF0C0024D
:1016D00001F07CFF20464FF060014FF01002FEF752
:1016E000E9FD4FF0000070BD41F6C553C0F20003A4
:1016F00003604FF0020070BD41F29143C0F200035D
:1017000003604FF0030070BDA801002070B50446CF
:10171000FFF7DCFEC0B22F2806D894F87F301BB14B
:1017200003F1FF3384F87F30D02806D994F8803055
:101730001BB103F1FF3384F88030FFF7C7FEC0B25E
:101740002F2818D894F87F30C3F1100194F8802026
:10175000891A94F8812091420DDD94F87D205A2A4F
:1017600005D994F87E1003F10102914203DD03F1E3
:10177000010384F87F30D0281AD994F8803094F887
:101780007F10C1F11001C91A94F8812091420FDD38
:1017900094F87D205A2A07D994F87E1001F10101AE
:1017A000C3F11002914203DA03F1010384F880309F
:1017B00040F2A415C2F2000505F1C406304605F159
:1017C000C5014FF0BF0201F0B1FE94F88010C1F1E5
:1017D00010014FF0FF3202FA01F194F87F3002FA63
:1017E00003F361EA030385F823314FEA132385F8F5
:1017F000833105F1040031464FF0C00201F0FCFCDA
:1018000070BD00BF38B504460B7803F1FF330A2BD7
:101810006BD8DFE803F0062E6A4A626A6A6A6A39A0
:1018200042004FF0000580F87D5080F87E5080F82F
:101830007F5080F880504FF00D0380F881302F48A2
:1018400029464FF0C00201F0C1FE4FF00F02628541
:1018500004F11800214601F0E5FAE58704F12C00B7
:1018600021464FF4167201F0DDFA84F87C502846C8
:1018700038BD00F1180001F003FB04F12C0001F069
:10188000FFFA4FF0000038BD90F87C3083F0010380
:1018900080F87C304FF0000038BD41F29143C0F237
:1018A000000303604FF0020038BDFFF72FFF94F8EC
:1018B0007C3043B120464FF000014FF014024FF04E
:1018C0000403FFF713FE0E484FF060014FF01002C3
:1018D000FEF7F0FC4FF0000038BD41F63923C0F2AE
:1018E000000303604FF0020038BD41F28153C0F2A3
:1018F000000303604FF0030038BD00BF6802002002
:10190000A801002010B50B78012B13D10D4C2046F7
:101910004FF000014FF0C00201F058FE20464FF09A
:1019200060014FF01002FEF7C5FC00F01BFE4FF007
:10193000000010BD43F2E513C0F2000303604FF056
:10194000030010BDA801002070B504460B7803F118
:10195000FF330A2B58D8DFE803F0062657575757AE
:10196000575757354F004FF00F02428500F11800CE
:10197000214601F057FA4FF000052E46E58704F1A5
:101980002C0021464FF0960201F04CFA84F87C506E
:101990004FF01500294643F60062C0F20002FEF740
:1019A00097FC284670BD00F1180001F069FA04F1B7
:1019B0002C0001F065FA4FF00000FEF793FC4FF0A9
:1019C000000070BD90F87C5085F0010580F87C50D7
:1019D00043F60C62C0F2000243F60063C0F200035B
:1019E0004FF015004FF000018D4208BF1A46FEF778
:1019F0006FFC4FF0000070BD41F60503C0F200031C
:101A000003604FF0020070BD41F28153C0F2000349
:101A100003604FF0030070BD70B50E4600F13C044A
:101A200000F1500554F8040F10B1314601F0A8FA46
:101A3000AC42F7D170BD00BF2DE9F04383B005463D
:101A40000C460B7803F1FF33172B00F2B181DFE86E
:101A500013F018002E00AF013A00AF01AF013E01B4
:101A6000AF01AF01AF01AF01AF01AF01AF01AA00FC
:101A7000AA002101AF01AF012101AF01AF01AF0108
:101A80002B014FF00D0385F88130C5484FF0000160
:101A90004FF0C00201F09AFD43F64023C0F200036C
:101AA0001868C04900F054FE4FF0000087E102A919
:101AB0004FF0170301F8083D28466946FFF7ACFFD1
:101AC0004FF000007BE1B8484FF060014FF010028A
:101AD000FEF7F0FB2846FFF719FEFFF7F7FCC0B250
:101AE00095F87D301BB103F1FF3385F87D3095F813
:101AF0007D2002F10A0207288CBF002301235F2A00
:101B0000CCBF002303F00103002B45D02B6C63B145
:101B100005F140034FF0010653F8042F3AB106F1E6
:101B20000106F6B2052EF7D136E04FF00006FFF7BA
:101B3000CDFC87B210F0010F06F1100307BF05EBD3
:101B40008602526D06F11A0255F8222045F823202C
:101B50004FF0600285F87D2095F87F0000F10203C8
:101B600095F88010C1F10C01091AB7FBF1F001FBE7
:101B700010715B18DBB285F87E304FF015018DF8DF
:101B800000108DF802208DF8033006F1100655F88C
:101B90002600694601F0F4F928462146FFF73CFF8C
:101BA0004FF000000BE18E7891F803800F79092F38
:101BB00007D943F64420C0F2000040F2E521FEF7C9
:101BC00003FC43F64423C0F2000303EBC70393F87E
:101BD00010C0C6F160039C45C4BF9C465FFA8CFCF4
:101BE000BCF1000F48D043F64423C0F2000303EBDE
:101BF000C703D8685FFA88F9027802FA09F240F25E
:101C0000A413C2F200039B1993F8C4301A4224D1E2
:101C100040F2A413C2F200039B1993F8243113EA93
:101C200012231AD15E4B9B194FF000020FE010F8FF
:101C3000011F01FA09F193F801E003F101031EEA23
:101C4000010F0AD193F860E01EEA112E05D102F1CE
:101C50000102D2B26245EAD30EE023780F2B07BF10
:101C600043F64023C0F2000343F63C23C0F20003D6
:101C700018684E4900F06CFD2846394632464FFA46
:101C800088F3FFF733FC28462146FFF7C5FE4FF0E7
:101C9000000094E028460979A27894F90330FFF710
:101CA00025FC4FF000008AE04888FEF71BFB6288A5
:101CB00044F6D353C1F26203A3FB02134FEAD313DA
:101CC000C3F10D0385F881304FF0000077E04C88B8
:101CD0002046FEF707FB344E30464FF000014FF030
:101CE000C00201F073FC30464FF060014FF010026B
:101CF000FEF7E0FA4FF012004FF0010143F61862D0
:101D0000C0F20002FEF7E4FA4FF000038DF8043051
:101D10004CF6CD43CCF6CC43A3FB04024FEAD202EF
:101D200002EB8201A4EB410404F130048DF803407E
:101D300091B2A3FB01024FEAD20202EB8200A1EBB7
:101D4000400101F130018DF8021091B2A3FB0102B4
:101D50004FEAD20202EB8200A1EB400101F1300117
:101D60008DF8011092B2A3FB02134FEAD30303EBE9
:101D70008303A2EB430202F1300302AA02F8083DFA
:101D80004FF036004FF001016A46FEF7A1FA41F626
:101D90004913C0F200032B604FF002000FE000BFB8
:101DA00068020020A03A0000A8010020A43A000028
:101DB00041F28153C0F200032B604FF0030003B0E7
:101DC000BDE8F08338B504460B78022B11D00B2BFD
:101DD00018D0012B1ED1FEF78BFA4FF00005E587D6
:101DE00004F12C0021464FF05A0201F01BF828465E
:101DF00038BD00F12C0001F043F8FEF775FA4FF002
:101E0000000038BD41F24563C0F2000303604FF0AB
:101E1000020038BD41F29143C0F2000303604FF06D
:101E2000030038BD70B540F2A415C2F2000541F2BE
:101E3000E153C0F20003C5F8843105F5CE704FF0D0
:101E40000A0100F0D7FF05F5D8704FF00B0100F044
:101E5000D1FF05F5EA754FF0000426462046FEF74F
:101E6000C3FF45F8040F2046FFF7FCF8686145F80A
:101E7000146C04F10104E4B2052CEFD140F2A41378
:101E8000C2F200034FF0000283F8012283F802221D
:101E900070BD00BF2DE9F84307460D4690461E462B
:101EA0009DF820409DF82490092B8CBF002301232E
:101EB00009288CBF002303F001033BB943F64420FB
:101EC000C0F2000040F20331FEF77EFAA54247D887
:101ED00043F64423C0F2000303EBC6031B7CEA185D
:101EE000A24240F38580101BC0B243F64422C0F2E8
:101EF000000202EBC702127C904228BF1046002865
:101F00007AD043F64423C0F2000303EBC606F1681F
:101F1000641BE4B24E4603EBC707FA6847460B5D05
:101F200003FA09F9137803FA08F819EA080F04BF4D
:101F30000C1900230BD063E0657804F1010412F85A
:101F4000011F05FA06F501FA07F10D425CD103F114
:101F50000103DBB28342EFD34FF00000BDE8F8830A
:101F600043F64423C0F2000303EBC7031B7CE218D3
:101F7000AA424DDD581B2018C0B243F64422C0F2DD
:101F8000000202EBC602127C904228BF10460028D5
:101F900042D043F64423C0F2000303EBC707F968BD
:101FA0002C1BE4B2474603EBC606F2684E460B5DB7
:101FB00003FA08F8137803FA09F918EA090F04BFBD
:101FC0000C1900230BD02BE0617804F1010412F806
:101FD000015F05FA06F501FA07F10D4224D103F17C
:101FE0000103DBB29842EFD84FF00000BDE8F88360
:101FF0004FF00000BDE8F8834FF00000BDE8F88323
:102000004FF00100BDE8F8834FF00100BDE8F88310
:102010004FF00000BDE8F8834FF00000BDE8F88302
:102020004FF00100BDE8F8834FF00100BDE8F883F0
:10203000684620F007018D4601B543F62060C0F2E6
:10204000000040F20711FEF783FAFEE7684620F031
:1020500007018D4601B540F20002C2F2000240F2D3
:102060000403C2F200039A4211D243F63862C0F26E
:10207000000240F20003C2F2000340F20400C2F288
:10208000000052F8041B43F8041B8342F9D340F2CA
:102090000402C2F2000240F21453C2F200039A4258
:1020A0000AD213464FF0000140F21452C2F200026D
:1020B00043F8041B9342FBD301F014FAFEF712FD20
:1020C00043F62060C0F200004FF48171FEF740FA41
:1020D000BDE8014085467047704700BFEFF30980B7
:1020E000704700BF80F30988704700BFEFF3088096
:1020F000704700BF80F30888704700BFEFF312807D
:10210000704700BF80F31188704700BFEFF3108065
:10211000704700BF80F31088704700BFEFF3138053
:10212000704700BF80F31388704700BF00BA704744
:1021300040BA7047C0BA704790FAA0F0704700BF2D
:10214000D0E84F0FC0B27047D0E85F0F80B2704741
:1021500050E8000F704700BFC1E8400F704700BF54
:10216000C1E8500F704700BF41E80000704700BF52
:10217000EFF31480704700BF80F31488704700BFEE
:1021800030B482B04FF46043C4F20F0342F6100241
:10219000C0F280721A6743F6D122C0F28E721A66BC
:1021A00042F6C222C0F28E421A6642F61002C0F215
:1021B00080021A674FF000030193019BB3F57A7F09
:1021C00009D240F2E73200BF019B03F10103019302
:1021D000019B9342F7D94FF46043C4F20F0340F6DA
:1021E000C222C0F28E421A6642F61002C0F280028B
:1021F0001A674FF000030193019BB3F57A7F09D270
:1022000040F2E73200BF019B03F101030193019B00
:102210009342F7D94FF46043C4F20F0340F6C22251
:10222000C0F2CE421A661B6D13F0400F08D14FF476
:102230006042C4F20F0200BF136D13F0400FFAD0DA
:102240004FF46043C4F20F0340F2C222C0F2CE4208
:102250001A6642F61002C0F280021A674FF00003BD
:102260000193019BB3F57A7F09D240F2E73200BFB8
:10227000019B03F101030193019B9342F7D94FF4B2
:102280006043C4F20F03196E1A6F002AB4BF02F044
:10229000700301F03003202B00F0858004D883B157
:1022A000102B40F0528115E0602B00F0E580702B80
:1022B00000F0DF80302B08BF47F2305340F04581FB
:1022C000DCE043F61C33C0F20003C1F3841053F882
:1022D0002030D3E04FF46043C4F20F031B6813F0C7
:1022E000E04F04BF4EF2C013C0F2E40300F0C6801A
:1022F0004FF46043C4F20F0318684FF00003C7F2B5
:10230000FF0300EA0303B3F1805F04BF4EF2C01382
:10231000C0F2E40300F0B2804FF46043C4F20F0354
:1023200018684FF00003C7F2FF0300EA03034FF001
:102330000000C1F2010083420DD14FF46043C4F2AA
:102340000F031B689BB2022B04BF4FF4D853C0F29B
:10235000B70300F093804FF46043C4F20F03186892
:102360004FF00003C7F2FF0300EA03034FF0000041
:10237000C1F2030083421CBF4FF41053C0F2F403B8
:102380007CD14FF46043C4F20F031C68A4B24FF435
:10239000D853C0F2B7034FF41050C0F2F400002C31
:1023A00018BF03466AE04FF46043C4F20F031B6892
:1023B00013F0E04F04BF43F67003C0F239035DD061
:1023C0004FF46043C4F20F0318684FF00003C7F2E4
:1023D000FF0300EA0303B3F1805F04BF43F6700319
:1023E000C0F239034AD04FF46043C4F20F031868B7
:1023F0004FF00003C7F2FF0300EA03034FF00000B1
:10240000C1F2010083420CD14FF46043C4F20F03C8
:102410001B689BB2022B04BF4CF2C063C0F22D03B9
:102420002CD04FF46043C4F20F0318684FF0000340
:10243000C7F2FF0300EA03034FF00000C1F20300FC
:1024400083421CBF4FF41063C0F23D0316D14FF41A
:102450006043C4F20F031C68A4B24CF2C063C0F224
:102460002D034FF41060C0F23D00002C18BF03464E
:1024700004E04FF4004301E04FF48003002A03DA44
:1024800012F4006F03D03AE011F4006F37D14FF42B
:102490006044C4F20F04606E246814F0E04F0DD065
:1024A0004FF46044C4F20F0425684FF00004C7F2F3
:1024B000FF0405EA0404B4F1805F0CD1C0F34814B2
:1024C00004F1020404FB03F300F01F0404F102040E
:1024D000B3FBF4F30BE0C0F3481404FB03F300F088
:1024E0001F0404F101044FEA4404B3FBF4F310F4B5
:1024F000804F18BF5B0810F4004F18BF9B0811F401
:10250000800F1DD0002A15DA12F0804F0BD012F484
:10251000006F08D14FEA4303C2F3865202F1010271
:10252000B3FBF2F30CE0C2F3C55202F10102B3FBBC
:10253000F2F305E0C1F3C35101F10101B3FBF1F383
:1025400040F2AC32C2F20002136002B030BC7047FD
:1025500043F67830C0F20000704700BF08B501F0C4
:10256000CBF808BD08B5FDF71DFF08BD08B572B66C
:1025700040F20003C2F200034FF000021A7000F0B4
:102580003DF862B6FDF7B8FEFDF70EFFFCE700BFB1
:10259000F8B504460D4616461F4601F1FF33DBB27F
:1025A0003E2B04D912484FF06001FDF70DFF04F1F6
:1025B00004003146FAB200F0C1F92575204600F05A
:1025C000CDF9079BD3F1010338BF0023069A002AF7
:1025D00014BF002303F0010323B905484FF06A013B
:1025E000FDF7F2FE2046089900F06CFCF8BD00BF34
:1025F000803B000008B500F0D1F908BD2DE9F04797
:1026000040F2B933C2F200031B783BB143F6843089
:10261000C0F200004FF03001FDF7D6FE40F2B033BB
:10262000C2F200031B78002B66D040F2B031C2F238
:1026300000010B7843F6C032C0F20002D35C03F114
:10264000FF33DBB2C9184978525C02EBC30303F0D5
:10265000FF0340F20002C2F200021278934250D906
:1026600040F2BC32C2F200021278934249D940F2E1
:102670000002C2F2000292F800A05FFA8AF940F26A
:10268000C037C2F20007904640F2B036C2F20006F0
:1026900057F8235088F8003062B6284600F0A8F8B2
:1026A00004462846214600F06BFC204600F098F9CD
:1026B00072B63378C3B1337843F6C032C0F2000249
:1026C000D35C03F1FF33DBB2F1184978525C02EBC3
:1026D000C30303F0FF03994506D240F2BC32C2F2B5
:1026E000000212789342D3D840F20003C2F20003F2
:1026F00083F800A0BDE8F08740F20003C2F20003B7
:102700001B78BDE8F08700BF024672B640F2BC33CA
:10271000C2F2000318781B7893423EBF40F2BC33EC
:10272000C2F200031A7062B6704700BF08B572B6F5
:1027300040F2BC33C2F200031B78834206D940F258
:10274000BC33C2F200031870FFF758FF62B608BD31
:1027500038B504460D4672B64B7813B103F1010348
:102760004B7063681BBB656040F2B033C2F200037C
:102770001D78217D43F66452C0F20002505C43F69E
:10278000DC42C0F200021418647845EA04041C70AC
:102790001B185878525C40EA02025A7040F2B93372
:1027A000C2F200031B780BBBFFF728FF1EE0E37BA0
:1027B0003BB943F69030C0F200004FF04501FDF701
:1027C00003FE627BA36843F82250637B0BB9237B33
:1027D0006373637B03F1FF336373E37B03F1FF33C5
:1027E000DBB2E373227C9A4288BF237462B638BDA1
:1027F00038B5044672B643683BB943F69830C0F228
:1028000000004FF03001FDF7DFFD6068E37B227BC5
:1028100093420ED0A17BA56855F82150656001B99F
:10282000A273A27B02F1FF32A27303F10103E373EF
:1028300026E04FF000036360217D43F66453C0F24D
:1028400000035C5C40F2B033C2F200031B195D78F8
:1028500043F62052C0F20002525C05EA02025A70AE
:102860005B786BB940F2B033C2F20003197843F6DB
:102870002052C0F200021419627801EA02021A70B2
:1028800062B638BD10B504463F2806D840F2C033C2
:10289000C2F2000353F820303BB943F69830C0F23F
:1028A00000004FF05A01FDF78FFD72B662B640F29C
:1028B000C033C2F2000353F82430187C10BD00BFAF
:1028C00070B50D46047D43F66453C0F200031E5DEF
:1028D000032917D940F20853C2F200031A78231EC5
:1028E00018BF01238A4294BF002303F001034BB1B8
:1028F0003F2C07D840F2C033C2F2000353F8243013
:10290000834207D043F6A030C0F200004FF0300100
:10291000FDF75AFD72B640F20453C2F200031B6881
:1029200003EBC50543F6DC43C0F20003AA5D1B5D63
:1029300042EA0303AB5562B670BD00BF4FF000031F
:1029400003604160027243728372C2720273704705
:1029500043F6A830C0F20000704700BF38B5054606
:10296000047D04F1FF33DBB23E2B06D840F2C033C6
:10297000C2F2000353F8243023B107484FF040015E
:10298000FDF722FD72B640F2C033C2F2000343F8F5
:10299000245062B638BD00BFB03B000010B5047DC6
:1029A00004F1FF33DBB23E2B07D840F2C033C2F252
:1029B000000353F82430834204D008484FF05401F8
:1029C000FDF702FD72B640F2C033C2F200034FF0D1
:1029D000000243F8242062B610BD00BFB03B0000E7
:1029E00038B5044645784DB372B605F03F03012B68
:1029F00004DD05F1FF35457062B638BD4FEA951527
:102A000005F1FF35EDB262B640F2C443C2F20003F5
:102A10001B78AB4207D843F6B830C0F200004FF045
:102A20004901FDF7D1FC05EB850540F2C843C2F230
:102A3000000303EB8500214600F0BCF938BD00BF60
:102A40002DE9F843074689464FF0000440F2C84597
:102A5000C2F2000540F2C446C2F2000643F6C04886
:102A6000C0F200080AE004F10104E4B23378A342A2
:102A700004D840464FF03001FDF7A6FC04EB840378
:102A800005EB83039B89BB42EDD304EB840040F24A
:102A9000C843C2F2000303EB800000F0F7F80546DC
:102AA00038B943F6C040C0F200004FF03A01FDF7DC
:102AB0008BFC85F8009004F101044FEA84146C70DB
:102AC0002846BDE8F88300BFF8B506460F46154610
:102AD00040F2C443C2F200031B78022B07D943F62D
:102AE000C840C0F200004FF02E01FDF76DFC40F22F
:102AF000C443C2F200031B78A3B140F2C442C2F245
:102B0000000203F1FF3303EB830302EB8302138A1A
:102B1000AB4207D343F6C840C0F200004FF031018A
:102B2000FDF752FC40F2C444C2F2000404F1040276
:102B3000237803EB830302EB830031463A462B46AE
:102B400000F0D6F8237803F101032370F8BD00BF2D
:102B500040F20453C2F2000318601971704700BFBD
:102B60002DE9F04F83B0074640F20853C2F200034C
:102B700002781B789A4207D343F6D040C0F2000097
:102B80004FF02C01FDF720FC72B67B7813B103F1F6
:102B900001037B7062B64FF0080B40F20451C2F2A1
:102BA0000001019143F6C039C0F2000943F6205AF2
:102BB000C0F2000A40F2C036C2F200060BF1FF3B41
:102BC0005FFA8BFB3A7801990B6803EBC20313F8A9
:102BD0000B40E4B14FEACB085FFA88F819F80450CB
:102BE0001AF805301C404544EDB256F825303BB983
:102BF00043F6D040C0F200004FF05501FDF7E4FB72
:102C000056F825003946FFF7A3FD002CE6D1BBF1AD
:102C1000000FD3D13846FFF7E3FE03B0BDE8F08FD5
:102C2000F8B572B640F21053C2F200031C68002CD3
:102C30002AD01E464FF0000540F20C57C2F20007A2
:102C4000238A03F1FF339BB22382BBB9638A0BB1A2
:102C500023820DE033689C4202D1A368336006E012
:102C6000A3680BB162685A606368A2689A60656085
:102C700062B6E0682146FFF76BFD01E062B63D7089
:102C800072B6A468002CDBD162B6F8BD034672B6FA
:102C9000006850B102681A601A8A02F1FF3292B2DB
:102CA0001A82598A914288BF5A8262B6704700BF21
:102CB00010B5044630B140F2C443C2F200031B78A1
:102CC000834207D243F6A850C0F200004FF04501FE
:102CD000FDF77AFB72B662B640F2C843C2F2000357
:102CE00004F1FF3404EB840403EB8403588A10BD21
:102CF0002DE9F041044617461E468846032A94BF34
:102D00000023012300290CBF002303F0010323B19A
:102D100006F104039BB29E4207D343F6B050C0F2C3
:102D200000004FF03601FDF74FFBC4F800804FF074
:102D30000403A381042E9CBF042301250BD94FF06B
:102D400004034FF0010503F104039BB205F10105F3
:102D50009E42F8D8A3811E469F4207D243F6B05048
:102D6000C0F200004FF04401FDF72EFBBF1B4FF0F7
:102D70000103E3812268BE4288BF13460FD84FEAA1
:102D80008505C6F10001BF1B00E01A465319136008
:102D9000E28902F10102E2817F18F742F5D34FF098
:102DA00000021A60E28922826282C4F80480A36071
:102DB000BDE8F08138B504460D4643688B4206D81D
:102DC0008368994203D8028AC3899A4207D943F695
:102DD000BC50C0F200004FF02D01FDF7F5FA72B6BD
:102DE00023682B602560238A03F10103238262B6E6
:102DF00038BD00BF38B504460D46032907D843F651
:102E0000C450C0F200004FF02901FDF7DDFA4FF089
:102E100000036360A360E3602382638225706370B4
:102E200038BD00BF70B504460D46164662B1037842
:102E3000032B09D942680B1E18BF0123002A14BFB7
:102E4000002303F001033BB943F6D050C0F2000069
:102E50004FF03001FDF7B8FA26826460E56072B683
:102E600040F21053C2F200031B68A36003B15C6020
:102E700040F21053C2F200031C6062B670BD00BF86
:102E800072B64268CAB140F21053C2F200031B6826
:102E9000984206D140F21053C2F2000382681A60D1
:102EA00005E0836803B15A60436882689A604FF016
:102EB000000343604FF0010001E04FF0000062B6F4
:102EC000704700BF2DE9F04186B00546036898477A
:102ED000022807D043F6D850C0F200004FF02D0171
:102EE000FDF772FA43F2E516C0F2000643F6F85712
:102EF000C0F2000707F102082C6800942846394602
:102F0000A0472B68B34202BF2C60264600241DD088
:102F10004FF0000404F10104E4B262B206A901EB2F
:102F2000820242F8183C2846394698472B68B3423B
:102F3000F0D1009E2E6063B2052B07DD43F6D8501A
:102F4000C0F200004FF04401FDF73EFA63B206AA5A
:102F500002EB830353F8183C28464146984704F196
:102F6000FF34E4B214F0800FF0D028460349B04794
:102F70000228C1D02E6006B0BDE8F081FE3D000001
:102F80002DE9F04786B005460C4606682F682846AE
:102F90002146B8470328F9D0022840F01681D5F819
:102FA0000090CDF800900196BE420ED08A4C43F6B8
:102FB000F858C0F2000828462146B04710B9284604
:102FC0004146B0472E68B742F5D14F4508D1284653
:102FD0008149B847FDE014F0800F00F09A80A8E026
:102FE000284643F6F851C0F20001C8472C68A742B2
:102FF00000F0EF80284643F6F851C0F20001B847D0
:10300000D5F80080A04503D128467349B847E0E0D1
:10301000C14503D128467049B8478AE00194284643
:1030200043F6F851C0F20001A047032802BF012473
:1030300043F6F859C0F2000901D02AE0344604F101
:103040000106F6B22B6872B206A901EB820242F8C1
:10305000183C9F420BD176B2052EBCDD43F6E450FE
:10306000C0F200004FF07A01FDF7AEF9B3E7284651
:10307000494698470328E1D0344676B2052E0ADD4A
:1030800043F6E450C0F200004FF08501FDF79CF9D3
:1030900001E04FF0010428464F49B84723465AB291
:1030A00006A901EB820252F8182C904503D103F1D6
:1030B000FF33DCB28FE703F1FF33DBB213F0800F95
:1030C000EDD04FF0010A444E43F6F859C0F2000922
:1030D000274628463146C04710B928464946C047CA
:1030E000D5F800803B465AB206A901EB820252F89D
:1030F000182C424503D103F1FF33DCB26BE703F137
:10310000FF33DBB213F0800FEDD0BAF1000FE0D146
:1031100061E7324E63B206AA02EB830353F8183C10
:1031200028463146984704F1FF34E4B214F0800F8A
:10313000F0D0009E2E60DFF8A890A9F104083FE0CF
:103140002C680094284643F6F851C0F20001A047CD
:103150002B68B34202BF2C602646002421D04FF0DA
:10316000000443F6F857C0F2000704F10104E4B28A
:1031700062B206A901EB820242F8183C28463946A1
:1031800098472B68B342F0D1009E2E6063B2052BA6
:1031900007DD43F6E450C0F200004FF0D901FDF71F
:1031A00013F963B206AA02EB830353F8183C2846CE
:1031B0004146984704F1FF34E4B214F0800FF0D098
:1031C00028464946B0470228BAD02E6006B0BDE86E
:1031D000F0874FF000049CE7FC3D0000FA3D000042
:1031E000FE3D00004FF00100704700BF43F6F05075
:1031F000C0F20000704700BF2DE9114087B090F881
:1032000000F091F800F091F820F0042AC0F0578106
:10321000C1F1000313F0030311D05FEAC37CA2EBFA
:10322000030244BF11F8013B00F8013B21BF11F834
:10323000014B11F801CB00F8014B00F801CB80EAFB
:10324000010C1CF0030F50D18DE8E00FC0F100031A
:1032500013F01C0316D0934288BF02F01C035FEAF0
:10326000037C24BFF0C9F0C044BFB1E80003A0E86C
:10327000000313F0040F1CBF51F804AB40F804AB7B
:10328000A2EB0302203A0DD321F01F0C0CF1400CED
:10329000B1E8F00F9CF840F0203AA0E8F00FF7D228
:1032A00002F1200212F01F0F1AD05FEA027C24BF45
:1032B000F0C9F0C044BFB1E80003A0E800035FEA32
:1032C000827C24BF51F8043B40F8043B44BF31F8F2
:1032D000024B20F8024B12F0010F1CBF0B78037059
:1032E000BDE8E00FBDE811407047042AC0F0E78058
:1032F0008DE8E00FC0F1000505F003054FEAC50CAD
:10330000CCF1200E51F8043BA2F10402ED0744BFBA
:1033100000F8013B1B0A21BF00F8013B1B0A00F823
:10332000013B1B0A042AC0F0BC8010F01C0F0FD018
:1033300051F8045BA2F1040205FA0EF443EA040416
:1033400025FA0CF340F8044B042AEED2C0F0A98011
:10335000203AC0F09280BCF1180F60D0BCF1080F89
:103360002ED051F804CB6446B1E8E00F91F840F05C
:10337000203A28BF51F804CB43EA04434FEA1444EF
:1033800044EA05444FEA154545EA06454FEA164624
:1033900046EA07464FEA174747EA08474FEA184800
:1033A00048EA09484FEA194949EA0A494FEA1A4ADC
:1033B0004AEA0B4AA0E8F8074FEA1B43D3D25CE085
:1033C00051F804CB6446B1E8E00F91F840F0203AA0
:1033D00028BF51F804CB43EA04634FEA142444EABB
:1033E00005644FEA152545EA06654FEA162646EAC2
:1033F00007664FEA172747EA08674FEA182848EA9E
:1034000009684FEA192949EA0A694FEA1A2A4AEA79
:103410000B6AA0E8F8074FEA1B23D3D22DE051F83E
:1034200004CB6446B1E8E00F91F840F0203A28BFA1
:1034300051F804CB43EA04234FEA146444EA052418
:103440004FEA156545EA06254FEA166646EA07265D
:103450004FEA176747EA08274FEA186848EA092839
:103460004FEA196949EA0A294FEA1A6A4AEA0B2A15
:10347000A0E8F8074FEA1B63D3D2CEF1200C02F18B
:103480002002042A0DD351F8045BA2F1040205FACC
:103490000EF443EA040425FA0CF340F8044B042A22
:1034A000F1D25FEA0E7544BF00F8013B1B0A22BF50
:1034B00000F8013B1B0A00F8013B9DE8E00FD20732
:1034C00044BF11F8012B00F8012B21BF11F8013B7B
:1034D00091F800C000F8013B80F800C007B0BDE8DB
:1034E0001140704770B500240C4D0D4E761BB61080
:1034F00003E055F8043B01349847B442F9D3094D31
:10350000FEF7EAFD084E0024761BB61003E055F8DE
:10351000043B01349847B442F9D370BD383E0000F3
:10352000383E0000383E0000383E00008842F0B4CB
:1035300005460E460DD98B1898420AD23AB1194663
:10354000831811F8014D013A03F8014DF9D1F0BC8F
:1035500070470F2A31D941EA000313F0030F2ED12F
:103560000C46034615462668103D1E6066685E6080
:10357000A6689E60E6681034DE6010330F2DF2D826
:10358000103A22F00F0602F00F021036032A00EB69
:1035900006050E4411D937462C46134657F8041B2E
:1035A000043B032B44F8041BF8D8043A22F003032D
:1035B00002F003020433ED18F618002AC7D00023E6
:1035C000F45CEC5401339342FAD1C0E7032AC9B248
:1035D000F0B408D82AB10346121803F8011B93422D
:1035E000FBD1F0BC70478218044601E004F8011BCF
:1035F00014F0030FFAD1151B4FF00136072D06FB0F
:1036000001F603DD0AE044F8046B151B032DFADC18
:1036100001E004F8011BA242FBD8E2E714F0070F17
:1036200002D044F8046BF9E74FF0013303FB01F3D8
:10363000171B254680347F2F40DD44F8803C44F83A
:103640007C3C44F8783C44F8743C44F8703C44F8C2
:103650006C3C44F8683C44F8643C44F8603C44F8F2
:103660005C3C44F8583C44F8543C44F8503C44F822
:103670004C3C44F8483C44F8443C44F8403C44F852
:103680003C3C44F8383C44F8343C44F8303C44F882
:103690002C3C44F8283C44F8243C44F8203C44F8B2
:1036A0001C3C44F8183C44F8143C44F8103C44F8E2
:1036B0000C3C44F8083C44F8043CB9E7571B2C4642
:1036C00020351F2F10DD45F8203C45F81C3C45F8FF
:1036D000183C45F8143C45F8103C45F80C3C45F8BE
:1036E000083C45F8043CE9E7151B072D8EDD2360F7
:1036F00063600834F8E700BFEFF3108072B6064944
:103700008A68FF231B041A438A604A681B021A4313
:103710004A6080F31088704718ED00E072B60848E0
:103720000078002805D001210906064803B486B0B8
:10373000704762B67047FEF761FF62B600DF0000B7
:10374000B00300203637000008B0704704000000C6
:103750006273702E6300000005000000B0800480DA
:1037600010400000B080048012400000B18004804E
:1037700010400000B18004801240000000000000F2
:103780000000004F00000007000700147F147F14A2
:10379000242A7F2A122313086462364955225000D6
:1037A00005030000001C2241000041221C001408F7
:1037B0003E081408083E08080050300000080808B9
:1037C0000808006060000020100804023E514945CE
:1037D0003E00427F400042615149462141454B3104
:1037E0001814127F1027454545393C4A4949300194
:1037F000710905033649494936064949291E0036EB
:10380000360000005636000008142241001414143B
:103810001414004122140802015109063249794169
:103820003E7E1111117E7F494949363E4141412278
:103830007F4141221C7F494949417F090909013ED5
:103840004149497A7F0808087F00417F41002040B4
:10385000413F017F081422417F404040407F020CDD
:10386000027F7F0408107F3E4141413E7F090909E4
:10387000063E4151215E7F09192946464949493191
:1038800001017F01013F4040403F1F2040201F3F7A
:103890004038403F631408146307087008076151FB
:1038A000494543007F414100020408102000414186
:1038B0007F00040201020440404040400001020435
:1038C0000020545454787F484444383844444420B9
:1038D000384444487F3854545418087E0901020C77
:1038E0005252523E7F0804047800447D400020403C
:1038F000443D007F1028440000417F40007C0418B4
:1039000004787C0804047838444444387C14141443
:1039100008081414187C7C080404084854545420E3
:10392000043F4440203C4040207C1C2040201C3C64
:103930004030403C44281028440C5050503C4464D3
:10394000544C44000836410000007F00000041361E
:1039500008000201020402000480AE80E30680AD8C
:10396000808A80E30680A8801F80E30480C880E30B
:103970000480A080E30480D880E304800580E30411
:10398000804080E3068081805D80E30680D98011DD
:1039900080E30680D5800180E30680D3800080E349
:1039A0000480AF80E30000000480AE80E304800464
:1039B00080E304801280E3068081802B80E3048012
:1039C000A180E304804080E30680D3800080E3068A
:1039D00080A8800F80E30480A480E30480A680E3B5
:1039E0000480B080E30480C880E30680D5807280C4
:1039F000E30680D8800080E30680D9802280E30639
:103A000080DA801280E30680DB800F80E30680ADE1
:103A1000808B80E30480AF80E30000000E00010093
:103A2000130019006D696E65312E63000E000200EF
:103A300013002D006D696E65322E63006801002051
:103A40008401002074756E6E656C2E6300000000AA
:103A5000AC3A000037000000E43A00000500000026
:103A6000EC3A000003000000F03A00000300000000
:103A7000F43A000004000000F83A000004000000DE
:103A8000FC3A000007000000043B000007000000B3
:103A90000C3B000007000000143B00000700000082
:103AA0000C0000000D000000280300207F0909061B
:103AB000007C08040400385454580048545424002E
:103AC00048545424000000007F494936003C4040DF
:103AD0007C00043F4400043F440038444438007CE8
:103AE0000404780007060604040000000101010038
:103AF0000207020009060609000606000000081475
:103B0000080000000000140814000000002214083F
:103B100014220000492A146B142A490040420F0065
:103B200000201C0080841E0000802500999E360025
:103B30000040380000093D0000803E0000004B00BE
:103B4000404B4C0000204E00808D5B0000C05D00AB
:103B50000080700000127A0000007D0080969800BE
:103B6000001BB7000080BB00C0E8CE00647ADA001A
:103B70000024F4000000FA00342E312E303700000B
:103B8000716B0000716B5F73636865640000000017
:103B900071615F6669666F0071615F6765745F0080
:103BA00071615F7375620000342E312E3037000072
:103BB00071665F616374000071665F676300000097
:103BC00000010202030303030404040404040404C4
:103BD0000505050505050505050505050505050595
:103BE0000606060606060606060606060606060675
:103BF0000606060606060606060606060606060665
:103C00000707070707070707070707070707070744
:103C10000707070707070707070707070707070734
:103C20000707070707070707070707070707070724
:103C30000707070707070707070707070707070714
:103C400008080808080808080808080808080808F4
:103C500008080808080808080808080808080808E4
:103C600008080808080808080808080808080808D4
:103C700008080808080808080808080808080808C4
:103C800008080808080808080808080808080808B4
:103C900008080808080808080808080808080808A4
:103CA0000808080808080808080808080808080894
:103CB0000808080808080808080808080808080884
:103CC00071665F6E6577000071665F706F6F6C0084
:103CD00071665F707370756200000000000102047D
:103CE00008102040800102040810204080010204D6
:103CF00008102040800102040810204080010204C6
:103D000008102040800102040810204080010204B5
:103D100008102040800102040810204080000000AC
:103D2000FFFEFDFBF7EFDFBF7FFEFDFBF7EFDFBF21
:103D30007FFEFDFBF7EFDFBF7FFEFDFBF7EFDFBF91
:103D40007FFEFDFBF7EFDFBF7FFEFDFBF7EFDFBF81
:103D50007FFEFDFBF7EFDFBF7FFEFDFBF7EFDFBF71
:103D60007F000000000000000000000000010101D1
:103D70000101010101020202020202020203030325
:103D800003030303030404040404040404050505F5
:103D900005050505050606060606060606070707C5
:103DA0000707070707000000716D705F6765740003
:103DB000716D705F696E697400000000716D705FF5
:103DC000707574007174655F63746F720000000039
:103DD0007174655F61726D007168736D5F696E69A2
:103DE000000000007168736D5F646973000000007B
:103DF000342E312E30370000000001000200030095
:103E000047616D65204F76657200000020202020FC
:103E1000202020202000000053636F72653A0000CC
:103E2000737461727475705F73746D3332663130A0
:083E3000785F636C00000000E4
:043E38004000000046
:040000030000204D8C
:00000001FF
