:10000000640700204D1800003118000000000000B7
:1000100031180000311800003118000031180000BC
:1000200031180000311800003118000031180000AC
:1000300031180000311800003118000039010000AB
:10004000311800003118000031180000311800008C
:10005000311800003118000031180000311800007C
:10006000311800003118000031180000311800006C
:10007000311800003118000031180000311800005C
:100080003118000021030000311800003118000071
:10009000311800003118000031180000311800003C
:1000A000311800003118000031180000311800002C
:1000B000311800003118000031180000311800001C
:1000C000311800003118000031180000311800000C
:1000D00031180000311800003118000031180000FC
:1000E00031180000311800003118000031180000EC
:1000F00000BF70474209012300F01F0013FA00F00F
:10010000014B43F82200704700E100E000284FEA6D
:10011000411106DA064B00F00F00C9B2C318197678
:100120007047044BC9B2C31883F80013704700BF6F
:10013000FCEC00E000E100E0684620F007018D469D
:1001400001B501F07FFE034801F030FEBDE801403B
:10015000854670476429000010B501F0EDFB374B70
:10016000D3F8002142F48032C3F80021D3F80421EF
:1001700042F44032C3F80421D3F8082142F00502CA
:10018000C3F80821FFF7B4FFFFF7B2FFFFF7B0FF96
:100190002B4B02215A6922F4704242F4A0425A6168
:1001A0001A6A22F470421A62D3F8A02022F06F0279
:1001B00042F06002C3F8A020D3F8A42022F00F027E
:1001C00042F00602C3F8A4201A6842F008021A603E
:1001D0001C4BDA6822F00112DA6000221A605960C2
:1001E000194908687821B0FBF1F19962D9680120BA
:1001F00041F00201D960D96841F02001D960134B68
:10020000D3F8001441F02001C3F80014D3F81C15F2
:1002100041F02001C3F81C15C3F88020D3F8002456
:1002200022F01002C3F80024D3F81C2542F010027B
:10023000C3F81C25BDE8104000F0FCB900E00F40F9
:100240000080034000100340A8030020006000402D
:1002500007B50B46D208002100920A4600F0AEF91D
:100260000EBD10B50B460446214610461A46BDE8A1
:10027000104000F047B9704700F094BA00F0C6BAD9
:100280001B4B10B51A681E23B2FBF3F3B3F1807F4A
:100290000DD2184C23F07F43013B63604FF0FF30D9
:1002A0000721FFF733FF0023A360073323604FF0DC
:1002B000FF300221FFF72AFF11200121FFF726FF5F
:1002C00000200146FFF722FF1120FFF713FF002057
:1002D000FFF710FF084B0822DA609A6842F0080224
:1002E0009A60064BDA6842F00112DA6010BD00BF76
:1002F000A803002010E000E000800340001003404D
:100300007047054B2022C3F88020203AC3F8802094
:1003100030BF62B6704700BF0060004072B6FEE7B3
:10032000684620F007018D4631B52C4C0823E36068
:10033000D4F8AC3013F4807F03D029485C21FFF758
:10034000EDFFD4F8A830274C043322686FF00D0578
:100350009B1A02EBE3035D43236005F56055636878
:10036000AD0A9D420CD00921042001F0C1FC0A23F2
:1003700083701D4B0146C570186801F013FC656061
:100380001A4B227A1B6C032A24D8DFE802F00209F8
:100390000F18E26893421DD0124B01221A7219E025
:1003A000E168104A8B4207D0022306E0E1680D4A5B
:1003B0008B4201D0032300E0002313720AE0E268BD
:1003C000934205D0074AD36013B9094801F0EEFC07
:1003D00000232372BDE8314085467047008003400A
:1003E0006629000000000020442C0000006000404E
:1003F0006C29000092E700BF034B7A221A60773A1B
:1004000098605A60704700BF000002400138FDD17B
:100410007047704738B50546054C6369002BFBD023
:10042000044B1868FFF7F2FF0123A560636038BD35
:10043000000002401000002070B50646094C6369B8
:10044000002BFBD0084B1D682846FFF7DFFF052374
:10045000A6606360034B5B69002BFBD02846BDE8B8
:100460007040D3E7000002401000002070B5044641
:100470000D460DE0084E7369002BFBD0074B013D84
:100480001868FFF7C3FF14F8013BB36001237360E2
:10049000002DEFD170BD00BF000002401000002011
:1004A00070B58020FFF7A8FF134B06211C79134B72
:1004B0005F25981F002C08BF1846FFF7D7FF0020C4
:1004C000FFF7A8FF013DFAD12846FFF7B5FF8020CE
:1004D000FFF792FF0A4B0621981F002C08BF184611
:1004E000FFF7C4FF5F240020FFF794FF013CFAD11F
:1004F0002046BDE870409FE71000002074290000EE
:100500008029000070B51646054680200C46FFF78E
:1005100073FF002E14BFB120B020FFF77BFF8020B7
:10052000FFF778FF234B5E79361906F00F00FFF7CF
:1005300071FF36098020FFF76DFF06F00F0040F0D5
:100540001000FFF767FF4020FFF764FF2CE05A2CF4
:10055000194A4FEA830112D8CB18A3F1A000052154
:100560001018FFF783FF5A2C02D0737801350BB9AE
:10057000002016E00020FFF74DFF063414E0CB18F2
:10058000A3F1A000C4F15F0410182146A2F11806DF
:10059000FFF76CFF2B78203B03EB8303F61834192D
:1005A000207EBDE8704047E72B782E46002BCED149
:1005B00070BD00BF10000020862900002DE9F8431F
:1005C00098461B4B04465F791546CF194FEA171919
:1005D00009F00F09089E49F0100924E08020FFF778
:1005E0000BFF002D14BFB120B020FFF713FF8020B8
:1005F000FFF710FF07F00F00FFF70CFF8020FFF759
:1006000009FF4846FFF706FF4020FFF703FF20469B
:1006100008F1FF314444FFF729FF14F8010CFFF7FC
:100620000BFF0135013E002ED8D1BDE8F88300BF95
:10063000100000202DE9F041514B524CD3F8042119
:10064000064642F48052C3F80421D3F8082142F050
:100650000202C3F808215D68C5F300352571002D3D
:100660000CBF24220422627112D0D3F80821012089
:1006700042F00802C3F80821FFF7C8FE424BD3F846
:10068000002442F08002C3F800248022C3F8002234
:100690003E4B3F49D3F8002422F00C02C3F800245B
:1006A000D3F8202442F00C02C3F82024D3F800250C
:1006B00042F00C02C3F80025D3F8182522F00C02F2
:1006C000C3F81825D3F80C2542F00C02C3F80C250A
:1006D000D3F8102542F00C02C3F81025D3F81C25DE
:1006E00042F00C02C3F81C25D3F8282522F00C0296
:1006F000C3F82825274B1A6A42F010021A62264ACC
:10070000002E0CBF0E46164614225643234A12688A
:10071000013A9219B2FBF6F6013EDE60DB68442234
:10072000013353432360002420E01D4EA6F14D0306
:10073000002D08BF3346771EA6F14E08185D002D28
:100740000CBF3E464646FFF757FE315DA01C3018F1
:100750000239002D18BF4746FFF788FE3B5D3F1961
:10076000F85CFFF769FE335D0133E418002D0CBF20
:1007700071234D239C42D8D3BDE8F04190E600BFE1
:1007800000E00F40100000200070004000500040CA
:10079000A086010000000240801A0600A803002085
:1007A000AF2B00002DE9F041002421E0154EA6F109
:1007B0004D03002D08BF3346771EA6F14E08185D85
:1007C000002D0CBF3E464646FFF716FE315DA01CCD
:1007D00030180239002D14BF45463D46FFF746FE4E
:1007E0002B5D2D19E85CFFF727FE335D0133E4181C
:1007F000054B1D79002D0CBF71234D239C42D5D391
:10080000BDE8F081AF2B00001000002010B5802063
:10081000FFF7F2FDAE20FFF7FDFD8020FFF7FAFDA8
:10082000AD20FFF7F7FD8020FFF7F4FD8A20BDE83B
:10083000104001E630B5054685B00C4600F0BCFA24
:1008400000F0A2FB00F05CFF28461E4D2146FFF79A
:1008500083FC01F0E1FB28463421042201F072FA06
:10086000052205F13400412101F06CFA05F1750013
:10087000082101F095FA144B00241868012105F1B4
:10088000B802022300940194029401F0F9FB0F4B8B
:100890000221186805F1C002032300940194029418
:1008A00001F0EEFB0A4B0321186805F1CC020A2384
:1008B00000940194029401F0E3FB05B0BDE83040E0
:1008C00001F0ADBB18000020402C0000442C0000BB
:1008D000A82C0000044B1A780AB901321A70034B95
:1008E00003600220704700BF0C010020F1080000E7
:1008F0000B78152B07D18B780371CB784371044BA0
:10090000036002207047034B03600320704700BF61
:10091000D90900005924000010B50B780446022BB9
:1009200002D0172B13D10EE01621032001F0E0F9BD
:10093000094B0146E41A094BE4108470186801F071
:1009400031F9002010BD064B0360022010BD054B9D
:100950000360032010BD00BF10010020A82C000080
:10096000F10800005924000010B50B780446012B53
:1009700002D0042B25D102E00020A07110BD037924
:10098000DBB182790E2A18D80132013B82710371E2
:100990001421052001F0ACF923790146013383705D
:1009A0006379023BC370A3799B0806330371074B3D
:1009B000186801F0F7F8002010BD054B02202360F5
:1009C00010BD044B0360032010BD00BFA82C000025
:1009D000F10800001909000037B50B7804460F2B09
:1009E000084618D0102B28D0042B3AD1237913B302
:1009F000013B23711121052001F07AF92379014689
:100A000083706379C37003230371184B186801F076
:100A1000C9F8002028E0857803790095C07821790D
:100A200001906279032000F097FEE8B1104B114964
:100A3000186801F0B7F8104B10E08578037900953D
:100A4000C078217901906279032000F085FE58B1C9
:100A50000A4B0B49186801F0A5F80A4B23600220E5
:100A600002E0094B032023603EBD00BFA82C00001C
:100A7000442C0000202C0000F1080000402C000055
:100A8000242C00006909000019090000042810B591
:100A9000044603D905483821FFF740FC0448E40028
:100AA000044A031904305A60001910BD282C0000B4
:100AB0000C010020D5080000044B1A780AB9013255
:100AC0001A70034B03600220704700BF38010020FA
:100AD000D50A00000B78152B07D18B780371CB78E2
:100AE0004371044B036002207047034B03600320F3
:100AF000704700BFBD0B00005924000010B50B78F3
:100B00000446022B02D0172B13D10EE0162103202E
:100B100001F0EEF8094B0146E41A094BE410847029
:100B2000186801F03FF8002010BD064B036002205A
:100B300010BD054B0360032010BD00BF3C01002029
:100B4000A82C0000D50A00005924000010B50B782D
:100B50000446012B02D0042B25D102E00020A07115
:100B600010BD0379DBB182790E2A18D80132013B1E
:100B7000827103711421052001F0BAF8237901462E
:100B8000013383706379023BC370A3799B080633FA
:100B90000371074B186801F005F8002010BD054BE4
:100BA0000220236010BD044B0360032010BD00BF72
:100BB000A82C0000D50A0000FD0A000037B50D780A
:100BC00004460F2D084617D0102D27D0042D39D1FB
:100BD00023790BB3013B23711121052001F088F823
:100BE00023790146837063790571C370174B1868C8
:100BF00000F0D8FF002028E0857803790095C078C0
:100C0000217901906279042000F0A6FDE8B1104B33
:100C10001049186800F0C6FF0F4B10E08578037983
:100C20000095C078217901906279052000F094FD4B
:100C300058B10A4B0A49186800F0B4FF094B236009
:100C4000022002E0084B032023603EBDA82C0000D8
:100C5000442C0000302C0000D50A0000402C00007D
:100C6000342C00004D0B0000FD0A0000042810B5D4
:100C7000044603D905483821FFF750FB0448E40037
:100C8000044A031904305A60001910BD382C0000C2
:100C900038010020B90A00000B78122B07D18B789D
:100CA0000376CB784376044B036002207047034BF6
:100CB00003600320704700BFD90C000059240000D6
:100CC00010B50421044600F0ADFF024B0220236062
:100CD00010BD00BF990C000010B50B7804460D2B19
:100CE00019D0132B19D0042B1FD1037E5D2B18DCD8
:100CF000023303761021052000F0FAFF237E01461F
:100D00008370637EC370022303710A4B186800F07E
:100D100049FF002010BD084B04E0084B186800F0A4
:100D200041FF074B2360022010BD064B03600320E8
:100D300010BD00BFA82C0000490D0000442C00008D
:100D4000990C00005924000010B50B780446012BC3
:100D500002D0042B25D102E00020A07610BD037E36
:100D6000DBB1827E0E2A18D80132013B82760376EF
:100D70001421052000F0BCFF237E0146033383705D
:100D8000637E043BC370A37E9B0806330371074B4D
:100D9000186800F007FF002010BD054B02202360FB
:100DA00010BD044B0360032010BD00BFA82C000041
:100DB000990C000059240000014A024B1A60704748
:100DC000C10C0000640100200B78032B02D0092B1A
:100DD0000AD103E0064B0360022070478B7803764C
:100DE000CB78437600207047024B036003207047A6
:100DF000F90D0000592400000B780C2B03D1044B93
:100E0000036002207047034B03600320704700BF5C
:100E1000390E0000C90D000010B50421044600F091
:100E200001FF2046052100F0FDFE024B0220236059
:100E300010BD00BFC90D000070B50B780446013B22
:100E4000122B57D8DFE803F00A5656153D56565672
:100E5000565656565252565656564C0000238383C9
:100E60001821042000F044FFA48B01464480244B49
:100E700032E00F21052000F03BFF237E0146837006
:100E8000637EC370012303711D4B1E68304600F062
:100E900089FEA38B0A2201339BB2B3FBF2F502FB5E
:100EA0001535ADB2A383002D28D11821042000F000
:100EB0001FFFA48B01464480304600F073FE284695
:100EC00070BD1221042000F013FF237E01468370C1
:100ED000637E0233C3700B4B186800F063FE03E0BF
:100EE0004A88838BD3188383002070BD064B036030
:100EF000022070BD054B0360032070BD002070BD53
:100F0000A82C0000402C0000110F0000C90D0000AB
:100F100038B504460878012802D0042829D102E017
:100F20000020A07638BDA37E144D0E2B14D80133BB
:100F3000A3761421052000F0DBFEA37E01469B086A
:100F400006330371237E8370637E013BC370286880
:100F500000F028FE002038BD072100F0C9FEA38B59
:100F600001464380286800F01DFE054B02202360E7
:100F700038BD044B0320236038BD00BFA82C0000FF
:100F8000F90D0000C90D0000034B044A1A600A2243
:100F90001A76023A5A76704780010020190E000036
:100FA0000B78032B02D0052B06D101E0044B00E0A7
:100FB000044B036002207047034B0360032070471B
:100FC0000512000061130000E50F0000034B044808
:100FD0001A6850431860000A704700BFA001002043
:100FE000CD0D010038B50B780446062B0D4612D006
:100FF000162B14D18B78042B03D8103350F82330E0
:101000001BB90948A921FFF789F9AB7800201033F3
:1010100044F8230038BD054B0360022038BD044B63
:101020000360032038BD00BF482C000015110000EC
:101030005924000038B50446FFF7C8FFC0B22F2876
:1010400006D894F87F305BB1013B84F87F3007E02D
:10105000D02805D994F8803013B1013B84F8803052
:10106000FFF7B4FFC0B22F2817D894F87F3094F858
:101070008020C3F11001891A94F88120914227DD64
:1010800094F87D205A2A04D994F87E105A1C914273
:101090001EDD013384F87F301AE0D02818D994F887
:1010A0007F1094F88030C1F1100194F88120C91AA2
:1010B00091420DDD94F87D205A2A06D994F87E10CD
:1010C000C3F110020131914202DA013384F8803019
:1010D0000F4DBF22691D281D01F05EFB94F88010A2
:1010E00094F87F304FF0FF32C1F1100112FA01F194
:1010F00012FA03F361EA030385F8633005F1C400D3
:101100001B0A291DC13285F8C33001F0ABF938BD87
:10111000A001002008B50B78012B0DD10021C022C1
:10112000074801F089FB064860211022FFF790F87C
:1011300000F073FF002008BD024B0360032008BDD0
:10114000640200205924000038B50B780446013BA6
:101150000A2B3CD8DFE803F0061B3B3B3B3B3B3B09
:101160003B2637000F234385214618300F220025E8
:1011700000F016FF04F12C0021469622E58700F0CE
:101180000FFF84F87C5015200021134A17E0183017
:1011900000F026FF04F12C0000F022FF0020FFF7F2
:1011A0006AF80EE090F87C300B4A0C4C83F0010397
:1011B000002180F87C308B4218BF22461520FFF7B3
:1011C00050F8002038BD064B0360022038BD054BA7
:1011D0000360032038BD00BFD12F0000DB2F0000CB
:1011E00061130000E50F000070B50E46044600F1E3
:1011F0001405206C10B1314601F052F80434AC42B1
:10120000F7D170BD10B50B780446022B0ED00B2B16
:1012100013D0012B15D1FFF731F80023E38704F138
:101220002C0021465A2200F0BBFE04E02C3000F0D6
:10123000D7FEFFF721F8002010BD044B0360022009
:1012400010BD034B0360032010BD00BFD11200008E
:10125000A10F00000928F8B504460D46164604D92A
:10126000194840F2CB21FFF759F8174800EBC403A7
:101270001A7CC5F160039A42C8BFDAB2134B5D19FC
:1012800000231DE0002E4FEAC40106DB4118C968A7
:10129000CF5CF1B217FA01F106E04118C968CF5CE2
:1012A0007142C9B257FA01F12F7801330F4305F8A3
:1012B000017B95F85FC02F464CEA112185F85F103D
:1012C000D9B29142DED3F8BD482C00006402002060
:1012D00038B50B780446022B24D00B2B31D0012BD0
:1012E00033D1FFF773FE00210546C022194801F0F3
:1012F000A3FA2923B5FBF3F103FB1151002005F0FC
:101300000702C9B2FFF7A6FF602110221148FEF7BD
:101310009FFF0023E38704F12C0021460A2200F0FE
:101320003FFE0CE02C3000F05BFE0021C02209489B
:1013300001F082FA074860211022FEF789FF0020A1
:1013400038BD054B0360022038BD044B0360032009
:1013500038BD00BF6402002005120000A10F00008C
:1013600038B50B780446013B0A2B52D8DFE803F06E
:10137000062B513C4D51515151333A0000250D235C
:1013800080F8813080F87D5080F87E5080F87F5062
:1013900080F880502946C022204801F04DFA0F23E2
:1013A000638504F1180021460F2200F0F9FD04F1D5
:1013B0002C00E58721464FF4167200F0F1FD84F809
:1013C0007C50284638BD183000F00AFE04F12C008D
:1013D00000F006FE17E090F87C3083F0010380F8FF
:1013E0007C3010E00E4B11E0FFF724FE94F87C30C7
:1013F00023B1002014210422FFF72CFF09486021AB
:101400001022FEF725FF002038BD074B2360022085
:1014100038BD064B0360032038BD00BFA401002087
:10142000A10F00006402002031140000E50F00004D
:101430002DE9F0430B7885B0013B04460D46172B90
:1014400000F21981DFE813F01800260017012E00C2
:1014500017011701D900170117011701170117010B
:101460001701170182008200C50017011701C5008E
:10147000170117011701CC000D2380F881300021DE
:10148000C022804801F0D8F97F4B8049186800F0ED
:1014900089FB05E004A9172301F8043DFFF7A4FE2A
:1014A0000020EBE0602110227948FEF7D1FE2046B3
:1014B000FFF7C0FDFFF78AFD94F87D3013B1013BC3
:1014C00084F87D3094F87D30552B7FDC00F0FF00F0
:1014D00007287BD8234600261A6C22B10136043334
:1014E000052EF9D172E0FFF771FD94F8801010F02D
:1014F000010F0CBF04EB860206F11A0287B294F8C2
:101500007F000CBF526D54F82220C1F10C0106F18E
:101510001003091A44F82320831CB7FBF1F001FBE8
:1015200010715B186022DBB2152110368DF80410A3
:1015300084F87D2084F87E3054F8260001A98DF8C7
:1015400006208DF8073000F0ABFE3FE00E7991F8F1
:101550000380092E8F785FFA88F904D94D4840F24C
:10156000E521FEF7DBFE4B4A02EBC603197CC7F10F
:1015700060039942C8BFD9B2474B9646FA18002378
:1015800011E00EEBC600C06812F85FCCC05C00FA38
:1015900009F010EA0C0F0AD1013292F800C00133B1
:1015A0001CEA102C03D1D8B28842EAD308E02B7889
:1015B0003A490F2B0CBF344B394B186800F0F2FA44
:1015C000304639464FFA88F2FFF744FE2046294656
:1015D00064E7087995F903208978FFF73BFE5FE718
:1015E0004888FEF748FE6A884FF4FA63B2FBF3F3CB
:1015F000C3F10D0384F8813052E74D882846FEF789
:101600003AFE0021C022224801F016F9204860214C
:101610001022FEF71DFE12200121224AFEF721FEB4
:1016200000238DF808300A33B5FBF3F203FB1255A3
:1016300092B2B2FBF3F103FB112289B230328DF882
:101640000620B1FBF3F203FB121130318DF80510C7
:10165000B2FBF3F101FB132304AA303302F80C3D73
:101660003620303501218DF80750FEF7FAFD0E4B7C
:101670000220236002E00D4B0360032005B0BDE8AB
:10168000F08300BFA4010020442C0000A42C000023
:1016900064020020482C000003020020A62C000059
:1016A000402C0000E52F000049110000E50F00006C
:1016B00070B50446054600F11406686D002100F07F
:1016C000A5FDA86E0021043500F0A0FDB542F4D1BF
:1016D000094B40F2D2421A602046042100F0A2FADF
:1016E0002046052100F09EFA2046062100F09AFAD5
:1016F000024B0220236070BDA00100206113000096
:1017000070B5134C134B04F5CE700A21C4F8843124
:1017100000F032FC04F5D8700B2100F02DFC04F52C
:10172000EA7600252846FFF7B1F946F8040F284667
:10173000FFF79CFA0135EDB20023052D706146F8E4
:10174000143CEFD184F8013284F8023270BD00BF3E
:10175000A0010020B11600002DE9F8430928054634
:101760000C46164698469DF820709DF8249001D8A6
:10177000092B04D92D4840F20331FEF7CFFDBC42BE
:101780002A4B24D803EBC802127CA218BA4247DDC8
:101790003C1BD71B03EBC502117CFFB2E4B28F42A6
:1017A00028BF0F4600220EE003EBC501C968885C24
:1017B00003EBC801C968B0408918095D013201FA1C
:1017C00009F1084229D1D1B2B942EDD328E003EBA7
:1017D000C502127CB918A14222DDE01B141B03EBE9
:1017E000C802117C3F19FFB2C0B28F4228BF0F461A
:1017F00000220EE003EBC801C9688C5C03EBC50155
:10180000C96804FA09F48918095C0132B1400C4234
:1018100009D1D1B2B942EDD302E00120BDE8F8838D
:101820000020BDE8F8830120BDE8F883482C0000C3
:10183000684620F007018D4601B540F207110248C5
:10184000FEF7D8FDFEE700BFEC2F0000684620F051
:1018500007018D4601B50F4A0F4B03E052F8041BF8
:1018600043F8041B0D498B42F8D30D4B02E00022D4
:1018700043F8042B0B4A9342F9D300F069FFFEF7BB
:10188000D9FF09484FF48171FEF7B4FDBDE801406E
:101890008546704704300000000000200000002052
:1018A000000000200C050020EC2F0000704700BF56
:1018B000EFF30980704780F309887047EFF30880E1
:1018C000704780F308887047EFF31280704780F309
:1018D00011887047EFF31080704780F310887047CD
:1018E000EFF31380704780F31388704700BA704796
:1018F00040BA7047C0BA704790FAA0F07047D0E87D
:101900004F0FC0B27047D0E85F0F80B2704750E809
:10191000000F7047C1E8400F7047C1E8500F704793
:1019200041E800007047EFF31480704780F314889B
:101930007047000000BF7047874B884A73B51A672D
:10194000874A1A66874A1A66874A1A67002303E09D
:10195000FFF7F0FF019B01330193019BB3F57A7F01
:10196000F6D37D4B814A1A667F4A1A67002303E04B
:10197000FFF7E0FF019B01330193019BB3F57A7FF1
:10198000F6D37B4A744B1A6601E0FFF7D3FF724B24
:101990001A6D12F0400FF8D0764A1A66724A1A672A
:1019A000002303E0FFF7C6FF019B01330193019B76
:1019B000B3F57A7FF6D3684B196E1A6F1846002A72
:1019C000B4BF02F0700301F03003202B3AD004D8EA
:1019D0006BB1102B40F0BE8010E0602B5DD0702BFF
:1019E00058D0302B40F0B68047F2305363E001F41A
:1019F000F860614B800953F820305CE0564B186862
:101A000010F0E04F4CD01C685C4804EA0000B0F1D4
:101A1000805F45D01C68594804EA0000584CA04239
:101A200003D11B689BB2022B3CD04B48534B04683C
:101A300004EA0303534CA34236D10368524C9BB2D1
:101A4000524822E00068444B10F0E04F2ED01C6852
:101A50004A4804EA0000B0F1805F27D01C6847487C
:101A600004EA0000464CA04203D11B689BB2022B43
:101A70001ED03948414B046804EA0303414CA34299
:101A800018D10368424C43489BB2002B0CBF23463D
:101A9000034610E04FF400430DE04FF480030AE0EA
:101AA0003D4B08E0384B06E0384B04E03B4B02E08E
:101AB000374B00E0374B002A02DA12F4006F01E0E6
:101AC00011F4006F27D1244D686E2C6814F0E04F9C
:101AD00043F6E07400EA040406D02E68274D06EAB7
:101AE0000505B5F1805F06D16409023400F01F05D9
:101AF0006343023505E06409634300F01F050135C7
:101B00006D00B3FBF5F310F4804F18BF5B0810F4C1
:101B1000004F18BF9B0811F4800F19D0002A11DA6A
:101B200012F0804F07D012F4006F04D102F0FE5281
:101B30005B00920D02E002F0FC52D20D0132B3FBC9
:101B4000F2F305E001F0F061C90D0131B3FBF1F3EF
:101B5000134A13607CBD00BF00E00F4010288007CF
:101B6000D13A8E07C22A8E0410288000C20A8E0441
:101B7000C20ACE04C202CE04142D00000000FF7081
:101B80000000011000000310001BB7000024F40047
:101B9000C0C62D0000093D00C0E1E40070383900E6
:101BA000A803002038B504460D4672B64B780BB139
:101BB00001334B70636893B9227D1649164B885CDC
:101BC000164965600C181D7864788A5C45EA04043F
:101BD0001C701B18587840EA02025A7018E0E37B28
:101BE0001BB90F484521FEF799FBA368627B43F8B8
:101BF0002250637B0BB9237B6373637B227C013BA5
:101C00006373E37B013BDBB29A42E37388BF2374C7
:101C100062B638BD272E000000050020A52D00006B
:101C2000702D000070B5114B047D03290D461E5D1B
:101C30000BD90F4B1B788B4207D934B13F2C04D8FA
:101C40000C4B53F82430834203D00B483021FEF76D
:101C500065FB72B6094B1B6803EBC505084BAA5D13
:101C60001B5D42EA0303AB5562B670BD272E000030
:101C7000F4040020AC030020782D0000F0040020C4
:101C8000A52D0000004870477F2D000070B5047D31
:101C90000646631EDBB23E2B064D02D855F82430B3
:101CA0001BB105484021FEF739FB72B645F82460A8
:101CB00062B670BDAC030020862D000038B5047DEF
:101CC000094D631EDBB23E2B03D855F82430834206
:101CD00003D006485421FEF721FB72B6002345F8D5
:101CE000243062B638BD00BFAC030020862D000052
:101CF00070B505460E46002409E00F4B01341B78F1
:101D0000E4B2A34203D80D483021FEF707FB0C4B89
:101D1000142000FB04308389AB42EED300F0C2F8FC
:101D2000054618B905483A21FEF7F8FA0134A4012E
:101D30002E706C70284670BDB00400208D2D000000
:101D4000B4040020F8B5134C074623780E46022B46
:101D5000154603D910482E21FEF7E0FA23785BB12F
:101D60000C4A013B142101FB03231B8AAB4203D322
:101D700009481D31FEF7D2FA2278084B142000FBE7
:101D8000023039462B46324600F0B6F8237801334C
:101D90002370F8BDB0040020942D0000B40400208E
:101DA000014B186019717047F00400202DE9F047CD
:101DB0001E4B02781B7804469A4203D31C482C2100
:101DC000FEF7ACFA72B663780BB10133637062B69A
:101DD0000825184B013D22781B68EDB203EBC203C6
:101DE0004FEAC5095E5D5FFA89F916E0124B134FA1
:101DF00013F80680124B13F80830C8445FFA88F8CD
:101E00001E4057F828301BB909485521FEF786FABD
:101E100057F828002146FFF7C5FE002EE6D1002D19
:101E2000D7D12046BDE8F04700F0AAB9F40400205D
:101E30009C2D0000F0040020A82E0000AC03002020
:101E4000E62D000038B572B6144D2C6822E0238AC6
:101E5000013B9BB22382BBB9638A0BB123820DE0A5
:101E60002B689C42A36802D10C4A136004E00BB1BA
:101E700062685A60626893600023636062B6E068DB
:101E80002146FFF78FFE03E062B6054B00221A7071
:101E900072B6A468002CDAD162B638BDFC0400200A
:101EA000F8040020034672B6006848B10268598AF7
:101EB0001A601A8A013A92B291421A8288BF5A82F3
:101EC00062B6704710B5044618B1084B1B788342C0
:101ED00003D207484521FEF721FA72B662B6054BD8
:101EE000013C142202FB0434608A10BDB0040020BF
:101EF000682E0000B40400202DE9F843044615467E
:101F000099460F4629B1032A03D904339BB24B45A6
:101F100003D818483621FEF701FA04232760A3816D
:101F20004FF0010803E00436A68108F10108A689F4
:101F30004E45F8D3B54203D20E484421FEF7EEF9E0
:101F40000123E381AD1B23684FEA880807E003EB18
:101F500008021A60E389AD1B0133E3811346B542E1
:101F6000F5D200221A60E289676022826282A36051
:101F7000BDE8F883702E0000032938B504460D46ED
:101F800003D806482921FEF7C9F900236360A3603E
:101F9000E360238263822570637038BD792E000070
:101FA00070B504460D4616462AB10378032B02D9B4
:101FB000436803B919B908483021FEF7AFF9268202
:101FC0006460E56072B6054A1368A36003B15C60A3
:101FD000146062B670BD00BF822E0000FC040020B9
:101FE00072B6426872B109490B689842836801D1A0
:101FF0000B6003E003B15A604268936000234360C2
:10200000012000E0104662B6704700BFFC040020CB
:10201000004870478A2E00007047FEF771B938B546
:10202000FEF72EF972B6134B1A78FAB11A7862B12C
:102030001A7811498A5C013AD2B29B185B78CB5C62
:1020400003EBC20303F0FF0300E013460B4A52F810
:10205000235062B6284600F039F804462146284647
:1020600000F01EF9204600F08BF8DBE7FEF749F997
:10207000D8E700BF00050020A82E0000AC03002018
:102080002DE9F04117464A1ED2B23E2A9846044630
:102090000D46069B089E00D81BB10A486721FEF733
:1020A0003DF93946201D5FFA88F200F05FF82046BE
:1020B0002575FFF7EBFD20463146BDE8F04100F005
:1020C000A5B800BF912E0000FFF7F8BD70B504461B
:1020D00072B643681BB916483021FEF71FF9E37B3F
:1020E000227B606893420CD0A17BA56855F82150F3
:1020F000656001B9A273A27B0133013AA273E37355
:1021000014E000236360257D0A4B0B4C595D0B4B9B
:10211000655D5A18567806EA0505557052782AB951
:1021200061181D784A7805EA02021A7062B670BD1D
:102130009A2E0000272E0000E62D0000000500204A
:102140003F2838B50446074D02D855F820301BB952
:1021500005485A21FEF7E2F872B662B655F8243007
:10216000187C38BDAC0300209A2E000000230360C9
:102170004160027243728372C27202737047000040
:1021800070B545780446002D1DD072B605F03F03AA
:10219000012B03DD013D457062B670BDAD09013D07
:1021A000EDB262B6084B1B78AB4203D80748492111
:1021B000FEF7B4F8064B142000FB05302146BDE8BD
:1021C000704000F007B870BDB0040020A22E0000DF
:1021D000B404002038B5436804468B420D4606D847
:1021E0008368994203D8028AC3899A4203D9064870
:1021F0002D21FEF793F872B623682B60238A2560A1
:102200000133238262B638BDA82F0000F0B5036801
:1022100087B004469847022803D01C482D21FEF7BA
:102220007DF81B4E236806AF47F8183D2046194934
:102230009847002506E0013547F8043F2046154938
:10224000EDB298472368B342F5D1009E6BB2052BDF
:10225000266003DD0D484421FEF760F86FB20137B8
:1022600000AB03EB8707013D57F8043D20460A49C0
:10227000EDB2984715F0800FF5D020460749B047DA
:102280000228CFD0266007B0F0BD00BFB02F0000FD
:1022900059240000C92F0000CB2F0000CF2F0000D1
:1022A0002DE9F043056887B004460E4627682046AE
:1022B0003146B8470328F9D0022840F0BF80D4F84F
:1022C00000900195CDF8009007E020465D49A847B1
:1022D00010B920465C49A8472568BD42F5D14D4557
:1022E00009D120465749A84700256EB2013600A8FB
:1022F00000EB86066CE020465349C847D4F80080BE
:102300004545F1D020465049A84726684645E8D0C3
:102310004E4504D120464B49A847FF25E5E7CDF8B7
:10232000048020464849C047012518E005F101080E
:1023300023685FFA88F84FFA88F206A800EB82015A
:10234000BB4241F8183C06D1052ACEDD3F487A2130
:10235000FDF7E4FFC9E720463B4998474546032877
:10236000E4D06BB2052B03DD38488521FDF7D6FF9D
:1023700020463449B8476FB200AB013703EB8707FB
:102380003A462B4652F8041D013B8E4212D0DBB276
:1023900013F0800FF6D020462A49B04710B92046E6
:1023A0002949B04726683A462B4652F8041D013B9E
:1023B0008E4201D1DDB298E7DBB213F0800FF4D08A
:1023C000E9E756F8043D204621499847013DEDB222
:1023D00015F0800FF5D0009D25602AE0236806AF38
:1023E00047F8183D204618499847002606E0013670
:1023F00047F8043F20461449F6B298472368AB4299
:10240000F5D1009D73B2052B256003DD0F48D9215E
:10241000FDF784FF77B2013700A800EB8707013E84
:1024200057F8043D20460A49F6B2984716F0800F47
:10243000F5D020460749A8470228CFD0256007B02D
:10244000BDE8F083CD2F0000C92F0000B92F000098
:10245000CB2F0000CF2F00000120704700487047AD
:10246000C22F00002DE9114087B090F800F091F8DC
:1024700000F091F820F0042AC0F05781C1F1000368
:1024800013F0030311D05FEAC37CA2EB030244BF45
:1024900011F8013B00F8013B21BF11F8014B11F885
:1024A00001CB00F8014B00F801CB80EA010C1CF0D5
:1024B000030F50D18DE8E00FC0F1000313F01C03AF
:1024C00016D0934288BF02F01C035FEA037C24BF4E
:1024D000F0C9F0C044BFB1E80003A0E8000313F066
:1024E000040F1CBF51F804AB40F804ABA2EB03028D
:1024F000203A0DD321F01F0C0CF1400CB1E8F00F85
:102500009CF840F0203AA0E8F00FF7D202F1200248
:1025100012F01F0F1AD05FEA027C24BFF0C9F0C08E
:1025200044BFB1E80003A0E800035FEA827C24BF57
:1025300051F8043B40F8043B44BF31F8024B20F80B
:10254000024B12F0010F1CBF0B780370BDE8E00FC7
:10255000BDE811407047042AC0F0E7808DE8E00F25
:10256000C0F1000505F003054FEAC50CCCF1200EC3
:1025700051F8043BA2F10402ED0744BF00F8013B0F
:102580001B0A21BF00F8013B1B0A00F8013B1B0A94
:10259000042AC0F0BC8010F01C0F0FD051F8045B6F
:1025A000A2F1040205FA0EF443EA040425FA0CF33E
:1025B00040F8044B042AEED2C0F0A980203AC0F0C3
:1025C0009280BCF1180F60D0BCF1080F2ED051F8EA
:1025D00004CB6446B1E8E00F91F840F0203A28BF00
:1025E00051F804CB43EA04434FEA144444EA054457
:1025F0004FEA154545EA06454FEA164646EA0746BC
:102600004FEA174747EA08474FEA184848EA094897
:102610004FEA194949EA0A494FEA1A4A4AEA0B4A73
:10262000A0E8F8074FEA1B43D3D25CE051F804CB93
:102630006446B1E8E00F91F840F0203A28BF51F825
:1026400004CB43EA04634FEA142444EA05644FEAE6
:10265000152545EA06654FEA162646EA07664FEA5B
:10266000172747EA08674FEA182848EA09684FEA37
:10267000192949EA0A694FEA1A2A4AEA0B6AA0E8C4
:10268000F8074FEA1B23D3D22DE051F804CB644660
:10269000B1E8E00F91F840F0203A28BF51F804CBA0
:1026A00043EA04234FEA146444EA05244FEA15651B
:1026B00045EA06254FEA166646EA07264FEA1767F7
:1026C00047EA08274FEA186848EA09284FEA1969D3
:1026D00049EA0A294FEA1A6A4AEA0B2AA0E8F807E7
:1026E0004FEA1B63D3D2CEF1200C02F12002042A60
:1026F0000DD351F8045BA2F1040205FA0EF443EA8B
:10270000040425FA0CF340F8044B042AF1D25FEAE2
:102710000E7544BF00F8013B1B0A22BF00F8013BC5
:102720001B0A00F8013B9DE8E00FD20744BF11F8F7
:10273000012B00F8012B21BF11F8013B91F800C0DB
:1027400000F8013B80F800C007B0BDE811407047B9
:1027500070B500240C4D0D4E761BB61003E055F8F5
:10276000043B01349847B442F9D3094DFFF79EF872
:10277000084E0024761BB61003E055F8043B0134E4
:102780009847B442F9D370BD043000000430000013
:1027900004300000043000008842F0B405460E46C4
:1027A0000DD98B1898420AD23AB11946831811F8FC
:1027B000014D013A03F8014DF9D1F0BC70470F2AE1
:1027C00031D941EA000313F0030F2ED10C46034622
:1027D00015462668103D1E6066685E60A6689E60AD
:1027E000E6681034DE6010330F2DF2D8103A22F074
:1027F0000F0602F00F021036032A00EB06050E4406
:1028000011D937462C46134657F8041B043B032BBB
:1028100044F8041BF8D8043A22F0030302F0030240
:102820000433ED18F618002AC7D00023F45CEC54EA
:1028300001339342FAD1C0E7032AC9B2F0B408D8F1
:102840002AB10346121803F8011B9342FBD1F0BCD6
:1028500070478218044601E004F8011B14F0030FCE
:10286000FAD1151B4FF00136072D06FB01F603DDEB
:102870000AE044F8046B151B032DFADC01E004F8B0
:10288000011BA242FBD8E2E714F0070F02D044F884
:10289000046BF9E74FF0013303FB01F3171B2546E7
:1028A00080347F2F40DD44F8803C44F87C3C44F881
:1028B000783C44F8743C44F8703C44F86C3C44F870
:1028C000683C44F8643C44F8603C44F85C3C44F8A0
:1028D000583C44F8543C44F8503C44F84C3C44F8D0
:1028E000483C44F8443C44F8403C44F83C3C44F800
:1028F000383C44F8343C44F8303C44F82C3C44F830
:10290000283C44F8243C44F8203C44F81C3C44F85F
:10291000183C44F8143C44F8103C44F80C3C44F88F
:10292000083C44F8043CB9E7571B2C4620351F2FC0
:1029300010DD45F8203C45F81C3C45F8183C45F8AE
:10294000143C45F8103C45F80C3C45F8083C45F86B
:10295000043CE9E7151B072D8EDD23606360083416
:10296000F8E700BF04006273702E63000500B080BA
:1029700004801040B08004801240B1800480104078
:10298000B18004801240000000000000004F0000F1
:102990000007000700147F147F14242A7F2A1223C3
:1029A0001308646236495522500005030000001CDC
:1029B0002241000041221C0014083E081408083E71
:1029C000080800503000000808080808006060008F
:1029D0000020100804023E5149453E00427F40005D
:1029E00042615149462141454B311814127F10274D
:1029F000454545393C4A4949300171090503364985
:102A0000494936064949291E003636000000563627
:102A1000000008142241001414141414004122145C
:102A2000080201510906324979413E7E1111117E99
:102A30007F494949363E414141227F4141221C7F25
:102A4000494949417F090909013E4149497A7F08BD
:102A500008087F00417F41002040413F017F08146A
:102A600022417F404040407F020C027F7F040810DB
:102A70007F3E4141413E7F090909063E4151215EA9
:102A80007F09192946464949493101017F01013F22
:102A90004040403F1F2040201F3F4038403F6314CC
:102AA00008146307087008076151494543007F41D6
:102AB000410002040810200041417F00040201028D
:102AC0000440404040400001020400205454547827
:102AD0007F484444383844444420384444487F388C
:102AE00054545418087E0901020C5252523E7F0879
:102AF00004047800447D40002040443D007F1028BD
:102B0000440000417F40007C041804787C080404E1
:102B10007838444444387C14141408081414187C7D
:102B20007C080404084854545420043F4440203C8A
:102B30004040207C1C2040201C3C4030403C44282D
:102B40001028440C5050503C4464544C4400083607
:102B5000410000007F00000041360800020102042D
:102B6000020480AE80E30680AD808A80E30680A800
:102B7000801F80E30480C880E30480A080E3048099
:102B8000D880E304800580E304804080E3068081F0
:102B9000805D80E30680D9801180E30680D58001C6
:102BA00080E30680D3800080E30480AF80E304806C
:102BB000AE80E304800480E304801280E306808119
:102BC000802B80E30480A180E304804080E30680C2
:102BD000D3800080E30680A8800F80E30480A48077
:102BE000E30480A680E30480B080E30480C880E32F
:102BF0000680D5807280E30680D8800080E306805E
:102C0000D9802280E30680DA801280E30680DB80B0
:102C10000F80E30680AD808B80E30480AF80E3000B
:102C20000E000100130019006D696E65312E6300FE
:102C30000E00020013002D006D696E65322E6300D8
:102C4000640100208001002074756E6E656C2E6337
:102C500000000000AC2C000037000000E32C000056
:102C600005000000E82C000003000000EB2C000031
:102C700003000000EE2C000004000000F22C000015
:102C800004000000F62C000007000000FD2C0000EE
:102C900007000000042D0000070000000B2D0000BD
:102CA000070000000C000D00240300207F09090626
:102CB000007C08040400385454580048545424003C
:102CC00048545424000000007F494936003C4040ED
:102CD0007C00043F4400043F440038444438007CF6
:102CE000040478070606040401010102070209062C
:102CF0000609000606000000081408000000001481
:102D00000814000000221408142200492A146B142D
:102D10002A49000040420F0000201C0080841E0051
:102D200000802500999E36000040380000093D00D3
:102D300000803E0000004B00404B4C0000204E0045
:102D4000808D5B0000C05D000080700000127A0082
:102D500000007D0080969800001BB7000080BB003B
:102D6000C0E8CE00647ADA000024F4000000FA0023
:102D700071615F6669666F0071615F7375620034CF
:102D80002E312E30370071665F6163740071665FAB
:102D90006E65770071665F706F6F6C0071665F7053
:102DA0007370756200000102040810204080010267
:102DB0000408102040800102040810204080010215
:102DC0000408102040800102040810204080010205
:102DD00004081020408001020408102040800102F5
:102DE000040810204080FFFEFDFBF7EFDFBF7FFEF1
:102DF000FDFBF7EFDFBF7FFEFDFBF7EFDFBF7FFEE1
:102E0000FDFBF7EFDFBF7FFEFDFBF7EFDFBF7FFED0
:102E1000FDFBF7EFDFBF7FFEFDFBF7EFDFBF7FFEC0
:102E2000FDFBF7EFDFBF7F000000000000000000A7
:102E3000010101010101010102020202020202027A
:102E4000030303030303030304040404040404044A
:102E5000050505050505050506060606060606061A
:102E60000707070707070707716D705F676574003D
:102E7000716D705F696E6974007174655F63746F02
:102E800072007174655F61726D00342E312E3035C1
:102E9000007176616E696C6C610071615F67657469
:102EA0005F0071665F6763000001020203030303B2
:102EB00004040404040404040505050505050505CA
:102EC00005050505050505050606060606060606AA
:102ED0000606060606060606060606060606060692
:102EE000060606060606060607070707070707077A
:102EF0000707070707070707070707070707070762
:102F00000707070707070707070707070707070751
:102F10000707070707070707070707070707070741
:102F20000707070707070707080808080808080829
:102F30000808080808080808080808080808080811
:102F40000808080808080808080808080808080801
:102F500008080808080808080808080808080808F1
:102F600008080808080808080808080808080808E1
:102F700008080808080808080808080808080808D1
:102F800008080808080808080808080808080808C1
:102F900008080808080808080808080808080808B1
:102FA0000808080808080808716D705F70757400DB
:102FB0007168736D5F696E69007168736D5F6469D4
:102FC0007300342E312E3037000000010002000360
:102FD0000047616D65204F7665720020202020201B
:102FE000202020200053636F72653A007374617271
:102FF0007475705F73746D3332663130785F636CF3
:0430000000000000CC
:040000030000184D94
:00000001FF
