:1000000048110020B53700009937000000000000BB
:1000100099370000993700009937000099370000A0
:10002000993700009937000099370000856D00006E
:100030009937000099370000596D000059090000F8
:1000400049060000993700009937000099370000F1
:100050009937000099370000993700009937000060
:100060009937000099370000993700009937000050
:100070009937000099370000993700009937000040
:1000800099370000350700009937000099370000C4
:100090009937000099370000993700009937000020
:1000A0009937000099370000993700009937000010
:1000B0009937000099370000993700009937000000
:1000C00099370000993700009937000099370000F0
:1000D00099370000993700009937000099370000E0
:1000E00099370000993700009937000099370000D0
:1000F00000B583B00B464FEAD20200924FF00001E8
:100100000A4600F003FE03B000BD00BF10B5044670
:100110000B46104621461A4600F07EFD10BD00BF7A
:10012000704700BF08B500F02BFF08BD08B500F010
:100130006FFF08BD40F6B413C2F200031A6848F618
:100140008903C8F68803A3FB02134FEA1313B3F124
:10015000807F16D223F07F4303F1FF324EF210036B
:10016000CEF200035A604FF46D42CEF200024FF01F
:10017000E00182F823104FF000029A604FF007026E
:100180001A604FF46D43CEF200034FF0400283F843
:1001900023204FF46143CEF200034FF0200283F896
:1001A00011234FF0000283F800234FF400321A604D
:1001B0004FF001021A604FF40043C4F203034FF002
:1001C0000802DA609A6842F008029A604FF480539D
:1001D000C4F20303DA6842F00112DA60704700BF2C
:1001E000704700BF00B583B072B64FF4C043C4F28D
:1001F00000034FF02002C3F880204FF00002C3F844
:10020000802062B64FF44043C4F200039B6913F0B0
:10021000800F1ED002A84FF0100320F8023D72B6E6
:1002200006F0CEFA62B6BDF8063003F1FF32ADF843
:10023000062073B14FF44041C4F2000110F8013BB5
:100240000B60BDF8063003F1FF32ADF80620002B3D
:10025000F4D103B000BD00BF72B6FEE708B5FFF7EA
:10026000FBFF08BD10B540F20404C2F200042046B2
:100270004FF4C06105F07EF84FF46043C4F20F0301
:10028000D3F8042142F00102C3F80421D3F8082175
:1002900042F00102C3F8082100BF00BF00BF4FF4C5
:1002A000804363F31F43D3F8002422F003024FF48A
:1002B000804363F31F43C3F800244FF4804363F388
:1002C0001F43D3F8202442F003024FF4804363F32A
:1002D0001F43C3F820244FF4804363F31F43D3F834
:1002E000002542F003024FF4804363F31F43C3F839
:1002F00000254FF4804363F31F43D3F8182522F001
:1003000003024FF4804363F31F43C3F818254FF4EF
:10031000804363F31F43D3F80C2522F003024FF40C
:10032000804363F31F43C3F80C254FF4804363F30A
:100330001F43D3F8102522F003024FF4804363F3E8
:100340001F43C3F810254FF4804363F31F43D3F8D2
:10035000142522F003024FF4804363F31F43C3F8D4
:1003600014254FF4804363F31F43D3F81C2542F058
:1003700003024FF4804363F31F43C3F81C2540F688
:10038000B413C2F2000319684FEAC1024BF2C5333D
:10039000C9F2A213A3FB02024FEA124202F10102C8
:1003A0004FEAD2104FF44043C4F200035862C2F344
:1003B00045029A624FF06002DA62DA6A42F0100295
:1003C000DA621A6B42F4407242F001021A6348F694
:1003D0008903C8F68803A3FB01234FEA1313C4F86B
:1003E0000036C4F804364FF0FF0004F0CBFF4FF0A6
:1003F0000A0004F0E9FF4FF00B0004F0E5FF4FF0B6
:100400000C0004F0E1FF4FF00D0004F0DDFF4FF0B1
:100410000E0004F0D9FF4FF00F0004F0D5FF4FF0AD
:10042000100004F0D1FF4FF0110004F0CDFF4FF0A9
:10043000120004F0C9FF4FF0130004F0C5FF4FF0A5
:10044000140004F0C1FF4FF0150004F0BDFF4FF0A1
:10045000160004F0B9FF4FF0170004F0B5FF4FF09D
:10046000180004F0B1FF4FF0190004F0ADFF4FF099
:100470001A0004F0A9FF4FF01C0004F0A5FF4FF094
:100480001D0004F0A1FF4FF01E0004F09DFF4FF08F
:10049000200004F099FF4FF0210004F095FF4FF089
:1004A000220004F091FF4FF0230004F08DFF4FF085
:1004B000240004F089FF4FF0250004F085FF4FF081
:1004C000270004F081FF4FF0280004F07DFF4FF07B
:1004D000290004F079FF4FF02A0004F075FF4FF077
:1004E000010010BD10B503F0FFF94FF46043C4F2F2
:1004F0000F03D3F8002142F48032C3F80021D3F86F
:10050000042142F44032C3F80421D3F8082142F018
:100510000502C3F8082100BF00BF00BF4FF400432D
:10052000C4F203035A6922F4704242F4A0425A61B1
:100530001A6A22F470421A62D3F8A02022F06F02E5
:1005400042F06002C3F8A020D3F8A42022F00F02EA
:1005500042F00602C3F8A4201A6842F008021A60AA
:100560004FF48053C4F20303DA6822F00112DA6018
:100570004FF000041C604FF002025A6040F6B412C3
:10058000C2F20002116848F68902C8F68802A2FB8E
:1005900001024FEA92129A62DA6842F00202DA60CD
:1005A000DA6842F02002DA604FF4C043C4F200037C
:1005B000D3F8002442F02002C3F80024D3F81C250D
:1005C00042F02002C3F81C25C3F88040D3F8002471
:1005D00022F01002C3F80024D3F81C2542F01002C8
:1005E000C3F81C254FF0010000F0D2FB2046FFF7B6
:1005F00039FE38B946F68850C0F200004FF0D501F8
:10060000FFF72AFE10BD00BF704700BF4EF2100377
:10061000CEF200031B6813F4807F4EF21003CEF27B
:1006200000039A6840F20403C2F2000307BFD3F844
:100630000406C2EB0000D3F80006D3F804361CBF52
:10064000C018C2EB00007047684620F007018D46D5
:1006500019B572B640F6C113C2F200031A7802F15E
:100660000102D2B21A7040F62433C2F200035B7961
:1006700013F0020F17D04FF0290004F0C7FEFFF768
:10068000C5FF05F0CFFD40F6C113C2F20003187894
:1006900005F03CFC40F20003C2F20003187805F0BC
:1006A00035FC04F089FF62B647F20063C0F2000334
:1006B0001C684FF002004FF0080103F0FBFE0146FA
:1006C000204603F059FC72B640F62433C2F2000310
:1006D0005B7913F0040F17D04FF02A0004F096FE58
:1006E000FFF794FF05F09EFD40F6C113C2F2000330
:1006F000187805F00BFC40F20003C2F200031878F2
:1007000005F004FC04F058FF40F6C113C2F20003E8
:100710001A7802F1FF32D2B21A704EF60453CEF2BA
:1007200000034FF080521A6062B6BDE8194085465A
:10073000704700BF684620F007018D4619B572B6B4
:1007400040F6C113C2F200031A7802F10102D2B2DC
:100750001A7040F62433C2F200035B7913F0020FE3
:1007600017D04FF0290004F051FEFFF74FFF05F0BE
:1007700059FD40F6C113C2F20003187805F0C6FB1C
:1007800040F20003C2F20003187805F0BFFB04F04A
:1007900013FF62B64FF40043C4F203034FF00802A4
:1007A000DA60D3F8AC3013F4807F07D046F6885077
:1007B000C0F200004FF06201FFF74EFD4FF400431E
:1007C000C4F20303D3F8A84040F20403C2F20003CA
:1007D000D3F8082604F10404A41A02EBE404C3F8D5
:1007E0000846A4EBC4044FEA440404F560544FEAFD
:1007F0009424D3F80C369C4217D04FF004004FF0ED
:10080000090103F057FE01464FF00A038370C470DC
:1008100047F22043C0F20003186803F0ADFB40F23A
:100820000403C2F20003C3F80C464FF4C043C4F201
:1008300000031A6C40F20403C2F2000393F810366E
:10084000032B50D8DFE803F00213243540F20403F1
:10085000C2F20003D3F814369A4244D040F20403A3
:10086000C2F200034FF0010283F810263BE040F291
:100870000403C2F20003D3F814369A4240F2040390
:10088000C2F2000314BF0222002283F810262AE0DD
:1008900040F20403C2F20003D3F814369A4240F245
:1008A0000403C2F2000314BF0322002283F81026BF
:1008B00019E040F20403C2F20003D3F814369A425E
:1008C00009D040F20403C2F20003C3F8142612B99F
:1008D000204803F099FE40F20403C2F200034FF0F7
:1008E000000283F8102672B640F62433C2F20003E9
:1008F0005B7913F0040F17D04FF02A0004F086FD47
:10090000FFF784FE05F08EFC40F6C113C2F200032F
:10091000187805F0FBFA40F20003C2F200031878E1
:1009200005F0F4FA04F048FE40F6C113C2F20003E9
:100930001A7802F1FF32D2B21A704EF60453CEF298
:1009400000034FF080521A6062B6BDE81940854638
:10095000704700BF906D0000684620F007018D468B
:1009600001B572B640F6C113C2F200031A7802F163
:100970000102D2B21A7040F62433C2F200035B794E
:1009800013F0020F17D04FF0290004F03FFDFFF7DE
:100990003DFE05F047FC40F6C113C2F20003187893
:1009A00005F0B4FA40F20003C2F20003187805F033
:1009B000ADFA04F001FE62B64EF21003CEF200036F
:1009C0001B6840F20403C2F20003D3F80016D3F808
:1009D00004268A18C3F8042603F08EFE1C4803F090
:1009E00013FE72B640F62433C2F200035B7913F0B3
:1009F000040F17D04FF02A0004F008FDFFF706FEA1
:100A000005F010FC40F6C113C2F20003187805F09F
:100A10007DFA40F20003C2F20003187805F076FA7E
:100A200004F0CAFD40F6C113C2F200031A7802F1C5
:100A3000FF32D2B21A704EF60453CEF200034FF0DA
:100A400080521A6062B6BDE801408546704700BF1B
:100A5000946D000030B583B002AD4FF0100325F85F
:100A6000023D72B64FF44044C4F200041BE062B68B
:100A7000A26912F0800FFBD0BDF8062002F1FF3111
:100A8000ADF8061052B113F8012B2260BDF8062014
:100A900002F1FF31ADF80610002AF4D14FF0100337
:100AA000ADF8063072B6284605F08AFE03460028E7
:100AB000DDD162B603B030BD4FF00003C4F20203D3
:100AC0004FF07A021A6098604FF003025A60704744
:100AD0000138FDD17047704710B504464FF0000251
:100AE000C4F202025369002BFCD040F21C63C2F234
:100AF00000031868FFF7ECFF4FF00003C4F2020395
:100B00009C604FF001025A6010BD00BF38B5054629
:100B10004FF00002C4F202025369002BFCD040F2F5
:100B20001C63C2F200031C682046FFF7D1FF4FF0A0
:100B30000003C4F202039D604FF005025A604FF0BB
:100B40000002C4F202025369002BFCD02046FFF7DA
:100B5000BFFF38BD2DE9F0410D46B9B106464FF053
:100B60000004C4F2020440F21C67C2F200074FF016
:100B700001086369002BFCD03868FFF7A9FF16F85D
:100B8000013BA360C4F80480013DF2D1BDE8F081CF
:100B900070B54FF08000FFF78FFF40F21C63C2F288
:100BA00000031E7946F69853C0F20003002E03F1AD
:100BB000080018BF18464FF00601FFF7CBFF4FF0B3
:100BC0005F044FF000052846FFF786FF013CFAD18D
:100BD0004FF00000FFF79AFF4FF08000FFF76CFF27
:100BE000002E0C4B03F1080018BF18464FF0060109
:100BF000FFF7B0FF4FF0000425462846FFF76CFFD3
:100C000004F101045F2CF8D14FF00000FFF77EFFE4
:100C100070BD00BFA86D00002DE9F84306460C46E4
:100C200015464FF08000FFF747FF002D14BFB1209D
:100C3000B020FFF751FF4FF08000FFF74DFF40F26B
:100C40001C63C2F200035D79281900F00F00FFF762
:100C500043FF4FF08000FFF73FFF6519C5F3031016
:100C600040F01000FFF738FF4FF04000FFF734FF6F
:100C70003378002B3DD1BDE8F88304F106045A2CEB
:100C80001CD803EB8303A3F1A00038184146FFF7FB
:100C900061FF5A2C03D02E4615F8013B2BB94FF0BB
:100CA0000000FFF733FFBDE8F8834846FFF714FF65
:100CB00015F8013C002BE0D1BDE8F883C4F15F05D5
:100CC00046F69854C0F2000403EB8303E018A0F149
:100CD00080002946FFF73EFF3378A3F1200303EBA2
:100CE0008303E418651995F82000FFF70FFFBDE8AE
:100CF000F8835A2CE2D806F10105034F4FF005089E
:100D00004FF00009BDE700BFB86D00002DE9F84FB6
:100D10000446154698460A9F40F21C63C2F200033F
:100D200093F805A08A4487B3CAF3031949F0100960
:100D30004FF080060AF00F0A08F1FF3B3046FFF73C
:100D4000BBFE002D14BFB120B020FFF7C5FE30461A
:100D5000FFF7C2FE5046FFF7BFFE3046FFF7BCFE6E
:100D60004846FFF7B9FE4FF04000FFF7B5FE2046BA
:100D70005946FFF7EFFE444414F8010CFFF7C6FE96
:100D8000013F02D005F10105D8E7BDE8F88F00BFAB
:100D90002DE9F84304464FF46043C4F20F03D3F83F
:100DA000042142F48052C3F80421D3F8082142F010
:100DB0000202C3F808215A68C2F30032D6B240F2E8
:100DC0001C63C2F200031A71002E00F0BB8040F2D7
:100DD0001C63C2F200034FF004025A714FF46043E7
:100DE000C4F20F03D3F8082142F00802C3F8082127
:100DF0004FF00100FFF76CFE4FF4E043C4F2000334
:100E0000D3F8002442F08002C3F800244FF080029F
:100E1000C3F800224FF4A043C4F20003D3F8002427
:100E200022F00C02C3F80024D3F8202442F00C0274
:100E3000C3F82024D3F8002542F00C02C3F80025A3
:100E4000D3F8182522F00C02C3F81825D3F80C2586
:100E500042F00C02C3F80C25D3F8102542F00C0226
:100E6000C3F81025D3F81C2542F00C02C3F81C254A
:100E7000D3F8282522F00C02C3F828254FF00003F0
:100E8000C4F202031A6A42F010021A6248F2A06227
:100E9000C0F201024FF4D453C0F20603002C0CBF81
:100EA00014461C4604EB84044FEA840440F6B41351
:100EB000C2F200031B6803F1FF331B19B3FBF4F408
:100EC00004F1FF344FF00003C4F20203DC60DA687F
:100ED00040F21C63C2F2000302F1010202EB0212B3
:100EE0004FEA82021A604FF0000446F69858C0F2AA
:100EF000000808F51377B9461AE05EB308F5FE75E9
:100F000063195878FFF7D8FD04F10200615D2818D5
:100F1000A1F10201FFF71EFE635D08EB0402D31886
:100F200093F8FC01FFF7F2FD2B5D03F10103E418D8
:100F3000002E0CBF71234D239C42DED3FFF728FE09
:100F4000BDE8F88340F21C63C2F200034FF02402B4
:100F50005A715FE7E3195878FFF7AEFD04F102001C
:100F6000E15D3818A1F10201FFF7F4FDE35D08EB44
:100F70000402D31893F84C02FFF7C8FD4D46D3E79F
:100F80002DE9F0414FF0000446F69857C0F20007F3
:100F900007F51376B04619E02BB307F5FE75631914
:100FA0005878FFF789FD04F10200615D2818A1F16E
:100FB0000201FFF7CFFD635D3A19D31893F8FC01E6
:100FC000FFF7A4FD2B5D03F10103E41840F21C635D
:100FD000C2F200031B79002B0CBF71224D229442F8
:100FE000DAD3BDE8F081A3195878FFF765FD04F165
:100FF0000200A15D3018A1F10201FFF7ABFDA35D76
:101000003A19D31893F84C02FFF780FD4546D9E70B
:1010100008B54FF08000FFF74FFD4FF0AE00FFF72F
:101020005BFD4FF08000FFF757FD4FF0AD00FFF77D
:1010300053FD4FF08000FFF74FFD4FF08A00FFF7A0
:1010400065FD08BD30B585B005460C4601F0F6F8E3
:1010500001F06EFB02F09AFA28462146FFF742FAA9
:1010600002F030FE40F22464C2F2000420464FF049
:1010700034014FF0040203F07BFA04F134004FF026
:1010800041014FF0050203F073FA04F178004FF0CC
:10109000080103F0B1FA40F62433C2F20003DB7911
:1010A00013F0200F76D072B64FF03D0004F0AEF989
:1010B00004F1B80005F0B6F847F25800C0F200009D
:1010C00005F020FB04F078FA62B6FFF7C3FC40F6A7
:1010D0002433C2F20003DB7913F0200F5AD072B62A
:1010E0004FF03D0004F092F904F1C00005F09AF8C9
:1010F0007F4805F007FB04F05FFA62B6FFF7AAFC31
:1011000040F62433C2F20003DB7913F0200F41D004
:1011100072B64FF03D0004F079F904F1CC0005F00F
:1011200081F8744805F0EEFA04F046FA62B6FFF76B
:1011300091FC40F62433C2F20003DB7913F0200F58
:1011400028D072B64FF03D0004F060F9204605F05B
:1011500069F8694805F0D6FA04F02EFA62B6FFF78E
:1011600079FC40F62433C2F20003DB7913F0200F40
:1011700010D072B64FF03D0004F048F904F134008D
:1011800005F050F85D4805F0BDFA04F015FA62B6B6
:10119000FFF760FC40F62433C2F20003DB7913F062
:1011A000100F6BD072B64FF03C0004F02FF94FF0E7
:1011B000040004F0ABFE4FF0000005F033F8504897
:1011C00005F0A0FA04F0F8F962B6FFF743FC40F628
:1011D0002433C2F20003DB7913F0100F4ED072B645
:1011E0004FF03C0004F012F94FF0050004F08EFEC1
:1011F0004FF0000005F016F8424805F083FA04F0BD
:10120000DBF962B6FFF726FC40F62433C2F2000396
:10121000DB7913F0100F31D072B64FF03C0004F0C0
:10122000F5F84FF0060004F071FE4FF0000004F0F6
:10123000F9FF354805F066FA04F0BEF962B6FFF72B
:1012400009FC40F62433C2F20003DB7913F0100FDF
:1012500014D072B64FF03C0004F0D8F84FF00700FD
:1012600004F054FE4FF0000004F0DCFF274805F0C6
:1012700049FA04F0A1F962B6FFF7ECFB47F26833D4
:10128000C0F20003186840F22465C2F200054FF076
:1012900000040094019402944FF0010105F1B8029A
:1012A0004FF0020302F028FD47F22043C0F2000392
:1012B00018680094019402944FF0020105F1C002F5
:1012C0004FF0030302F018FD47F20063C0F2000381
:1012D00018680094019402944FF0030105F1CC02C8
:1012E0004FF00A0302F008FD02F0F4FC05B030BD37
:1012F0006C7000007C70000090700000A070000016
:10130000B0700000C0700000D4700000E4700000F5
:101310000B78152B0BD18B780371CB78437141F28D
:10132000C973C0F2000303604FF00200704745F23A
:101330005533C0F2000303604FF00300704700BF55
:1013400010B5044640F21873C2F200031B78002B5C
:1013500040F0098140F62433C2F20003DB7913F038
:10136000200F72D072B64FF03D0004F04FF8C8481D
:1013700004F058FF47F2F400C0F2000005F0C2F993
:1013800004F01AF962B6FFF765FB40F62433C2F2A7
:101390000003DB7913F0200F57D072B64FF03D00F9
:1013A00004F034F8BB4804F03DFFBB4805F0AAF94F
:1013B00004F002F962B6FFF74DFB40F62433C2F2A7
:1013C0000003DB7913F0200F3FD072B64FF03D00E1
:1013D00004F01CF8B14804F025FFB14805F092F97B
:1013E00004F0EAF862B6FFF735FB40F62433C2F2A8
:1013F0000003DB7913F0200F27D072B64FF03D00C9
:1014000004F004F8A74804F00DFFA74805F07AF9A6
:1014100004F0D2F862B6FFF71DFB40F62433C2F2A7
:101420000003DB7913F0200F0FD072B64FF03D00B0
:1014300003F0ECFF9D4804F0F5FE9D4805F062F9CD
:1014400004F0BAF862B6FFF705FB40F62433C2F2A7
:101450000003DB7913F0400F7ED072B64FF03E00F0
:1014600003F0D4FF41F24130C0F2000004F0DAFE94
:10147000904805F047F904F09FF862B6FFF7EAFAE2
:1014800040F62433C2F20003DB7913F0400F63D03F
:1014900072B64FF03E0003F0B9FF41F21130C0F2D6
:1014A000000004F0BFFE844805F02CF904F084F835
:1014B00062B6FFF7CFFA40F62433C2F20003DB79BD
:1014C00013F0400F48D072B64FF03E0003F09EFF7D
:1014D00041F26970C0F2000004F0A4FE774805F004
:1014E00011F904F069F862B6FFF7B4FA40F6243354
:1014F000C2F20003DB7913F0400F2DD072B64FF02B
:101500003E0003F083FF41F2C970C0F2000004F016
:1015100089FE6B4805F0F6F804F04EF862B6FFF766
:1015200099FA40F62433C2F20003DB7913F0400F3E
:1015300012D072B64FF03E0003F068FF41F2DD605A
:10154000C0F2000004F06EFE5E4805F0DBF804F027
:1015500033F862B6FFF77EFA40F21873C2F2000366
:101560004FF001021A7040F62433C2F20003DB7917
:1015700013F0100F00F0848072B64FF03C0003F0BF
:1015800045FF4FF0150004F0C1FC204604F04AFE70
:101590004D4805F0B7F804F00FF862B6FFF75AFAB5
:1015A00040F62433C2F20003DB7913F0100F67D04A
:1015B00072B64FF03C0003F029FF4FF0160004F024
:1015C000A5FC204604F02EFE404805F09BF803F0F1
:1015D000F3FF62B6FFF73EFA40F62433C2F200038F
:1015E000DB7913F0100F4BD072B64FF03C0003F0D4
:1015F0000DFF4FF0170004F089FC204604F012FEA6
:10160000334805F07FF803F0D7FF62B6FFF722FA00
:1016100040F62433C2F20003DB7913F0100F2FD011
:1016200072B64FF03C0003F0F1FE4FF00F0004F0F3
:101630006DFC204604F0F6FD264805F063F803F043
:10164000BBFF62B6FFF706FA40F62433C2F200038E
:10165000DB7913F0100F13D072B64FF03C0003F09B
:10166000D5FE4FF0100004F051FC204604F0DAFDE6
:10167000194805F047F803F09FFF62B6FFF7EAF953
:1016800041F21133C0F2000323604FF0020010BD9D
:101690001C07002024070020007100002C070020F8
:1016A0000C71000034070020187100003C07002076
:1016B0002471000030710000407100005071000082
:1016C0005C7100006C71000080710000907100007E
:1016D000A4710000B8710000C871000010B5044684
:1016E0000B78012B02D0042B36D103E04FF0000021
:1016F000A07110BD03793BB382790E2A24D802F180
:101700000102827103F1FF3303714FF005004FF0C6
:10171000140102F0CFFE0146237903F10103837027
:101720006379A3F10203C370A3794FEA930303F132
:101730000603037147F20063C0F20003186802F069
:101740001BFC4FF0000010BD41F21133C0F200034A
:1017500023604FF0020010BD41F26973C0F2000334
:1017600003604FF0030010BD10B504460B78022B48
:1017700002D0172B1ED115E04FF003004FF01601D9
:1017800002F098FE01460F4BE41A4FEAE40484701D
:1017900047F20063C0F20003186802F0EDFB4FF05F
:1017A000000010BD41F21133C0F2000303604FF09E
:1017B000020010BD45F25533C0F2000303604FF044
:1017C000030010BD1C07002030B583B004460B7821
:1017D0000F2B28D0102B44D0042B5FD10379D3B129
:1017E00003F1FF3303714FF005004FF0110102F0D8
:1017F00061FE0146237983706379C3704FF0030360
:10180000037147F20063C0F20003186802F0B4FBF2
:101810004FF000004FE041F21133C0F200030360CB
:101820004FF0020047E0057942790B798878009003
:10183000C97801914FF00300294601F0DFFE00282E
:1018400034D047F22043C0F2000318681B4902F06D
:1018500093FB41F21133C0F2000323604FF002000A
:1018600029E0057942790B7988780090C97801914F
:101870004FF00300294601F0C1FED0B147F26833B2
:10188000C0F2000318680E4902F076FB41F2DD63F6
:10189000C0F2000323604FF002000CE041F26973D4
:1018A000C0F2000303604FF0030004E04FF00000BB
:1018B00001E04FF0000003B030BD00BFD871000060
:1018C000DC71000010B50446042804D90A484FF022
:1018D0003801FEF7C1FC40F21873C2F200034FEA70
:1018E000C404191941F24132C0F200024A6003F106
:1018F0000403181910BD00BFE07100000B78152B10
:101900000BD18B780371CB78437141F6B553C0F29C
:10191000000303604FF00200704745F25533C0F2F8
:10192000000303604FF00300704700BF10B504468A
:1019300040F24473C2F200031B78002B40F009818F
:1019400040F62433C2F20003DB7913F0200F72D08B
:1019500072B64FF03D0003F059FDC84804F062FC38
:1019600047F2E810C0F2000004F0CCFE03F024FEC1
:1019700062B6FFF76FF840F62433C2F20003DB795A
:1019800013F0200F57D072B64FF03D0003F03EFD2C
:10199000BB4804F047FCBB4804F0B4FE03F00CFE67
:1019A00062B6FFF757F840F62433C2F20003DB7942
:1019B00013F0200F3FD072B64FF03D0003F026FD2C
:1019C000B14804F02FFCB14804F09CFE03F0F4FD94
:1019D00062B6FFF73FF840F62433C2F20003DB792A
:1019E00013F0200F27D072B64FF03D0003F00EFD2C
:1019F000A74804F017FCA74804F084FE03F0DCFDC0
:101A000062B6FFF727F840F62433C2F20003DB7911
:101A100013F0200F0FD072B64FF03D0003F0F6FC2C
:101A20009D4804F0FFFB9D4804F06CFE03F0C4FDEC
:101A300062B6FFF70FF840F62433C2F20003DB79F9
:101A400013F0400F7ED072B64FF03E0003F0DEFC84
:101A500041F62D10C0F2000004F0E4FB904804F0C1
:101A600051FE03F0A9FD62B6FEF7F4FF40F6243301
:101A7000C2F20003DB7913F0400F63D072B64FF06F
:101A80003E0003F0C3FC41F6FD00C0F2000004F08C
:101A9000C9FB844804F036FE03F08EFD62B6FEF703
:101AA000D9FF40F62433C2F20003DB7913F0400F74
:101AB00048D072B64FF03E0003F0A8FC41F65550F6
:101AC000C0F2000004F0AEFB774804F01BFE03F008
:101AD00073FD62B6FEF7BEFF40F62433C2F2000388
:101AE000DB7913F0400F2DD072B64FF03E0003F0BB
:101AF0008DFC41F6B550C0F2000004F093FB6B483A
:101B000004F000FE03F058FD62B6FEF7A3FF40F6B6
:101B10002433C2F20003DB7913F0400F12D072B607
:101B20004FF03E0003F072FC41F6C940C0F20000E5
:101B300004F078FB5E4804F0E5FD03F03DFD62B67D
:101B4000FEF788FF40F24473C2F200034FF0010237
:101B50001A7040F62433C2F20003DB7913F0100F41
:101B600000F0848072B64FF03C0003F04FFC4FF061
:101B7000150004F0CBF9204604F054FB4D4804F066
:101B8000C1FD03F019FD62B6FEF764FF40F6243391
:101B9000C2F20003DB7913F0100F67D072B64FF07A
:101BA0003C0003F033FC4FF0160004F0AFF9204680
:101BB00004F038FB404804F0A5FD03F0FDFC62B6DC
:101BC000FEF748FF40F62433C2F20003DB7913F03E
:101BD000100F4BD072B64FF03C0003F017FC4FF0E3
:101BE000170004F093F9204604F01CFB334804F07E
:101BF00089FD03F0E1FC62B6FEF72CFF40F62433CA
:101C0000C2F20003DB7913F0100F2FD072B64FF041
:101C10003C0003F0FBFB4FF00F0004F077F9204687
:101C200004F000FB264804F06DFD03F0C5FC62B62D
:101C3000FEF710FF40F62433C2F20003DB7913F005
:101C4000100F13D072B64FF03C0003F0DFFB4FF0E3
:101C5000100004F05BF9204604F0E4FA194804F09F
:101C600051FD03F0A9FC62B6FEF7F4FE41F6FD0358
:101C7000C0F2000323604FF0020010BD48070020AF
:101C800050070020F4710000580700200072000087
:101C9000600700200C720000680700201872000026
:101CA0002472000034720000447200005072000080
:101CB000607200007472000084720000987200006C
:101CC000AC720000BC72000010B504460B78012B0A
:101CD00002D0042B36D103E04FF00000A07110BDFC
:101CE00003793BB382790E2A24D802F10102827172
:101CF00003F1FF3303714FF005004FF0140102F0C0
:101D0000D9FB0146237903F1010383706379A3F1C1
:101D10000203C370A3794FEA930303F1060303712F
:101D200047F20063C0F20003186802F025F94FF093
:101D3000000010BD41F6FD03C0F2000323604FF028
:101D4000020010BD41F65553C0F2000303604FF08E
:101D5000030010BD10B504460B78022B02D0172BE0
:101D60001ED115E04FF003004FF0160102F0A2FB68
:101D700001460F4BE41A4FEAE404847047F2006313
:101D8000C0F20003186802F0F7F84FF0000010BD31
:101D900041F6FD03C0F2000303604FF0020010BDE6
:101DA00045F25533C0F2000303604FF0030010BD4D
:101DB0004807002030B583B004460B780F2B28D09D
:101DC000102B44D0042B5FD10379D3B103F1FF333F
:101DD00003714FF005004FF0110102F06BFB01465B
:101DE000237983706379C3704FF00403037147F262
:101DF0000063C0F20003186802F0BEF84FF0000064
:101E00004FE041F6FD03C0F2000303604FF0020013
:101E100047E0057942790B7988780090C97801917B
:101E20004FF00400294601F0E9FB002834D047F2C6
:101E30002043C0F2000318681B4902F09DF841F6E8
:101E4000FD03C0F2000323604FF0020029E0057992
:101E500042790B7988780090C97801914FF005009C
:101E6000294601F0CBFBD0B147F26833C0F2000342
:101E700018680E4902F080F841F6C943C0F2000329
:101E800023604FF002000CE041F65553C0F200030E
:101E900003604FF0030004E04FF0000001E04FF05A
:101EA000000003B030BD00BFCC720000D072000053
:101EB00010B50446042804D90A484FF03801FEF74B
:101EC000CBF940F24473C2F200034FEAC40419197B
:101ED00041F62D12C0F200024A6003F10403181902
:101EE00010BD00BFD47200000B78122B0BD18B7881
:101EF0000376CB78437642F2A113C0F2000303606D
:101F00004FF00200704745F25533C0F20003036002
:101F10004FF00300704700BF38B504464FF004018E
:101F200002F056F940F62433C2F20003DB7913F0D5
:101F3000200F15D072B64FF03D0003F067FA40F263
:101F40007070C2F2000004F06DF947F2DC20C0F2BC
:101F5000000004F0D7FB03F02FFB62B6FEF77AFD1A
:101F600040F62433C2F20003DB7913F0400F63D054
:101F700072B64FF03E0003F049FA41F61970C0F214
:101F8000000004F04FF95C4804F0BCFB03F014FBC4
:101F900062B6FEF75FFD40F62433C2F20003DB7940
:101FA00013F0400F48D072B64FF03E0003F02EFA07
:101FB00041F6E960C0F2000004F034F94F4804F043
:101FC000A1FB03F0F9FA62B6FEF744FD40F62433B4
:101FD000C2F20003DB7913F0400F2DD072B64FF040
:101FE0003E0003F013FA42F2A110C0F2000004F028
:101FF00019F9434804F086FB03F0DEFA62B6FEF7F7
:1020000029FD40F62433C2F20003DB7913F0400FC0
:1020100012D072B64FF03E0003F0F8F942F21510FC
:10202000C0F2000004F0FEF8364804F06BFB03F049
:10203000C3FA62B6FEF70EFD40F62433C2F2000387
:10204000DB7913F0100F4FD072B64FF03C0003F065
:10205000DDF94FF0120003F059FF40F27075C2F243
:102060000005284604F0DEF8274804F04BFB03F097
:10207000A3FA62B6FEF7EEFC40F62433C2F2000388
:10208000DB7913F0100F2FD072B64FF03C0003F045
:10209000BDF94FF00D0003F039FF284604F0C2F8F7
:1020A0001A4804F02FFB03F087FA62B6FEF7D2FC61
:1020B00040F62433C2F20003DB7913F0100F13D083
:1020C00072B64FF03C0003F0A1F94FF0130003F09B
:1020D0001DFF284604F0A6F80D4804F013FB03F09A
:1020E0006BFA62B6FEF7B6FC41F6E963C0F2000394
:1020F00023604FF0020038BDE8720000FC7200005F
:102100000C7300001C730000307300004473000067
:102110005473000010B504460B78012B02D0042B39
:1021200036D103E04FF00000A07610BD037E3BB334
:10213000827E0E2A24D802F10102827603F1FF3357
:1021400003764FF005004FF0140102F0B3F9014699
:10215000237E03F103038370637EA3F10403C37042
:10216000A37E4FEA930303F10603037147F2006372
:10217000C0F20003186801F0FFFE4FF0000010BD30
:1021800041F6E963C0F2000323604FF0020010BD86
:1021900045F25533C0F2000303604FF0030010BD59
:1021A00010B504460B780D2B29D0132B2FD0042B00
:1021B0003CD1037E03F102025F2A18DC22764FF045
:1021C00005004FF0100102F075F90146237E83707F
:1021D000637EC3704FF00203037147F20063C0F2E5
:1021E0000003186801F0C8FE4FF0000010BD41F672
:1021F000E963C0F2000303604FF0020010BD42F239
:102200001513C0F2000303604FF0020010BD47F247
:102210002043C0F20003186801F0AEFE41F6E96306
:10222000C0F2000323604FF0020010BD45F25533A9
:10223000C0F2000303604FF0030010BD40F2707362
:10224000C2F2000341F61972C0F200021A60704730
:102250000B78032B02D0092B0FD107E042F28D231C
:10226000C0F2000303604FF0020070478B780376E2
:10227000CB7843764FF00000704745F25533C0F2FB
:10228000000303604FF00300704700BF0B780C2B76
:1022900001BF42F20D63C0F20003036002201FBFC2
:1022A00042F25123C0F2000303600320704700BFD5
:1022B00038B504464FF0040101F08AFF20464FF084
:1022C000050101F085FF40F62433C2F20003DB79FB
:1022D00013F0200F15D072B64FF03D0003F096F8C2
:1022E00040F28C70C2F2000003F09CFF47F26C30A9
:1022F000C0F2000004F006FA03F05EF962B6FEF7E1
:10230000A9FB40F62433C2F20003DB7913F0400F3F
:102310007ED072B64FF03E0003F078F842F2B12062
:10232000C0F2000003F07EFF864804F0EBF903F0F2
:1023300043F962B6FEF78EFB40F62433C2F2000387
:10234000DB7913F0400F63D072B64FF03E0003F01C
:102350005DF842F25120C0F2000003F063FF7A48BA
:1023600004F0D0F903F028F962B6FEF773FB40F6EB
:102370002433C2F20003DB7913F0400F48D072B669
:102380004FF03E0003F042F842F28D20C0F2000010
:1023900003F048FF6D4804F0B5F903F00DF962B69B
:1023A000FEF758FB40F62433C2F20003DB7913F04A
:1023B000400F2DD072B64FF03E0003F027F842F2E6
:1023C0000D60C0F2000003F02DFF614804F09AF99F
:1023D00003F0F2F862B6FEF73DFB40F62433C2F29A
:1023E0000003DB7913F0400F12D072B64FF03E00BD
:1023F00003F00CF842F26D50C0F2000003F012FF3F
:10240000544804F07FF903F0D7F862B6FEF722FBD8
:1024100040F62433C2F20003DB7913F0100F00F012
:10242000888072B64FF03C0002F0F0FF4FF00900D8
:1024300003F06CFD40F28C75C2F20005284603F0F3
:10244000F1FE454804F05EF903F0B6F862B6FEF717
:1024500001FB40F62433C2F20003DB7913F0100FC6
:1024600067D072B64FF03C0002F0D0FF4FF00C0086
:1024700003F04CFD284603F0D5FE384804F042F93D
:1024800003F09AF862B6FEF7E5FA40F62433C2F29A
:102490000003DB7913F0100F4BD072B64FF03C0005
:1024A00002F0B4FF4FF00D0003F030FD284603F0BA
:1024B000B9FE2B4804F026F903F07EF862B6FEF769
:1024C000C9FA40F62433C2F20003DB7913F0100F8F
:1024D0002FD072B64FF03C0002F098FF4FF00E0084
:1024E00003F014FD284603F09DFE1E4804F00AF98F
:1024F00003F062F862B6FEF7ADFA40F62433C2F29A
:102500000003DB7913F0100F13D072B64FF03C00CC
:1025100002F07CFF4FF0130003F0F8FC284603F0B4
:1025200081FE114804F0EEF803F046F862B6FEF7BB
:1025300091FA42F25123C0F2000323604FF00200EF
:1025400038BD00BF747300008473000094730000F2
:10255000A4730000B4730000C4730000DC730000B7
:10256000EC730000FC7300000C74000010B504460E
:102570000B78012B02D0042B3FD103E04FF0000079
:10258000A07610BD837E0E2B1FD803F10103837646
:102590004FF005004FF0140101F08CFF0146A37EBF
:1025A0004FEA930303F106030371237E8370637E76
:1025B00003F1FF33C37047F20063C0F200031868F1
:1025C00001F0DAFC4FF0000010BD4FF004004FF0B6
:1025D000070101F06FFF0146A38B438047F20063C0
:1025E000C0F20003186801F0C7FC42F28D23C0F26C
:1025F000000323604FF0020010BD42F25123C0F2ED
:10260000000303604FF0030010BD00BF38B504465F
:102610000B7803F1FF33122B7FD8DFE803F00A7E3B
:102620007E1F587E7E7E7E7E7E7E76767E7E7E7E5F
:102630006F004FF0000585834FF004004FF0180144
:1026400001F038FF0146A48B448047F20063C0F2DA
:102650000003186801F090FC284638BD4FF00500D3
:102660004FF00F0101F026FF0146237E8370637E49
:10267000C3704FF00103037147F20063C0F200031F
:102680001D68284601F078FCA38B03F101039BB27F
:10269000A3834CF6CD42CCF6CC42A2FB03124FEA08
:1026A000D20202EB8202A3EB42039BB2002B3CD18D
:1026B0004FF004004FF0180101F0FCFE0146A48B1E
:1026C0004480284601F058FC4FF0000038BD4FF020
:1026D00004004FF0120101F0EDFE0146237E8370ED
:1026E000637E03F10203C37047F26833C0F2000354
:1026F000186801F041FC4FF0000038BD4A88838B18
:10270000D31883834FF0000038BD42F26D53C0F2FE
:10271000000303604FF0020038BD42F25123C0F2C3
:10272000000303604FF0030038BD4FF0000038BDD8
:1027300040F28C73C2F2000342F2B122C0F20002F6
:102740001A604FF00A021A764FF008025A76704764
:102750000B78032B02D0052B10D107E042F67563EE
:10276000C0F2000303604FF00200704743F29D0384
:10277000C0F2000303604FF00200704742F64103CD
:10278000C0F2000303604FF00300704740F2AC73E7
:10279000C2F20003186840F6CD52C0F2010202FBFB
:1027A00000F018604FEA1020704700BF2DE9F0419B
:1027B0000D4616461C46092907D947F22440C0F2A7
:1027C000000040F2CB21FDF747FD2F4647F224439E
:1027D000C0F2000303EBC5031D7CC6F160039D42FC
:1027E000C4BF1D46EDB235B3144B9E194FF0000324
:1027F00047F22442C0F2000202EBC707C4F100080E
:102800005FFA88F85FFA84FC002CFA68D15CACBFF0
:1028100001FA0CF141FA08F132780A4306F8012B6B
:1028200096F85F0040EA112186F85F1003F101037A
:10283000DAB29542E8D8BDE8F08100BFB0070020C9
:1028400038B505460C460B78062B19D0162B1FD130
:102850008B78042B04D803F1100350F823303BB9D4
:1028600047F22440C0F200004FF0A901FDF7F4FC4C
:10287000A37803F110034FF0000045F8230038BDA2
:1028800043F24953C0F2000303604FF0020038BD29
:1028900045F25533C0F2000303604FF0030038BD2A
:1028A000F8B5074600F1500400F164054FF000064A
:1028B00054F8040F314602F09FF96069314602F086
:1028C0009BF9AC42F4D140F2AC73C2F2000340F287
:1028D000D2421A6038464FF0040101F079FC3846C4
:1028E0004FF0050101F074FC38464FF0060101F08D
:1028F0006FFC40F62433C2F20003DB7913F0200FA3
:102900003FD072B64FF03D0002F080FDD74803F093
:1029100089FCD74803F0F6FE02F04EFE62B6FEF7E1
:1029200099F840F62433C2F20003DB7913F0200F4C
:1029300027D072B64FF03D0002F068FDCD4803F09D
:1029400071FCCD4803F0DEFE02F036FE62B6FEF703
:1029500081F840F62433C2F20003DB7913F0200F34
:102960000FD072B64FF03D0002F050FDC34803F0A7
:1029700059FCC34803F0C6FE02F01EFE62B6FEF725
:1029800069F840F62433C2F20003DB7913F0400FFC
:1029900000F0EE8072B64FF03E0002F037FD42F6D6
:1029A000A100C0F2000003F03DFCB64803F0AAFE0F
:1029B00002F002FE62B6FEF74DF840F62433C2F292
:1029C0000003DB7913F0400F00F0D28072B64FF0B5
:1029D0003E0002F01BFD43F24950C0F2000003F03C
:1029E00021FCA94803F08EFE02F0E6FD62B6FEF778
:1029F00031F840F62433C2F20003DB7913F0400FC4
:102A000000F0B68072B64FF03E0002F0FFFC42F6D6
:102A10004100C0F2000003F005FC9C4803F072FE88
:102A200002F0CAFD62B6FEF715F840F62433C2F292
:102A30000003DB7913F0400F00F09A8072B64FF07C
:102A40003E0002F0E3FC43F2BD10C0F2000003F0D0
:102A5000E9FB8F4803F056FE02F0AEFD62B6FDF7CB
:102A6000F9FF40F62433C2F20003DB7913F0400F84
:102A70007ED072B64FF03E0002F0C8FC43F29D00DB
:102A8000C0F2000003F0CEFB824803F03BFE02F0F0
:102A900093FD62B6FDF7DEFF40F62433C2F2000379
:102AA000DB7913F0400F63D072B64FF03E0002F0B6
:102AB000ADFC42F6D560C0F2000003F0B3FB7648EF
:102AC00003F020FE02F078FD62B6FDF7C3FF40F68A
:102AD0002433C2F20003DB7913F0400F48D072B602
:102AE0004FF03E0002F092FC42F25170C0F2000042
:102AF00003F098FB694803F005FE02F05DFD62B645
:102B0000FDF7A8FF40F62433C2F20003DB7913F08F
:102B1000400F2DD072B64FF03E0002F077FC42F627
:102B20007560C0F2000003F07DFB5D4803F0EAFD34
:102B300002F042FD62B6FDF78DFF40F62433C2F28B
:102B40000003DB7913F0400F12D072B64FF03E0055
:102B500002F05CFC42F6AD50C0F2000003F062FBF4
:102B6000504803F0CFFD02F027FD62B6FDF772FF7B
:102B700040F62433C2F20003DB7913F0100F00F0AB
:102B8000048172B64FF03C0002F040FC4FF00A00A6
:102B900003F0BCF9354C204603F044FB424803F0F7
:102BA000B1FD02F009FD62B6FDF754FF40F6243393
:102BB000C2F20003DB7913F0100F00F0E68072B66A
:102BC0004FF03C0002F022FC4FF00B0003F09EF9A6
:102BD000204603F027FB354803F094FD02F0ECFC9F
:102BE00062B6FDF737FF40F62433C2F20003DB790B
:102BF00013F0100F00F0C98072B64FF03C0002F0E5
:102C000005FC4FF00F0003F081F9204603F00AFBAA
:102C1000274803F077FD02F0CFFC62B6FDF71AFFFC
:102C200040F62433C2F20003DB7913F0100F00F0FA
:102C3000AC8072B64FF03C0002F0E8FB4FF01000A1
:102C400003F064F9204603F0EDFA1A4803F05AFD48
:102C500002F0B2FC62B6FDF7FDFE40F62433C2F28C
:102C60000003DB7913F0100F26E000BF700800208E
:102C700080740000880800208C7400009C080020EC
:102C8000A4740000BC740000CC740000DC7400006C
:102C9000EC740000FC7400000C750000207500004E
:102CA00038750000547500007075000084750000D0
:102CB00098750000A875000067D072B64FF03C0010
:102CC00002F0A4FB4FF0110003F020F9204603F0BE
:102CD000A9FA324803F016FD02F06EFC62B6FDF769
:102CE000B9FE40F62433C2F20003DB7913F0100F73
:102CF0004BD072B64FF03C0002F088FB4FF016004C
:102D000003F004F9204603F08DFA254803F0FAFC9D
:102D100002F052FC62B6FDF79DFE40F62433C2F28B
:102D20000003DB7913F0100F2FD072B64FF03C0088
:102D300002F06CFB4FF0140003F0E8F8204603F0BB
:102D400071FA184803F0DEFC02F036FC62B6FDF7BB
:102D500081FE40F62433C2F20003DB7913F0100F3A
:102D600013D072B64FF03C0002F050FB4FF0180049
:102D700003F0CCF8204603F055FA0B4803F0C2FCF0
:102D800002F01AFC62B6FDF765FE43F29D03C0F245
:102D900000033B604FF00200F8BD00BFB8750000B3
:102DA000C8750000DC750000EC75000070B50446C5
:102DB0000B78022B36D00B2B4AD0012B50D1FFF7CA
:102DC000E5FC05462A4E30464FF000014FF0C002A8
:102DD00003F01AFF40F67D43CCF2CE73A3FB05232C
:102DE0004FEA531303EB830203EBC202AA1A2046F5
:102DF0004FF00001D2B205F00703FFF7D7FC3046D1
:102E00004FF060014FF01002FDF772F94FF000052E
:102E1000E58704F12C0021464FF00A0201F026FE5E
:102E2000284670BD00F12C0001F074FE104C2046C5
:102E30004FF000014FF0C00203F0E6FE20464FF0D5
:102E400060014FF01002FDF753F94FF0000070BD24
:102E500042F67563C0F2000303604FF0020070BDDC
:102E600042F25173C0F2000303604FF0030070BDE3
:102E7000B007002038B504460B78022B11D00B2B7D
:102E800018D0012B1ED1FDF751F94FF00005E58751
:102E900004F12C0021464FF05A0201F0E7FD2846CC
:102EA00038BD00F12C0001F035FEFDF73BF94FF085
:102EB000000038BD42F6AD53C0F2000303604FF08E
:102EC000020038BD42F25173C0F2000303604FF0BC
:102ED000030038BD70B504460B7803F1FF330A2BAD
:102EE00058D8DFE803F00626575757575757573536
:102EF0004F004FF00F02428500F11800214601F00B
:102F0000B5FD4FF000052E46E58704F12C00214663
:102F10004FF0960201F0AAFD84F87C504FF01500A6
:102F2000294647F66012C0F20002FDF7EFF8284686
:102F300070BD00F1180001F0EDFD04F12C0001F06E
:102F4000E9FD4FF00000FDF7EBF84FF0000070BD19
:102F500090F87C5085F0010580F87C5047F66C12A3
:102F6000C0F2000247F66013C0F200034FF01500F4
:102F70004FF000018D4208BF1A46FDF7C7F84FF029
:102F8000000070BD43F29D03C0F2000303604FF0E8
:102F9000020070BD42F64103C0F2000303604FF02F
:102FA000030070BD70B50446FFF7F0FBC0B22F28D8
:102FB00006D894F87F301BB103F1FF3384F87F30DB
:102FC000D02806D994F880301BB103F1FF3384F880
:102FD0008030FFF7DBFBC0B22F2818D894F87F3081
:102FE000C3F1100194F88020891A94F8812091424D
:102FF0000DDD94F87D205A2A05D994F87E1003F14E
:103000000102914203DD03F1010384F87F30D028EF
:103010001AD994F8803094F87F10C1F11001C91AC0
:1030200094F8812091420FDD94F87D205A2A07D927
:1030300094F87E1001F10101C3F11002914203DA0C
:1030400003F1010384F8803040F2AC75C2F2000550
:1030500005F5A476304606F101014FF0BF0203F0FA
:1030600083FD94F88010C1F110014FF0FF3202FA95
:1030700001F194F87F3002FA03F361EA030385F863
:10308000A7314FEA132385F8073205F104003146D2
:103090004FF0C00203F0CEFB70BD00BF38B5044650
:1030A0000B7803F1FF330A2B6BD8DFE803F0062E11
:1030B0006A4A626A6A6A6A3942004FF0000580F81B
:1030C0007D5080F87E5080F87F5080F880504FF01F
:1030D0000D0380F881302F4829464FF0C00203F0DD
:1030E00093FD4FF00F02628504F11800214601F0B4
:1030F000BDFCE58704F12C0021464FF4167201F067
:10310000B5FC84F87C50284638BD00F1180001F069
:1031100001FD04F12C0001F0FDFC4FF0000038BD72
:1031200090F87C3083F0010380F87C304FF0000091
:1031300038BD42F25173C0F2000303604FF0020049
:1031400038BDFFF72FFF94F87C3043B120464FF095
:1031500000014FF014024FF00403FFF727FB0E4865
:103160004FF060014FF01002FCF7C2FF4FF000007B
:1031700038BD43F2BD13C0F2000303604FF00200FC
:1031800038BD42F64103C0F2000303604FF0030074
:1031900038BD00BFF4080020B007002070B50E460F
:1031A00000F13C0400F1500554F8040F10B1314611
:1031B00001F0DEFDAC42F7D170BD00BF2DE9F04358
:1031C00083B005460C460B7803F1FF33172B00F252
:1031D000B181DFE813F018002E00AF013A00AF0113
:1031E000AF013E01AF01AF01AF01AF01AF01AF01D0
:1031F000AF01AA00AA002101AF01AF012101AF0177
:10320000AF01AF012B014FF00D0385F88130C548A8
:103210004FF000014FF0C00203F0F6FC47F22043EC
:10322000C0F200031868C04900F0A6FE4FF000008D
:1032300087E102A94FF0170301F8083D28466946C7
:10324000FFF7ACFF4FF000007BE1B8484FF06001A2
:103250004FF01002FCF74CFF2846FFF7A3FEFFF7E4
:1032600095FAC0B295F87D301BB103F1FF3385F8B4
:103270007D3095F87D2002F10A0207288CBF0023DB
:1032800001235F2ACCBF002303F00103002B45D0AC
:103290002B6C63B105F140034FF0010653F8042F86
:1032A0003AB106F10106F6B2052EF7D136E04FF03D
:1032B0000006FFF76BFA87B210F0010F06F110035A
:1032C00007BF05EB8602526D06F11A0255F822205F
:1032D00045F823204FF0600285F87D2095F87F00A7
:1032E00000F1020395F88010C1F10C01091AB7FB37
:1032F000F1F001FB10715B18DBB285F87E304FF006
:1033000015018DF800108DF802208DF8033006F1BC
:10331000100655F82600694601F02AFD2846214688
:10332000FFF73CFF4FF000000BE18E7891F803802F
:103330000F79092F07D947F22440C0F2000040F26C
:10334000E521FCF789FF47F22443C0F2000303EBB9
:10335000C70393F810C0C6F160039C45C4BF9C46E8
:103360005FFA8CFCBCF1000F48D047F22443C0F256
:10337000000303EBC703D8685FFA88F9027802FA02
:1033800009F240F2AC73C2F200039B1993F8483182
:103390001A4224D140F2AC73C2F200039B1993F895
:1033A000A83113EA12231AD15E4B9B194FF0000289
:1033B0000FE010F8011F01FA09F193F801E003F1A1
:1033C00001031EEA010F0AD193F860E01EEA112EF4
:1033D00005D102F10102D2B26245EAD30EE02378B0
:1033E0000F2B07BF47F22043C0F2000347F26833B8
:1033F000C0F2000318684E4900F0BEFD2846394669
:1034000032464FFA88F3FFF7D1F928462146FFF7F5
:10341000C5FE4FF0000094E028460979A27894F99F
:103420000330FFF7C3F94FF000008AE04888FCF74B
:1034300077FE628844F6D353C1F26203A3FB021302
:103440004FEAD313C3F10D0385F881304FF000002C
:1034500077E04C882046FCF763FE344E30464FF050
:1034600000014FF0C00203F0CFFB30464FF0600187
:103470004FF01002FCF73CFE4FF012004FF001013C
:1034800047F67812C0F20002FCF740FE4FF000034E
:103490008DF804304CF6CD43CCF6CC43A3FB0402AC
:1034A0004FEAD20202EB8201A4EB410404F13004A2
:1034B0008DF8034091B2A3FB01024FEAD20202EB66
:1034C0008200A1EB400101F130018DF8021091B2B0
:1034D000A3FB01024FEAD20202EB8200A1EB400102
:1034E00001F130018DF8011092B2A3FB02134FEAF3
:1034F000D30303EB8303A2EB430202F1300302AADE
:1035000002F8083D4FF036004FF001016A46FCF723
:10351000FDFD42F6D563C0F200032B604FF00200C0
:103520000FE000BFF4080020F8750000B00700208D
:10353000FC75000042F64103C0F200032B604FF01F
:10354000030003B0BDE8F08310B50B78012B13D155
:103550000D4C20464FF000014FF0C00203F054FB29
:1035600020464FF060014FF01002FCF7C1FD00F063
:10357000ADFB4FF0000010BD45F25533C0F2000323
:1035800003604FF0030010BDB007002070B540F29B
:10359000AC75C2F2000542F6A103C0F20003C5F803
:1035A000C43005F1DC004FF00A0101F047FA05F1E3
:1035B000F0004FF00B0101F041FA05F58A754FF06C
:1035C000000426462046FEF77DF945F8040F204604
:1035D000FEF76EFC686145F8146C04F10104E4B276
:1035E000052CEFD140F2AC73C2F200034FF00002A1
:1035F00083F8412183F8422170BD00BF2DE9F843D3
:1036000007460D4690461E469DF820409DF82490A2
:10361000092B8CBF0023012309288CBF002303F052
:1036200001033BB947F22440C0F2000040F20331ED
:10363000FCF712FEA54247D847F22443C0F200032C
:1036400003EBC6031B7CEA18A24240F38580101BE3
:10365000C0B247F22442C0F2000202EBC702127C61
:10366000904228BF104600287AD047F22443C0F287
:10367000000303EBC606F168641BE4B24E4603EB9D
:10368000C707FA6847460B5D03FA09F9137803FA8E
:1036900008F819EA080F04BF0C1900230BD063E0E7
:1036A000657804F1010412F8011F05FA06F501FA24
:1036B00007F10D425CD103F10103DBB28342EFD38A
:1036C0004FF00000BDE8F88347F22443C0F2000346
:1036D00003EBC7031B7CE218AA424DDD581B2018E0
:1036E000C0B247F22442C0F2000202EBC602127CD2
:1036F000904228BF1046002842D047F22443C0F22F
:10370000000303EBC707F9682C1BE4B2474603EB41
:10371000C606F2684E460B5D03FA08F8137803FA02
:1037200009F918EA090F04BF0C1900230BD02BE08C
:10373000617804F1010412F8015F05FA06F501FA57
:1037400007F10D4224D103F10103DBB29842EFD817
:103750004FF00000BDE8F8834FF00000BDE8F883AB
:103760004FF00000BDE8F8834FF00100BDE8F8839A
:103770004FF00100BDE8F8834FF00000BDE8F8838A
:103780004FF00000BDE8F8834FF00100BDE8F8837A
:103790004FF00100BDE8F883684620F007018D4630
:1037A00001B547F68010C0F2000040F20711FCF7A7
:1037B00055FDFEE7684620F007018D4601B540F251
:1037C0000002C2F2000240F20403C2F200039A4275
:1037D00011D247F69812C0F2000240F20003C2F282
:1037E000000340F20400C2F2000052F8041B43F848
:1037F000041B8342F9D340F20402C2F2000240F6F5
:103800006C33C2F200039A420AD213464FF0000111
:1038100040F66C32C2F2000243F8041B9342FBD321
:1038200003F07EF9FDF70EFC47F68010C0F20000B1
:103830004FF48171FCF712FDBDE8014085467047E9
:10384000704700BFEFF30980704700BF80F309881D
:10385000704700BFEFF30880704700BF80F308880F
:10386000704700BFEFF31280704700BF80F31188EC
:10387000704700BFEFF31080704700BF80F31088DF
:10388000704700BFEFF31380704700BF80F31388C9
:10389000704700BF00BA704740BA7047C0BA70475F
:1038A00090FAA0F0704700BFD0E84F0FC0B2704749
:1038B000D0E85F0F80B2704750E8000F704700BF3C
:1038C000C1E8400F704700BFC1E8500F704700BF0C
:1038D00041E80000704700BFEFF31480704700BF5D
:1038E00080F31488704700BF30B482B04FF4604357
:1038F000C4F20F0342F61002C0F280721A6743F658
:10390000D122C0F28E721A6642F6C222C0F28E42F4
:103910001A6642F61002C0F280021A674FF00003E6
:103920000193019BB3F57A7F09D240F2E73200BFE1
:10393000019B03F101030193019B9342F7D94FF4DB
:103940006043C4F20F0340F6C222C0F28E421A66F0
:1039500042F61002C0F280021A674FF00003019392
:10396000019BB3F57A7F09D240F2E73200BF019B99
:1039700003F101030193019B9342F7D94FF4604394
:10398000C4F20F0340F6C222C0F2CE421A661B6D8B
:1039900013F0400F08D14FF46042C4F20F0200BF91
:1039A000136D13F0400FFAD04FF46043C4F20F03CD
:1039B00040F2C222C0F2CE421A6642F61002C0F2B3
:1039C00080021A674FF000030193019BB3F57A7FE1
:1039D00009D240F2E73200BF019B03F101030193DA
:1039E000019B9342F7D94FF46043C4F20F03196E61
:1039F0001A6F002AB4BF02F0700301F03003202BCD
:103A000000F0858004D883B1102B40F0528115E07E
:103A1000602B00F0E580702B00F0DF80302B08BFBA
:103A200047F2305340F04581DCE047F27463C0F266
:103A30000003C1F3841053F82030D3E04FF4604307
:103A4000C4F20F031B6813F0E04F04BF4EF2C01323
:103A5000C0F2E40300F0C6804FF46043C4F20F03E9
:103A600018684FF00003C7F2FF0300EA0303B3F145
:103A7000805F04BF4EF2C013C0F2E40300F0B280D6
:103A80004FF46043C4F20F0318684FF00003C7F20D
:103A9000FF0300EA03034FF00000C1F2010083427C
:103AA0000DD14FF46043C4F20F031B689BB2022B8D
:103AB00004BF4FF4D853C0F2B70300F093804FF423
:103AC0006043C4F20F0318684FF00003C7F2FF030E
:103AD00000EA03034FF00000C1F2030083421CBF61
:103AE0004FF41053C0F2F4037CD14FF46043C4F29E
:103AF0000F031C68A4B24FF4D853C0F2B7034FF4BD
:103B00001050C0F2F400002C18BF03466AE04FF4D6
:103B10006043C4F20F031B6813F0E04F04BF43F689
:103B20007003C0F239035DD04FF46043C4F20F0359
:103B300018684FF00003C7F2FF0300EA0303B3F174
:103B4000805F04BF43F67003C0F239034AD04FF4DC
:103B50006043C4F20F0318684FF00003C7F2FF037D
:103B600000EA03034FF00000C1F2010083420CD1D0
:103B70004FF46043C4F20F031B689BB2022B04BFD7
:103B80004CF2C063C0F22D032CD04FF46043C4F25A
:103B90000F0318684FF00003C7F2FF0300EA0303A6
:103BA0004FF00000C1F2030083421CBF4FF41063CA
:103BB000C0F23D0316D14FF46043C4F20F031C68FA
:103BC000A4B24CF2C063C0F22D034FF41060C0F2F7
:103BD0003D00002C18BF034604E04FF4004301E011
:103BE0004FF48003002A03DA12F4006F03D03AE0A6
:103BF00011F4006F37D14FF46044C4F20F04606ECB
:103C0000246814F0E04F0DD04FF46044C4F20F0468
:103C100025684FF00004C7F2FF0405EA0404B4F17C
:103C2000805F0CD1C0F3481404F1020404FB03F3D9
:103C300000F01F0404F10204B3FBF4F30BE0C0F343
:103C4000481404FB03F300F01F0404F101044FEADD
:103C50004404B3FBF4F310F4804F18BF5B0810F476
:103C6000004F18BF9B0811F4800F1DD0002A15DAF1
:103C700012F0804F0BD012F4006F08D14FEA4303CB
:103C8000C2F3865202F10102B3FBF2F30CE0C2F37D
:103C9000C55202F10102B3FBF2F305E0C1F3C351D7
:103CA00001F10101B3FBF1F340F6B412C2F20002DC
:103CB000136002B030BC704747F2D060C0F2000021
:103CC000704700BF08B503F035F808BD08B5FCF72C
:103CD00087FA08BD08B572B640F20003C2F20003CD
:103CE0004FF000021A7000F03FF862B6FCF722FABB
:103CF000FCF778FAFCE700BFF8B504460D46164617
:103D00001F4601F1FF33DBB23E2B04D913484FF0BD
:103D10006001FCF7A1FA04F104003146FAB200F0A8
:103D2000B5FA2575204600F0E3FA079BD3F10103AD
:103D300038BF0023069A002A14BF002303F00103B2
:103D400023B906484FF06A01FCF786FA2046089925
:103D500000F052FFFCF77EFEF8BD00BFD8760000F1
:103D600008B500F005FB08BD2DE9F04740F6C1138A
:103D7000C2F200031B783BB147F2DC60C0F20000E6
:103D80004FF03001FCF768FA40F6B813C2F20003B6
:103D90001B78002B00F08B8040F6B812C2F20002B4
:103DA000117847F21873C0F20003595C01F1FF313A
:103DB000C9B2521852789C5C04EBC10404F0FF04B1
:103DC00040F20003C2F200031B789C4274D940F613
:103DD000C413C2F200031B789C426DD940F2000369
:103DE000C2F2000393F800A05FFA8AF940F6C81601
:103DF000C2F200061F4640F62438C2F2000856F808
:103E000024503C7098F8063013F0100F17D040F68D
:103E10005433C2F200031B680BB19D420FD14FF027
:103E2000340001F0F3FAFCF7F1FB02F0FBF9204655
:103E300002F06CF8484602F069F801F0BDFB62B68A
:103E4000284600F013F904462846214600F090FF6A
:103E5000204600F0CFFA72B640F6B813C2F2000363
:103E60001B78E3B140F6B812C2F20002117847F2B3
:103E70001873C0F200035C5C04F1FF34E4B2121961
:103E800052789B5C03EBC40404F0FF04A14506D206
:103E900040F6C413C2F200031B789C42AFD840F234
:103EA0000003C2F2000383F800A0BDE8F08740F2EF
:103EB0000003C2F200031B78BDE8F08710B572B6AC
:103EC00040F6C413C2F200031C781B7883423EBF45
:103ED00040F6C413C2F20003187040F62433C2F255
:103EE00000039B7913F0040F13D04FF0320001F060
:103EF0008DFAFCF78BFB02F095F9204602F006F8EC
:103F000040F6C413C2F20003187801F0FFFF01F07D
:103F100053FB62B6204610BD10B5044672B640F69B
:103F20002433C2F200039B7913F0080F13D04FF033
:103F3000330001F06BFAFCF769FB02F073F92046DD
:103F400001F0E4FF40F6C413C2F20003187801F058
:103F5000DDFF01F031FB40F6C413C2F200031B7811
:103F60009C4206D240F6C413C2F200031C70FFF755
:103F7000FBFE62B610BD00BF38B504460D4672B6F2
:103F800040F62433C2F200035B7813F0400F20D0D8
:103F900040F65433C2F200031B680BB1834218D1C0
:103FA0004FF00E0001F032FAFCF730FB02F03AF964
:103FB000287801F0ABFF204602F034F9687801F070
:103FC000A5FFE07B01F0A2FF207C01F09FFF01F044
:103FD000F3FA6B7813B103F101036B7063681BBBD9
:103FE000656040F6B813C2F200031D78217D47F6E4
:103FF000BC02C0F20002505C47F63402C0F200027C
:104000001418647845EA04041C701B185878525C34
:1040100040EA02025A7040F6C113C2F200031B7854
:104020000BBBFFF7A1FE1EE0E37B3BB947F2E86064
:10403000C0F200004FF04501FCF70EF9627BA36867
:1040400043F82250637B0BB9237B6373637B03F1DB
:10405000FF336373E37B03F1FF33DBB2E373227C53
:104060009A4288BF237462B638BD00BF70B504465B
:1040700072B643683BB947F2F060C0F200004FF0FF
:104080003001FCF7E9F86568E37B227B934234D08A
:10409000A17BA06850F82100606001B9A273A27BE7
:1040A00002F1FF32A27303F10103E37340F62433FC
:1040B000C2F200039B7813F0010F68D040F654332E
:1040C000C2F200031B680BB19C4260D14FF010009C
:1040D00001F09CF9FCF79AFA02F0A4F8287801F0B4
:1040E00015FF204602F09EF8687801F00FFFE07B94
:1040F00001F00CFF01F060FA49E04FF0000363604B
:10410000217D47F6BC03C0F20003585C40F6B813AB
:10411000C2F200031B185E7847F67802C0F2000274
:10412000525C06EA02025A705B786BB940F6B8132B
:10413000C2F20003197847F67802C0F200021018A4
:10414000427801EA02021A7040F62433C2F20003F8
:104150009B7813F0020F1AD040F65433C2F20003DA
:104160001B680BB19C4212D14FF0110001F04EF9C7
:10417000FCF74CFA02F056F8287801F0C7FE20460A
:1041800002F050F8687801F0C1FE01F015FA62B64D
:10419000284670BD10B504463F2806D840F6C8131F
:1041A000C2F2000353F820303BB947F2F060C0F28E
:1041B00000004FF05A01FCF74FF872B662B640F6B5
:1041C000C813C2F2000353F82430187C10BD00BF9E
:1041D000F8B507460D46047D47F6BC03C0F2000360
:1041E0001E5D032917D940F61033C2F200031A7876
:1041F000231E18BF01238A4294BF002303F001034A
:104200004BB13F2C07D840F6C813C2F2000353F855
:104210002430834207D047F2F860C0F200004FF02C
:104220003001FCF719F872B640F62433C2F20003ED
:104230005B7813F0100F17D040F65433C2F200032E
:104240001B680BB19F420FD14FF00C0001F0DEF85C
:10425000FCF7DCF901F0E6FF284601F057FE38468E
:1042600001F0E0FF01F0A8F940F60C33C2F20003C0
:104270001B6803EBC50547F63403C0F20003AA5DD3
:104280001B5D42EA0303AB5562B6F8BD38B50D4677
:1042900014464FF000030360416002724372837260
:1042A000C272027340F62433C2F200039B7813F00B
:1042B000040F15D040F65C33C2F200031B680BB14B
:1042C00098420DD172B64FF0120001F09FF82846C7
:1042D00001F0A8FF204601F019FE01F06DF962B669
:1042E00038BD00BF47F20070C0F20000704700BF49
:1042F00038B50546047D04F1FF33DBB23E2B06D80A
:1043000040F6C813C2F2000353F8243023B1174813
:104310004FF04001FBF7A0FF72B640F6C813C2F29F
:10432000000343F8245040F62433C2F200035B78C4
:1043300013F0040F17D040F65433C2F200031B6889
:104340000BB19D420FD14FF00A0001F05FF8FCF76E
:104350005DF901F067FF284601F064FF204601F097
:10436000D5FD01F029F962B638BD00BF087700001D
:1043700038B50546047D04F1FF33DBB23E2B07D888
:1043800040F6C813C2F2000353F82430834204D02D
:1043900017484FF05401FBF75FFF72B640F6C813A1
:1043A000C2F200034FF0000243F8242040F6243309
:1043B000C2F200035B7813F0080F17D040F65433B5
:1043C000C2F200031B680BB19D420FD14FF00B00EE
:1043D00001F01CF8FCF71AF901F024FF284601F05F
:1043E00021FF204601F092FD01F0E6F862B638BDEB
:1043F0000877000038B504464578002D59D072B6CC
:1044000005F03F03012B1CDD05F1FF35457040F63B
:104410002433C2F20003DB7813F0200F0FD04FF0EB
:104420001D0000F0F3FFFCF7F1F801F0FBFE20782F
:1044300001F06CFD607801F069FD01F0BDF862B635
:1044400038BD4FEA951505F1FF35EDB240F624333E
:10445000C2F20003DB7813F0400F0FD04FF01E00C4
:1044600000F0D4FFFCF7D2F801F0DCFE207801F078
:104470004DFD607801F04AFD01F09EF862B640F60D
:10448000CC23C2F200031B78AB4207D847F210706E
:10449000C0F200004FF04901FBF7DEFE05EB850599
:1044A00040F6D023C2F2000303EB8500214600F062
:1044B00085FA38BD2DE9F843074689464FF00004D8
:1044C00040F6D025C2F2000540F6CC26C2F2000626
:1044D00047F61808C0F200080AE004F10104E4B24B
:1044E0003378A34204D840464FF03001FBF7B4FEC6
:1044F00004EB840305EB83039B89BB42EDD340F6B9
:104500002433C2F20003DB7813F0100F11D072B61F
:104510004FF01C0000F07AFFFCF778F801F082FE03
:10452000384601F077FD484601F0F0FC01F044F810
:1045300062B604EB840040F6D023C2F2000303EB22
:10454000800000F063F9054638B947F61800C0F25C
:1045500000004FF03A01FBF77FFE85F8009004F170
:1045600001044FEA84146C702846BDE8F88300BF4C
:10457000F8B506460F46154640F6CC23C2F20003B6
:104580001B78022B07D947F62000C0F200004FF03D
:104590002E01FBF761FE40F6CC23C2F200031B782C
:1045A000A3B140F6CC22C2F2000203F1FF3303EBC9
:1045B000830302EB8302138AAB4207D347F6200042
:1045C000C0F200004FF03101FBF746FE40F6CC246C
:1045D000C2F2000404F10402237803EB830302EB2C
:1045E000830031463A462B4600F068F9237803F100
:1045F00001032370F8BD00BF40F60C33C2F2000384
:1046000018601971704700BF2DE9F04F83B007465D
:1046100040F61033C2F2000302781B789A4207D3A7
:1046200047F62800C0F200004FF02C01FBF714FE03
:1046300072B640F62433C2F20003DB7813F0040FA5
:104640000FD04FF01A0000F0E1FEFBF7DFFF01F0A2
:10465000E9FD387801F05AFC787801F057FC00F059
:10466000ABFF7B7813B103F101037B7062B64FF0AF
:10467000080B40F60C31C2F20001019147F21879A3
:10468000C0F2000947F6780AC0F2000A40F6C816E0
:10469000C2F200060BF1FF3B5FFA8BFB3A780199FF
:1046A0000B6803EBC20313F80B40E4B14FEACB08ED
:1046B0005FFA88F819F804501AF805301C40454490
:1046C000EDB256F825303BB947F62800C0F200009D
:1046D0004FF05501FBF7C0FD56F825003946FFF7AE
:1046E0004BFC002CE6D1BBF1000FD3D13846FFF7CD
:1046F00081FE03B0BDE8F08FF8B572B640F6243302
:10470000C2F2000393F90330002B11DA4FF01F00BF
:1047100000F07CFE40F66833C2F200031A6802F132
:1047200001021A60186880B201F074FC00F044FFC6
:1047300040F61833C2F200031C68002C64D040F627
:104740002435C2F2000540F66037C2F200071E466B
:10475000238A03F1FF339BB22382002B48D1638A63
:104760000BB1238223E033689C4202D1A3683360FB
:1047700006E0A3680BB162685A606368A2689A6039
:104780004FF0000363602B7913F0020F0FD03B68EA
:104790000BB19C420BD14FF0210000F037FE2046B8
:1047A00001F040FDE06801F03DFD00F005FF2B79D0
:1047B00013F0200F16D03B680BB19C4212D14FF082
:1047C000250000F023FEFBF721FF01F02BFD204622
:1047D00001F028FD207801F099FBE06801F022FD4E
:1047E00000F0EAFE62B6E0682146FFF7C5FB07E08D
:1047F00062B640F61433C2F200034FF000021A70A2
:1048000072B6A468002CA3D162B6F8BD38B50446D0
:1048100072B6056855B12B680360038A03F1FF3354
:104820009BB20382428A9A4288BF438240F6243375
:10483000C2F20003DB7813F0010F1BD040F65833AF
:10484000C2F200031B6813B16268934212D14FF0A9
:10485000180000F0DBFDFBF7D9FE01F0E3FC606817
:1048600001F0E0FC208A01F0D5FB608A01F0D2FB68
:1048700000F0A2FE62B6284638BD00BF10B504465F
:1048800030B140F6CC23C2F200031B78834207D23A
:1048900047F60010C0F200004FF04501FBF7DCFCCA
:1048A00072B662B640F6D023C2F2000304F1FF34C0
:1048B00004EB840403EB8403588A10BD2DE9F04116
:1048C000044617461E468846032A94BF0023012348
:1048D00000290CBF002303F0010323B106F10403F8
:1048E0009BB29E4207D347F60810C0F200004FF07B
:1048F0003601FBF7B1FCC4F800804FF00403A3813C
:10490000042E9CBF042301250BD94FF004034FF064
:10491000010503F104039BB205F101059E42F8D89D
:10492000A3811E469F4207D247F60810C0F200003E
:104930004FF04401FBF790FCBF1B4FF00103E381F4
:104940002268BE4288BF13460FD84FEA8505C6F1DC
:104950000001BF1B00E01A4653191360E28902F1FF
:104960000102E2817F18F742F5D34FF000021A608E
:10497000E28922826282C4F80480A36040F6243374
:10498000C2F2000393F90230002B15DA40F65833D7
:10499000C2F200031B680BB198450DD172B64FF0FF
:1049A000170000F033FD606801F03CFCE08901F085
:1049B00031FB00F001FE62B6BDE8F08138B5044677
:1049C0000D4643688B4206D88368994203D8028A11
:1049D000C3899A4207D947F61410C0F200004FF07D
:1049E0002D01FBF739FC72B623682B602560238A02
:1049F00003F10103238240F62433C2F20003DB7883
:104A000013F0020F18D040F65833C2F200031B68AF
:104A100013B1626893420FD14FF0190000F0F6FC19
:104A2000FBF7F4FD01F0FEFB606801F0FBFB208A60
:104A300001F0F0FA00F0C0FD62B638BD38B50446AA
:104A40000D46032907D847F61C10C0F200004FF0AE
:104A50002901FBF701FC4FF000036360A360E360F2
:104A6000238263822570637038BD00BF70B5044631
:104A70000D46164662B10378032B09D942680B1E16
:104A800018BF0123002A14BF002303F001033BB920
:104A900047F62810C0F200004FF03001FBF7DCFBB6
:104AA00026826460E56072B640F62433C2F20003E9
:104AB0001B7913F0010F1DD040F66033C2F20003E2
:104AC0001B680BB19C4215D14FF0200000F09EFCFA
:104AD000FBF79CFD01F0A6FB204601F0A3FB284656
:104AE00001F0A0FB304601F095FA608A01F092FADD
:104AF00000F062FD40F61833C2F200031B68A360A9
:104B000003B15C6040F61833C2F200031C6062B669
:104B100070BD00BF10B5044672B64268002A43D08B
:104B200040F61833C2F200031B68984206D140F6E3
:104B30001833C2F2000382681A6005E0836803B18B
:104B40005A606368A2689A604FF00003636040F6A1
:104B50002433C2F200031B7913F0080F08BF0120B1
:104B600048D040F66033C2F200031B681BB19C4280
:104B700018BF01203ED14FF0230000F047FCFBF7A7
:104B800045FD01F04FFB204601F04CFBE06801F0D1
:104B900049FB208A01F03EFA608A01F03BFA00F0FE
:104BA0000BFD4FF0010025E040F62433C2F2000374
:104BB0001B7913F0040F08BF00201BD040F66033B0
:104BC000C2F200031B681BB19C4218BF002011D128
:104BD0004FF0220000F01AFCFBF718FD01F022FB59
:104BE000204601F01FFBE06801F01CFB00F0E4FC34
:104BF0004FF0000062B610BD2DE9F04786B00546C3
:104C000003689847022807D047F63010C0F200002A
:104C10004FF02D01FBF720FB45F25536C0F20006A0
:104C200040F62439C2F2000940F6503AC2F2000AB6
:104C300047F65017C0F2000707F1020899F8003054
:104C400013F0080F15D0DAF800300BB19D4210D1E7
:104C500072B64FF0030000F0D9FB284601F0E2FAEB
:104C6000304601F0DFFA286801F0DCFA00F0A4FC1D
:104C700062B62C68009428463946A0472B68B34298
:104C800004BF2C6000241DD04FF0000404F1010487
:104C9000E4B262B206A901EB820242F8183C28464F
:104CA000394698472B68B342F0D1009B2B6063B222
:104CB000052B07DD47F63010C0F200004FF044012D
:104CC000FBF7CAFA63B206AA02EB830353F8186C27
:104CD00028464146B047B8B999F8003013F0020FA2
:104CE00012D0DAF800300BB19D420DD172B64FF000
:104CF000010000F08BFB284601F094FA304601F0E9
:104D000091FA00F059FC62B604F1FF34E4B214F0F9
:104D1000800FD7D0009E28461449B04702288DD076
:104D20002E6040F62433C2F200031B7813F0100FFC
:104D300019D040F65033C2F200031B680BB19D42FC
:104D400011D172B64FF0040000F060FBFBF75EFC7F
:104D500001F068FA284601F065FA286801F062FA65
:104D600000F02AFC62B606B0BDE8F0875679000074
:104D70002DE9F04F89B005468B46066840F624338E
:104D8000C2F200035B7813F0010F1DD040F65033E0
:104D9000C2F200031B680BB1984215D172B64FF0F6
:104DA000080000F033FBFBF731FC01F03BFA9BF805
:104DB000000001F0ABF8284601F034FA304601F06B
:104DC00031FA00F0F9FB62B6D5F800902846594652
:104DD000C8470328F8D0022840F05F822B6802936E
:104DE00003964E452CD0954C40F62437C2F200076E
:104DF00047F65018C0F2000828462146B047E0B9EF
:104E00003B7813F0040F15D040F65033C2F2000384
:104E10001B680BB19D420DD172B64FF0020000F03D
:104E2000F5FA284601F0FEF9304601F0FBF900F0F2
:104E3000C3FB62B628464146B0472E68B145DBD178
:104E4000029CA14526D128467C49C847002840F04D
:104E50007D8240F62433C2F200031B7813F0040F66
:104E600000F0748240F65033C2F200031B6813B1A5
:104E70009D4240F06B8272B64FF0020000F0C6FA1D
:104E8000284601F0CFF9484601F0CCF900F094FB38
:104E900062B65BE2284647F65011C0F20001A04717
:104EA0002E68B14500F05282284647F65011C0F2F4
:104EB0000001C8472F68B74226D128465F49C84736
:104EC000002840F0438240F62433C2F200031B78EE
:104ED00013F0040F00F03A8240F65033C2F20003A0
:104EE0001B6813B19D4240F0318272B64FF0020050
:104EF00000F08CFA284601F095F9484601F092F945
:104F000000F05AFB62B621E2BC422BD128464B4945
:104F1000C847002840F00F8140F62433C2F2000356
:104F20001B7813F0040F00F0068140F65033C2F2F4
:104F300000031B6813B19D4240F0FD8072B64FF034
:104F4000020000F063FA284601F06CF9484601F0CF
:104F500069F900F031FB62B6EDE014F0800F00F06B
:104F6000B980E8E00396284647F65011C0F20001E8
:104F7000B047032802BF012447F65018C0F20008CA
:104F800001D02AE0344604F10106F6B22B6872B271
:104F900008A901EB820242F8183C99450BD176B280
:104FA000052EDADD47F63C10C0F200004FF07A0122
:104FB000FBF752F9D1E72846414698470328E1D04C
:104FC000344676B2052E0ADD47F63C10C0F20000EA
:104FD0004FF08501FBF740F901E04FF0010428464E
:104FE0001649C847E8B940F62433C2F200031B78DB
:104FF00013F0040F15D040F65033C2F200031B68C3
:105000000BB19D420DD172B64FF0020000F0FEF9D7
:10501000284601F007F9484601F004F900F0CCFAFF
:1050200062B623465AB208A901EB820252F8182C44
:10503000974205D103F1FF33DCB28EE754790000CB
:1050400003F1FF33DBB213F0800FEBD0A74E40F635
:105050002438C2F2000847F6501AC0F2000A284667
:105060003146B847E8B998F8003013F0040F15D06E
:1050700040F65033C2F200031B680BB19D420DD1C4
:1050800072B64FF0020000F0C1F9284601F0CAF8EC
:10509000384601F0C7F800F08FFA62B6284651464C
:1050A000B8472F6823465AB208A901EB820252F88A
:1050B000182CBA4203D103F1FF33DCB24DE703F100
:1050C000FF33DBB213F0800FEDD04FF00102002A66
:1050D000C5D142E7864F40F62438C2F2000840F6B8
:1050E000503AC2F2000A63B208A901EB830353F8F5
:1050F000186C28463946B047B8B998F8003013F014
:10510000020F12D0DAF800300BB19D420DD172B609
:105110004FF0010000F07AF9284601F083F830469C
:1051200001F080F800F048FA62B604F1FF34E4B20E
:1051300014F0800FD7D0029E2E6040F6243AC2F2BF
:10514000000A40F65032C2F200020192DFF8A0815C
:1051500073E09AF8003013F0080F15D001990B682E
:105160000BB19D4210D172B64FF0030000F04EF922
:10517000284601F057F8304601F054F8286801F04D
:1051800051F800F019FA62B62C680294284647F6E6
:105190005011C0F20001A0472B68B34204BF2C603D
:1051A000002421D04FF0000447F65017C0F200074A
:1051B00004F10104E4B262B208A901EB820242F8F0
:1051C000183C2846394698472B68B342F0D1029BD9
:1051D0002B6063B2052B07DD47F63C10C0F20000E0
:1051E0004FF0D901FBF738F863B208AA02EB83034A
:1051F00053F8186C28464146B047B8B99AF80030C1
:1052000013F0020F12D001990B680BB19D420DD122
:1052100072B64FF0010000F0F9F8284601F002F8EC
:10522000304600F0FFFF00F0C7F962B604F1FF342A
:10523000E4B214F0800FD7D0029E28462D49B04723
:10524000022886D0344640F62433C2F200031B788D
:1052500013F0400F76D040F65033C2F200031B68C3
:105260000BB19D426ED172B64FF0060000F0CEF841
:10527000FBF7CCF900F0D6FF9BF8000000F046FEEB
:10528000284600F0CFFF484600F0CCFF204600F053
:10529000C9FF00F091F962B654E001282CD140F624
:1052A0002433C2F2000393F90030002B4ADA40F6AF
:1052B0005033C2F200031B680BB19D4242D172B65B
:1052C0004FF0070000F0A2F8FBF7A0F900F0AAFFEA
:1052D0009BF8000000F01AFE284600F0A3FF3046BD
:1052E00000F0A0FF00F068F962B62BE054790000EE
:1052F000527900005679000040F62433C2F20003D0
:105300001B7813F0200F1DD040F65033C2F200037B
:105310001B680BB19D4215D172B64FF0050000F02D
:1053200075F8FBF773F900F07DFF9BF8000000F0C3
:10533000EDFD284600F076FF484600F073FF00F0D0
:105340003BF962B62E6009B0BDE8F08F4FF0000463
:10535000C0E600BF4FF00100704700BF47F648109D
:10536000C0F20000704700BF47F65810C0F20000BE
:10537000704700BF40F61C33C2F2000318609980EA
:10538000704700BFFF280ED140F61C31C2F2000169
:1053900001F1070301F127014FF0FF0203F8012F8C
:1053A0008B42FBD1704740F61C33C2F2000303EB83
:1053B000D00300F007004FF0010202FA00F01A7A61
:1053C00010431872704700BFFF280ED140F61C3101
:1053D000C2F2000101F1070301F127014FF00002C1
:1053E00003F8012F8B42FBD1704740F61C33C2F209
:1053F000000303EBD00300F007004FF0010202FAB4
:1054000000F01A7A22EA00001872704710B440F6D1
:105410001C33C2F2000393F8282002F10102D2B239
:1054200083F8282083F82920A2F17D03DBB2012B29
:105430003CD840F61C33C2F200035A8D19684FF075
:105440007D048C545A8D02F1010292B25A859B88D8
:10545000934201BF40F61C33C2F2000300225A857A
:1054600040F61C33C2F200039A8D02F101029A85C4
:105470005A8D196893F8284084F020048C545A8D72
:1054800002F1010292B25A859B88934201BF40F615
:105490001C33C2F2000300225A8540F61C33C2F2CC
:1054A00000039A8D02F101029A851CE040F61C333C
:1054B000C2F20003598D1C6862545A8D02F1010238
:1054C00092B25A859B88934201BF40F61C33C2F2C8
:1054D000000300225A8540F61C33C2F200039A8D65
:1054E00002F101029A8540F61C33C2F2000393F8E0
:1054F0002920821883F82920A0F17D03DBB2012B3B
:105500003AD840F61C33C2F200035A8D19684FF0A6
:105510007D048C545A8D02F1010292B25A859B8807
:10552000934201BF40F61C33C2F2000300225A85A9
:1055300040F61C33C2F200039A8D02F101029A85F3
:105540005A8D196880F0200088545A8D02F10102AA
:1055500092B25A859B88934201BF40F61C33C2F237
:10556000000300225A8540F61C33C2F200039A8DD4
:1055700002F101029A851CE040F61C33C2F20003DE
:105580005A8D196888545A8D02F1010292B25A85D7
:105590009B88934201BF40F61C33C2F200030022F5
:1055A0005A8540F61C33C2F200039A8D02F10102C3
:1055B0009A8510BC704700BF40F61C33C2F200034E
:1055C00093F829206FEA0202D2B283F82920A2F1CF
:1055D0007D03DBB2012B3CD840F61C33C2F2000342
:1055E0005A8D19684FF07D0088545A8D02F10102DE
:1055F00092B25A859B88934201BF40F61C33C2F297
:1056000000030021598540F61C33C2F200039A8D35
:1056100002F101029A855A8D196893F8290080F0E9
:10562000200088545A8D02F1010292B25A859B885B
:10563000934201BF40F61C33C2F2000300225A8598
:1056400040F61C33C2F200039A8D02F101029A85E2
:105650001CE040F61C33C2F20003598D1868425416
:105660005A8D02F1010292B25A859B88934201BF82
:1056700040F61C33C2F200030021598540F61C336A
:10568000C2F200039A8D02F101029A8540F61C33A2
:10569000C2F200035A8D19684FF07E008854598D6C
:1056A00001F1010189B259859A88914201BF40F602
:1056B0001C33C2F200030021598540F61C33C2F2AC
:1056C0000003998D01F1010189B299858A423FBF9A
:1056D00040F61C33C2F20003598DD98538BF9A8534
:1056E000704700BF30B440F61C33C2F2000393F899
:1056F0002920821883F82920A0F17D03DBB2012B39
:105700003AD840F61C33C2F200035A8D1C684FF0A1
:105710007D05A5545A8D02F1010292B25A859B88EB
:10572000934201BF40F61C33C2F2000300225A85A7
:1057300040F61C33C2F200039A8D02F101029A85F1
:105740005A8D1C6880F02000A0545A8D02F101028D
:1057500092B25A859B88934201BF40F61C33C2F235
:10576000000300225A8540F61C33C2F200039A8DD2
:1057700002F101029A851CE040F61C33C2F20003DC
:105780005A8D1C68A0545A8D02F1010292B25A85BA
:105790009B88934201BF40F61C33C2F200030022F3
:1057A0005A8540F61C33C2F200039A8D02F10102C1
:1057B0009A8540F61C33C2F2000393F829208A1818
:1057C00083F82920A1F17D03DBB2012B3AD840F602
:1057D0001C33C2F200035A8D18684FF07D048454C4
:1057E0005A8D02F1010292B25A859B88934201BF01
:1057F00040F61C33C2F2000300225A8540F61C33E7
:10580000C2F200039A8D02F101029A855A8D18683E
:1058100081F0200181545A8D02F1010292B25A8521
:105820009B88934201BF40F61C33C2F20003002262
:105830005A8540F61C33C2F200039A8D02F1010230
:105840009A851CE040F61C33C2F200035A8D18689A
:1058500081545A8D02F1010292B25A859B8893427B
:1058600001BF40F61C33C2F2000300225A8540F605
:105870001C33C2F200039A8D02F101029A8530BCFA
:10588000704700BF30B440F61C33C2F2000393F8F7
:105890002920821883F82920A0F17D03DBB2012B97
:1058A0003AD840F61C33C2F200035A8D1C684FF000
:1058B0007D05A5545A8D02F1010292B25A859B884A
:1058C000934201BF40F61C33C2F2000300225A8506
:1058D00040F61C33C2F200039A8D02F101029A8550
:1058E0005A8D1C6880F02000A0545A8D02F10102EC
:1058F00092B25A859B88934201BF40F61C33C2F294
:1059000000030020588540F61C33C2F200039A8D34
:1059100002F101029A851CE040F61C33C2F200033A
:105920005A8D1C68A0545A8D02F1010292B25A8518
:105930009B88934201BF40F61C33C2F20003002251
:105940005A8540F61C33C2F200039A8D02F101021F
:105950009A85CAB240F61C33C2F2000393F82900BC
:10596000101883F82900A2F17D03DBB2012B3AD88D
:1059700040F61C33C2F20003588D1C684FF07D05C1
:105980002554588D00F1010080B258859B888342D0
:1059900001BF40F61C33C2F200030020588540F6D8
:1059A0001C33C2F20003988D00F101009885588DD8
:1059B0001C6882F0200222545A8D02F1010292B238
:1059C0005A859B88934201BF40F61C33C2F2000304
:1059D00000225A8540F61C33C2F200039A8D02F170
:1059E00001029A851CE040F61C33C2F20003588D78
:1059F0001C6822545A8D02F1010292B25A859B888A
:105A0000934201BF40F61C33C2F2000300205885C8
:105A100040F61C33C2F200039A8D02F101029A850E
:105A20004FEA1121CAB240F61C33C2F2000393F8C8
:105A30002900101883F82900A2F17D03DBB2012BA5
:105A40003AD840F61C33C2F20003598D18684FF063
:105A50007D044454598D01F1010189B259859B8817
:105A60008B4201BF40F61C33C2F20003002159856E
:105A700040F61C33C2F20003998D01F101019985B2
:105A8000598D186882F0200242545A8D02F10102A9
:105A900092B25A859B88934201BF40F61C33C2F2F2
:105AA000000300225A8540F61C33C2F200039A8D8F
:105AB00002F101029A851CE040F61C33C2F2000399
:105AC0005A8D186881545A8D02F1010292B25A859A
:105AD0009B88934201BF40F61C33C2F200030020B2
