:10000000640700207D1F0000611F00000000000049
:10001000611F0000611F0000611F0000611F0000E0
:10002000611F0000611F0000611F0000611F0000D0
:10003000611F0000611F0000611F0000F10000004F
:10004000611F0000611F0000611F0000611F0000B0
:10005000611F0000611F0000611F0000611F0000A0
:10006000611F0000611F0000611F0000611F000090
:10007000611F0000611F0000611F0000611F000080
:10008000611F000035030000611F0000611F0000B8
:10009000611F0000611F0000611F0000611F000060
:1000A000611F0000611F0000611F0000611F000050
:1000B000611F0000611F0000611F0000611F000040
:1000C000611F0000611F0000611F0000611F000030
:1000D000611F0000611F0000611F0000611F000020
:1000E000611F0000611F0000611F0000611F000010
:1000F000684620F007018D4601B502F07FFB43F210
:10010000FC40C0F2000002F019FBBDE8014085464A
:10011000704700BF10B501F0CBFF4FF46043C4F24D
:100120000F03D3F8002142F48032C3F80021D3F842
:10013000042142F44032C3F80421D3F8082142F0EC
:100140000502C3F8082100BF00BF00BF4FF4004301
:10015000C4F203035A6922F4704242F4A0425A6185
:100160001A6A22F470421A62D3F8A02022F06F02B9
:1001700042F06002C3F8A020D3F8A42022F00F02BE
:1001800042F00602C3F8A4201A6842F008021A607E
:100190004FF48053C4F20303DA6822F00112DA60EC
:1001A0004FF0000119604FF002025A6040F2A8328D
:1001B000C2F20002106848F68902C8F68802A2FB63
:1001C00000424FEA92129A62DA6842F00202DA6062
:1001D000DA6842F02002DA604FF4C043C4F2000350
:1001E000D3F8002442F02002C3F80024D3F81C25E1
:1001F00042F02002C3F81C25C3F88010D3F8002475
:1002000022F01002C3F80024D3F81C2542F010029B
:10021000C3F81C254FF0010000F0A2FA10BD00BF8A
:1002200000B583B00B464FEAD20200924FF00001B6
:100230000A4600F053FA03B000BD00BF10B50446F3
:100240000B46104621461A4600F0CEF910BD00BFFD
:10025000704700BF08B500F07BFB08BD08B500F093
:10026000BFFB08BD40F2A833C2F200031A6848F68B
:100270008903C8F68803A3FB02134FEA1313B3F1F3
:10028000807F16D223F07F4303F1FF324EF210033A
:10029000CEF200035A604FF46D42CEF200024FF0EE
:1002A000E00182F823104FF000029A604FF007023D
:1002B0001A604FF46D43CEF200034FF0400283F812
:1002C00023204FF46143CEF200034FF0200283F865
:1002D00011234FF0000283F800234FF400321A601C
:1002E0004FF001021A604FF40043C4F203034FF0D1
:1002F0000802DA609A6842F008029A604FF480536C
:10030000C4F20303DA6842F00112DA60704700BFFA
:10031000704700BF4FF4C043C4F200034FF0200207
:10032000C3F880204FF00002C3F8802062B6704707
:1003300072B6FEE7684620F007018D4619B54FF406
:100340000043C4F203034FF00802DA60D3F8AC3084
:1003500013F4807F04D048484FF05C01FFF7E8FFBA
:100360004FF40043C4F20303D3F8A84040F2000363
:10037000C2F200031A6804F10404A41A02EBE404B4
:100380001C60A4EBC4044FEA440404F560544FEA33
:1003900094245B689C4216D04FF004004FF0090192
:1003A00002F03CF901464FF00A038370C47043F237
:1003B000F073C0F20003186802F062F840F2000324
:1003C000C2F200035C604FF4C043C4F200031A6C35
:1003D00040F20003C2F200031B7A032B47D8DFE888
:1003E00003F00211202F40F20003C2F20003DB6889
:1003F0009A423CD040F20003C2F200034FF00102E7
:100400001A7234E040F20003C2F20003DB689A4241
:1004100040F20003C2F2000314BF022200221A724B
:1004200025E040F20003C2F20003DB689A4240F28A
:100430000003C2F2000314BF032200221A7216E066
:1004400040F20003C2F20003DB689A4208D040F297
:100450000003C2F20003DA6012B9084802F06EF934
:1004600040F20003C2F200034FF000021A72BDE82E
:1004700019408546704700BF003500000835000070
:1004800008B5FFF755FF08BD4FF00003C4F20203A3
:100490004FF07A021A6098604FF003025A6070477A
:1004A0000138FDD17047704710B504464FF0000287
:1004B000C4F202025369002BFCD040F21003C2F2D6
:1004C00000031868FFF7ECFF4FF00003C4F20203CB
:1004D0009C604FF001025A6010BD00BF38B5054660
:1004E0004FF00002C4F202025369002BFCD040F22C
:1004F0001003C2F200031C682046FFF7D1FF4FF043
:100500000003C4F202039D604FF005025A604FF0F1
:100510000002C4F202025369002BFCD02046FFF710
:10052000BFFF38BD2DE9F0410D46B9B106464FF089
:100530000004C4F2020440F21007C2F200074FF0B8
:1005400001086369002BFCD03868FFF7A9FF16F893
:10055000013BA360C4F80480013DF2D1BDE8F08105
:1005600070B54FF08000FFF78FFF40F21003C2F22A
:1005700000031E7943F20C53C0F20003002E03F176
:10058000080018BF18464FF00601FFF7CBFF4FF0E9
:100590005F044FF000052846FFF786FF013CFAD1C3
:1005A0004FF00000FFF79AFF4FF08000FFF76CFF5D
:1005B000002E0C4B03F1080018BF18464FF006013F
:1005C000FFF7B0FF4FF0000425462846FFF76CFF09
:1005D00004F101045F2CF8D14FF00000FFF77EFF1B
:1005E00070BD00BF1C3500002DE9F84306460C46DF
:1005F00015464FF08000FFF747FF002D14BFB120D4
:10060000B020FFF751FF4FF08000FFF74DFF40F2A1
:100610001003C2F200035D79281900F00F00FFF704
:1006200043FF4FF08000FFF73FFF6519C5F303104C
:1006300040F01000FFF738FF4FF04000FFF734FFA5
:100640003378002B3DD1BDE8F88304F106045A2C21
:100650001CD803EB8303A3F1A00038184146FFF731
:1006600061FF5A2C03D02E4615F8013B2BB94FF0F1
:100670000000FFF733FFBDE8F8834846FFF714FF9B
:1006800015F8013C002BE0D1BDE8F883C4F15F050B
:1006900043F20C54C0F2000403EB8303E018A0F112
:1006A00080002946FFF73EFF3378A3F1200303EBD8
:1006B0008303E418651995F82000FFF70FFFBDE8E4
:1006C000F8835A2CE2D806F10105034F4FF00508D4
:1006D0004FF00009BDE700BF2C3500002DE9F84FB1
:1006E0000446154698460A9F40F21003C2F20003E2
:1006F00093F805A08A4487B3CAF3031949F0100997
:100700004FF080060AF00F0A08F1FF3B3046FFF772
:10071000BBFE002D14BFB120B020FFF7C5FE304650
:10072000FFF7C2FE5046FFF7BFFE3046FFF7BCFEA4
:100730004846FFF7B9FE4FF04000FFF7B5FE2046F0
:100740005946FFF7EFFE444414F8010CFFF7C6FECC
:10075000013F02D005F10105D8E7BDE8F88F00BFE1
:100760002DE9F84304464FF46043C4F20F03D3F875
:10077000042142F48052C3F80421D3F8082142F046
:100780000202C3F808215A68C2F30032D6B240F21E
:100790001003C2F200031A71002E00F0BB8040F279
:1007A0001003C2F200034FF004025A714FF4604389
:1007B000C4F20F03D3F8082142F00802C3F808215D
:1007C0004FF00100FFF76CFE4FF4E043C4F200036A
:1007D000D3F8002442F08002C3F800244FF08002D6
:1007E000C3F800224FF4A043C4F20003D3F800245E
:1007F00022F00C02C3F80024D3F8202442F00C02AB
:10080000C3F82024D3F8002542F00C02C3F80025D9
:10081000D3F8182522F00C02C3F81825D3F80C25BC
:1008200042F00C02C3F80C25D3F8102542F00C025C
:10083000C3F81025D3F81C2542F00C02C3F81C2580
:10084000D3F8282522F00C02C3F828254FF0000326
:10085000C4F202031A6A42F010021A6248F2A0625D
:10086000C0F201024FF4D453C0F20603002C0CBFB7
:1008700014461C4604EB84044FEA840440F2A83377
:10088000C2F200031B6803F1FF331B19B3FBF4F43E
:1008900004F1FF344FF00003C4F20203DC60DA68B5
:1008A00040F21003C2F2000302F1010202EB021255
:1008B0004FEA82021A604FF0000443F20C58C0F273
:1008C000000808F51377B9461AE05EB308F5FE751F
:1008D00063195878FFF7D8FD04F10200615D28180C
:1008E000A1F10201FFF71EFE635D08EB0402D318BD
:1008F00093F8FC01FFF7F2FD2B5D03F10103E4180F
:10090000002E0CBF71234D239C42DED3FFF728FE3F
:10091000BDE8F88340F21003C2F200034FF0240256
:100920005A715FE7E3195878FFF7AEFD04F1020052
:10093000E15D3818A1F10201FFF7F4FDE35D08EB7A
:100940000402D31893F84C02FFF7C8FD4D46D3E7D5
:100950002DE9F0414FF0000443F20C57C0F20007BC
:1009600007F51376B04619E02BB307F5FE7563194A
:100970005878FFF789FD04F10200615D2818A1F1A4
:100980000201FFF7CFFD635D3A19D31893F8FC011C
:10099000FFF7A4FD2B5D03F10103E41840F21003FF
:1009A000C2F200031B79002B0CBF71224D2294422E
:1009B000DAD3BDE8F081A3195878FFF765FD04F19B
:1009C0000200A15D3018A1F10201FFF7ABFDA35DAC
:1009D0003A19D31893F84C02FFF780FD4546D9E742
:1009E00008B54FF08000FFF74FFD4FF0AE00FFF766
:1009F0005BFD4FF08000FFF757FD4FF0AD00FFF7B4
:100A000053FD4FF08000FFF74FFD4FF08A00FFF7D6
:100A100065FD08BD30B585B005460C4600F090FB7D
:100A200000F0BEFC01F096F928462146FFF772FB64
:100A300002F01CF840F21805C2F2000528464FF0FB
:100A400034014FF0040201F02DFE05F134004FF0A7
:100A500041014FF0050201F025FE05F178004FF04D
:100A6000080101F063FE43F2EC73C0F20003186862
:100A70004FF000040094019402944FF0010105F13D
:100A8000B8024FF0020302F02FF843F2F073C0F205
:100A9000000318680094019402944FF0020105F1DC
:100AA000C0024FF0030302F01FF843F65803C0F2F0
:100AB000000318680094019402944FF0030105F1BB
:100AC000CC024FF00A0302F00FF801F0D5FF05B099
:100AD00030BD00BF40F20C13C2F200031B7833B9E3
:100AE00040F20C13C2F200034FF001021A7040F6FC
:100AF0000133C0F2000303604FF00200704700BFF3
:100B00000B78152B0BD18B780371CB78437140F6A2
:100B10001D43C0F2000303604FF00200704742F62D
:100B2000E973C0F2000303604FF00300704700BF99
:100B300010B504460B78022B02D0172B1ED115E0FE
:100B40004FF003004FF0160101F068FD01460F4B16
:100B5000E41A4FEAE404847043F65803C0F2000339
:100B6000186801F08DFC4FF0000010BD40F6013315
:100B7000C0F2000303604FF0020010BD42F6E973BB
:100B8000C0F2000303604FF0030010BD100100200D
:100B900010B504460B78012B02D0042B36D103E0AC
:100BA0004FF00000A07110BD03793BB382790E2A8B
:100BB00024D802F10102827103F1FF3303714FF077
:100BC00005004FF0140101F029FD0146237903F1DE
:100BD000010383706379A3F10203C370A3794FEA21
:100BE000930303F10603037143F65803C0F20003B5
:100BF000186801F045FC4FF0000010BD40F60133CD
:100C0000C0F2000323604FF0020010BD40F6313304
:100C1000C0F2000303604FF0030010BD30B583B095
:100C200004460B780F2B28D0102B47D0042B62D111
:100C30000379D3B103F1FF3303714FF005004FF097
:100C4000110101F0EBFC0146237983706379C370D5
:100C50004FF00303037143F65803C0F20003186812
:100C600001F00EFC4FF0000052E040F60133C0F2FC
:100C7000000303604FF002004AE0057942790B79E6
:100C800088780090C97801914FF00300294601F05F
:100C900099F8002837D043F2F073C0F200031868C7
:100CA00043F2CC71C0F2000101F0EAFB40F60133DF
:100CB000C0F2000323604FF0020029E00579427979
:100CC0000B7988780090C97801914FF0030029468C
:100CD00001F078F8D0B143F2EC73C0F20003186869
:100CE0000C4901F0CDFB40F69133C0F200032360C4
:100CF0004FF002000CE040F63133C0F20003036015
:100D00004FF0030004E04FF0000001E04FF000005E
:100D100003B030BDD037000010B50446042804D914
:100D20000A484FF03801FFF703FB40F20C13C2F200
:100D300000034FEAC404191940F6D522C0F200029C
:100D40004A6003F10403181910BD00BFD437000036
:100D500040F23813C2F200031B7833B940F2381363
:100D6000C2F200034FF001021A7040F67D53C0F248
:100D7000000303604FF00200704700BF0B78152B93
:100D80000BD18B780371CB78437140F69963C0F235
:100D9000000303604FF00200704742F6E973C0F2AF
:100DA000000303604FF00300704700BF10B5044616
:100DB0000B78022B02D0172B1ED115E04FF0030049
:100DC0004FF0160101F02AFC01460F4BE41A4FEADE
:100DD000E404847043F65803C0F20003186801F07D
:100DE0004FFB4FF0000010BD40F67D53C0F20003F2
:100DF00003604FF0020010BD42F6E973C0F2000339
:100E000003604FF0030010BD3C01002010B5044604
:100E10000B78012B02D0042B36D103E04FF00000F9
:100E2000A07110BD03793BB382790E2A24D802F158
:100E30000102827103F1FF3303714FF005004FF09F
:100E4000140101F0EBFB0146237903F101038370E8
:100E50006379A3F10203C370A3794FEA930303F10B
:100E60000603037143F65803C0F20003186801F04B
:100E700007FB4FF0000010BD40F67D53C0F20003A9
:100E800023604FF0020010BD40F6AD53C0F20003E6
:100E900003604FF0030010BD30B583B004460B78FB
:100EA0000F2B28D0102B47D0042B62D10379D3B15C
:100EB00003F1FF3303714FF005004FF0110101F012
:100EC000ADFB0146237983706379C3704FF004034F
:100ED000037143F65803C0F20003186801F0D0FA1A
:100EE0004FF0000052E040F67D53C0F20003036073
:100EF0004FF002004AE0057942790B79887800903A
:100F0000C97801914FF00400294600F05BFF0028EA
:100F100037D043F2F073C0F20003186843F2DC717B
:100F2000C0F2000101F0ACFA40F67D53C0F20003BC
:100F300023604FF0020029E0057942790B79887827
:100F40000090C97801914FF00500294600F03AFF62
:100F5000D0B143F2EC73C0F2000318680C4901F001
:100F60008FFA40F60D63C0F2000323604FF00200D9
:100F70000CE040F6AD53C0F2000303604FF00300F5
:100F800004E04FF0000001E04FF0000003B030BD7E
:100F9000E037000010B50446042804D90A484FF091
:100FA0003801FFF7C5F940F23813C2F200034FEAE7
:100FB000C404191940F65152C0F200024A6003F10C
:100FC0000403181910BD00BFE43700000B78122B82
:100FD0000BD18B780376CB78437641F21903C0F2BC
:100FE000000303604FF00200704742F6E973C0F25D
:100FF000000303604FF00300704700BF10B50446C4
:101000004FF0040101F084FA40F6CD73C0F2000302
:1010100023604FF0020010BD10B504460B780D2B75
:1010200029D0132B2FD0042B3CD1037E03F10202D5
:101030005F2A18DC22764FF005004FF0100101F016
:10104000EDFA0146237E8370637EC3704FF0020386
:10105000037143F65803C0F20003186801F010FA58
:101060004FF0000010BD40F6CD73C0F200030360E6
:101070004FF0020010BD41F2B503C0F2000303605F
:101080004FF0020010BD43F2F073C0F20003186885
:1010900001F0F6F940F6CD73C0F2000323604FF083
:1010A000020010BD42F6E973C0F2000303604FF086
:1010B000030010BD10B504460B78012B02D0042BA1
:1010C00036D103E04FF00000A07610BD037E3BB3A5
:1010D000827E0E2A24D802F10102827603F1FF33C8
:1010E00003764FF005004FF0140101F097FA014626
:1010F000237E03F103038370637EA3F10403C370B3
:10110000A37E4FEA930303F10603037143F65803EA
:10111000C0F20003186801F0B3F94FF0000010BDF1
:1011200040F6CD73C0F2000323604FF0020010BD03
:1011300042F6E973C0F2000303604FF0030010BDF4
:1011400040F26413C2F2000340F6FD72C0F20002E6
:101150001A6070470B78032B02D0092B0FD107E0E0
:1011600041F29113C0F2000303604FF00200704798
:101170008B780376CB7843764FF00000704742F6C9
:10118000E973C0F2000303604FF00300704700BF33
:101190000B780C2B01BF41F2DD13C0F2000303609A
:1011A00002201FBF41F25513C0F200030360032069
:1011B000704700BF10B504464FF0040101F0A8F9D4
:1011C00020464FF0050101F0A3F941F25513C0F29A
:1011D000000323604FF0020010BD00BF38B5044685
:1011E0000B7803F1FF33122B7FD8DFE803F00A7E80
:1011F0007E1F587E7E7E7E7E7E7E76767E7E7E7EA4
:101200006F004FF0000585834FF004004FF0180188
:1012100001F004FA0146A48B448043F65803C0F25F
:101220000003186801F02CF9284638BD4FF005007E
:101230004FF00F0101F0F2F90146237E8370637EC7
:10124000C3704FF00103037143F65803C0F200036B
:101250001D68284601F014F9A38B03F101039BB22A
:10126000A3834CF6CD42CCF6CC42A2FB03124FEA4C
:10127000D20202EB8202A3EB42039BB2002B3CD1D1
:101280004FF004004FF0180101F0C8F90146A48B9B
:101290004480284601F0F4F84FF0000038BD4FF0CC
:1012A00004004FF0120101F0B9F90146237E83706A
:1012B000637E03F10203C37043F2EC73C0F20003D8
:1012C000186801F0DDF84FF0000038BD4A88838BC4
:1012D000D31883834FF0000038BD41F20133C0F2D0
:1012E000000303604FF0020038BD41F25513C0F215
:1012F000000303604FF0030038BD4FF0000038BD1D
:1013000010B504460B78012B02D0042B3FD103E02B
:101310004FF00000A07610BD837E0E2B1FD803F186
:10132000010383764FF005004FF0140101F076F9C8
:101330000146A37E4FEA930303F106030371237E64
:101340008370637E03F1FF33C37043F65803C0F22A
:101350000003186801F094F84FF0000010BD4FF042
:1013600004004FF0070101F059F90146A38B4380B7
:1013700043F65803C0F20003186801F081F841F207
:101380009113C0F2000323604FF0020010BD41F240
:101390005513C0F2000303604FF0030010BD00BFFF
:1013A00040F28013C2F2000341F2B512C0F2000213
:1013B0001A604FF00A021A764FF008025A76704708
:1013C0000B78032B02D0052B10D107E041F6F54333
:1013D000C0F2000303604FF00200704741F2357322
:1013E000C0F2000303604FF00200704741F2B143C6
:1013F000C0F2000303604FF00300704740F2A013F7
:10140000C2F20003186840F6CD52C0F2010202FB9E
:1014100000F018604FEA1020704700BF2DE9F0413E
:101420000D4616461C46092907D943F2F470C0F24E
:10143000000040F2CB21FEF77BFF2F4643F2F4730E
:10144000C0F2000303EBC5031D7CC6F160039D429F
:10145000C4BF1D46EDB235B3144B9E194FF00003C7
:1014600043F2F472C0F2000202EBC707C4F10008B5
:101470005FFA88F85FFA84FC002CFA68D15CACBF94
:1014800001FA0CF141FA08F132780A4306F8012B0F
:1014900096F85F0040EA112186F85F1003F101031E
:1014A000DAB29542E8D8BDE8F08100BFA40100207F
:1014B00038B505460C460B78062B19D0162B1FD1D4
:1014C0008B78042B04D803F1100350F823303BB978
:1014D00043F2F470C0F200004FF0A901FEF728FFBC
:1014E000A37803F110034FF0000045F8230038BD46
:1014F00041F63503C0F2000303604FF0020038BD2F
:1015000042F6E973C0F2000303604FF0030038BDF8
:10151000F8B5074600F1500400F164054FF00006ED
:1015200054F8040F314601F0CFFB6069314601F0F9
:10153000CBFBAC42F4D140F2A013C2F2000340F264
:10154000D2421A6038464FF0040100F0E1FF3846FD
:101550004FF0050100F0DCFF38464FF0060100F0C7
:10156000D7FF41F23573C0F200033B604FF0020039
:10157000F8BD00BF70B504460B78022B36D00B2B9C
:101580004AD0012B50D1FFF739FF05462A4E30468D
:101590004FF000014FF0C00201F01AFF40F67D430A
:1015A000CCF2CE73A3FB05234FEA531303EB830264
:1015B00003EBC202AA1A20464FF00001D2B205F096
:1015C0000703FFF72BFF30464FF060014FF010028A
:1015D000FEF726FE4FF00005E58704F12C002146BA
:1015E0004FF00A0201F0ECF9284670BD00F12C0022
:1015F00001F014FA104C20464FF000014FF0C002E9
:1016000001F0E6FE20464FF060014FF01002FEF7B9
:1016100007FE4FF0000070BD41F6F543C0F2000335
:1016200003604FF0020070BD41F2C133C0F200030D
:1016300003604FF0030070BDA401002070B50446A4
:10164000FFF7DCFEC0B22F2806D894F87F301BB11C
:1016500003F1FF3384F87F30D02806D994F8803026
:101660001BB103F1FF3384F88030FFF7C7FEC0B22F
:101670002F2818D894F87F30C3F1100194F88020F7
:10168000891A94F8812091420DDD94F87D205A2A20
:1016900005D994F87E1003F10102914203DD03F1B4
:1016A000010384F87F30D0281AD994F8803094F858
:1016B0007F10C1F11001C91A94F8812091420FDD09
:1016C00094F87D205A2A07D994F87E1001F101017F
:1016D000C3F11002914203DA03F1010384F8803070
:1016E00040F2A015C2F2000505F1C406304605F12E
:1016F000C5014FF0BF0201F01BFE94F88010C1F14C
:1017000010014FF0FF3202FA01F194F87F3002FA33
:1017100003F361EA030385F823314FEA132385F8C5
:10172000833105F1040031464FF0C00201F066FC40
:1017300070BD00BF38B504460B7803F1FF330A2BA8
:101740006BD8DFE803F0062E6A4A626A6A6A6A3971
:1017500042004FF0000580F87D5080F87E5080F800
:101760007F5080F880504FF00D0380F881302F4873
:1017700029464FF0C00201F02BFE4FF00F026285A8
:1017800004F11800214601F01BF9E58704F12C0053
:1017900021464FF4167201F013F984F87C50284664
:1017A00038BD00F1180001F039F904F12C0001F006
:1017B00035F94FF0000038BD90F87C3083F001031C
:1017C00080F87C304FF0000038BD41F2C133C0F2E8
:1017D000000303604FF0020038BDFFF72FFF94F8BD
:1017E0007C3043B120464FF000014FF014024FF01F
:1017F0000403FFF713FE0E484FF060014FF0100294
:10180000FEF70EFD4FF0000038BD41F66913C0F23F
:10181000000303604FF0020038BD41F2B143C0F253
:10182000000303604FF0030038BD00BF64020020D6
:10183000A401002010B50B78012B13D10D4C2046CC
:101840004FF000014FF0C00201F0C2FD20464FF002
:1018500060014FF01002FEF7E3FC01F009F94FF0D0
:10186000000010BD42F6E973C0F2000303604FF0C0
:10187000030010BDA401002070B504460B7803F1ED
:10188000FF330A2B58D8DFE803F00626575757577F
:10189000575757354F004FF00F02428500F118009F
:1018A000214601F08DF84FF000052E46E58704F142
:1018B0002C0021464FF0960201F082F884F87C500B
:1018C0004FF01500294643F6AC32C0F20002FEF795
:1018D000B5FC284670BD00F1180001F09FF804F136
:1018E0002C0001F09BF84FF00000FEF7B1FC4FF028
:1018F000000070BD90F87C5085F0010580F87C50A8
:1019000043F6B832C0F2000243F6AC33C0F2000333
:101910004FF015004FF000018D4208BF1A46FEF748
:101920008DFC4FF0000070BD41F23573C0F2000332
:1019300003604FF0020070BD41F2B143C0F20003FA
:1019400003604FF0030070BD70B50E4600F13C041B
:1019500000F1500554F8040F10B1314601F012FAAD
:10196000AC42F7D170BD00BF2DE9F04383B005460E
:101970000C460B7803F1FF33172B00F2B181DFE83F
:1019800013F018002E00AF013A00AF01AF013E0185
:10199000AF01AF01AF01AF01AF01AF01AF01AA00CD
:1019A000AA002101AF01AF012101AF01AF01AF01D9
:1019B0002B014FF00D0385F88130C5484FF0000131
:1019C0004FF0C00201F004FD43F2F073C0F20003D7
:1019D0001868C04900F054FD4FF0000087E102A9EB
:1019E0004FF0170301F8083D28466946FFF7ACFFA2
:1019F0004FF000007BE1B8484FF060014FF010025B
:101A0000FEF70EFC2846FFF719FEFFF7F7FCC0B201
:101A100095F87D301BB103F1FF3385F87D3095F8E3
:101A20007D2002F10A0207288CBF002301235F2AD0
:101A3000CCBF002303F00103002B45D02B6C63B116
:101A400005F140034FF0010653F8042F3AB106F1B7
:101A50000106F6B2052EF7D136E04FF00006FFF78B
:101A6000CDFC87B210F0010F06F1100307BF05EBA4
:101A70008602526D06F11A0255F8222045F82320FD
:101A80004FF0600285F87D2095F87F0000F1020399
:101A900095F88010C1F10C01091AB7FBF1F001FBB8
:101AA00010715B18DBB285F87E304FF015018DF8B0
:101AB00000108DF802208DF8033006F1100655F85D
:101AC0002600694601F05EF928462146FFF73CFFF3
:101AD0004FF000000BE18E7891F803800F79092F09
:101AE00007D943F2F470C0F2000040F2E521FEF79E
:101AF0001FFC43F2F473C0F2000303EBC70393F837
:101B000010C0C6F160039C45C4BF9C465FFA8CFCC4
:101B1000BCF1000F48D043F2F473C0F2000303EBB2
:101B2000C703D8685FFA88F9027802FA09F240F22E
:101B3000A013C2F200039B1993F8C4301A4224D1B7
:101B400040F2A013C2F200039B1993F8243113EA68
:101B500012231AD15E4B9B194FF000020FE010F8D0
:101B6000011F01FA09F193F801E003F101031EEAF4
:101B7000010F0AD193F860E01EEA112E05D102F19F
:101B80000102D2B26245EAD30EE023780F2B07BFE1
:101B900043F2F073C0F2000343F2EC73C0F20003AF
:101BA00018684E4900F06CFC2846394632464FFA18
:101BB00088F3FFF733FC28462146FFF7C5FE4FF0B8
:101BC000000094E028460979A27894F90330FFF7E1
:101BD00025FC4FF000008AE04888FEF739FB628858
:101BE00044F6D353C1F26203A3FB02134FEAD313AB
:101BF000C3F10D0385F881304FF0000077E04C8889
:101C00002046FEF725FB344E30464FF000014FF0E2
:101C1000C00201F0DDFB30464FF060014FF01002D2
:101C2000FEF7FEFA4FF012004FF0010143F6C43206
:101C3000C0F20002FEF702FB4FF000038DF8043003
:101C40004CF6CD43CCF6CC43A3FB04024FEAD202C0
:101C500002EB8201A4EB410404F130048DF803404F
:101C600091B2A3FB01024FEAD20202EB8200A1EB88
:101C7000400101F130018DF8021091B2A3FB010285
:101C80004FEAD20202EB8200A1EB400101F13001E8
:101C90008DF8011092B2A3FB02134FEAD30303EBBA
:101CA0008303A2EB430202F1300302AA02F8083DCB
:101CB0004FF036004FF001016A46FEF7BFFA41F6D9
:101CC0007903C0F200032B604FF002000FE000BF69
:101CD0006402002050380000A401002054380000A5
:101CE00041F2B143C0F200032B604FF0030003B098
:101CF000BDE8F08338B504460B78022B11D00B2BCE
:101D000018D0012B1ED1FEF7A9FA4FF00005E58788
:101D100004F12C0021464FF05A0200F051FE2846F3
:101D200038BD00F12C0000F079FEFEF793FA4FF079
:101D3000000038BD41F27553C0F2000303604FF05C
:101D4000020038BD41F2C133C0F2000303604FF01E
:101D5000030038BD70B540F2A015C2F2000541F293
:101D60001153C0F20003C5F8843105F5CE704FF071
:101D70000A0100F00DFE05F5D8704FF00B0100F0E0
:101D800007FE05F5EA754FF0000426462046FEF7EB
:101D9000C3FF45F8040F2046FFF7FCF8686145F8DB
:101DA000146C04F10104E4B2052CEFD140F2A0134D
:101DB000C2F200034FF0000283F8012283F80222EE
:101DC00070BD00BF2DE9F84307460D4690461E46FC
:101DD0009DF820409DF82490092B8CBF00230123FF
:101DE00009288CBF002303F001033BB943F2F470D0
:101DF000C0F2000040F20331FEF79AFAA54247D83C
:101E000043F2F473C0F2000303EBC6031B7CEA1831
:101E1000A24240F38580101BC0B243F2F472C0F2BC
:101E2000000202EBC702127C904228BF1046002835
:101E30007AD043F2F473C0F2000303EBC606F168F4
:101E4000641BE4B24E4603EBC707FA6847460B5DD6
:101E500003FA09F9137803FA08F819EA080F04BF1E
:101E60000C1900230BD063E0657804F1010412F82B
:101E7000011F05FA06F501FA07F10D425CD103F1E5
:101E80000103DBB28342EFD34FF00000BDE8F883DB
:101E900043F2F473C0F2000303EBC7031B7CE218A8
:101EA000AA424DDD581B2018C0B243F2F472C0F2B2
:101EB000000202EBC602127C904228BF10460028A6
:101EC00042D043F2F473C0F2000303EBC707F96892
:101ED0002C1BE4B2474603EBC606F2684E460B5D88
:101EE00003FA08F8137803FA09F918EA090F04BF8E
:101EF0000C1900230BD02BE0617804F1010412F8D7
:101F0000015F05FA06F501FA07F10D4224D103F14C
:101F10000103DBB29842EFD84FF00000BDE8F88330
:101F20004FF00000BDE8F8834FF00000BDE8F883F3
:101F30004FF00100BDE8F8834FF00100BDE8F883E1
:101F40004FF00000BDE8F8834FF00000BDE8F883D3
:101F50004FF00100BDE8F8834FF00100BDE8F883C1
:101F6000684620F007018D4601B543F6CC30C0F23B
:101F7000000040F20711FEF783FAFEE7684620F002
:101F800007018D4601B540F20002C2F2000240F2A4
:101F90000003C2F200039A4211D243F6E432C0F2C7
:101FA000000240F20003C2F2000340F20000C2F25D
:101FB000000052F8041B43F8041B8342F9D340F29B
:101FC0000002C2F2000240F20C53C2F200039A4235
:101FD0000AD213464FF0000140F20C52C2F2000246
:101FE00043F8041B9342FBD301F07EF9FEF712FD88
:101FF00043F6CC30C0F200004FF48171FEF740FA96
:10200000BDE8014085467047704700BFEFF3098087
:10201000704700BF80F30988704700BFEFF3088066
:10202000704700BF80F30888704700BFEFF312804D
:10203000704700BF80F31188704700BFEFF3108036
:10204000704700BF80F31088704700BFEFF3138024
:10205000704700BF80F31388704700BF00BA704715
:1020600040BA7047C0BA704790FAA0F0704700BFFE
:10207000D0E84F0FC0B27047D0E85F0F80B2704712
:1020800050E8000F704700BFC1E8400F704700BF25
:10209000C1E8500F704700BF41E80000704700BF23
:1020A000EFF31480704700BF80F31488704700BFBF
:1020B00030B482B04FF46043C4F20F0342F6100212
:1020C000C0F280721A6743F6D122C0F28E721A668D
:1020D00042F6C222C0F28E421A6642F61002C0F2E6
:1020E00080021A674FF000030193019BB3F57A7FDA
:1020F00009D240F2E73200BF019B03F101030193D3
:10210000019B9342F7D94FF46043C4F20F0340F6AA
:10211000C222C0F28E421A6642F61002C0F280025B
:102120001A674FF000030193019BB3F57A7F09D240
:1021300040F2E73200BF019B03F101030193019BD1
:102140009342F7D94FF46043C4F20F0340F6C22222
:10215000C0F2CE421A661B6D13F0400F08D14FF447
:102160006042C4F20F0200BF136D13F0400FFAD0AB
:102170004FF46043C4F20F0340F2C222C0F2CE42D9
:102180001A6642F61002C0F280021A674FF000038E
:102190000193019BB3F57A7F09D240F2E73200BF89
:1021A000019B03F101030193019B9342F7D94FF483
:1021B0006043C4F20F03196E1A6F002AB4BF02F015
:1021C000700301F03003202B00F0858004D883B128
:1021D000102B40F0528115E0602B00F0E580702B51
:1021E00000F0DF80302B08BF47F2305340F04581CC
:1021F000DCE043F6CC03C0F20003C1F3841053F8D3
:102200002030D3E04FF46043C4F20F031B6813F097
:10221000E04F04BF4EF2C013C0F2E40300F0C680EA
:102220004FF46043C4F20F0318684FF00003C7F285
:10223000FF0300EA0303B3F1805F04BF4EF2C01353
:10224000C0F2E40300F0B2804FF46043C4F20F0325
:1022500018684FF00003C7F2FF0300EA03034FF0D2
:102260000000C1F2010083420DD14FF46043C4F27B
:102270000F031B689BB2022B04BF4FF4D853C0F26C
:10228000B70300F093804FF46043C4F20F03186863
:102290004FF00003C7F2FF0300EA03034FF0000012
:1022A000C1F2030083421CBF4FF41053C0F2F40389
:1022B0007CD14FF46043C4F20F031C68A4B24FF406
:1022C000D853C0F2B7034FF41050C0F2F400002C02
:1022D00018BF03466AE04FF46043C4F20F031B6863
:1022E00013F0E04F04BF43F67003C0F239035DD032
:1022F0004FF46043C4F20F0318684FF00003C7F2B5
:10230000FF0300EA0303B3F1805F04BF43F67003E9
:10231000C0F239034AD04FF46043C4F20F03186887
:102320004FF00003C7F2FF0300EA03034FF0000081
:10233000C1F2010083420CD14FF46043C4F20F0399
:102340001B689BB2022B04BF4CF2C063C0F22D038A
:102350002CD04FF46043C4F20F0318684FF0000311
:10236000C7F2FF0300EA03034FF00000C1F20300CD
:1023700083421CBF4FF41063C0F23D0316D14FF4EB
:102380006043C4F20F031C68A4B24CF2C063C0F2F5
:102390002D034FF41060C0F23D00002C18BF03461F
:1023A00004E04FF4004301E04FF48003002A03DA15
:1023B00012F4006F03D03AE011F4006F37D14FF4FC
:1023C0006044C4F20F04606E246814F0E04F0DD036
:1023D0004FF46044C4F20F0425684FF00004C7F2C4
:1023E000FF0405EA0404B4F1805F0CD1C0F3481483
:1023F00004F1020404FB03F300F01F0404F10204DF
:10240000B3FBF4F30BE0C0F3481404FB03F300F058
:102410001F0404F101044FEA4404B3FBF4F310F485
:10242000804F18BF5B0810F4004F18BF9B0811F4D1
:10243000800F1DD0002A15DA12F0804F0BD012F455
:10244000006F08D14FEA4303C2F3865202F1010242
:10245000B3FBF2F30CE0C2F3C55202F10102B3FB8D
:10246000F2F305E0C1F3C35101F10101B3FBF1F354
:1024700040F2A832C2F20002136002B030BC7047D2
:1024800038B504460D4672B64B7813B103F101031B
:102490004B706368DBB9656040F20053C2F2000321
:1024A0001D78217D43F6EC12C0F20002505C43F629
:1024B0006412C0F200021418647845EA04041C7027
:1024C0001B185878525C40EA02025A701EE0E37B07
:1024D0003BB943F62810C0F200004FF04501FDF76C
:1024E00027FF627BA36843F82250637B0BB9237BF1
:1024F0006373637B03F1FF336373E37B03F1FF33A8
:10250000DBB2E373227C9A4288BF237462B638BD83
:1025100070B50D46047D43F6EC13C0F200031E5D5A
:10252000032917D940F2F443C2F200031A78231E9C
:1025300018BF01238A4294BF002303F001034BB16B
:102540003F2C07D840F2AC33C2F2000353F82430DA
:10255000834207D043F63010C0F200004FF0300144
:10256000FDF7E6FE72B640F2F043C2F200031B68CC
:1025700003EBC50543F66413C0F20003AA5D1B5DBF
:1025800042EA0303AB5562B670BD00BF43F6381094
:10259000C0F20000704700BF38B50546047D04F165
:1025A000FF33DBB23E2B06D840F2AC33C2F200035D
:1025B00053F8243023B107484FF04001FDF7B8FE2F
:1025C00072B640F2AC33C2F2000343F8245062B654
:1025D00038BD00BF4039000010B5047D04F1FF3361
:1025E000DBB23E2B07D840F2AC33C2F2000353F803
:1025F0002430834204D008484FF05401FDF798FE80
:1026000072B640F2AC33C2F200034FF0000243F85E
:10261000242062B610BD00BF403900002DE9F84308
:10262000074689464FF0000440F2B445C2F2000567
:1026300040F2B046C2F2000643F64818C0F2000865
:102640000AE004F10104E4B23378A34204D840461E
:102650004FF03001FDF76CFE04EB840305EB8303C0
:102660009B89BB42EDD304EB840040F2B443C2F239
:10267000000303EB800000F0F7F8054638B943F695
:102680004810C0F200004FF03A01FDF751FE85F806
:10269000009004F101044FEA84146C702846BDE8F0
:1026A000F88300BFF8B506460F46154640F2B04322
:1026B000C2F200031B78022B07D943F65010C0F278
:1026C00000004FF02E01FDF733FE40F2B043C2F29E
:1026D00000031B78A3B140F2B042C2F2000203F142
:1026E000FF3303EB830302EB8302138AAB4207D36E
:1026F00043F65010C0F200004FF03101FDF718FE14
:1027000040F2B044C2F2000404F10402237803EB67
:10271000830302EB830031463A462B4600F0D6F89D
:10272000237803F101032370F8BD00BF40F2F043AA
:10273000C2F2000318601971704700BF2DE9F04F15
:1027400083B0074640F2F443C2F2000302781B78DC
:102750009A4207D343F65810C0F200004FF02C0104
:10276000FDF7E6FD72B67B7813B103F101037B70D0
:1027700062B64FF0080B40F2F041C2F20001019145
:1027800043F67C29C0F2000943F6A81AC0F2000AF9
:1027900040F2AC36C2F200060BF1FF3B5FFA8BFB56
:1027A0003A7801990B6803EBC20313F80B40E4B1CC
:1027B0004FEACB085FFA88F819F804501AF8053088
:1027C0001C404544EDB256F825303BB943F658104D
:1027D000C0F200004FF05501FDF7AAFD56F82500A4
:1027E0003946FFF74DFE002CE6D1BBF1000FD3D1E7
:1027F000384600F019FA03B0BDE8F08FF8B572B6AC
:1028000040F2FC43C2F200031C68002C2AD01E4692
:102810004FF0000540F2F847C2F20007238A03F1A7
:10282000FF339BB22382BBB9638A0BB123820DE0D5
:1028300033689C4202D1A368336006E0A3680BB101
:1028400062685A606368A2689A60656062B6E06810
:102850002146FFF715FE01E062B63D7072B6A4682E
:10286000002CDBD162B6F8BD034672B6006850B1E9
:1028700002681A601A8A02F1FF3292B21A82598AE9
:10288000914288BF5A8262B6704700BF10B50446B5
:1028900030B140F2B043C2F200031B78834207D24A
:1028A00043F63020C0F200004FF04501FDF740FD37
:1028B00072B662B640F2B443C2F2000304F1FF34D0
:1028C00004EB840403EB8403588A10BD2DE9F04126
:1028D000044617461E468846032A94BF0023012358
:1028E00000290CBF002303F0010323B106F1040308
:1028F0009BB29E4207D343F63820C0F200004FF04F
:102900003601FDF715FDC4F800804FF00403A381E4
:10291000042E9CBF042301250BD94FF004034FF074
:10292000010503F104039BB205F101059E42F8D8AD
:10293000A3811E469F4207D243F63820C0F2000012
:102940004FF04401FDF7F4FCBF1B4FF00103E3819E
:102950002268BE4288BF13460FD84FEA8505C6F1EC
:102960000001BF1B00E01A4653191360E28902F10F
:102970000102E2817F18F742F5D34FF000021A609E
:10298000E28922826282C4F80480A360BDE8F081FB
:1029900038B504460D46032907D843F64420C0F253
:1029A00000004FF02901FDF7C3FC4FF00003636006
:1029B000A360E360238263822570637038BD00BF2B
:1029C00070B504460D46164662B10378032B09D94B
:1029D00042680B1E18BF0123002A14BF002303F016
:1029E00001033BB943F65020C0F200004FF0300124
:1029F000FDF79EFC26826460E56072B640F2FC43FF
:102A0000C2F200031B68A36003B15C6040F2FC43A8
:102A1000C2F200031C6062B670BD00BF72B64268AD
:102A2000CAB140F2FC43C2F200031B68984206D1CF
:102A300040F2FC43C2F2000382681A6005E083683A
:102A400003B15A60436882689A604FF000034360A4
:102A50004FF0010001E04FF0000062B6704700BF88
:102A600043F65820C0F20000704700BF704700BF17
:102A700008B5FDF74DFC08BD2DE9F041FDF7F2FB6F
:102A800040F20054C2F2000440F2AC37C2F2000738
:102A900043F67C28C0F2000872B623780BB3237883
:102AA00073B1237818F8033003F1FF33DBB2E21877
:102AB000527818F8022002EBC30303F0FF0301E091
:102AC0004FF0000357F8235062B6284600F03AF85A
:102AD00006462846314600F055F9304600F0A4F885
:102AE000DAE7FDF717FCD7E7F8B504460D461646BA
:102AF0001F4601F1FF32D2B2069BD3F1010338BF6A
:102B000000233E2A8CBF002303F0010323B90A48A7
:102B10004FF06701FDF70CFC04F104003146FAB2F6
:102B200000F078F825752046FFF736FD2046089915
:102B300000F0CAF8F8BD00BF603A000008B5FFF722
:102B40004BFD08BD38B5044672B643683BB943F641
:102B50006C20C0F200004FF03001FDF7E9FB606827
:102B6000E37B227B93420ED0A17BA56855F82150D0
:102B7000656001B9A273A27B02F1FF32A27303F177
:102B80000103E37326E04FF000036360217D43F609
:102B9000EC13C0F200035C5C40F20053C2F200038D
:102BA0001B195D7843F6A812C0F20002525C05EAD8
:102BB00002025A705B786BB940F20053C2F2000314
:102BC000197843F6A812C0F200021419627801EADB
:102BD00002021A7062B638BD10B504463F2806D806
:102BE00040F2AC33C2F2000353F820303BB943F655
:102BF0006C20C0F200004FF05A01FDF799FB72B64D
:102C000062B640F2AC33C2F2000353F82430187CB1
:102C100010BD00BF4FF000030360416002724372B9
:102C20008372C2720273704738B5044645784DB35B
:102C300072B605F03F03012B04DD05F1FF35457049
:102C400062B638BD4FEA951505F1FF35EDB262B6B3
:102C500040F2B043C2F200031B78AB4207D843F600
:102C60007420C0F200004FF04901FDF761FB05EB55
:102C7000850540F2B443C2F2000303EB8500214610
:102C800000F002F838BD00BF38B504460D46436871
:102C90008B4206D88368994203D8028AC3899A4234
:102CA00007D943F67C30C0F200004FF02D01FDF74C
:102CB0003FFB72B623682B602560238A03F1010372
:102CC000238262B638BD00BF2DE9F04186B00546CB
:102CD00003689847022807D043F68430C0F200000A
:102CE0004FF02D01FDF724FB42F6E976C0F2000615
:102CF00043F6A437C0F2000707F102082C680094DD
:102D000028463946A0472B68B34202BF2C602646AE
:102D100000241DD04FF0000404F10104E4B262B2BB
:102D200006A901EB820242F8183C2846394698472A
:102D30002B68B342F0D1009E2E6063B2052B07DDF5
:102D400043F68430C0F200004FF04401FDF7F0FA82
:102D500063B206AA02EB830353F8183C28464146A7
:102D6000984704F1FF34E4B214F0800FF0D0284605
:102D70000349B0470228C1D02E6006B0BDE8F081FB
:102D8000AA3B00002DE9F04786B005460C460668D0
:102D90002F6828462146B8470328F9D0022840F07A
:102DA0001681D5F80090CDF800900196BE420ED065
:102DB0008A4C43F6A438C0F2000828462146B047A2
:102DC00010B928464146B0472E68B742F5D14F4565
:102DD00008D128468149B847FDE014F0800F00F083
:102DE0009A80A8E0284643F6A431C0F20001C84703
:102DF0002C68A74200F0EF80284643F6A431C0F2C9
:102E00000001B847D5F80080A04503D12846734992
:102E1000B847E0E0C14503D128467049B8478AE089
:102E20000194284643F6A431C0F20001A0470328CC
:102E300002BF012443F6A439C0F2000901D02AE000
:102E4000344604F10106F6B22B6872B206A901EB12
:102E5000820242F8183C9F420BD176B2052EBCDDAF
:102E600043F69030C0F200004FF07A01FDF760FAAF
:102E7000B3E72846494698470328E1D0344676B25E
:102E8000052E0ADD43F69030C0F200004FF08501B8
:102E9000FDF74EFA01E04FF0010428464F49B847CC
:102EA00023465AB206A901EB820252F8182C90452B
:102EB00003D103F1FF33DCB28FE703F1FF33DBB261
:102EC00013F0800FEDD04FF0010A444E43F6A439C1
:102ED000C0F20009274628463146C04710B92846A7
:102EE0004946C047D5F800803B465AB206A901EBD7
:102EF000820252F8182C424503D103F1FF33DCB2B1
:102F00006BE703F1FF33DBB213F0800FEDD0BAF1C2
:102F1000000FE0D161E7324E63B206AA02EB8303F1
:102F200053F8183C28463146984704F1FF34E4B280
:102F300014F0800FF0D0009E2E60DFF8A890A9F169
:102F400004083FE02C680094284643F6A431C0F200
:102F50000001A0472B68B34202BF2C602646002424
:102F600021D04FF0000443F6A437C0F2000704F16B
:102F70000104E4B262B206A901EB820242F8183CF5
:102F80002846394698472B68B342F0D1009E2E6000
:102F900063B2052B07DD43F69030C0F200004FF01E
:102FA000D901FDF7C5F963B206AA02EB830353F812
:102FB000183C28464146984704F1FF34E4B214F027
:102FC000800FF0D028464946B0470228BAD02E607C
:102FD00006B0BDE8F0874FF000049CE7A83B000076
:102FE000A63B0000AA3B00004FF00100704700BF65
:102FF00043F69C30C0F20000704700BF2DE911403D
:1030000087B090F800F091F800F091F820F0042AD1
:10301000C0F05781C1F1000313F0030311D05FEA40
:10302000C37CA2EB030244BF11F8013B00F8013B53
:1030300021BF11F8014B11F801CB00F8014B00F84A
:1030400001CB80EA010C1CF0030F50D18DE8E00F9A
:10305000C0F1000313F01C0316D0934288BF02F0A6
:103060001C035FEA037C24BFF0C9F0C044BFB1E891
:103070000003A0E8000313F0040F1CBF51F804ABD9
:1030800040F804ABA2EB0302203A0DD321F01F0C51
:103090000CF1400CB1E8F00F9CF840F0203AA0E8A9
:1030A000F00FF7D202F1200212F01F0F1AD05FEAE0
:1030B000027C24BFF0C9F0C044BFB1E80003A0E81F
:1030C00000035FEA827C24BF51F8043B40F8043BD4
:1030D00044BF31F8024B20F8024B12F0010F1CBF25
:1030E0000B780370BDE8E00FBDE811407047042A7B
:1030F000C0F0E7808DE8E00FC0F1000505F00305A2
:103100004FEAC50CCCF1200E51F8043BA2F10402A9
:10311000ED0744BF00F8013B1B0A21BF00F8013B4B
:103120001B0A00F8013B1B0A042AC0F0BC8010F007
:103130001C0F0FD051F8045BA2F1040205FA0EF443
:1031400043EA040425FA0CF340F8044B042AEED2B7
:10315000C0F0A980203AC0F09280BCF1180F60D076
:10316000BCF1080F2ED051F804CB6446B1E8E00F53
:1031700091F840F0203A28BF51F804CB43EA0443C9
:103180004FEA144444EA05444FEA154545EA06452A
:103190004FEA164646EA07464FEA174747EA084706
:1031A0004FEA184848EA09484FEA194949EA0A49E2
:1031B0004FEA1A4A4AEA0B4AA0E8F8074FEA1B43CB
:1031C000D3D25CE051F804CB6446B1E8E00F91F84B
:1031D00040F0203A28BF51F804CB43EA04634FEA99
:1031E000142444EA05644FEA152545EA06654FEACA
:1031F000162646EA07664FEA172747EA08674FEAA6
:10320000182848EA09684FEA192949EA0A694FEA81
:103210001A2A4AEA0B6AA0E8F8074FEA1B23D3D21E
:103220002DE051F804CB6446B1E8E00F91F840F08E
:10323000203A28BF51F804CB43EA04234FEA146430
:1032400044EA05244FEA156545EA06254FEA166665
:1032500046EA07264FEA176747EA08274FEA186841
:1032600048EA09284FEA196949EA0A294FEA1A6A1D
:103270004AEA0B2AA0E8F8074FEA1B63D3D2CEF143
:10328000200C02F12002042A0DD351F8045BA2F1B4
:10329000040205FA0EF443EA040425FA0CF340F89C
:1032A000044B042AF1D25FEA0E7544BF00F8013BDB
:1032B0001B0A22BF00F8013B1B0A00F8013B9DE8F6
:1032C000E00FD20744BF11F8012B00F8012B21BFFA
:1032D00011F8013B91F800C000F8013B80F800C0F4
:1032E00007B0BDE81140704770B500240C4D0D4E7D
:1032F000761BB61003E055F8043B01349847B442FE
:10330000F9D3094DFEF780FE084E0024761BB61057
:1033100003E055F8043B01349847B442F9D370BD3B
:10332000E43B0000E43B0000E43B0000E43B000021
:103330008842F0B405460E460DD98B1898420AD241
:103340003AB11946831811F8014D013A03F8014DBD
:10335000F9D1F0BC70470F2A31D941EA000313F0CC
:10336000030F2ED10C46034615462668103D1E60FD
:1033700066685E60A6689E60E6681034DE601033A2
:103380000F2DF2D8103A22F00F0602F00F0210367D
:10339000032A00EB06050E4411D937462C46134686
:1033A00057F8041B043B032B44F8041BF8D8043AD9
:1033B00022F0030302F003020433ED18F618002A8A
:1033C000C7D00023F45CEC5401339342FAD1C0E738
:1033D000032AC9B2F0B408D82AB10346121803F878
:1033E000011B9342FBD1F0BC70478218044601E0F8
:1033F00004F8011B14F0030FFAD1151B4FF001362E
:10340000072D06FB01F603DD0AE044F8046B151BEB
:10341000032DFADC01E004F8011BA242FBD8E2E72D
:1034200014F0070F02D044F8046BF9E74FF00133B2
:1034300003FB01F3171B254680347F2F40DD44F842
:10344000803C44F87C3C44F8783C44F8743C44F8B4
:10345000703C44F86C3C44F8683C44F8643C44F8E4
:10346000603C44F85C3C44F8583C44F8543C44F814
:10347000503C44F84C3C44F8483C44F8443C44F844
:10348000403C44F83C3C44F8383C44F8343C44F874
:10349000303C44F82C3C44F8283C44F8243C44F8A4
:1034A000203C44F81C3C44F8183C44F8143C44F8D4
:1034B000103C44F80C3C44F8083C44F8043CB9E7A0
:1034C000571B2C4620351F2F10DD45F8203C45F8B2
:1034D0001C3C45F8183C45F8143C45F8103C45F8B0
:1034E0000C3C45F8083C45F8043CE9E7151B072D62
:1034F0008EDD236063600834F8E700BF040000003D
:103500006273702E6300000005000000B08004802C
:1035100010400000B080048012400000B1800480A0
:1035200010400000B1800480124000000000000044
:103530000000004F00000007000700147F147F14F4
:10354000242A7F2A12231308646236495522500028
:1035500005030000001C2241000041221C00140849
:103560003E081408083E080800503000000808080B
:103570000808006060000020100804023E51494520
:103580003E00427F400042615149462141454B3156
:103590001814127F1027454545393C4A49493001E6
:1035A000710905033649494936064949291E00363D
:1035B000360000005636000008142241001414148E
:1035C00014140041221408020151090632497941BC
:1035D0003E7E1111117E7F494949363E41414122CB
:1035E0007F4141221C7F494949417F090909013E28
:1035F0004149497A7F0808087F00417F4100204007
:10360000413F017F081422417F404040407F020C2F
:10361000027F7F0408107F3E4141413E7F09090936
:10362000063E4151215E7F091929464649494931E3
:1036300001017F01013F4040403F1F2040201F3FCC
:103640004038403F6314081463070870080761514D
:10365000494543007F4141000204081020004141D8
:103660007F00040201020440404040400001020487
:103670000020545454787F4844443838444444200B
:10368000384444487F3854545418087E0901020CC9
:103690005252523E7F0804047800447D400020408E
:1036A000443D007F1028440000417F40007C041806
:1036B00004787C0804047838444444387C14141496
:1036C00008081414187C7C08040408485454542036
:1036D000043F4440203C4040207C1C2040201C3CB7
:1036E0004030403C44281028440C5050503C446426
:1036F000544C44000836410000007F000000413671
:1037000008000201020402000480AE80E30680ADDE
:10371000808A80E30680A8801F80E30480C880E35D
:103720000480A080E30480D880E304800580E30463
:10373000804080E3068081805D80E30680D980112F
:1037400080E30680D5800180E30680D3800080E39B
:103750000480AF80E30000000480AE80E3048004B6
:1037600080E304801280E3068081802B80E3048064
:10377000A180E304804080E30680D3800080E306DC
:1037800080A8800F80E30480A480E30480A680E307
:103790000480B080E30480C880E30680D580728016
:1037A000E30680D8800080E30680D9802280E3068B
:1037B00080DA801280E30680DB800F80E30680AD34
:1037C000808B80E30480AF80E30000000E000100E6
:1037D000130019006D696E65312E63000E00020042
:1037E00013002D006D696E65322E630064010020A8
:1037F0008001002074756E6E656C2E630000000001
:103800005C3800003700000094380000050000001C
:103810009C38000003000000A038000003000000F6
:10382000A438000004000000A838000004000000D4
:10383000AC38000007000000B438000007000000AA
:10384000BC38000007000000C4380000070000007A
:103850000C0000000D000000240300207F09090671
:10386000007C080404003854545800485454240080
:1038700048545424000000007F494936003C404031
:103880007C00043F4400043F440038444438007C3A
:10389000040478000706060404000000010101008A
:1038A00002070200090606090006060000000814C7
:1038B0000800000000001408140000000022140892
:1038C00014220000492A146B142A490040420F00B8
:1038D00000201C0080841E0000802500999E360078
:1038E0000040380000093D0000803E0000004B0011
:1038F000404B4C0000204E00808D5B0000C05D00FE
:103900000080700000127A0000007D008096980010
:10391000001BB7000080BB00C0E8CE00647ADA006C
:103920000024F4000000FA0071615F6669666F00B0
:1039300071615F7375620000342E312E30370000E4
:1039400071665F616374000071665F6E6577000089
:1039500071665F706F6F6C0071665F707370756217
:103960000000000000010204081020408001020451
:103970000810204080010204081020408001020449
:103980000810204080010204081020408001020439
:103990000810204080010204081020408001020429
:1039A0000810204080000000FFFEFDFBF7EFDFBFA6
:1039B0007FFEFDFBF7EFDFBF7FFEFDFBF7EFDFBF15
:1039C0007FFEFDFBF7EFDFBF7FFEFDFBF7EFDFBF05
:1039D0007FFEFDFBF7EFDFBF7FFEFDFBF7EFDFBFF5
:1039E0007FFEFDFBF7EFDFBF7F000000000000005F
:1039F00000000000000101010101010101020202B9
:103A00000202020202030303030303030304040488
:103A10000404040404050505050505050506060658
:103A20000606060606070707070707070700000040
:103A3000716D705F67657400716D705F696E697438
:103A4000000000007174655F63746F720000000015
:103A50007174655F61726D00342E312E3035000057
:103A60007176616E696C6C610000000071615F6766
:103A700065745F0071665F67630000000001020209
:103A800003030303040404040404040405050505F6
:103A900005050505050505050505050506060606D2
:103AA00006060606060606060606060606060606B6
:103AB00006060606060606060606060607070707A2
:103AC0000707070707070707070707070707070786
:103AD0000707070707070707070707070707070776
:103AE0000707070707070707070707070707070766
:103AF0000707070707070707070707070808080852
:103B00000808080808080808080808080808080835
:103B10000808080808080808080808080808080825
:103B20000808080808080808080808080808080815
:103B30000808080808080808080808080808080805
:103B400008080808080808080808080808080808F5
:103B500008080808080808080808080808080808E5
:103B600008080808080808080808080808080808D5
:103B7000080808080808080808080808716D705F38
:103B8000707574007168736D5F696E690000000084
:103B90007168736D5F64697300000000342E312E0C
:103BA00030370000000001000200030047616D652E
:103BB000204F766572000000202020202020202049
:103BC0002000000053636F72653A000073746172E5
:103BD0007475705F73746D3332663130785F636C07
:043BE00000000000E1
:0400000300001F7D5D
:00000001FF
